{
	"main.sol": {
		"CreditToken": {
			"abi": [
				{
					"inputs": [],
					"stateMutability": "nonpayable",
					"type": "constructor"
				},
				{
					"inputs": [
						{
							"internalType": "address",
							"name": "spender",
							"type": "address"
						},
						{
							"internalType": "uint256",
							"name": "allowance",
							"type": "uint256"
						},
						{
							"internalType": "uint256",
							"name": "needed",
							"type": "uint256"
						}
					],
					"name": "ERC20InsufficientAllowance",
					"type": "error"
				},
				{
					"inputs": [
						{
							"internalType": "address",
							"name": "sender",
							"type": "address"
						},
						{
							"internalType": "uint256",
							"name": "balance",
							"type": "uint256"
						},
						{
							"internalType": "uint256",
							"name": "needed",
							"type": "uint256"
						}
					],
					"name": "ERC20InsufficientBalance",
					"type": "error"
				},
				{
					"inputs": [
						{
							"internalType": "address",
							"name": "approver",
							"type": "address"
						}
					],
					"name": "ERC20InvalidApprover",
					"type": "error"
				},
				{
					"inputs": [
						{
							"internalType": "address",
							"name": "receiver",
							"type": "address"
						}
					],
					"name": "ERC20InvalidReceiver",
					"type": "error"
				},
				{
					"inputs": [
						{
							"internalType": "address",
							"name": "sender",
							"type": "address"
						}
					],
					"name": "ERC20InvalidSender",
					"type": "error"
				},
				{
					"inputs": [
						{
							"internalType": "address",
							"name": "spender",
							"type": "address"
						}
					],
					"name": "ERC20InvalidSpender",
					"type": "error"
				},
				{
					"inputs": [
						{
							"internalType": "address",
							"name": "owner",
							"type": "address"
						}
					],
					"name": "OwnableInvalidOwner",
					"type": "error"
				},
				{
					"inputs": [
						{
							"internalType": "address",
							"name": "account",
							"type": "address"
						}
					],
					"name": "OwnableUnauthorizedAccount",
					"type": "error"
				},
				{
					"inputs": [
						{
							"internalType": "address",
							"name": "token",
							"type": "address"
						}
					],
					"name": "SafeERC20FailedOperation",
					"type": "error"
				},
				{
					"anonymous": false,
					"inputs": [
						{
							"indexed": true,
							"internalType": "address",
							"name": "owner",
							"type": "address"
						},
						{
							"indexed": true,
							"internalType": "address",
							"name": "spender",
							"type": "address"
						},
						{
							"indexed": false,
							"internalType": "uint256",
							"name": "value",
							"type": "uint256"
						}
					],
					"name": "Approval",
					"type": "event"
				},
				{
					"anonymous": false,
					"inputs": [
						{
							"indexed": false,
							"internalType": "uint256",
							"name": "loanId",
							"type": "uint256"
						}
					],
					"name": "DefaultedLoan",
					"type": "event"
				},
				{
					"anonymous": false,
					"inputs": [
						{
							"indexed": true,
							"internalType": "address",
							"name": "user",
							"type": "address"
						}
					],
					"name": "KYCVerified",
					"type": "event"
				},
				{
					"anonymous": false,
					"inputs": [
						{
							"indexed": false,
							"internalType": "uint256",
							"name": "loanId",
							"type": "uint256"
						}
					],
					"name": "LoanAccepted",
					"type": "event"
				},
				{
					"anonymous": false,
					"inputs": [
						{
							"indexed": false,
							"internalType": "uint256",
							"name": "loanId",
							"type": "uint256"
						}
					],
					"name": "LoanCanceled",
					"type": "event"
				},
				{
					"anonymous": false,
					"inputs": [
						{
							"indexed": false,
							"internalType": "uint256",
							"name": "loanId",
							"type": "uint256"
						},
						{
							"indexed": false,
							"internalType": "address",
							"name": "borrower",
							"type": "address"
						},
						{
							"indexed": false,
							"internalType": "address",
							"name": "lender",
							"type": "address"
						},
						{
							"indexed": false,
							"internalType": "uint256",
							"name": "amount",
							"type": "uint256"
						},
						{
							"indexed": false,
							"internalType": "uint256",
							"name": "interestAmount",
							"type": "uint256"
						},
						{
							"indexed": false,
							"internalType": "uint256",
							"name": "nftTokenId",
							"type": "uint256"
						},
						{
							"indexed": false,
							"internalType": "uint256",
							"name": "dueDate",
							"type": "uint256"
						},
						{
							"indexed": false,
							"internalType": "string",
							"name": "terms",
							"type": "string"
						}
					],
					"name": "LoanIssued",
					"type": "event"
				},
				{
					"anonymous": false,
					"inputs": [
						{
							"indexed": false,
							"internalType": "uint256",
							"name": "loanId",
							"type": "uint256"
						}
					],
					"name": "LoanRepaid",
					"type": "event"
				},
				{
					"anonymous": false,
					"inputs": [
						{
							"indexed": false,
							"internalType": "uint256",
							"name": "nftTokenId",
							"type": "uint256"
						}
					],
					"name": "NFTBurned",
					"type": "event"
				},
				{
					"anonymous": false,
					"inputs": [
						{
							"indexed": true,
							"internalType": "address",
							"name": "previousOwner",
							"type": "address"
						},
						{
							"indexed": true,
							"internalType": "address",
							"name": "newOwner",
							"type": "address"
						}
					],
					"name": "OwnershipTransferred",
					"type": "event"
				},
				{
					"anonymous": false,
					"inputs": [
						{
							"indexed": true,
							"internalType": "address",
							"name": "from",
							"type": "address"
						},
						{
							"indexed": true,
							"internalType": "address",
							"name": "to",
							"type": "address"
						},
						{
							"indexed": false,
							"internalType": "uint256",
							"name": "value",
							"type": "uint256"
						}
					],
					"name": "Transfer",
					"type": "event"
				},
				{
					"inputs": [
						{
							"internalType": "uint256",
							"name": "loanId",
							"type": "uint256"
						}
					],
					"name": "acceptLoan",
					"outputs": [],
					"stateMutability": "nonpayable",
					"type": "function"
				},
				{
					"inputs": [
						{
							"internalType": "address",
							"name": "owner",
							"type": "address"
						},
						{
							"internalType": "address",
							"name": "spender",
							"type": "address"
						}
					],
					"name": "allowance",
					"outputs": [
						{
							"internalType": "uint256",
							"name": "",
							"type": "uint256"
						}
					],
					"stateMutability": "view",
					"type": "function"
				},
				{
					"inputs": [
						{
							"internalType": "address",
							"name": "spender",
							"type": "address"
						},
						{
							"internalType": "uint256",
							"name": "value",
							"type": "uint256"
						}
					],
					"name": "approve",
					"outputs": [
						{
							"internalType": "bool",
							"name": "",
							"type": "bool"
						}
					],
					"stateMutability": "nonpayable",
					"type": "function"
				},
				{
					"inputs": [
						{
							"internalType": "address",
							"name": "account",
							"type": "address"
						}
					],
					"name": "balanceOf",
					"outputs": [
						{
							"internalType": "uint256",
							"name": "",
							"type": "uint256"
						}
					],
					"stateMutability": "view",
					"type": "function"
				},
				{
					"inputs": [
						{
							"internalType": "uint256",
							"name": "loanId",
							"type": "uint256"
						}
					],
					"name": "cancelLoan",
					"outputs": [],
					"stateMutability": "nonpayable",
					"type": "function"
				},
				{
					"inputs": [
						{
							"internalType": "uint256",
							"name": "loanId",
							"type": "uint256"
						}
					],
					"name": "checkDefault",
					"outputs": [],
					"stateMutability": "nonpayable",
					"type": "function"
				},
				{
					"inputs": [],
					"name": "decimals",
					"outputs": [
						{
							"internalType": "uint8",
							"name": "",
							"type": "uint8"
						}
					],
					"stateMutability": "view",
					"type": "function"
				},
				{
					"inputs": [
						{
							"internalType": "uint256",
							"name": "nftTokenId",
							"type": "uint256"
						}
					],
					"name": "isNFTBurned",
					"outputs": [
						{
							"internalType": "bool",
							"name": "",
							"type": "bool"
						}
					],
					"stateMutability": "view",
					"type": "function"
				},
				{
					"inputs": [
						{
							"internalType": "address",
							"name": "borrower",
							"type": "address"
						},
						{
							"internalType": "uint256",
							"name": "amount",
							"type": "uint256"
						},
						{
							"internalType": "uint256",
							"name": "interestAmount",
							"type": "uint256"
						},
						{
							"internalType": "string",
							"name": "terms",
							"type": "string"
						}
					],
					"name": "issueLoan",
					"outputs": [
						{
							"internalType": "uint256",
							"name": "",
							"type": "uint256"
						}
					],
					"stateMutability": "nonpayable",
					"type": "function"
				},
				{
					"inputs": [
						{
							"internalType": "address",
							"name": "",
							"type": "address"
						}
					],
					"name": "kycVerified",
					"outputs": [
						{
							"internalType": "bool",
							"name": "",
							"type": "bool"
						}
					],
					"stateMutability": "view",
					"type": "function"
				},
				{
					"inputs": [
						{
							"internalType": "uint256",
							"name": "",
							"type": "uint256"
						}
					],
					"name": "loans",
					"outputs": [
						{
							"internalType": "address",
							"name": "borrower",
							"type": "address"
						},
						{
							"internalType": "address",
							"name": "lender",
							"type": "address"
						},
						{
							"internalType": "uint256",
							"name": "amount",
							"type": "uint256"
						},
						{
							"internalType": "uint256",
							"name": "interestAmount",
							"type": "uint256"
						},
						{
							"internalType": "uint256",
							"name": "loanDuration",
							"type": "uint256"
						},
						{
							"internalType": "uint256",
							"name": "dueDate",
							"type": "uint256"
						},
						{
							"internalType": "bool",
							"name": "repaid",
							"type": "bool"
						},
						{
							"internalType": "bool",
							"name": "accepted",
							"type": "bool"
						},
						{
							"internalType": "bool",
							"name": "canceled",
							"type": "bool"
						},
						{
							"internalType": "uint256",
							"name": "nftTokenId",
							"type": "uint256"
						},
						{
							"internalType": "bool",
							"name": "isNFTBurned",
							"type": "bool"
						},
						{
							"internalType": "string",
							"name": "terms",
							"type": "string"
						}
					],
					"stateMutability": "view",
					"type": "function"
				},
				{
					"inputs": [],
					"name": "name",
					"outputs": [
						{
							"internalType": "string",
							"name": "",
							"type": "string"
						}
					],
					"stateMutability": "view",
					"type": "function"
				},
				{
					"inputs": [],
					"name": "nextLoanId",
					"outputs": [
						{
							"internalType": "uint256",
							"name": "",
							"type": "uint256"
						}
					],
					"stateMutability": "view",
					"type": "function"
				},
				{
					"inputs": [],
					"name": "nextTokenId",
					"outputs": [
						{
							"internalType": "uint256",
							"name": "",
							"type": "uint256"
						}
					],
					"stateMutability": "view",
					"type": "function"
				},
				{
					"inputs": [],
					"name": "owner",
					"outputs": [
						{
							"internalType": "address",
							"name": "",
							"type": "address"
						}
					],
					"stateMutability": "view",
					"type": "function"
				},
				{
					"inputs": [],
					"name": "renounceOwnership",
					"outputs": [],
					"stateMutability": "nonpayable",
					"type": "function"
				},
				{
					"inputs": [
						{
							"internalType": "uint256",
							"name": "loanId",
							"type": "uint256"
						}
					],
					"name": "repayLoan",
					"outputs": [],
					"stateMutability": "nonpayable",
					"type": "function"
				},
				{
					"inputs": [],
					"name": "symbol",
					"outputs": [
						{
							"internalType": "string",
							"name": "",
							"type": "string"
						}
					],
					"stateMutability": "view",
					"type": "function"
				},
				{
					"inputs": [
						{
							"internalType": "uint256",
							"name": "loanId",
							"type": "uint256"
						}
					],
					"name": "timeUntilDue",
					"outputs": [
						{
							"internalType": "uint256",
							"name": "",
							"type": "uint256"
						}
					],
					"stateMutability": "view",
					"type": "function"
				},
				{
					"inputs": [],
					"name": "totalSupply",
					"outputs": [
						{
							"internalType": "uint256",
							"name": "",
							"type": "uint256"
						}
					],
					"stateMutability": "view",
					"type": "function"
				},
				{
					"inputs": [
						{
							"internalType": "address",
							"name": "to",
							"type": "address"
						},
						{
							"internalType": "uint256",
							"name": "value",
							"type": "uint256"
						}
					],
					"name": "transfer",
					"outputs": [
						{
							"internalType": "bool",
							"name": "",
							"type": "bool"
						}
					],
					"stateMutability": "nonpayable",
					"type": "function"
				},
				{
					"inputs": [
						{
							"internalType": "address",
							"name": "from",
							"type": "address"
						},
						{
							"internalType": "address",
							"name": "to",
							"type": "address"
						},
						{
							"internalType": "uint256",
							"name": "value",
							"type": "uint256"
						}
					],
					"name": "transferFrom",
					"outputs": [
						{
							"internalType": "bool",
							"name": "",
							"type": "bool"
						}
					],
					"stateMutability": "nonpayable",
					"type": "function"
				},
				{
					"inputs": [
						{
							"internalType": "address",
							"name": "newOwner",
							"type": "address"
						}
					],
					"name": "transferOwnership",
					"outputs": [],
					"stateMutability": "nonpayable",
					"type": "function"
				},
				{
					"inputs": [
						{
							"internalType": "address",
							"name": "user",
							"type": "address"
						}
					],
					"name": "verifyKYC",
					"outputs": [],
					"stateMutability": "nonpayable",
					"type": "function"
				}
			],
			"devdoc": {
				"errors": {
					"ERC20InsufficientAllowance(address,uint256,uint256)": [
						{
							"details": "Indicates a failure with the `spender`’s `allowance`. Used in transfers.",
							"params": {
								"allowance": "Amount of tokens a `spender` is allowed to operate with.",
								"needed": "Minimum amount required to perform a transfer.",
								"spender": "Address that may be allowed to operate on tokens without being their owner."
							}
						}
					],
					"ERC20InsufficientBalance(address,uint256,uint256)": [
						{
							"details": "Indicates an error related to the current `balance` of a `sender`. Used in transfers.",
							"params": {
								"balance": "Current balance for the interacting account.",
								"needed": "Minimum amount required to perform a transfer.",
								"sender": "Address whose tokens are being transferred."
							}
						}
					],
					"ERC20InvalidApprover(address)": [
						{
							"details": "Indicates a failure with the `approver` of a token to be approved. Used in approvals.",
							"params": {
								"approver": "Address initiating an approval operation."
							}
						}
					],
					"ERC20InvalidReceiver(address)": [
						{
							"details": "Indicates a failure with the token `receiver`. Used in transfers.",
							"params": {
								"receiver": "Address to which tokens are being transferred."
							}
						}
					],
					"ERC20InvalidSender(address)": [
						{
							"details": "Indicates a failure with the token `sender`. Used in transfers.",
							"params": {
								"sender": "Address whose tokens are being transferred."
							}
						}
					],
					"ERC20InvalidSpender(address)": [
						{
							"details": "Indicates a failure with the `spender` to be approved. Used in approvals.",
							"params": {
								"spender": "Address that may be allowed to operate on tokens without being their owner."
							}
						}
					],
					"OwnableInvalidOwner(address)": [
						{
							"details": "The owner is not a valid owner account. (eg. `address(0)`)"
						}
					],
					"OwnableUnauthorizedAccount(address)": [
						{
							"details": "The caller account is not authorized to perform an operation."
						}
					],
					"SafeERC20FailedOperation(address)": [
						{
							"details": "An operation with an ERC-20 token failed."
						}
					]
				},
				"events": {
					"Approval(address,address,uint256)": {
						"details": "Emitted when the allowance of a `spender` for an `owner` is set by a call to {approve}. `value` is the new allowance."
					},
					"Transfer(address,address,uint256)": {
						"details": "Emitted when `value` tokens are moved from one account (`from`) to another (`to`). Note that `value` may be zero."
					}
				},
				"kind": "dev",
				"methods": {
					"allowance(address,address)": {
						"details": "See {IERC20-allowance}."
					},
					"approve(address,uint256)": {
						"details": "See {IERC20-approve}. NOTE: If `value` is the maximum `uint256`, the allowance is not updated on `transferFrom`. This is semantically equivalent to an infinite approval. Requirements: - `spender` cannot be the zero address."
					},
					"balanceOf(address)": {
						"details": "See {IERC20-balanceOf}."
					},
					"decimals()": {
						"details": "Returns the number of decimals used to get its user representation. For example, if `decimals` equals `2`, a balance of `505` tokens should be displayed to a user as `5.05` (`505 / 10 ** 2`). Tokens usually opt for a value of 18, imitating the relationship between Ether and Wei. This is the default value returned by this function, unless it's overridden. NOTE: This information is only used for _display_ purposes: it in no way affects any of the arithmetic of the contract, including {IERC20-balanceOf} and {IERC20-transfer}."
					},
					"name()": {
						"details": "Returns the name of the token."
					},
					"owner()": {
						"details": "Returns the address of the current owner."
					},
					"renounceOwnership()": {
						"details": "Leaves the contract without owner. It will not be possible to call `onlyOwner` functions. Can only be called by the current owner. NOTE: Renouncing ownership will leave the contract without an owner, thereby disabling any functionality that is only available to the owner."
					},
					"symbol()": {
						"details": "Returns the symbol of the token, usually a shorter version of the name."
					},
					"totalSupply()": {
						"details": "See {IERC20-totalSupply}."
					},
					"transfer(address,uint256)": {
						"details": "See {IERC20-transfer}. Requirements: - `to` cannot be the zero address. - the caller must have a balance of at least `value`."
					},
					"transferFrom(address,address,uint256)": {
						"details": "See {IERC20-transferFrom}. Skips emitting an {Approval} event indicating an allowance update. This is not required by the ERC. See {xref-ERC20-_approve-address-address-uint256-bool-}[_approve]. NOTE: Does not update the allowance if the current allowance is the maximum `uint256`. Requirements: - `from` and `to` cannot be the zero address. - `from` must have a balance of at least `value`. - the caller must have allowance for ``from``'s tokens of at least `value`."
					},
					"transferOwnership(address)": {
						"details": "Transfers ownership of the contract to a new account (`newOwner`). Can only be called by the current owner."
					}
				},
				"version": 1
			},
			"evm": {
				"assembly": "    /* \"main.sol\":247:5716  contract CreditToken is ERC20, Ownable {... */\n  mstore(0x40, 0x80)\n    /* \"main.sol\":356:357  1 */\n  0x01\n    /* \"main.sol\":327:357  uint256 public nextTokenId = 1 */\n  0x06\n  sstore\n    /* \"main.sol\":832:833  1 */\n  0x01\n    /* \"main.sol\":804:833  uint256 public nextLoanId = 1 */\n  0x09\n  sstore\n    /* \"main.sol\":1259:1420  constructor() ERC20(\"CreditToken\", \"CRD\") Ownable(msg.sender) {... */\n  callvalue\n  dup1\n  iszero\n  tag_1\n  jumpi\n  0x00\n  dup1\n  revert\ntag_1:\n  pop\n    /* \"main.sol\":1309:1319  msg.sender */\n  caller\n    /* \"@openzeppelin/contracts/token/ERC20/ERC20.sol\":1601:1714  constructor(string memory name_, string memory symbol_) {... */\n  mload(0x40)\n  dup1\n  0x40\n  add\n  0x40\n  mstore\n  dup1\n  0x0b\n  dup2\n  mstore\n  0x20\n  add\n  0x437265646974546f6b656e000000000000000000000000000000000000000000\n  dup2\n  mstore\n  pop\n  mload(0x40)\n  dup1\n  0x40\n  add\n  0x40\n  mstore\n  dup1\n  0x03\n  dup2\n  mstore\n  0x20\n  add\n  0x4352440000000000000000000000000000000000000000000000000000000000\n  dup2\n  mstore\n  pop\n    /* \"@openzeppelin/contracts/token/ERC20/ERC20.sol\":1675:1680  name_ */\n  dup2\n    /* \"@openzeppelin/contracts/token/ERC20/ERC20.sol\":1667:1672  _name */\n  0x03\n    /* \"@openzeppelin/contracts/token/ERC20/ERC20.sol\":1667:1680  _name = name_ */\n  swap1\n  dup2\n  tag_6\n  swap2\n  swap1\n  tag_7\n  jump\t// in\ntag_6:\n  pop\n    /* \"@openzeppelin/contracts/token/ERC20/ERC20.sol\":1700:1707  symbol_ */\n  dup1\n    /* \"@openzeppelin/contracts/token/ERC20/ERC20.sol\":1690:1697  _symbol */\n  0x04\n    /* \"@openzeppelin/contracts/token/ERC20/ERC20.sol\":1690:1707  _symbol = symbol_ */\n  swap1\n  dup2\n  tag_8\n  swap2\n  swap1\n  tag_7\n  jump\t// in\ntag_8:\n  pop\n    /* \"@openzeppelin/contracts/token/ERC20/ERC20.sol\":1601:1714  constructor(string memory name_, string memory symbol_) {... */\n  pop\n  pop\n    /* \"@openzeppelin/contracts/access/Ownable.sol\":1297:1298  0 */\n  0x00\n    /* \"@openzeppelin/contracts/access/Ownable.sol\":1273:1299  initialOwner == address(0) */\n  0xffffffffffffffffffffffffffffffffffffffff\n  and\n    /* \"@openzeppelin/contracts/access/Ownable.sol\":1273:1285  initialOwner */\n  dup2\n    /* \"@openzeppelin/contracts/access/Ownable.sol\":1273:1299  initialOwner == address(0) */\n  0xffffffffffffffffffffffffffffffffffffffff\n  and\n  sub\n    /* \"@openzeppelin/contracts/access/Ownable.sol\":1269:1364  if (initialOwner == address(0)) {... */\n  tag_10\n  jumpi\n    /* \"@openzeppelin/contracts/access/Ownable.sol\":1350:1351  0 */\n  0x00\n    /* \"@openzeppelin/contracts/access/Ownable.sol\":1322:1353  OwnableInvalidOwner(address(0)) */\n  mload(0x40)\n  0x1e4fbdf700000000000000000000000000000000000000000000000000000000\n  dup2\n  mstore\n  0x04\n  add\n  tag_11\n  swap2\n  swap1\n  tag_12\n  jump\t// in\ntag_11:\n  mload(0x40)\n  dup1\n  swap2\n  sub\n  swap1\n  revert\n    /* \"@openzeppelin/contracts/access/Ownable.sol\":1269:1364  if (initialOwner == address(0)) {... */\ntag_10:\n    /* \"@openzeppelin/contracts/access/Ownable.sol\":1373:1405  _transferOwnership(initialOwner) */\n  tag_13\n    /* \"@openzeppelin/contracts/access/Ownable.sol\":1392:1404  initialOwner */\n  dup2\n    /* \"@openzeppelin/contracts/access/Ownable.sol\":1373:1391  _transferOwnership */\n  shl(0x20, tag_14)\n    /* \"@openzeppelin/contracts/access/Ownable.sol\":1373:1405  _transferOwnership(initialOwner) */\n  0x20\n  shr\n  jump\t// in\ntag_13:\n    /* \"@openzeppelin/contracts/access/Ownable.sol\":1225:1412  constructor(address initialOwner) {... */\n  pop\n    /* \"main.sol\":1332:1353  uint256 initialSupply */\n  0x00\n    /* \"main.sol\":1356:1369  1_000_000_000 */\n  0x3b9aca00\n    /* \"main.sol\":1332:1369  uint256 initialSupply = 1_000_000_000 */\n  swap1\n  pop\n    /* \"main.sol\":1380:1412  _mint(msg.sender, initialSupply) */\n  tag_16\n    /* \"main.sol\":1386:1396  msg.sender */\n  caller\n    /* \"main.sol\":1398:1411  initialSupply */\n  dup3\n    /* \"main.sol\":1380:1385  _mint */\n  shl(0x20, tag_17)\n    /* \"main.sol\":1380:1412  _mint(msg.sender, initialSupply) */\n  0x20\n  shr\n  jump\t// in\ntag_16:\n    /* \"main.sol\":1321:1420  {... */\n  pop\n    /* \"main.sol\":247:5716  contract CreditToken is ERC20, Ownable {... */\n  jump(tag_18)\n    /* \"@openzeppelin/contracts/access/Ownable.sol\":2912:3099  function _transferOwnership(address newOwner) internal virtual {... */\ntag_14:\n    /* \"@openzeppelin/contracts/access/Ownable.sol\":2985:3001  address oldOwner */\n  0x00\n    /* \"@openzeppelin/contracts/access/Ownable.sol\":3004:3010  _owner */\n  0x05\n  0x00\n  swap1\n  sload\n  swap1\n  0x0100\n  exp\n  swap1\n  div\n  0xffffffffffffffffffffffffffffffffffffffff\n  and\n    /* \"@openzeppelin/contracts/access/Ownable.sol\":2985:3010  address oldOwner = _owner */\n  swap1\n  pop\n    /* \"@openzeppelin/contracts/access/Ownable.sol\":3029:3037  newOwner */\n  dup2\n    /* \"@openzeppelin/contracts/access/Ownable.sol\":3020:3026  _owner */\n  0x05\n  0x00\n    /* \"@openzeppelin/contracts/access/Ownable.sol\":3020:3037  _owner = newOwner */\n  0x0100\n  exp\n  dup2\n  sload\n  dup2\n  0xffffffffffffffffffffffffffffffffffffffff\n  mul\n  not\n  and\n  swap1\n  dup4\n  0xffffffffffffffffffffffffffffffffffffffff\n  and\n  mul\n  or\n  swap1\n  sstore\n  pop\n    /* \"@openzeppelin/contracts/access/Ownable.sol\":3083:3091  newOwner */\n  dup2\n    /* \"@openzeppelin/contracts/access/Ownable.sol\":3052:3092  OwnershipTransferred(oldOwner, newOwner) */\n  0xffffffffffffffffffffffffffffffffffffffff\n  and\n    /* \"@openzeppelin/contracts/access/Ownable.sol\":3073:3081  oldOwner */\n  dup2\n    /* \"@openzeppelin/contracts/access/Ownable.sol\":3052:3092  OwnershipTransferred(oldOwner, newOwner) */\n  0xffffffffffffffffffffffffffffffffffffffff\n  and\n  0x8be0079c531659141344cd1fd0a4f28419497f9722a3daafe3b4186f6b6457e0\n  mload(0x40)\n  mload(0x40)\n  dup1\n  swap2\n  sub\n  swap1\n  log3\n    /* \"@openzeppelin/contracts/access/Ownable.sol\":2975:3099  {... */\n  pop\n    /* \"@openzeppelin/contracts/access/Ownable.sol\":2912:3099  function _transferOwnership(address newOwner) internal virtual {... */\n  pop\n  jump\t// out\n    /* \"@openzeppelin/contracts/token/ERC20/ERC20.sol\":7458:7666  function _mint(address account, uint256 value) internal {... */\ntag_17:\n    /* \"@openzeppelin/contracts/token/ERC20/ERC20.sol\":7547:7548  0 */\n  0x00\n    /* \"@openzeppelin/contracts/token/ERC20/ERC20.sol\":7528:7549  account == address(0) */\n  0xffffffffffffffffffffffffffffffffffffffff\n  and\n    /* \"@openzeppelin/contracts/token/ERC20/ERC20.sol\":7528:7535  account */\n  dup3\n    /* \"@openzeppelin/contracts/token/ERC20/ERC20.sol\":7528:7549  account == address(0) */\n  0xffffffffffffffffffffffffffffffffffffffff\n  and\n  sub\n    /* \"@openzeppelin/contracts/token/ERC20/ERC20.sol\":7524:7615  if (account == address(0)) {... */\n  tag_21\n  jumpi\n    /* \"@openzeppelin/contracts/token/ERC20/ERC20.sol\":7601:7602  0 */\n  0x00\n    /* \"@openzeppelin/contracts/token/ERC20/ERC20.sol\":7572:7604  ERC20InvalidReceiver(address(0)) */\n  mload(0x40)\n  0xec442f0500000000000000000000000000000000000000000000000000000000\n  dup2\n  mstore\n  0x04\n  add\n  tag_22\n  swap2\n  swap1\n  tag_12\n  jump\t// in\ntag_22:\n  mload(0x40)\n  dup1\n  swap2\n  sub\n  swap1\n  revert\n    /* \"@openzeppelin/contracts/token/ERC20/ERC20.sol\":7524:7615  if (account == address(0)) {... */\ntag_21:\n    /* \"@openzeppelin/contracts/token/ERC20/ERC20.sol\":7624:7659  _update(address(0), account, value) */\n  tag_23\n    /* \"@openzeppelin/contracts/token/ERC20/ERC20.sol\":7640:7641  0 */\n  0x00\n    /* \"@openzeppelin/contracts/token/ERC20/ERC20.sol\":7644:7651  account */\n  dup4\n    /* \"@openzeppelin/contracts/token/ERC20/ERC20.sol\":7653:7658  value */\n  dup4\n    /* \"@openzeppelin/contracts/token/ERC20/ERC20.sol\":7624:7631  _update */\n  shl(0x20, tag_24)\n    /* \"@openzeppelin/contracts/token/ERC20/ERC20.sol\":7624:7659  _update(address(0), account, value) */\n  0x20\n  shr\n  jump\t// in\ntag_23:\n    /* \"@openzeppelin/contracts/token/ERC20/ERC20.sol\":7458:7666  function _mint(address account, uint256 value) internal {... */\n  pop\n  pop\n  jump\t// out\n    /* \"@openzeppelin/contracts/token/ERC20/ERC20.sol\":6008:7115  function _update(address from, address to, uint256 value) internal virtual {... */\ntag_24:\n    /* \"@openzeppelin/contracts/token/ERC20/ERC20.sol\":6113:6114  0 */\n  0x00\n    /* \"@openzeppelin/contracts/token/ERC20/ERC20.sol\":6097:6115  from == address(0) */\n  0xffffffffffffffffffffffffffffffffffffffff\n  and\n    /* \"@openzeppelin/contracts/token/ERC20/ERC20.sol\":6097:6101  from */\n  dup4\n    /* \"@openzeppelin/contracts/token/ERC20/ERC20.sol\":6097:6115  from == address(0) */\n  0xffffffffffffffffffffffffffffffffffffffff\n  and\n  sub\n    /* \"@openzeppelin/contracts/token/ERC20/ERC20.sol\":6093:6633  if (from == address(0)) {... */\n  tag_26\n  jumpi\n    /* \"@openzeppelin/contracts/token/ERC20/ERC20.sol\":6249:6254  value */\n  dup1\n    /* \"@openzeppelin/contracts/token/ERC20/ERC20.sol\":6233:6245  _totalSupply */\n  0x02\n  0x00\n    /* \"@openzeppelin/contracts/token/ERC20/ERC20.sol\":6233:6254  _totalSupply += value */\n  dup3\n  dup3\n  sload\n  tag_27\n  swap2\n  swap1\n  tag_28\n  jump\t// in\ntag_27:\n  swap3\n  pop\n  pop\n  dup2\n  swap1\n  sstore\n  pop\n    /* \"@openzeppelin/contracts/token/ERC20/ERC20.sol\":6093:6633  if (from == address(0)) {... */\n  jump(tag_29)\ntag_26:\n    /* \"@openzeppelin/contracts/token/ERC20/ERC20.sol\":6285:6304  uint256 fromBalance */\n  0x00\n    /* \"@openzeppelin/contracts/token/ERC20/ERC20.sol\":6307:6316  _balances */\n  dup1\n    /* \"@openzeppelin/contracts/token/ERC20/ERC20.sol\":6307:6322  _balances[from] */\n  0x00\n    /* \"@openzeppelin/contracts/token/ERC20/ERC20.sol\":6317:6321  from */\n  dup6\n    /* \"@openzeppelin/contracts/token/ERC20/ERC20.sol\":6307:6322  _balances[from] */\n  0xffffffffffffffffffffffffffffffffffffffff\n  and\n  0xffffffffffffffffffffffffffffffffffffffff\n  and\n  dup2\n  mstore\n  0x20\n  add\n  swap1\n  dup2\n  mstore\n  0x20\n  add\n  0x00\n  keccak256\n  sload\n    /* \"@openzeppelin/contracts/token/ERC20/ERC20.sol\":6285:6322  uint256 fromBalance = _balances[from] */\n  swap1\n  pop\n    /* \"@openzeppelin/contracts/token/ERC20/ERC20.sol\":6354:6359  value */\n  dup2\n    /* \"@openzeppelin/contracts/token/ERC20/ERC20.sol\":6340:6351  fromBalance */\n  dup2\n    /* \"@openzeppelin/contracts/token/ERC20/ERC20.sol\":6340:6359  fromBalance < value */\n  lt\n    /* \"@openzeppelin/contracts/token/ERC20/ERC20.sol\":6336:6451  if (fromBalance < value) {... */\n  iszero\n  tag_30\n  jumpi\n    /* \"@openzeppelin/contracts/token/ERC20/ERC20.sol\":6411:6415  from */\n  dup4\n    /* \"@openzeppelin/contracts/token/ERC20/ERC20.sol\":6417:6428  fromBalance */\n  dup2\n    /* \"@openzeppelin/contracts/token/ERC20/ERC20.sol\":6430:6435  value */\n  dup4\n    /* \"@openzeppelin/contracts/token/ERC20/ERC20.sol\":6386:6436  ERC20InsufficientBalance(from, fromBalance, value) */\n  mload(0x40)\n  0xe450d38c00000000000000000000000000000000000000000000000000000000\n  dup2\n  mstore\n  0x04\n  add\n  tag_31\n  swap4\n  swap3\n  swap2\n  swap1\n  tag_32\n  jump\t// in\ntag_31:\n  mload(0x40)\n  dup1\n  swap2\n  sub\n  swap1\n  revert\n    /* \"@openzeppelin/contracts/token/ERC20/ERC20.sol\":6336:6451  if (fromBalance < value) {... */\ntag_30:\n    /* \"@openzeppelin/contracts/token/ERC20/ERC20.sol\":6603:6608  value */\n  dup2\n    /* \"@openzeppelin/contracts/token/ERC20/ERC20.sol\":6589:6600  fromBalance */\n  dup2\n    /* \"@openzeppelin/contracts/token/ERC20/ERC20.sol\":6589:6608  fromBalance - value */\n  sub\n    /* \"@openzeppelin/contracts/token/ERC20/ERC20.sol\":6571:6580  _balances */\n  0x00\n    /* \"@openzeppelin/contracts/token/ERC20/ERC20.sol\":6571:6586  _balances[from] */\n  dup1\n    /* \"@openzeppelin/contracts/token/ERC20/ERC20.sol\":6581:6585  from */\n  dup7\n    /* \"@openzeppelin/contracts/token/ERC20/ERC20.sol\":6571:6586  _balances[from] */\n  0xffffffffffffffffffffffffffffffffffffffff\n  and\n  0xffffffffffffffffffffffffffffffffffffffff\n  and\n  dup2\n  mstore\n  0x20\n  add\n  swap1\n  dup2\n  mstore\n  0x20\n  add\n  0x00\n  keccak256\n    /* \"@openzeppelin/contracts/token/ERC20/ERC20.sol\":6571:6608  _balances[from] = fromBalance - value */\n  dup2\n  swap1\n  sstore\n  pop\n    /* \"@openzeppelin/contracts/token/ERC20/ERC20.sol\":6271:6633  {... */\n  pop\n    /* \"@openzeppelin/contracts/token/ERC20/ERC20.sol\":6093:6633  if (from == address(0)) {... */\ntag_29:\n    /* \"@openzeppelin/contracts/token/ERC20/ERC20.sol\":6661:6662  0 */\n  0x00\n    /* \"@openzeppelin/contracts/token/ERC20/ERC20.sol\":6647:6663  to == address(0) */\n  0xffffffffffffffffffffffffffffffffffffffff\n  and\n    /* \"@openzeppelin/contracts/token/ERC20/ERC20.sol\":6647:6649  to */\n  dup3\n    /* \"@openzeppelin/contracts/token/ERC20/ERC20.sol\":6647:6663  to == address(0) */\n  0xffffffffffffffffffffffffffffffffffffffff\n  and\n  sub\n    /* \"@openzeppelin/contracts/token/ERC20/ERC20.sol\":6643:7068  if (to == address(0)) {... */\n  tag_33\n  jumpi\n    /* \"@openzeppelin/contracts/token/ERC20/ERC20.sol\":6826:6831  value */\n  dup1\n    /* \"@openzeppelin/contracts/token/ERC20/ERC20.sol\":6810:6822  _totalSupply */\n  0x02\n  0x00\n    /* \"@openzeppelin/contracts/token/ERC20/ERC20.sol\":6810:6831  _totalSupply -= value */\n  dup3\n  dup3\n  sload\n  sub\n  swap3\n  pop\n  pop\n  dup2\n  swap1\n  sstore\n  pop\n    /* \"@openzeppelin/contracts/token/ERC20/ERC20.sol\":6643:7068  if (to == address(0)) {... */\n  jump(tag_34)\ntag_33:\n    /* \"@openzeppelin/contracts/token/ERC20/ERC20.sol\":7038:7043  value */\n  dup1\n    /* \"@openzeppelin/contracts/token/ERC20/ERC20.sol\":7021:7030  _balances */\n  0x00\n    /* \"@openzeppelin/contracts/token/ERC20/ERC20.sol\":7021:7034  _balances[to] */\n  dup1\n    /* \"@openzeppelin/contracts/token/ERC20/ERC20.sol\":7031:7033  to */\n  dup5\n    /* \"@openzeppelin/contracts/token/ERC20/ERC20.sol\":7021:7034  _balances[to] */\n  0xffffffffffffffffffffffffffffffffffffffff\n  and\n  0xffffffffffffffffffffffffffffffffffffffff\n  and\n  dup2\n  mstore\n  0x20\n  add\n  swap1\n  dup2\n  mstore\n  0x20\n  add\n  0x00\n  keccak256\n  0x00\n    /* \"@openzeppelin/contracts/token/ERC20/ERC20.sol\":7021:7043  _balances[to] += value */\n  dup3\n  dup3\n  sload\n  add\n  swap3\n  pop\n  pop\n  dup2\n  swap1\n  sstore\n  pop\n    /* \"@openzeppelin/contracts/token/ERC20/ERC20.sol\":6643:7068  if (to == address(0)) {... */\ntag_34:\n    /* \"@openzeppelin/contracts/token/ERC20/ERC20.sol\":7098:7100  to */\n  dup2\n    /* \"@openzeppelin/contracts/token/ERC20/ERC20.sol\":7083:7108  Transfer(from, to, value) */\n  0xffffffffffffffffffffffffffffffffffffffff\n  and\n    /* \"@openzeppelin/contracts/token/ERC20/ERC20.sol\":7092:7096  from */\n  dup4\n    /* \"@openzeppelin/contracts/token/ERC20/ERC20.sol\":7083:7108  Transfer(from, to, value) */\n  0xffffffffffffffffffffffffffffffffffffffff\n  and\n  0xddf252ad1be2c89b69c2b068fc378daa952ba7f163c4a11628f55a4df523b3ef\n    /* \"@openzeppelin/contracts/token/ERC20/ERC20.sol\":7102:7107  value */\n  dup4\n    /* \"@openzeppelin/contracts/token/ERC20/ERC20.sol\":7083:7108  Transfer(from, to, value) */\n  mload(0x40)\n  tag_35\n  swap2\n  swap1\n  tag_36\n  jump\t// in\ntag_35:\n  mload(0x40)\n  dup1\n  swap2\n  sub\n  swap1\n  log3\n    /* \"@openzeppelin/contracts/token/ERC20/ERC20.sol\":6008:7115  function _update(address from, address to, uint256 value) internal virtual {... */\n  pop\n  pop\n  pop\n  jump\t// out\n    /* \"#utility.yul\":7:106   */\ntag_37:\n    /* \"#utility.yul\":59:65   */\n  0x00\n    /* \"#utility.yul\":93:98   */\n  dup2\n    /* \"#utility.yul\":87:99   */\n  mload\n    /* \"#utility.yul\":77:99   */\n  swap1\n  pop\n    /* \"#utility.yul\":7:106   */\n  swap2\n  swap1\n  pop\n  jump\t// out\n    /* \"#utility.yul\":112:292   */\ntag_38:\n    /* \"#utility.yul\":160:237   */\n  0x4e487b7100000000000000000000000000000000000000000000000000000000\n    /* \"#utility.yul\":157:158   */\n  0x00\n    /* \"#utility.yul\":150:238   */\n  mstore\n    /* \"#utility.yul\":257:261   */\n  0x41\n    /* \"#utility.yul\":254:255   */\n  0x04\n    /* \"#utility.yul\":247:262   */\n  mstore\n    /* \"#utility.yul\":281:285   */\n  0x24\n    /* \"#utility.yul\":278:279   */\n  0x00\n    /* \"#utility.yul\":271:286   */\n  revert\n    /* \"#utility.yul\":298:478   */\ntag_39:\n    /* \"#utility.yul\":346:423   */\n  0x4e487b7100000000000000000000000000000000000000000000000000000000\n    /* \"#utility.yul\":343:344   */\n  0x00\n    /* \"#utility.yul\":336:424   */\n  mstore\n    /* \"#utility.yul\":443:447   */\n  0x22\n    /* \"#utility.yul\":440:441   */\n  0x04\n    /* \"#utility.yul\":433:448   */\n  mstore\n    /* \"#utility.yul\":467:471   */\n  0x24\n    /* \"#utility.yul\":464:465   */\n  0x00\n    /* \"#utility.yul\":457:472   */\n  revert\n    /* \"#utility.yul\":484:804   */\ntag_40:\n    /* \"#utility.yul\":528:534   */\n  0x00\n    /* \"#utility.yul\":565:566   */\n  0x02\n    /* \"#utility.yul\":559:563   */\n  dup3\n    /* \"#utility.yul\":555:567   */\n  div\n    /* \"#utility.yul\":545:567   */\n  swap1\n  pop\n    /* \"#utility.yul\":612:613   */\n  0x01\n    /* \"#utility.yul\":606:610   */\n  dup3\n    /* \"#utility.yul\":602:614   */\n  and\n    /* \"#utility.yul\":633:651   */\n  dup1\n    /* \"#utility.yul\":623:704   */\n  tag_67\n  jumpi\n    /* \"#utility.yul\":689:693   */\n  0x7f\n    /* \"#utility.yul\":681:687   */\n  dup3\n    /* \"#utility.yul\":677:694   */\n  and\n    /* \"#utility.yul\":667:694   */\n  swap2\n  pop\n    /* \"#utility.yul\":623:704   */\ntag_67:\n    /* \"#utility.yul\":751:753   */\n  0x20\n    /* \"#utility.yul\":743:749   */\n  dup3\n    /* \"#utility.yul\":740:754   */\n  lt\n    /* \"#utility.yul\":720:738   */\n  dup2\n    /* \"#utility.yul\":717:755   */\n  sub\n    /* \"#utility.yul\":714:798   */\n  tag_68\n  jumpi\n    /* \"#utility.yul\":770:788   */\n  tag_69\n  tag_39\n  jump\t// in\ntag_69:\n    /* \"#utility.yul\":714:798   */\ntag_68:\n    /* \"#utility.yul\":535:804   */\n  pop\n    /* \"#utility.yul\":484:804   */\n  swap2\n  swap1\n  pop\n  jump\t// out\n    /* \"#utility.yul\":810:951   */\ntag_41:\n    /* \"#utility.yul\":859:863   */\n  0x00\n    /* \"#utility.yul\":882:885   */\n  dup2\n    /* \"#utility.yul\":874:885   */\n  swap1\n  pop\n    /* \"#utility.yul\":905:908   */\n  dup2\n    /* \"#utility.yul\":902:903   */\n  0x00\n    /* \"#utility.yul\":895:909   */\n  mstore\n    /* \"#utility.yul\":939:943   */\n  0x20\n    /* \"#utility.yul\":936:937   */\n  0x00\n    /* \"#utility.yul\":926:944   */\n  keccak256\n    /* \"#utility.yul\":918:944   */\n  swap1\n  pop\n    /* \"#utility.yul\":810:951   */\n  swap2\n  swap1\n  pop\n  jump\t// out\n    /* \"#utility.yul\":957:1050   */\ntag_42:\n    /* \"#utility.yul\":994:1000   */\n  0x00\n    /* \"#utility.yul\":1041:1043   */\n  0x20\n    /* \"#utility.yul\":1036:1038   */\n  0x1f\n    /* \"#utility.yul\":1029:1034   */\n  dup4\n    /* \"#utility.yul\":1025:1039   */\n  add\n    /* \"#utility.yul\":1021:1044   */\n  div\n    /* \"#utility.yul\":1011:1044   */\n  swap1\n  pop\n    /* \"#utility.yul\":957:1050   */\n  swap2\n  swap1\n  pop\n  jump\t// out\n    /* \"#utility.yul\":1056:1163   */\ntag_43:\n    /* \"#utility.yul\":1100:1108   */\n  0x00\n    /* \"#utility.yul\":1150:1155   */\n  dup3\n    /* \"#utility.yul\":1144:1148   */\n  dup3\n    /* \"#utility.yul\":1140:1156   */\n  shl\n    /* \"#utility.yul\":1119:1156   */\n  swap1\n  pop\n    /* \"#utility.yul\":1056:1163   */\n  swap3\n  swap2\n  pop\n  pop\n  jump\t// out\n    /* \"#utility.yul\":1169:1562   */\ntag_44:\n    /* \"#utility.yul\":1238:1244   */\n  0x00\n    /* \"#utility.yul\":1288:1289   */\n  0x08\n    /* \"#utility.yul\":1276:1286   */\n  dup4\n    /* \"#utility.yul\":1272:1290   */\n  mul\n    /* \"#utility.yul\":1311:1408   */\n  tag_74\n    /* \"#utility.yul\":1341:1407   */\n  0xffffffffffffffffffffffffffffffffffffffffffffffffffffffffffffffff\n    /* \"#utility.yul\":1330:1339   */\n  dup3\n    /* \"#utility.yul\":1311:1408   */\n  tag_43\n  jump\t// in\ntag_74:\n    /* \"#utility.yul\":1429:1468   */\n  tag_75\n    /* \"#utility.yul\":1459:1467   */\n  dup7\n    /* \"#utility.yul\":1448:1457   */\n  dup4\n    /* \"#utility.yul\":1429:1468   */\n  tag_43\n  jump\t// in\ntag_75:\n    /* \"#utility.yul\":1417:1468   */\n  swap6\n  pop\n    /* \"#utility.yul\":1501:1505   */\n  dup1\n    /* \"#utility.yul\":1497:1506   */\n  not\n    /* \"#utility.yul\":1490:1495   */\n  dup5\n    /* \"#utility.yul\":1486:1507   */\n  and\n    /* \"#utility.yul\":1477:1507   */\n  swap4\n  pop\n    /* \"#utility.yul\":1550:1554   */\n  dup1\n    /* \"#utility.yul\":1540:1548   */\n  dup7\n    /* \"#utility.yul\":1536:1555   */\n  and\n    /* \"#utility.yul\":1529:1534   */\n  dup5\n    /* \"#utility.yul\":1526:1556   */\n  or\n    /* \"#utility.yul\":1516:1556   */\n  swap3\n  pop\n    /* \"#utility.yul\":1245:1562   */\n  pop\n  pop\n    /* \"#utility.yul\":1169:1562   */\n  swap4\n  swap3\n  pop\n  pop\n  pop\n  jump\t// out\n    /* \"#utility.yul\":1568:1645   */\ntag_45:\n    /* \"#utility.yul\":1605:1612   */\n  0x00\n    /* \"#utility.yul\":1634:1639   */\n  dup2\n    /* \"#utility.yul\":1623:1639   */\n  swap1\n  pop\n    /* \"#utility.yul\":1568:1645   */\n  swap2\n  swap1\n  pop\n  jump\t// out\n    /* \"#utility.yul\":1651:1711   */\ntag_46:\n    /* \"#utility.yul\":1679:1682   */\n  0x00\n    /* \"#utility.yul\":1700:1705   */\n  dup2\n    /* \"#utility.yul\":1693:1705   */\n  swap1\n  pop\n    /* \"#utility.yul\":1651:1711   */\n  swap2\n  swap1\n  pop\n  jump\t// out\n    /* \"#utility.yul\":1717:1859   */\ntag_47:\n    /* \"#utility.yul\":1767:1776   */\n  0x00\n    /* \"#utility.yul\":1800:1853   */\n  tag_79\n    /* \"#utility.yul\":1818:1852   */\n  tag_80\n    /* \"#utility.yul\":1827:1851   */\n  tag_81\n    /* \"#utility.yul\":1845:1850   */\n  dup5\n    /* \"#utility.yul\":1827:1851   */\n  tag_45\n  jump\t// in\ntag_81:\n    /* \"#utility.yul\":1818:1852   */\n  tag_46\n  jump\t// in\ntag_80:\n    /* \"#utility.yul\":1800:1853   */\n  tag_45\n  jump\t// in\ntag_79:\n    /* \"#utility.yul\":1787:1853   */\n  swap1\n  pop\n    /* \"#utility.yul\":1717:1859   */\n  swap2\n  swap1\n  pop\n  jump\t// out\n    /* \"#utility.yul\":1865:1940   */\ntag_48:\n    /* \"#utility.yul\":1908:1911   */\n  0x00\n    /* \"#utility.yul\":1929:1934   */\n  dup2\n    /* \"#utility.yul\":1922:1934   */\n  swap1\n  pop\n    /* \"#utility.yul\":1865:1940   */\n  swap2\n  swap1\n  pop\n  jump\t// out\n    /* \"#utility.yul\":1946:2215   */\ntag_49:\n    /* \"#utility.yul\":2056:2095   */\n  tag_84\n    /* \"#utility.yul\":2087:2094   */\n  dup4\n    /* \"#utility.yul\":2056:2095   */\n  tag_47\n  jump\t// in\ntag_84:\n    /* \"#utility.yul\":2117:2208   */\n  tag_85\n    /* \"#utility.yul\":2166:2207   */\n  tag_86\n    /* \"#utility.yul\":2190:2206   */\n  dup3\n    /* \"#utility.yul\":2166:2207   */\n  tag_48\n  jump\t// in\ntag_86:\n    /* \"#utility.yul\":2158:2164   */\n  dup5\n    /* \"#utility.yul\":2151:2155   */\n  dup5\n    /* \"#utility.yul\":2145:2156   */\n  sload\n    /* \"#utility.yul\":2117:2208   */\n  tag_44\n  jump\t// in\ntag_85:\n    /* \"#utility.yul\":2111:2115   */\n  dup3\n    /* \"#utility.yul\":2104:2209   */\n  sstore\n    /* \"#utility.yul\":2022:2215   */\n  pop\n    /* \"#utility.yul\":1946:2215   */\n  pop\n  pop\n  pop\n  jump\t// out\n    /* \"#utility.yul\":2221:2294   */\ntag_50:\n    /* \"#utility.yul\":2266:2269   */\n  0x00\n    /* \"#utility.yul\":2221:2294   */\n  swap1\n  jump\t// out\n    /* \"#utility.yul\":2300:2489   */\ntag_51:\n    /* \"#utility.yul\":2377:2409   */\n  tag_89\n  tag_50\n  jump\t// in\ntag_89:\n    /* \"#utility.yul\":2418:2483   */\n  tag_90\n    /* \"#utility.yul\":2476:2482   */\n  dup2\n    /* \"#utility.yul\":2468:2474   */\n  dup5\n    /* \"#utility.yul\":2462:2466   */\n  dup5\n    /* \"#utility.yul\":2418:2483   */\n  tag_49\n  jump\t// in\ntag_90:\n    /* \"#utility.yul\":2353:2489   */\n  pop\n    /* \"#utility.yul\":2300:2489   */\n  pop\n  pop\n  jump\t// out\n    /* \"#utility.yul\":2495:2681   */\ntag_52:\n    /* \"#utility.yul\":2555:2675   */\ntag_92:\n    /* \"#utility.yul\":2572:2575   */\n  dup2\n    /* \"#utility.yul\":2565:2570   */\n  dup2\n    /* \"#utility.yul\":2562:2576   */\n  lt\n    /* \"#utility.yul\":2555:2675   */\n  iszero\n  tag_94\n  jumpi\n    /* \"#utility.yul\":2626:2665   */\n  tag_95\n    /* \"#utility.yul\":2663:2664   */\n  0x00\n    /* \"#utility.yul\":2656:2661   */\n  dup3\n    /* \"#utility.yul\":2626:2665   */\n  tag_51\n  jump\t// in\ntag_95:\n    /* \"#utility.yul\":2599:2600   */\n  0x01\n    /* \"#utility.yul\":2592:2597   */\n  dup2\n    /* \"#utility.yul\":2588:2601   */\n  add\n    /* \"#utility.yul\":2579:2601   */\n  swap1\n  pop\n    /* \"#utility.yul\":2555:2675   */\n  jump(tag_92)\ntag_94:\n    /* \"#utility.yul\":2495:2681   */\n  pop\n  pop\n  jump\t// out\n    /* \"#utility.yul\":2687:3230   */\ntag_53:\n    /* \"#utility.yul\":2788:2790   */\n  0x1f\n    /* \"#utility.yul\":2783:2786   */\n  dup3\n    /* \"#utility.yul\":2780:2791   */\n  gt\n    /* \"#utility.yul\":2777:3223   */\n  iszero\n  tag_97\n  jumpi\n    /* \"#utility.yul\":2822:2860   */\n  tag_98\n    /* \"#utility.yul\":2854:2859   */\n  dup2\n    /* \"#utility.yul\":2822:2860   */\n  tag_41\n  jump\t// in\ntag_98:\n    /* \"#utility.yul\":2906:2935   */\n  tag_99\n    /* \"#utility.yul\":2924:2934   */\n  dup5\n    /* \"#utility.yul\":2906:2935   */\n  tag_42\n  jump\t// in\ntag_99:\n    /* \"#utility.yul\":2896:2904   */\n  dup2\n    /* \"#utility.yul\":2892:2936   */\n  add\n    /* \"#utility.yul\":3089:3091   */\n  0x20\n    /* \"#utility.yul\":3077:3087   */\n  dup6\n    /* \"#utility.yul\":3074:3092   */\n  lt\n    /* \"#utility.yul\":3071:3120   */\n  iszero\n  tag_100\n  jumpi\n    /* \"#utility.yul\":3110:3118   */\n  dup2\n    /* \"#utility.yul\":3095:3118   */\n  swap1\n  pop\n    /* \"#utility.yul\":3071:3120   */\ntag_100:\n    /* \"#utility.yul\":3133:3213   */\n  tag_101\n    /* \"#utility.yul\":3189:3211   */\n  tag_102\n    /* \"#utility.yul\":3207:3210   */\n  dup6\n    /* \"#utility.yul\":3189:3211   */\n  tag_42\n  jump\t// in\ntag_102:\n    /* \"#utility.yul\":3179:3187   */\n  dup4\n    /* \"#utility.yul\":3175:3212   */\n  add\n    /* \"#utility.yul\":3162:3173   */\n  dup3\n    /* \"#utility.yul\":3133:3213   */\n  tag_52\n  jump\t// in\ntag_101:\n    /* \"#utility.yul\":2792:3223   */\n  pop\n  pop\n    /* \"#utility.yul\":2777:3223   */\ntag_97:\n    /* \"#utility.yul\":2687:3230   */\n  pop\n  pop\n  pop\n  jump\t// out\n    /* \"#utility.yul\":3236:3353   */\ntag_54:\n    /* \"#utility.yul\":3290:3298   */\n  0x00\n    /* \"#utility.yul\":3340:3345   */\n  dup3\n    /* \"#utility.yul\":3334:3338   */\n  dup3\n    /* \"#utility.yul\":3330:3346   */\n  shr\n    /* \"#utility.yul\":3309:3346   */\n  swap1\n  pop\n    /* \"#utility.yul\":3236:3353   */\n  swap3\n  swap2\n  pop\n  pop\n  jump\t// out\n    /* \"#utility.yul\":3359:3528   */\ntag_55:\n    /* \"#utility.yul\":3403:3409   */\n  0x00\n    /* \"#utility.yul\":3436:3487   */\n  tag_105\n    /* \"#utility.yul\":3484:3485   */\n  0x00\n    /* \"#utility.yul\":3480:3486   */\n  not\n    /* \"#utility.yul\":3472:3477   */\n  dup5\n    /* \"#utility.yul\":3469:3470   */\n  0x08\n    /* \"#utility.yul\":3465:3478   */\n  mul\n    /* \"#utility.yul\":3436:3487   */\n  tag_54\n  jump\t// in\ntag_105:\n    /* \"#utility.yul\":3432:3488   */\n  not\n    /* \"#utility.yul\":3517:3521   */\n  dup1\n    /* \"#utility.yul\":3511:3515   */\n  dup4\n    /* \"#utility.yul\":3507:3522   */\n  and\n    /* \"#utility.yul\":3497:3522   */\n  swap2\n  pop\n    /* \"#utility.yul\":3410:3528   */\n  pop\n    /* \"#utility.yul\":3359:3528   */\n  swap3\n  swap2\n  pop\n  pop\n  jump\t// out\n    /* \"#utility.yul\":3533:3828   */\ntag_56:\n    /* \"#utility.yul\":3609:3613   */\n  0x00\n    /* \"#utility.yul\":3755:3784   */\n  tag_107\n    /* \"#utility.yul\":3780:3783   */\n  dup4\n    /* \"#utility.yul\":3774:3778   */\n  dup4\n    /* \"#utility.yul\":3755:3784   */\n  tag_55\n  jump\t// in\ntag_107:\n    /* \"#utility.yul\":3747:3784   */\n  swap2\n  pop\n    /* \"#utility.yul\":3817:3820   */\n  dup3\n    /* \"#utility.yul\":3814:3815   */\n  0x02\n    /* \"#utility.yul\":3810:3821   */\n  mul\n    /* \"#utility.yul\":3804:3808   */\n  dup3\n    /* \"#utility.yul\":3801:3822   */\n  or\n    /* \"#utility.yul\":3793:3822   */\n  swap1\n  pop\n    /* \"#utility.yul\":3533:3828   */\n  swap3\n  swap2\n  pop\n  pop\n  jump\t// out\n    /* \"#utility.yul\":3833:5228   */\ntag_7:\n    /* \"#utility.yul\":3950:3987   */\n  tag_109\n    /* \"#utility.yul\":3983:3986   */\n  dup3\n    /* \"#utility.yul\":3950:3987   */\n  tag_37\n  jump\t// in\ntag_109:\n    /* \"#utility.yul\":4052:4070   */\n  0xffffffffffffffff\n    /* \"#utility.yul\":4044:4050   */\n  dup2\n    /* \"#utility.yul\":4041:4071   */\n  gt\n    /* \"#utility.yul\":4038:4094   */\n  iszero\n  tag_110\n  jumpi\n    /* \"#utility.yul\":4074:4092   */\n  tag_111\n  tag_38\n  jump\t// in\ntag_111:\n    /* \"#utility.yul\":4038:4094   */\ntag_110:\n    /* \"#utility.yul\":4118:4156   */\n  tag_112\n    /* \"#utility.yul\":4150:4154   */\n  dup3\n    /* \"#utility.yul\":4144:4155   */\n  sload\n    /* \"#utility.yul\":4118:4156   */\n  tag_40\n  jump\t// in\ntag_112:\n    /* \"#utility.yul\":4203:4270   */\n  tag_113\n    /* \"#utility.yul\":4263:4269   */\n  dup3\n    /* \"#utility.yul\":4255:4261   */\n  dup3\n    /* \"#utility.yul\":4249:4253   */\n  dup6\n    /* \"#utility.yul\":4203:4270   */\n  tag_53\n  jump\t// in\ntag_113:\n    /* \"#utility.yul\":4297:4298   */\n  0x00\n    /* \"#utility.yul\":4321:4325   */\n  0x20\n    /* \"#utility.yul\":4308:4325   */\n  swap1\n  pop\n    /* \"#utility.yul\":4353:4355   */\n  0x1f\n    /* \"#utility.yul\":4345:4351   */\n  dup4\n    /* \"#utility.yul\":4342:4356   */\n  gt\n    /* \"#utility.yul\":4370:4371   */\n  0x01\n    /* \"#utility.yul\":4365:4983   */\n  dup2\n  eq\n  tag_115\n  jumpi\n    /* \"#utility.yul\":5027:5028   */\n  0x00\n    /* \"#utility.yul\":5044:5050   */\n  dup5\n    /* \"#utility.yul\":5041:5118   */\n  iszero\n  tag_116\n  jumpi\n    /* \"#utility.yul\":5093:5102   */\n  dup3\n    /* \"#utility.yul\":5088:5091   */\n  dup8\n    /* \"#utility.yul\":5084:5103   */\n  add\n    /* \"#utility.yul\":5078:5104   */\n  mload\n    /* \"#utility.yul\":5069:5104   */\n  swap1\n  pop\n    /* \"#utility.yul\":5041:5118   */\ntag_116:\n    /* \"#utility.yul\":5144:5211   */\n  tag_117\n    /* \"#utility.yul\":5204:5210   */\n  dup6\n    /* \"#utility.yul\":5197:5202   */\n  dup3\n    /* \"#utility.yul\":5144:5211   */\n  tag_56\n  jump\t// in\ntag_117:\n    /* \"#utility.yul\":5138:5142   */\n  dup7\n    /* \"#utility.yul\":5131:5212   */\n  sstore\n    /* \"#utility.yul\":5000:5222   */\n  pop\n    /* \"#utility.yul\":4335:5222   */\n  jump(tag_114)\n    /* \"#utility.yul\":4365:4983   */\ntag_115:\n    /* \"#utility.yul\":4417:4421   */\n  0x1f\n    /* \"#utility.yul\":4413:4422   */\n  not\n    /* \"#utility.yul\":4405:4411   */\n  dup5\n    /* \"#utility.yul\":4401:4423   */\n  and\n    /* \"#utility.yul\":4451:4488   */\n  tag_118\n    /* \"#utility.yul\":4483:4487   */\n  dup7\n    /* \"#utility.yul\":4451:4488   */\n  tag_41\n  jump\t// in\ntag_118:\n    /* \"#utility.yul\":4510:4511   */\n  0x00\n    /* \"#utility.yul\":4524:4732   */\ntag_119:\n    /* \"#utility.yul\":4538:4545   */\n  dup3\n    /* \"#utility.yul\":4535:4536   */\n  dup2\n    /* \"#utility.yul\":4532:4546   */\n  lt\n    /* \"#utility.yul\":4524:4732   */\n  iszero\n  tag_121\n  jumpi\n    /* \"#utility.yul\":4617:4626   */\n  dup5\n    /* \"#utility.yul\":4612:4615   */\n  dup10\n    /* \"#utility.yul\":4608:4627   */\n  add\n    /* \"#utility.yul\":4602:4628   */\n  mload\n    /* \"#utility.yul\":4594:4600   */\n  dup3\n    /* \"#utility.yul\":4587:4629   */\n  sstore\n    /* \"#utility.yul\":4668:4669   */\n  0x01\n    /* \"#utility.yul\":4660:4666   */\n  dup3\n    /* \"#utility.yul\":4656:4670   */\n  add\n    /* \"#utility.yul\":4646:4670   */\n  swap2\n  pop\n    /* \"#utility.yul\":4715:4717   */\n  0x20\n    /* \"#utility.yul\":4704:4713   */\n  dup6\n    /* \"#utility.yul\":4700:4718   */\n  add\n    /* \"#utility.yul\":4687:4718   */\n  swap5\n  pop\n    /* \"#utility.yul\":4561:4565   */\n  0x20\n    /* \"#utility.yul\":4558:4559   */\n  dup2\n    /* \"#utility.yul\":4554:4566   */\n  add\n    /* \"#utility.yul\":4549:4566   */\n  swap1\n  pop\n    /* \"#utility.yul\":4524:4732   */\n  jump(tag_119)\ntag_121:\n    /* \"#utility.yul\":4760:4766   */\n  dup7\n    /* \"#utility.yul\":4751:4758   */\n  dup4\n    /* \"#utility.yul\":4748:4767   */\n  lt\n    /* \"#utility.yul\":4745:4924   */\n  iszero\n  tag_122\n  jumpi\n    /* \"#utility.yul\":4818:4827   */\n  dup5\n    /* \"#utility.yul\":4813:4816   */\n  dup10\n    /* \"#utility.yul\":4809:4828   */\n  add\n    /* \"#utility.yul\":4803:4829   */\n  mload\n    /* \"#utility.yul\":4861:4909   */\n  tag_123\n    /* \"#utility.yul\":4903:4907   */\n  0x1f\n    /* \"#utility.yul\":4895:4901   */\n  dup10\n    /* \"#utility.yul\":4891:4908   */\n  and\n    /* \"#utility.yul\":4880:4889   */\n  dup3\n    /* \"#utility.yul\":4861:4909   */\n  tag_55\n  jump\t// in\ntag_123:\n    /* \"#utility.yul\":4853:4859   */\n  dup4\n    /* \"#utility.yul\":4846:4910   */\n  sstore\n    /* \"#utility.yul\":4768:4924   */\n  pop\n    /* \"#utility.yul\":4745:4924   */\ntag_122:\n    /* \"#utility.yul\":4970:4971   */\n  0x01\n    /* \"#utility.yul\":4966:4967   */\n  0x02\n    /* \"#utility.yul\":4958:4964   */\n  dup9\n    /* \"#utility.yul\":4954:4968   */\n  mul\n    /* \"#utility.yul\":4950:4972   */\n  add\n    /* \"#utility.yul\":4944:4948   */\n  dup9\n    /* \"#utility.yul\":4937:4973   */\n  sstore\n    /* \"#utility.yul\":4372:4983   */\n  pop\n  pop\n  pop\n    /* \"#utility.yul\":4335:5222   */\ntag_114:\n  pop\n    /* \"#utility.yul\":3925:5228   */\n  pop\n  pop\n  pop\n    /* \"#utility.yul\":3833:5228   */\n  pop\n  pop\n  jump\t// out\n    /* \"#utility.yul\":5234:5360   */\ntag_57:\n    /* \"#utility.yul\":5271:5278   */\n  0x00\n    /* \"#utility.yul\":5311:5353   */\n  0xffffffffffffffffffffffffffffffffffffffff\n    /* \"#utility.yul\":5304:5309   */\n  dup3\n    /* \"#utility.yul\":5300:5354   */\n  and\n    /* \"#utility.yul\":5289:5354   */\n  swap1\n  pop\n    /* \"#utility.yul\":5234:5360   */\n  swap2\n  swap1\n  pop\n  jump\t// out\n    /* \"#utility.yul\":5366:5462   */\ntag_58:\n    /* \"#utility.yul\":5403:5410   */\n  0x00\n    /* \"#utility.yul\":5432:5456   */\n  tag_126\n    /* \"#utility.yul\":5450:5455   */\n  dup3\n    /* \"#utility.yul\":5432:5456   */\n  tag_57\n  jump\t// in\ntag_126:\n    /* \"#utility.yul\":5421:5456   */\n  swap1\n  pop\n    /* \"#utility.yul\":5366:5462   */\n  swap2\n  swap1\n  pop\n  jump\t// out\n    /* \"#utility.yul\":5468:5586   */\ntag_59:\n    /* \"#utility.yul\":5555:5579   */\n  tag_128\n    /* \"#utility.yul\":5573:5578   */\n  dup2\n    /* \"#utility.yul\":5555:5579   */\n  tag_58\n  jump\t// in\ntag_128:\n    /* \"#utility.yul\":5550:5553   */\n  dup3\n    /* \"#utility.yul\":5543:5580   */\n  mstore\n    /* \"#utility.yul\":5468:5586   */\n  pop\n  pop\n  jump\t// out\n    /* \"#utility.yul\":5592:5814   */\ntag_12:\n    /* \"#utility.yul\":5685:5689   */\n  0x00\n    /* \"#utility.yul\":5723:5725   */\n  0x20\n    /* \"#utility.yul\":5712:5721   */\n  dup3\n    /* \"#utility.yul\":5708:5726   */\n  add\n    /* \"#utility.yul\":5700:5726   */\n  swap1\n  pop\n    /* \"#utility.yul\":5736:5807   */\n  tag_130\n    /* \"#utility.yul\":5804:5805   */\n  0x00\n    /* \"#utility.yul\":5793:5802   */\n  dup4\n    /* \"#utility.yul\":5789:5806   */\n  add\n    /* \"#utility.yul\":5780:5786   */\n  dup5\n    /* \"#utility.yul\":5736:5807   */\n  tag_59\n  jump\t// in\ntag_130:\n    /* \"#utility.yul\":5592:5814   */\n  swap3\n  swap2\n  pop\n  pop\n  jump\t// out\n    /* \"#utility.yul\":5820:6000   */\ntag_60:\n    /* \"#utility.yul\":5868:5945   */\n  0x4e487b7100000000000000000000000000000000000000000000000000000000\n    /* \"#utility.yul\":5865:5866   */\n  0x00\n    /* \"#utility.yul\":5858:5946   */\n  mstore\n    /* \"#utility.yul\":5965:5969   */\n  0x11\n    /* \"#utility.yul\":5962:5963   */\n  0x04\n    /* \"#utility.yul\":5955:5970   */\n  mstore\n    /* \"#utility.yul\":5989:5993   */\n  0x24\n    /* \"#utility.yul\":5986:5987   */\n  0x00\n    /* \"#utility.yul\":5979:5994   */\n  revert\n    /* \"#utility.yul\":6006:6197   */\ntag_28:\n    /* \"#utility.yul\":6046:6049   */\n  0x00\n    /* \"#utility.yul\":6065:6085   */\n  tag_133\n    /* \"#utility.yul\":6083:6084   */\n  dup3\n    /* \"#utility.yul\":6065:6085   */\n  tag_45\n  jump\t// in\ntag_133:\n    /* \"#utility.yul\":6060:6085   */\n  swap2\n  pop\n    /* \"#utility.yul\":6099:6119   */\n  tag_134\n    /* \"#utility.yul\":6117:6118   */\n  dup4\n    /* \"#utility.yul\":6099:6119   */\n  tag_45\n  jump\t// in\ntag_134:\n    /* \"#utility.yul\":6094:6119   */\n  swap3\n  pop\n    /* \"#utility.yul\":6142:6143   */\n  dup3\n    /* \"#utility.yul\":6139:6140   */\n  dup3\n    /* \"#utility.yul\":6135:6144   */\n  add\n    /* \"#utility.yul\":6128:6144   */\n  swap1\n  pop\n    /* \"#utility.yul\":6163:6166   */\n  dup1\n    /* \"#utility.yul\":6160:6161   */\n  dup3\n    /* \"#utility.yul\":6157:6167   */\n  gt\n    /* \"#utility.yul\":6154:6190   */\n  iszero\n  tag_135\n  jumpi\n    /* \"#utility.yul\":6170:6188   */\n  tag_136\n  tag_60\n  jump\t// in\ntag_136:\n    /* \"#utility.yul\":6154:6190   */\ntag_135:\n    /* \"#utility.yul\":6006:6197   */\n  swap3\n  swap2\n  pop\n  pop\n  jump\t// out\n    /* \"#utility.yul\":6203:6321   */\ntag_61:\n    /* \"#utility.yul\":6290:6314   */\n  tag_138\n    /* \"#utility.yul\":6308:6313   */\n  dup2\n    /* \"#utility.yul\":6290:6314   */\n  tag_45\n  jump\t// in\ntag_138:\n    /* \"#utility.yul\":6285:6288   */\n  dup3\n    /* \"#utility.yul\":6278:6315   */\n  mstore\n    /* \"#utility.yul\":6203:6321   */\n  pop\n  pop\n  jump\t// out\n    /* \"#utility.yul\":6327:6769   */\ntag_32:\n    /* \"#utility.yul\":6476:6480   */\n  0x00\n    /* \"#utility.yul\":6514:6516   */\n  0x60\n    /* \"#utility.yul\":6503:6512   */\n  dup3\n    /* \"#utility.yul\":6499:6517   */\n  add\n    /* \"#utility.yul\":6491:6517   */\n  swap1\n  pop\n    /* \"#utility.yul\":6527:6598   */\n  tag_140\n    /* \"#utility.yul\":6595:6596   */\n  0x00\n    /* \"#utility.yul\":6584:6593   */\n  dup4\n    /* \"#utility.yul\":6580:6597   */\n  add\n    /* \"#utility.yul\":6571:6577   */\n  dup7\n    /* \"#utility.yul\":6527:6598   */\n  tag_59\n  jump\t// in\ntag_140:\n    /* \"#utility.yul\":6608:6680   */\n  tag_141\n    /* \"#utility.yul\":6676:6678   */\n  0x20\n    /* \"#utility.yul\":6665:6674   */\n  dup4\n    /* \"#utility.yul\":6661:6679   */\n  add\n    /* \"#utility.yul\":6652:6658   */\n  dup6\n    /* \"#utility.yul\":6608:6680   */\n  tag_61\n  jump\t// in\ntag_141:\n    /* \"#utility.yul\":6690:6762   */\n  tag_142\n    /* \"#utility.yul\":6758:6760   */\n  0x40\n    /* \"#utility.yul\":6747:6756   */\n  dup4\n    /* \"#utility.yul\":6743:6761   */\n  add\n    /* \"#utility.yul\":6734:6740   */\n  dup5\n    /* \"#utility.yul\":6690:6762   */\n  tag_61\n  jump\t// in\ntag_142:\n    /* \"#utility.yul\":6327:6769   */\n  swap5\n  swap4\n  pop\n  pop\n  pop\n  pop\n  jump\t// out\n    /* \"#utility.yul\":6775:6997   */\ntag_36:\n    /* \"#utility.yul\":6868:6872   */\n  0x00\n    /* \"#utility.yul\":6906:6908   */\n  0x20\n    /* \"#utility.yul\":6895:6904   */\n  dup3\n    /* \"#utility.yul\":6891:6909   */\n  add\n    /* \"#utility.yul\":6883:6909   */\n  swap1\n  pop\n    /* \"#utility.yul\":6919:6990   */\n  tag_144\n    /* \"#utility.yul\":6987:6988   */\n  0x00\n    /* \"#utility.yul\":6976:6985   */\n  dup4\n    /* \"#utility.yul\":6972:6989   */\n  add\n    /* \"#utility.yul\":6963:6969   */\n  dup5\n    /* \"#utility.yul\":6919:6990   */\n  tag_61\n  jump\t// in\ntag_144:\n    /* \"#utility.yul\":6775:6997   */\n  swap3\n  swap2\n  pop\n  pop\n  jump\t// out\n    /* \"main.sol\":247:5716  contract CreditToken is ERC20, Ownable {... */\ntag_18:\n  dataSize(sub_0)\n  dup1\n  dataOffset(sub_0)\n  0x00\n  codecopy\n  0x00\n  return\nstop\n\nsub_0: assembly {\n        /* \"main.sol\":247:5716  contract CreditToken is ERC20, Ownable {... */\n      mstore(0x40, 0x80)\n      callvalue\n      dup1\n      iszero\n      tag_1\n      jumpi\n      0x00\n      dup1\n      revert\n    tag_1:\n      pop\n      jumpi(tag_2, lt(calldatasize, 0x04))\n      shr(0xe0, calldataload(0x00))\n      dup1\n      0x8da5cb5b\n      gt\n      tag_27\n      jumpi\n      dup1\n      0xadfbe22f\n      gt\n      tag_28\n      jumpi\n      dup1\n      0xadfbe22f\n      eq\n      tag_21\n      jumpi\n      dup1\n      0xbdbfa3de\n      eq\n      tag_22\n      jumpi\n      dup1\n      0xc2fdbdad\n      eq\n      tag_23\n      jumpi\n      dup1\n      0xdd62ed3e\n      eq\n      tag_24\n      jumpi\n      dup1\n      0xe1ec3c68\n      eq\n      tag_25\n      jumpi\n      dup1\n      0xf2fde38b\n      eq\n      tag_26\n      jumpi\n      jump(tag_2)\n    tag_28:\n      dup1\n      0x8da5cb5b\n      eq\n      tag_15\n      jumpi\n      dup1\n      0x95d89b41\n      eq\n      tag_16\n      jumpi\n      dup1\n      0xa5410a66\n      eq\n      tag_17\n      jumpi\n      dup1\n      0xa6f5b3b3\n      eq\n      tag_18\n      jumpi\n      dup1\n      0xa9059cbb\n      eq\n      tag_19\n      jumpi\n      dup1\n      0xab7b1c89\n      eq\n      tag_20\n      jumpi\n      jump(tag_2)\n    tag_27:\n      dup1\n      0x38d16011\n      gt\n      tag_29\n      jumpi\n      dup1\n      0x38d16011\n      eq\n      tag_9\n      jumpi\n      dup1\n      0x70a08231\n      eq\n      tag_10\n      jumpi\n      dup1\n      0x715018a6\n      eq\n      tag_11\n      jumpi\n      dup1\n      0x75794a3c\n      eq\n      tag_12\n      jumpi\n      dup1\n      0x759135a1\n      eq\n      tag_13\n      jumpi\n      dup1\n      0x87c51459\n      eq\n      tag_14\n      jumpi\n      jump(tag_2)\n    tag_29:\n      dup1\n      0x06fdde03\n      eq\n      tag_3\n      jumpi\n      dup1\n      0x095ea7b3\n      eq\n      tag_4\n      jumpi\n      dup1\n      0x18160ddd\n      eq\n      tag_5\n      jumpi\n      dup1\n      0x1a2ff598\n      eq\n      tag_6\n      jumpi\n      dup1\n      0x23b872dd\n      eq\n      tag_7\n      jumpi\n      dup1\n      0x313ce567\n      eq\n      tag_8\n      jumpi\n    tag_2:\n      0x00\n      dup1\n      revert\n        /* \"@openzeppelin/contracts/token/ERC20/ERC20.sol\":1779:1868  function name() public view virtual returns (string memory) {... */\n    tag_3:\n      tag_30\n      tag_31\n      jump\t// in\n    tag_30:\n      mload(0x40)\n      tag_32\n      swap2\n      swap1\n      tag_33\n      jump\t// in\n    tag_32:\n      mload(0x40)\n      dup1\n      swap2\n      sub\n      swap1\n      return\n        /* \"@openzeppelin/contracts/token/ERC20/ERC20.sol\":3998:4184  function approve(address spender, uint256 value) public virtual returns (bool) {... */\n    tag_4:\n      tag_34\n      0x04\n      dup1\n      calldatasize\n      sub\n      dup2\n      add\n      swap1\n      tag_35\n      swap2\n      swap1\n      tag_36\n      jump\t// in\n    tag_35:\n      tag_37\n      jump\t// in\n    tag_34:\n      mload(0x40)\n      tag_38\n      swap2\n      swap1\n      tag_39\n      jump\t// in\n    tag_38:\n      mload(0x40)\n      dup1\n      swap2\n      sub\n      swap1\n      return\n        /* \"@openzeppelin/contracts/token/ERC20/ERC20.sol\":2849:2946  function totalSupply() public view virtual returns (uint256) {... */\n    tag_5:\n      tag_40\n      tag_41\n      jump\t// in\n    tag_40:\n      mload(0x40)\n      tag_42\n      swap2\n      swap1\n      tag_43\n      jump\t// in\n    tag_42:\n      mload(0x40)\n      dup1\n      swap2\n      sub\n      swap1\n      return\n        /* \"main.sol\":1664:2915  function issueLoan(... */\n    tag_6:\n      tag_44\n      0x04\n      dup1\n      calldatasize\n      sub\n      dup2\n      add\n      swap1\n      tag_45\n      swap2\n      swap1\n      tag_46\n      jump\t// in\n    tag_45:\n      tag_47\n      jump\t// in\n    tag_44:\n      mload(0x40)\n      tag_48\n      swap2\n      swap1\n      tag_43\n      jump\t// in\n    tag_48:\n      mload(0x40)\n      dup1\n      swap2\n      sub\n      swap1\n      return\n        /* \"@openzeppelin/contracts/token/ERC20/ERC20.sol\":4776:5020  function transferFrom(address from, address to, uint256 value) public virtual returns (bool) {... */\n    tag_7:\n      tag_49\n      0x04\n      dup1\n      calldatasize\n      sub\n      dup2\n      add\n      swap1\n      tag_50\n      swap2\n      swap1\n      tag_51\n      jump\t// in\n    tag_50:\n      tag_52\n      jump\t// in\n    tag_49:\n      mload(0x40)\n      tag_53\n      swap2\n      swap1\n      tag_39\n      jump\t// in\n    tag_53:\n      mload(0x40)\n      dup1\n      swap2\n      sub\n      swap1\n      return\n        /* \"main.sol\":1564:1656  function decimals() public view virtual override returns (uint8) {... */\n    tag_8:\n      tag_54\n      tag_55\n      jump\t// in\n    tag_54:\n      mload(0x40)\n      tag_56\n      swap2\n      swap1\n      tag_57\n      jump\t// in\n    tag_56:\n      mload(0x40)\n      dup1\n      swap2\n      sub\n      swap1\n      return\n        /* \"main.sol\":1428:1556  function verifyKYC(address user) external onlyOwner {... */\n    tag_9:\n      tag_58\n      0x04\n      dup1\n      calldatasize\n      sub\n      dup2\n      add\n      swap1\n      tag_59\n      swap2\n      swap1\n      tag_60\n      jump\t// in\n    tag_59:\n      tag_61\n      jump\t// in\n    tag_58:\n      stop\n        /* \"@openzeppelin/contracts/token/ERC20/ERC20.sol\":3004:3120  function balanceOf(address account) public view virtual returns (uint256) {... */\n    tag_10:\n      tag_62\n      0x04\n      dup1\n      calldatasize\n      sub\n      dup2\n      add\n      swap1\n      tag_63\n      swap2\n      swap1\n      tag_60\n      jump\t// in\n    tag_63:\n      tag_64\n      jump\t// in\n    tag_62:\n      mload(0x40)\n      tag_65\n      swap2\n      swap1\n      tag_43\n      jump\t// in\n    tag_65:\n      mload(0x40)\n      dup1\n      swap2\n      sub\n      swap1\n      return\n        /* \"@openzeppelin/contracts/access/Ownable.sol\":2293:2394  function renounceOwnership() public virtual onlyOwner {... */\n    tag_11:\n      tag_66\n      tag_67\n      jump\t// in\n    tag_66:\n      stop\n        /* \"main.sol\":327:357  uint256 public nextTokenId = 1 */\n    tag_12:\n      tag_68\n      tag_69\n      jump\t// in\n    tag_68:\n      mload(0x40)\n      tag_70\n      swap2\n      swap1\n      tag_43\n      jump\t// in\n    tag_70:\n      mload(0x40)\n      dup1\n      swap2\n      sub\n      swap1\n      return\n        /* \"main.sol\":4826:5139  function checkDefault(uint256 loanId) external {... */\n    tag_13:\n      tag_71\n      0x04\n      dup1\n      calldatasize\n      sub\n      dup2\n      add\n      swap1\n      tag_72\n      swap2\n      swap1\n      tag_73\n      jump\t// in\n    tag_72:\n      tag_74\n      jump\t// in\n    tag_71:\n      stop\n        /* \"main.sol\":804:833  uint256 public nextLoanId = 1 */\n    tag_14:\n      tag_75\n      tag_76\n      jump\t// in\n    tag_75:\n      mload(0x40)\n      tag_77\n      swap2\n      swap1\n      tag_43\n      jump\t// in\n    tag_77:\n      mload(0x40)\n      dup1\n      swap2\n      sub\n      swap1\n      return\n        /* \"@openzeppelin/contracts/access/Ownable.sol\":1638:1723  function owner() public view virtual returns (address) {... */\n    tag_15:\n      tag_78\n      tag_79\n      jump\t// in\n    tag_78:\n      mload(0x40)\n      tag_80\n      swap2\n      swap1\n      tag_81\n      jump\t// in\n    tag_80:\n      mload(0x40)\n      dup1\n      swap2\n      sub\n      swap1\n      return\n        /* \"@openzeppelin/contracts/token/ERC20/ERC20.sol\":1981:2074  function symbol() public view virtual returns (string memory) {... */\n    tag_16:\n      tag_82\n      tag_83\n      jump\t// in\n    tag_82:\n      mload(0x40)\n      tag_84\n      swap2\n      swap1\n      tag_33\n      jump\t// in\n    tag_84:\n      mload(0x40)\n      dup1\n      swap2\n      sub\n      swap1\n      return\n        /* \"main.sol\":754:797  mapping(address => bool) public kycVerified */\n    tag_17:\n      tag_85\n      0x04\n      dup1\n      calldatasize\n      sub\n      dup2\n      add\n      swap1\n      tag_86\n      swap2\n      swap1\n      tag_60\n      jump\t// in\n    tag_86:\n      tag_87\n      jump\t// in\n    tag_85:\n      mload(0x40)\n      tag_88\n      swap2\n      swap1\n      tag_39\n      jump\t// in\n    tag_88:\n      mload(0x40)\n      dup1\n      swap2\n      sub\n      swap1\n      return\n        /* \"main.sol\":5147:5421  function timeUntilDue(uint256 loanId) external view returns (uint256) {... */\n    tag_18:\n      tag_89\n      0x04\n      dup1\n      calldatasize\n      sub\n      dup2\n      add\n      swap1\n      tag_90\n      swap2\n      swap1\n      tag_73\n      jump\t// in\n    tag_90:\n      tag_91\n      jump\t// in\n    tag_89:\n      mload(0x40)\n      tag_92\n      swap2\n      swap1\n      tag_43\n      jump\t// in\n    tag_92:\n      mload(0x40)\n      dup1\n      swap2\n      sub\n      swap1\n      return\n        /* \"@openzeppelin/contracts/token/ERC20/ERC20.sol\":3315:3493  function transfer(address to, uint256 value) public virtual returns (bool) {... */\n    tag_19:\n      tag_93\n      0x04\n      dup1\n      calldatasize\n      sub\n      dup2\n      add\n      swap1\n      tag_94\n      swap2\n      swap1\n      tag_36\n      jump\t// in\n    tag_94:\n      tag_95\n      jump\t// in\n    tag_93:\n      mload(0x40)\n      tag_96\n      swap2\n      swap1\n      tag_39\n      jump\t// in\n    tag_96:\n      mload(0x40)\n      dup1\n      swap2\n      sub\n      swap1\n      return\n        /* \"main.sol\":3281:3802  function repayLoan(uint256 loanId) external {... */\n    tag_20:\n      tag_97\n      0x04\n      dup1\n      calldatasize\n      sub\n      dup2\n      add\n      swap1\n      tag_98\n      swap2\n      swap1\n      tag_73\n      jump\t// in\n    tag_98:\n      tag_99\n      jump\t// in\n    tag_97:\n      stop\n        /* \"main.sol\":2923:3273  function acceptLoan(uint256 loanId) external {... */\n    tag_21:\n      tag_100\n      0x04\n      dup1\n      calldatasize\n      sub\n      dup2\n      add\n      swap1\n      tag_101\n      swap2\n      swap1\n      tag_73\n      jump\t// in\n    tag_101:\n      tag_102\n      jump\t// in\n    tag_100:\n      stop\n        /* \"main.sol\":4406:4818  function cancelLoan(uint256 loanId) external {... */\n    tag_22:\n      tag_103\n      0x04\n      dup1\n      calldatasize\n      sub\n      dup2\n      add\n      swap1\n      tag_104\n      swap2\n      swap1\n      tag_73\n      jump\t// in\n    tag_104:\n      tag_105\n      jump\t// in\n    tag_103:\n      stop\n        /* \"main.sol\":4119:4398  function isNFTBurned(uint256 nftTokenId) external view returns (bool) {... */\n    tag_23:\n      tag_106\n      0x04\n      dup1\n      calldatasize\n      sub\n      dup2\n      add\n      swap1\n      tag_107\n      swap2\n      swap1\n      tag_73\n      jump\t// in\n    tag_107:\n      tag_108\n      jump\t// in\n    tag_106:\n      mload(0x40)\n      tag_109\n      swap2\n      swap1\n      tag_39\n      jump\t// in\n    tag_109:\n      mload(0x40)\n      dup1\n      swap2\n      sub\n      swap1\n      return\n        /* \"@openzeppelin/contracts/token/ERC20/ERC20.sol\":3551:3691  function allowance(address owner, address spender) public view virtual returns (uint256) {... */\n    tag_24:\n      tag_110\n      0x04\n      dup1\n      calldatasize\n      sub\n      dup2\n      add\n      swap1\n      tag_111\n      swap2\n      swap1\n      tag_112\n      jump\t// in\n    tag_111:\n      tag_113\n      jump\t// in\n    tag_110:\n      mload(0x40)\n      tag_114\n      swap2\n      swap1\n      tag_43\n      jump\t// in\n    tag_114:\n      mload(0x40)\n      dup1\n      swap2\n      sub\n      swap1\n      return\n        /* \"main.sol\":710:747  mapping(uint256 => Loan) public loans */\n    tag_25:\n      tag_115\n      0x04\n      dup1\n      calldatasize\n      sub\n      dup2\n      add\n      swap1\n      tag_116\n      swap2\n      swap1\n      tag_73\n      jump\t// in\n    tag_116:\n      tag_117\n      jump\t// in\n    tag_115:\n      mload(0x40)\n      tag_118\n      swap13\n      swap12\n      swap11\n      swap10\n      swap9\n      swap8\n      swap7\n      swap6\n      swap5\n      swap4\n      swap3\n      swap2\n      swap1\n      tag_119\n      jump\t// in\n    tag_118:\n      mload(0x40)\n      dup1\n      swap2\n      sub\n      swap1\n      return\n        /* \"@openzeppelin/contracts/access/Ownable.sol\":2543:2758  function transferOwnership(address newOwner) public virtual onlyOwner {... */\n    tag_26:\n      tag_120\n      0x04\n      dup1\n      calldatasize\n      sub\n      dup2\n      add\n      swap1\n      tag_121\n      swap2\n      swap1\n      tag_60\n      jump\t// in\n    tag_121:\n      tag_122\n      jump\t// in\n    tag_120:\n      stop\n        /* \"@openzeppelin/contracts/token/ERC20/ERC20.sol\":1779:1868  function name() public view virtual returns (string memory) {... */\n    tag_31:\n        /* \"@openzeppelin/contracts/token/ERC20/ERC20.sol\":1824:1837  string memory */\n      0x60\n        /* \"@openzeppelin/contracts/token/ERC20/ERC20.sol\":1856:1861  _name */\n      0x03\n        /* \"@openzeppelin/contracts/token/ERC20/ERC20.sol\":1849:1861  return _name */\n      dup1\n      sload\n      tag_124\n      swap1\n      tag_125\n      jump\t// in\n    tag_124:\n      dup1\n      0x1f\n      add\n      0x20\n      dup1\n      swap2\n      div\n      mul\n      0x20\n      add\n      mload(0x40)\n      swap1\n      dup2\n      add\n      0x40\n      mstore\n      dup1\n      swap3\n      swap2\n      swap1\n      dup2\n      dup2\n      mstore\n      0x20\n      add\n      dup3\n      dup1\n      sload\n      tag_126\n      swap1\n      tag_125\n      jump\t// in\n    tag_126:\n      dup1\n      iszero\n      tag_127\n      jumpi\n      dup1\n      0x1f\n      lt\n      tag_128\n      jumpi\n      0x0100\n      dup1\n      dup4\n      sload\n      div\n      mul\n      dup4\n      mstore\n      swap2\n      0x20\n      add\n      swap2\n      jump(tag_127)\n    tag_128:\n      dup3\n      add\n      swap2\n      swap1\n      0x00\n      mstore\n      keccak256(0x00, 0x20)\n      swap1\n    tag_129:\n      dup2\n      sload\n      dup2\n      mstore\n      swap1\n      0x01\n      add\n      swap1\n      0x20\n      add\n      dup1\n      dup4\n      gt\n      tag_129\n      jumpi\n      dup3\n      swap1\n      sub\n      0x1f\n      and\n      dup3\n      add\n      swap2\n    tag_127:\n      pop\n      pop\n      pop\n      pop\n      pop\n      swap1\n      pop\n        /* \"@openzeppelin/contracts/token/ERC20/ERC20.sol\":1779:1868  function name() public view virtual returns (string memory) {... */\n      swap1\n      jump\t// out\n        /* \"@openzeppelin/contracts/token/ERC20/ERC20.sol\":3998:4184  function approve(address spender, uint256 value) public virtual returns (bool) {... */\n    tag_37:\n        /* \"@openzeppelin/contracts/token/ERC20/ERC20.sol\":4071:4075  bool */\n      0x00\n        /* \"@openzeppelin/contracts/token/ERC20/ERC20.sol\":4087:4100  address owner */\n      dup1\n        /* \"@openzeppelin/contracts/token/ERC20/ERC20.sol\":4103:4115  _msgSender() */\n      tag_131\n        /* \"@openzeppelin/contracts/token/ERC20/ERC20.sol\":4103:4113  _msgSender */\n      tag_132\n        /* \"@openzeppelin/contracts/token/ERC20/ERC20.sol\":4103:4115  _msgSender() */\n      jump\t// in\n    tag_131:\n        /* \"@openzeppelin/contracts/token/ERC20/ERC20.sol\":4087:4115  address owner = _msgSender() */\n      swap1\n      pop\n        /* \"@openzeppelin/contracts/token/ERC20/ERC20.sol\":4125:4156  _approve(owner, spender, value) */\n      tag_133\n        /* \"@openzeppelin/contracts/token/ERC20/ERC20.sol\":4134:4139  owner */\n      dup2\n        /* \"@openzeppelin/contracts/token/ERC20/ERC20.sol\":4141:4148  spender */\n      dup6\n        /* \"@openzeppelin/contracts/token/ERC20/ERC20.sol\":4150:4155  value */\n      dup6\n        /* \"@openzeppelin/contracts/token/ERC20/ERC20.sol\":4125:4133  _approve */\n      tag_134\n        /* \"@openzeppelin/contracts/token/ERC20/ERC20.sol\":4125:4156  _approve(owner, spender, value) */\n      jump\t// in\n    tag_133:\n        /* \"@openzeppelin/contracts/token/ERC20/ERC20.sol\":4173:4177  true */\n      0x01\n        /* \"@openzeppelin/contracts/token/ERC20/ERC20.sol\":4166:4177  return true */\n      swap2\n      pop\n      pop\n        /* \"@openzeppelin/contracts/token/ERC20/ERC20.sol\":3998:4184  function approve(address spender, uint256 value) public virtual returns (bool) {... */\n      swap3\n      swap2\n      pop\n      pop\n      jump\t// out\n        /* \"@openzeppelin/contracts/token/ERC20/ERC20.sol\":2849:2946  function totalSupply() public view virtual returns (uint256) {... */\n    tag_41:\n        /* \"@openzeppelin/contracts/token/ERC20/ERC20.sol\":2901:2908  uint256 */\n      0x00\n        /* \"@openzeppelin/contracts/token/ERC20/ERC20.sol\":2927:2939  _totalSupply */\n      sload(0x02)\n        /* \"@openzeppelin/contracts/token/ERC20/ERC20.sol\":2920:2939  return _totalSupply */\n      swap1\n      pop\n        /* \"@openzeppelin/contracts/token/ERC20/ERC20.sol\":2849:2946  function totalSupply() public view virtual returns (uint256) {... */\n      swap1\n      jump\t// out\n        /* \"main.sol\":1664:2915  function issueLoan(... */\n    tag_47:\n        /* \"main.sol\":1823:1830  uint256 */\n      0x00\n        /* \"main.sol\":1851:1862  kycVerified */\n      0x08\n        /* \"main.sol\":1851:1872  kycVerified[borrower] */\n      0x00\n        /* \"main.sol\":1863:1871  borrower */\n      dup7\n        /* \"main.sol\":1851:1872  kycVerified[borrower] */\n      0xffffffffffffffffffffffffffffffffffffffff\n      and\n      0xffffffffffffffffffffffffffffffffffffffff\n      and\n      dup2\n      mstore\n      0x20\n      add\n      swap1\n      dup2\n      mstore\n      0x20\n      add\n      0x00\n      keccak256\n      0x00\n      swap1\n      sload\n      swap1\n      0x0100\n      exp\n      swap1\n      div\n      0xff\n      and\n        /* \"main.sol\":1843:1906  require(kycVerified[borrower], \"Borrower must be KYC verified\") */\n      tag_137\n      jumpi\n      mload(0x40)\n      0x08c379a000000000000000000000000000000000000000000000000000000000\n      dup2\n      mstore\n      0x04\n      add\n      tag_138\n      swap1\n      tag_139\n      jump\t// in\n    tag_138:\n      mload(0x40)\n      dup1\n      swap2\n      sub\n      swap1\n      revert\n    tag_137:\n        /* \"main.sol\":1950:1956  amount */\n      dup4\n        /* \"main.sol\":1925:1946  balanceOf(msg.sender) */\n      tag_140\n        /* \"main.sol\":1935:1945  msg.sender */\n      caller\n        /* \"main.sol\":1925:1934  balanceOf */\n      tag_64\n        /* \"main.sol\":1925:1946  balanceOf(msg.sender) */\n      jump\t// in\n    tag_140:\n        /* \"main.sol\":1925:1956  balanceOf(msg.sender) >= amount */\n      lt\n      iszero\n        /* \"main.sol\":1917:1979  require(balanceOf(msg.sender) >= amount, \"Insufficient funds\") */\n      tag_141\n      jumpi\n      mload(0x40)\n      0x08c379a000000000000000000000000000000000000000000000000000000000\n      dup2\n      mstore\n      0x04\n      add\n      tag_142\n      swap1\n      tag_143\n      jump\t// in\n    tag_142:\n      mload(0x40)\n      dup1\n      swap2\n      sub\n      swap1\n      revert\n    tag_141:\n        /* \"main.sol\":2038:2044  amount */\n      dup4\n        /* \"main.sol\":1998:2034  allowance(msg.sender, address(this)) */\n      tag_144\n        /* \"main.sol\":2008:2018  msg.sender */\n      caller\n        /* \"main.sol\":2028:2032  this */\n      address\n        /* \"main.sol\":1998:2007  allowance */\n      tag_113\n        /* \"main.sol\":1998:2034  allowance(msg.sender, address(this)) */\n      jump\t// in\n    tag_144:\n        /* \"main.sol\":1998:2044  allowance(msg.sender, address(this)) >= amount */\n      lt\n      iszero\n        /* \"main.sol\":1990:2072  require(allowance(msg.sender, address(this)) >= amount, \"Allowance is not enough\") */\n      tag_145\n      jumpi\n      mload(0x40)\n      0x08c379a000000000000000000000000000000000000000000000000000000000\n      dup2\n      mstore\n      0x04\n      add\n      tag_146\n      swap1\n      tag_147\n      jump\t// in\n    tag_146:\n      mload(0x40)\n      dup1\n      swap2\n      sub\n      swap1\n      revert\n    tag_145:\n        /* \"main.sol\":2085:2105  uint256 loanDuration */\n      0x00\n        /* \"main.sol\":2108:2110  30 */\n      0x1e\n        /* \"main.sol\":2085:2110  uint256 loanDuration = 30 */\n      swap1\n      pop\n        /* \"main.sol\":2121:2173  _safeTransferFrom(msg.sender, address(this), amount) */\n      tag_148\n        /* \"main.sol\":2139:2149  msg.sender */\n      caller\n        /* \"main.sol\":2159:2163  this */\n      address\n        /* \"main.sol\":2166:2172  amount */\n      dup8\n        /* \"main.sol\":2121:2138  _safeTransferFrom */\n      tag_149\n        /* \"main.sol\":2121:2173  _safeTransferFrom(msg.sender, address(this), amount) */\n      jump\t// in\n    tag_148:\n        /* \"main.sol\":2184:2202  uint256 nftTokenId */\n      0x00\n        /* \"main.sol\":2205:2216  nextTokenId */\n      0x06\n      0x00\n        /* \"main.sol\":2205:2218  nextTokenId++ */\n      dup2\n      sload\n      dup1\n      swap3\n      swap2\n      swap1\n      tag_150\n      swap1\n      tag_151\n      jump\t// in\n    tag_150:\n      swap2\n      swap1\n      pop\n      sstore\n        /* \"main.sol\":2184:2218  uint256 nftTokenId = nextTokenId++ */\n      swap1\n      pop\n        /* \"main.sol\":2229:2243  uint256 loanId */\n      0x00\n        /* \"main.sol\":2246:2256  nextLoanId */\n      0x09\n      0x00\n        /* \"main.sol\":2246:2258  nextLoanId++ */\n      dup2\n      sload\n      dup1\n      swap3\n      swap2\n      swap1\n      tag_152\n      swap1\n      tag_151\n      jump\t// in\n    tag_152:\n      swap2\n      swap1\n      pop\n      sstore\n        /* \"main.sol\":2229:2258  uint256 loanId = nextLoanId++ */\n      swap1\n      pop\n        /* \"main.sol\":2287:2735  Loan({... */\n      mload(0x40)\n      dup1\n      0x0180\n      add\n      0x40\n      mstore\n      dup1\n        /* \"main.sol\":2317:2325  borrower */\n      dup10\n        /* \"main.sol\":2287:2735  Loan({... */\n      0xffffffffffffffffffffffffffffffffffffffff\n      and\n      dup2\n      mstore\n      0x20\n      add\n        /* \"main.sol\":2348:2358  msg.sender */\n      caller\n        /* \"main.sol\":2287:2735  Loan({... */\n      0xffffffffffffffffffffffffffffffffffffffff\n      and\n      dup2\n      mstore\n      0x20\n      add\n        /* \"main.sol\":2381:2387  amount */\n      dup9\n        /* \"main.sol\":2287:2735  Loan({... */\n      dup2\n      mstore\n      0x20\n      add\n        /* \"main.sol\":2418:2432  interestAmount */\n      dup8\n        /* \"main.sol\":2287:2735  Loan({... */\n      dup2\n      mstore\n      0x20\n      add\n        /* \"main.sol\":2461:2473  loanDuration */\n      dup5\n        /* \"main.sol\":2287:2735  Loan({... */\n      dup2\n      mstore\n      0x20\n      add\n        /* \"main.sol\":2531:2537  1 days */\n      0x015180\n        /* \"main.sol\":2516:2528  loanDuration */\n      dup6\n        /* \"main.sol\":2516:2537  loanDuration * 1 days */\n      tag_153\n      swap2\n      swap1\n      tag_154\n      jump\t// in\n    tag_153:\n        /* \"main.sol\":2497:2512  block.timestamp */\n      timestamp\n        /* \"main.sol\":2497:2538  block.timestamp + (loanDuration * 1 days) */\n      tag_155\n      swap2\n      swap1\n      tag_156\n      jump\t// in\n    tag_155:\n        /* \"main.sol\":2287:2735  Loan({... */\n      dup2\n      mstore\n      0x20\n      add\n        /* \"main.sol\":2561:2566  false */\n      0x00\n        /* \"main.sol\":2287:2735  Loan({... */\n      iszero\n      iszero\n      dup2\n      mstore\n      0x20\n      add\n        /* \"main.sol\":2591:2596  false */\n      0x00\n        /* \"main.sol\":2287:2735  Loan({... */\n      iszero\n      iszero\n      dup2\n      mstore\n      0x20\n      add\n        /* \"main.sol\":2621:2626  false */\n      0x00\n        /* \"main.sol\":2287:2735  Loan({... */\n      iszero\n      iszero\n      dup2\n      mstore\n      0x20\n      add\n        /* \"main.sol\":2653:2663  nftTokenId */\n      dup4\n        /* \"main.sol\":2287:2735  Loan({... */\n      dup2\n      mstore\n      0x20\n      add\n        /* \"main.sol\":2691:2696  false */\n      0x00\n        /* \"main.sol\":2287:2735  Loan({... */\n      iszero\n      iszero\n      dup2\n      mstore\n      0x20\n      add\n        /* \"main.sol\":2718:2723  terms */\n      dup7\n        /* \"main.sol\":2287:2735  Loan({... */\n      dup2\n      mstore\n      pop\n        /* \"main.sol\":2271:2276  loans */\n      0x07\n        /* \"main.sol\":2271:2284  loans[loanId] */\n      0x00\n        /* \"main.sol\":2277:2283  loanId */\n      dup4\n        /* \"main.sol\":2271:2284  loans[loanId] */\n      dup2\n      mstore\n      0x20\n      add\n      swap1\n      dup2\n      mstore\n      0x20\n      add\n      0x00\n      keccak256\n        /* \"main.sol\":2271:2735  loans[loanId] = Loan({... */\n      0x00\n      dup3\n      add\n      mload\n      dup2\n      0x00\n      add\n      exp(0x0100, 0x00)\n      dup2\n      sload\n      dup2\n      0xffffffffffffffffffffffffffffffffffffffff\n      mul\n      not\n      and\n      swap1\n      dup4\n      0xffffffffffffffffffffffffffffffffffffffff\n      and\n      mul\n      or\n      swap1\n      sstore\n      pop\n      0x20\n      dup3\n      add\n      mload\n      dup2\n      0x01\n      add\n      exp(0x0100, 0x00)\n      dup2\n      sload\n      dup2\n      0xffffffffffffffffffffffffffffffffffffffff\n      mul\n      not\n      and\n      swap1\n      dup4\n      0xffffffffffffffffffffffffffffffffffffffff\n      and\n      mul\n      or\n      swap1\n      sstore\n      pop\n      0x40\n      dup3\n      add\n      mload\n      dup2\n      0x02\n      add\n      sstore\n      0x60\n      dup3\n      add\n      mload\n      dup2\n      0x03\n      add\n      sstore\n      0x80\n      dup3\n      add\n      mload\n      dup2\n      0x04\n      add\n      sstore\n      0xa0\n      dup3\n      add\n      mload\n      dup2\n      0x05\n      add\n      sstore\n      0xc0\n      dup3\n      add\n      mload\n      dup2\n      0x06\n      add\n      exp(0x0100, 0x00)\n      dup2\n      sload\n      dup2\n      0xff\n      mul\n      not\n      and\n      swap1\n      dup4\n      iszero\n      iszero\n      mul\n      or\n      swap1\n      sstore\n      pop\n      0xe0\n      dup3\n      add\n      mload\n      dup2\n      0x06\n      add\n      exp(0x0100, 0x01)\n      dup2\n      sload\n      dup2\n      0xff\n      mul\n      not\n      and\n      swap1\n      dup4\n      iszero\n      iszero\n      mul\n      or\n      swap1\n      sstore\n      pop\n      0x0100\n      dup3\n      add\n      mload\n      dup2\n      0x06\n      add\n      exp(0x0100, 0x02)\n      dup2\n      sload\n      dup2\n      0xff\n      mul\n      not\n      and\n      swap1\n      dup4\n      iszero\n      iszero\n      mul\n      or\n      swap1\n      sstore\n      pop\n      0x0120\n      dup3\n      add\n      mload\n      dup2\n      0x07\n      add\n      sstore\n      0x0140\n      dup3\n      add\n      mload\n      dup2\n      0x08\n      add\n      exp(0x0100, 0x00)\n      dup2\n      sload\n      dup2\n      0xff\n      mul\n      not\n      and\n      swap1\n      dup4\n      iszero\n      iszero\n      mul\n      or\n      swap1\n      sstore\n      pop\n      0x0160\n      dup3\n      add\n      mload\n      dup2\n      0x09\n      add\n      swap1\n      dup2\n      tag_157\n      swap2\n      swap1\n      tag_158\n      jump\t// in\n    tag_157:\n      pop\n      swap1\n      pop\n      pop\n        /* \"main.sol\":2753:2879  LoanIssued(loanId, borrower, msg.sender, amount, interestAmount, nftTokenId, block.timestamp + (loanDuration * 1 days), terms) */\n      0x065f30d94790e6e129604916065477a26eebb0e2a87f79e6b05b21a0f662d947\n        /* \"main.sol\":2764:2770  loanId */\n      dup2\n        /* \"main.sol\":2772:2780  borrower */\n      dup10\n        /* \"main.sol\":2782:2792  msg.sender */\n      caller\n        /* \"main.sol\":2794:2800  amount */\n      dup11\n        /* \"main.sol\":2802:2816  interestAmount */\n      dup11\n        /* \"main.sol\":2818:2828  nftTokenId */\n      dup8\n        /* \"main.sol\":2864:2870  1 days */\n      0x015180\n        /* \"main.sol\":2849:2861  loanDuration */\n      dup11\n        /* \"main.sol\":2849:2870  loanDuration * 1 days */\n      tag_159\n      swap2\n      swap1\n      tag_154\n      jump\t// in\n    tag_159:\n        /* \"main.sol\":2830:2845  block.timestamp */\n      timestamp\n        /* \"main.sol\":2830:2871  block.timestamp + (loanDuration * 1 days) */\n      tag_160\n      swap2\n      swap1\n      tag_156\n      jump\t// in\n    tag_160:\n        /* \"main.sol\":2873:2878  terms */\n      dup13\n        /* \"main.sol\":2753:2879  LoanIssued(loanId, borrower, msg.sender, amount, interestAmount, nftTokenId, block.timestamp + (loanDuration * 1 days), terms) */\n      mload(0x40)\n      tag_161\n      swap9\n      swap8\n      swap7\n      swap6\n      swap5\n      swap4\n      swap3\n      swap2\n      swap1\n      tag_162\n      jump\t// in\n    tag_161:\n      mload(0x40)\n      dup1\n      swap2\n      sub\n      swap1\n      log1\n        /* \"main.sol\":2897:2907  nftTokenId */\n      dup2\n        /* \"main.sol\":2890:2907  return nftTokenId */\n      swap4\n      pop\n      pop\n      pop\n      pop\n        /* \"main.sol\":1664:2915  function issueLoan(... */\n      swap5\n      swap4\n      pop\n      pop\n      pop\n      pop\n      jump\t// out\n        /* \"@openzeppelin/contracts/token/ERC20/ERC20.sol\":4776:5020  function transferFrom(address from, address to, uint256 value) public virtual returns (bool) {... */\n    tag_52:\n        /* \"@openzeppelin/contracts/token/ERC20/ERC20.sol\":4863:4867  bool */\n      0x00\n        /* \"@openzeppelin/contracts/token/ERC20/ERC20.sol\":4879:4894  address spender */\n      dup1\n        /* \"@openzeppelin/contracts/token/ERC20/ERC20.sol\":4897:4909  _msgSender() */\n      tag_164\n        /* \"@openzeppelin/contracts/token/ERC20/ERC20.sol\":4897:4907  _msgSender */\n      tag_132\n        /* \"@openzeppelin/contracts/token/ERC20/ERC20.sol\":4897:4909  _msgSender() */\n      jump\t// in\n    tag_164:\n        /* \"@openzeppelin/contracts/token/ERC20/ERC20.sol\":4879:4909  address spender = _msgSender() */\n      swap1\n      pop\n        /* \"@openzeppelin/contracts/token/ERC20/ERC20.sol\":4919:4956  _spendAllowance(from, spender, value) */\n      tag_165\n        /* \"@openzeppelin/contracts/token/ERC20/ERC20.sol\":4935:4939  from */\n      dup6\n        /* \"@openzeppelin/contracts/token/ERC20/ERC20.sol\":4941:4948  spender */\n      dup3\n        /* \"@openzeppelin/contracts/token/ERC20/ERC20.sol\":4950:4955  value */\n      dup6\n        /* \"@openzeppelin/contracts/token/ERC20/ERC20.sol\":4919:4934  _spendAllowance */\n      tag_166\n        /* \"@openzeppelin/contracts/token/ERC20/ERC20.sol\":4919:4956  _spendAllowance(from, spender, value) */\n      jump\t// in\n    tag_165:\n        /* \"@openzeppelin/contracts/token/ERC20/ERC20.sol\":4966:4992  _transfer(from, to, value) */\n      tag_167\n        /* \"@openzeppelin/contracts/token/ERC20/ERC20.sol\":4976:4980  from */\n      dup6\n        /* \"@openzeppelin/contracts/token/ERC20/ERC20.sol\":4982:4984  to */\n      dup6\n        /* \"@openzeppelin/contracts/token/ERC20/ERC20.sol\":4986:4991  value */\n      dup6\n        /* \"@openzeppelin/contracts/token/ERC20/ERC20.sol\":4966:4975  _transfer */\n      tag_168\n        /* \"@openzeppelin/contracts/token/ERC20/ERC20.sol\":4966:4992  _transfer(from, to, value) */\n      jump\t// in\n    tag_167:\n        /* \"@openzeppelin/contracts/token/ERC20/ERC20.sol\":5009:5013  true */\n      0x01\n        /* \"@openzeppelin/contracts/token/ERC20/ERC20.sol\":5002:5013  return true */\n      swap2\n      pop\n      pop\n        /* \"@openzeppelin/contracts/token/ERC20/ERC20.sol\":4776:5020  function transferFrom(address from, address to, uint256 value) public virtual returns (bool) {... */\n      swap4\n      swap3\n      pop\n      pop\n      pop\n      jump\t// out\n        /* \"main.sol\":1564:1656  function decimals() public view virtual override returns (uint8) {... */\n    tag_55:\n        /* \"main.sol\":1622:1627  uint8 */\n      0x00\n        /* \"main.sol\":1564:1656  function decimals() public view virtual override returns (uint8) {... */\n      swap1\n      jump\t// out\n        /* \"main.sol\":1428:1556  function verifyKYC(address user) external onlyOwner {... */\n    tag_61:\n        /* \"@openzeppelin/contracts/access/Ownable.sol\":1531:1544  _checkOwner() */\n      tag_171\n        /* \"@openzeppelin/contracts/access/Ownable.sol\":1531:1542  _checkOwner */\n      tag_172\n        /* \"@openzeppelin/contracts/access/Ownable.sol\":1531:1544  _checkOwner() */\n      jump\t// in\n    tag_171:\n        /* \"main.sol\":1511:1515  true */\n      0x01\n        /* \"main.sol\":1491:1502  kycVerified */\n      0x08\n        /* \"main.sol\":1491:1508  kycVerified[user] */\n      0x00\n        /* \"main.sol\":1503:1507  user */\n      dup4\n        /* \"main.sol\":1491:1508  kycVerified[user] */\n      0xffffffffffffffffffffffffffffffffffffffff\n      and\n      0xffffffffffffffffffffffffffffffffffffffff\n      and\n      dup2\n      mstore\n      0x20\n      add\n      swap1\n      dup2\n      mstore\n      0x20\n      add\n      0x00\n      keccak256\n      0x00\n        /* \"main.sol\":1491:1515  kycVerified[user] = true */\n      0x0100\n      exp\n      dup2\n      sload\n      dup2\n      0xff\n      mul\n      not\n      and\n      swap1\n      dup4\n      iszero\n      iszero\n      mul\n      or\n      swap1\n      sstore\n      pop\n        /* \"main.sol\":1543:1547  user */\n      dup1\n        /* \"main.sol\":1531:1548  KYCVerified(user) */\n      0xffffffffffffffffffffffffffffffffffffffff\n      and\n      0x65c84ee842eafc291d1272a6e3d10f8c454c4288e63f5db3f7be2b3012f321a9\n      mload(0x40)\n      mload(0x40)\n      dup1\n      swap2\n      sub\n      swap1\n      log2\n        /* \"main.sol\":1428:1556  function verifyKYC(address user) external onlyOwner {... */\n      pop\n      jump\t// out\n        /* \"@openzeppelin/contracts/token/ERC20/ERC20.sol\":3004:3120  function balanceOf(address account) public view virtual returns (uint256) {... */\n    tag_64:\n        /* \"@openzeppelin/contracts/token/ERC20/ERC20.sol\":3069:3076  uint256 */\n      0x00\n        /* \"@openzeppelin/contracts/token/ERC20/ERC20.sol\":3095:3104  _balances */\n      dup1\n        /* \"@openzeppelin/contracts/token/ERC20/ERC20.sol\":3095:3113  _balances[account] */\n      0x00\n        /* \"@openzeppelin/contracts/token/ERC20/ERC20.sol\":3105:3112  account */\n      dup4\n        /* \"@openzeppelin/contracts/token/ERC20/ERC20.sol\":3095:3113  _balances[account] */\n      0xffffffffffffffffffffffffffffffffffffffff\n      and\n      0xffffffffffffffffffffffffffffffffffffffff\n      and\n      dup2\n      mstore\n      0x20\n      add\n      swap1\n      dup2\n      mstore\n      0x20\n      add\n      0x00\n      keccak256\n      sload\n        /* \"@openzeppelin/contracts/token/ERC20/ERC20.sol\":3088:3113  return _balances[account] */\n      swap1\n      pop\n        /* \"@openzeppelin/contracts/token/ERC20/ERC20.sol\":3004:3120  function balanceOf(address account) public view virtual returns (uint256) {... */\n      swap2\n      swap1\n      pop\n      jump\t// out\n        /* \"@openzeppelin/contracts/access/Ownable.sol\":2293:2394  function renounceOwnership() public virtual onlyOwner {... */\n    tag_67:\n        /* \"@openzeppelin/contracts/access/Ownable.sol\":1531:1544  _checkOwner() */\n      tag_176\n        /* \"@openzeppelin/contracts/access/Ownable.sol\":1531:1542  _checkOwner */\n      tag_172\n        /* \"@openzeppelin/contracts/access/Ownable.sol\":1531:1544  _checkOwner() */\n      jump\t// in\n    tag_176:\n        /* \"@openzeppelin/contracts/access/Ownable.sol\":2357:2387  _transferOwnership(address(0)) */\n      tag_178\n        /* \"@openzeppelin/contracts/access/Ownable.sol\":2384:2385  0 */\n      0x00\n        /* \"@openzeppelin/contracts/access/Ownable.sol\":2357:2375  _transferOwnership */\n      tag_179\n        /* \"@openzeppelin/contracts/access/Ownable.sol\":2357:2387  _transferOwnership(address(0)) */\n      jump\t// in\n    tag_178:\n        /* \"@openzeppelin/contracts/access/Ownable.sol\":2293:2394  function renounceOwnership() public virtual onlyOwner {... */\n      jump\t// out\n        /* \"main.sol\":327:357  uint256 public nextTokenId = 1 */\n    tag_69:\n      sload(0x06)\n      dup2\n      jump\t// out\n        /* \"main.sol\":4826:5139  function checkDefault(uint256 loanId) external {... */\n    tag_74:\n        /* \"main.sol\":4884:4901  Loan storage loan */\n      0x00\n        /* \"main.sol\":4904:4909  loans */\n      0x07\n        /* \"main.sol\":4904:4917  loans[loanId] */\n      0x00\n        /* \"main.sol\":4910:4916  loanId */\n      dup4\n        /* \"main.sol\":4904:4917  loans[loanId] */\n      dup2\n      mstore\n      0x20\n      add\n      swap1\n      dup2\n      mstore\n      0x20\n      add\n      0x00\n      keccak256\n        /* \"main.sol\":4884:4917  Loan storage loan = loans[loanId] */\n      swap1\n      pop\n        /* \"main.sol\":4954:4958  loan */\n      dup1\n        /* \"main.sol\":4954:4966  loan.dueDate */\n      0x05\n      add\n      sload\n        /* \"main.sol\":4936:4951  block.timestamp */\n      timestamp\n        /* \"main.sol\":4936:4966  block.timestamp > loan.dueDate */\n      gt\n        /* \"main.sol\":4928:5008  require(block.timestamp > loan.dueDate, \"Loan is still within repayment period\") */\n      tag_181\n      jumpi\n      mload(0x40)\n      0x08c379a000000000000000000000000000000000000000000000000000000000\n      dup2\n      mstore\n      0x04\n      add\n      tag_182\n      swap1\n      tag_183\n      jump\t// in\n    tag_182:\n      mload(0x40)\n      dup1\n      swap2\n      sub\n      swap1\n      revert\n    tag_181:\n        /* \"main.sol\":5028:5032  loan */\n      dup1\n        /* \"main.sol\":5028:5039  loan.repaid */\n      0x06\n      add\n      0x00\n      swap1\n      sload\n      swap1\n      0x0100\n      exp\n      swap1\n      div\n      0xff\n      and\n        /* \"main.sol\":5027:5039  !loan.repaid */\n      iszero\n        /* \"main.sol\":5019:5063  require(!loan.repaid, \"Loan already repaid\") */\n      tag_184\n      jumpi\n      mload(0x40)\n      0x08c379a000000000000000000000000000000000000000000000000000000000\n      dup2\n      mstore\n      0x04\n      add\n      tag_185\n      swap1\n      tag_186\n      jump\t// in\n    tag_185:\n      mload(0x40)\n      dup1\n      swap2\n      sub\n      swap1\n      revert\n    tag_184:\n        /* \"main.sol\":5090:5094  true */\n      0x01\n        /* \"main.sol\":5074:5078  loan */\n      dup2\n        /* \"main.sol\":5074:5087  loan.canceled */\n      0x06\n      add\n      0x02\n        /* \"main.sol\":5074:5094  loan.canceled = true */\n      0x0100\n      exp\n      dup2\n      sload\n      dup2\n      0xff\n      mul\n      not\n      and\n      swap1\n      dup4\n      iszero\n      iszero\n      mul\n      or\n      swap1\n      sstore\n      pop\n        /* \"main.sol\":5110:5131  DefaultedLoan(loanId) */\n      0x0ab9f35a07aca8965fede1a225ff17bd92f8d63aa4eb9a61ace1e99495e2980d\n        /* \"main.sol\":5124:5130  loanId */\n      dup3\n        /* \"main.sol\":5110:5131  DefaultedLoan(loanId) */\n      mload(0x40)\n      tag_187\n      swap2\n      swap1\n      tag_43\n      jump\t// in\n    tag_187:\n      mload(0x40)\n      dup1\n      swap2\n      sub\n      swap1\n      log1\n        /* \"main.sol\":4873:5139  {... */\n      pop\n        /* \"main.sol\":4826:5139  function checkDefault(uint256 loanId) external {... */\n      pop\n      jump\t// out\n        /* \"main.sol\":804:833  uint256 public nextLoanId = 1 */\n    tag_76:\n      sload(0x09)\n      dup2\n      jump\t// out\n        /* \"@openzeppelin/contracts/access/Ownable.sol\":1638:1723  function owner() public view virtual returns (address) {... */\n    tag_79:\n        /* \"@openzeppelin/contracts/access/Ownable.sol\":1684:1691  address */\n      0x00\n        /* \"@openzeppelin/contracts/access/Ownable.sol\":1710:1716  _owner */\n      0x05\n      0x00\n      swap1\n      sload\n      swap1\n      0x0100\n      exp\n      swap1\n      div\n      0xffffffffffffffffffffffffffffffffffffffff\n      and\n        /* \"@openzeppelin/contracts/access/Ownable.sol\":1703:1716  return _owner */\n      swap1\n      pop\n        /* \"@openzeppelin/contracts/access/Ownable.sol\":1638:1723  function owner() public view virtual returns (address) {... */\n      swap1\n      jump\t// out\n        /* \"@openzeppelin/contracts/token/ERC20/ERC20.sol\":1981:2074  function symbol() public view virtual returns (string memory) {... */\n    tag_83:\n        /* \"@openzeppelin/contracts/token/ERC20/ERC20.sol\":2028:2041  string memory */\n      0x60\n        /* \"@openzeppelin/contracts/token/ERC20/ERC20.sol\":2060:2067  _symbol */\n      0x04\n        /* \"@openzeppelin/contracts/token/ERC20/ERC20.sol\":2053:2067  return _symbol */\n      dup1\n      sload\n      tag_190\n      swap1\n      tag_125\n      jump\t// in\n    tag_190:\n      dup1\n      0x1f\n      add\n      0x20\n      dup1\n      swap2\n      div\n      mul\n      0x20\n      add\n      mload(0x40)\n      swap1\n      dup2\n      add\n      0x40\n      mstore\n      dup1\n      swap3\n      swap2\n      swap1\n      dup2\n      dup2\n      mstore\n      0x20\n      add\n      dup3\n      dup1\n      sload\n      tag_191\n      swap1\n      tag_125\n      jump\t// in\n    tag_191:\n      dup1\n      iszero\n      tag_192\n      jumpi\n      dup1\n      0x1f\n      lt\n      tag_193\n      jumpi\n      0x0100\n      dup1\n      dup4\n      sload\n      div\n      mul\n      dup4\n      mstore\n      swap2\n      0x20\n      add\n      swap2\n      jump(tag_192)\n    tag_193:\n      dup3\n      add\n      swap2\n      swap1\n      0x00\n      mstore\n      keccak256(0x00, 0x20)\n      swap1\n    tag_194:\n      dup2\n      sload\n      dup2\n      mstore\n      swap1\n      0x01\n      add\n      swap1\n      0x20\n      add\n      dup1\n      dup4\n      gt\n      tag_194\n      jumpi\n      dup3\n      swap1\n      sub\n      0x1f\n      and\n      dup3\n      add\n      swap2\n    tag_192:\n      pop\n      pop\n      pop\n      pop\n      pop\n      swap1\n      pop\n        /* \"@openzeppelin/contracts/token/ERC20/ERC20.sol\":1981:2074  function symbol() public view virtual returns (string memory) {... */\n      swap1\n      jump\t// out\n        /* \"main.sol\":754:797  mapping(address => bool) public kycVerified */\n    tag_87:\n      mstore(0x20, 0x08)\n      dup1\n      0x00\n      mstore\n      keccak256(0x00, 0x40)\n      0x00\n      swap2\n      pop\n      sload\n      swap1\n      0x0100\n      exp\n      swap1\n      div\n      0xff\n      and\n      dup2\n      jump\t// out\n        /* \"main.sol\":5147:5421  function timeUntilDue(uint256 loanId) external view returns (uint256) {... */\n    tag_91:\n        /* \"main.sol\":5208:5215  uint256 */\n      0x00\n        /* \"main.sol\":5228:5245  Loan storage loan */\n      dup1\n        /* \"main.sol\":5248:5253  loans */\n      0x07\n        /* \"main.sol\":5248:5261  loans[loanId] */\n      0x00\n        /* \"main.sol\":5254:5260  loanId */\n      dup5\n        /* \"main.sol\":5248:5261  loans[loanId] */\n      dup2\n      mstore\n      0x20\n      add\n      swap1\n      dup2\n      mstore\n      0x20\n      add\n      0x00\n      keccak256\n        /* \"main.sol\":5228:5261  Loan storage loan = loans[loanId] */\n      swap1\n      pop\n        /* \"main.sol\":5295:5299  loan */\n      dup1\n        /* \"main.sol\":5295:5307  loan.dueDate */\n      0x05\n      add\n      sload\n        /* \"main.sol\":5276:5291  block.timestamp */\n      timestamp\n        /* \"main.sol\":5276:5307  block.timestamp >= loan.dueDate */\n      lt\n        /* \"main.sol\":5272:5414  if (block.timestamp >= loan.dueDate) {... */\n      tag_196\n      jumpi\n        /* \"main.sol\":5331:5332  0 */\n      0x00\n        /* \"main.sol\":5324:5332  return 0 */\n      swap2\n      pop\n      pop\n      jump(tag_195)\n        /* \"main.sol\":5272:5414  if (block.timestamp >= loan.dueDate) {... */\n    tag_196:\n        /* \"main.sol\":5387:5402  block.timestamp */\n      timestamp\n        /* \"main.sol\":5372:5376  loan */\n      dup2\n        /* \"main.sol\":5372:5384  loan.dueDate */\n      0x05\n      add\n      sload\n        /* \"main.sol\":5372:5402  loan.dueDate - block.timestamp */\n      tag_198\n      swap2\n      swap1\n      tag_199\n      jump\t// in\n    tag_198:\n        /* \"main.sol\":5365:5402  return loan.dueDate - block.timestamp */\n      swap2\n      pop\n      pop\n        /* \"main.sol\":5147:5421  function timeUntilDue(uint256 loanId) external view returns (uint256) {... */\n    tag_195:\n      swap2\n      swap1\n      pop\n      jump\t// out\n        /* \"@openzeppelin/contracts/token/ERC20/ERC20.sol\":3315:3493  function transfer(address to, uint256 value) public virtual returns (bool) {... */\n    tag_95:\n        /* \"@openzeppelin/contracts/token/ERC20/ERC20.sol\":3384:3388  bool */\n      0x00\n        /* \"@openzeppelin/contracts/token/ERC20/ERC20.sol\":3400:3413  address owner */\n      dup1\n        /* \"@openzeppelin/contracts/token/ERC20/ERC20.sol\":3416:3428  _msgSender() */\n      tag_201\n        /* \"@openzeppelin/contracts/token/ERC20/ERC20.sol\":3416:3426  _msgSender */\n      tag_132\n        /* \"@openzeppelin/contracts/token/ERC20/ERC20.sol\":3416:3428  _msgSender() */\n      jump\t// in\n    tag_201:\n        /* \"@openzeppelin/contracts/token/ERC20/ERC20.sol\":3400:3428  address owner = _msgSender() */\n      swap1\n      pop\n        /* \"@openzeppelin/contracts/token/ERC20/ERC20.sol\":3438:3465  _transfer(owner, to, value) */\n      tag_202\n        /* \"@openzeppelin/contracts/token/ERC20/ERC20.sol\":3448:3453  owner */\n      dup2\n        /* \"@openzeppelin/contracts/token/ERC20/ERC20.sol\":3455:3457  to */\n      dup6\n        /* \"@openzeppelin/contracts/token/ERC20/ERC20.sol\":3459:3464  value */\n      dup6\n        /* \"@openzeppelin/contracts/token/ERC20/ERC20.sol\":3438:3447  _transfer */\n      tag_168\n        /* \"@openzeppelin/contracts/token/ERC20/ERC20.sol\":3438:3465  _transfer(owner, to, value) */\n      jump\t// in\n    tag_202:\n        /* \"@openzeppelin/contracts/token/ERC20/ERC20.sol\":3482:3486  true */\n      0x01\n        /* \"@openzeppelin/contracts/token/ERC20/ERC20.sol\":3475:3486  return true */\n      swap2\n      pop\n      pop\n        /* \"@openzeppelin/contracts/token/ERC20/ERC20.sol\":3315:3493  function transfer(address to, uint256 value) public virtual returns (bool) {... */\n      swap3\n      swap2\n      pop\n      pop\n      jump\t// out\n        /* \"main.sol\":3281:3802  function repayLoan(uint256 loanId) external {... */\n    tag_99:\n        /* \"main.sol\":3336:3353  Loan storage loan */\n      0x00\n        /* \"main.sol\":3356:3361  loans */\n      0x07\n        /* \"main.sol\":3356:3369  loans[loanId] */\n      0x00\n        /* \"main.sol\":3362:3368  loanId */\n      dup4\n        /* \"main.sol\":3356:3369  loans[loanId] */\n      dup2\n      mstore\n      0x20\n      add\n      swap1\n      dup2\n      mstore\n      0x20\n      add\n      0x00\n      keccak256\n        /* \"main.sol\":3336:3369  Loan storage loan = loans[loanId] */\n      swap1\n      pop\n        /* \"main.sol\":3402:3406  loan */\n      dup1\n        /* \"main.sol\":3402:3415  loan.borrower */\n      0x00\n      add\n      0x00\n      swap1\n      sload\n      swap1\n      0x0100\n      exp\n      swap1\n      div\n      0xffffffffffffffffffffffffffffffffffffffff\n      and\n        /* \"main.sol\":3388:3415  msg.sender == loan.borrower */\n      0xffffffffffffffffffffffffffffffffffffffff\n      and\n        /* \"main.sol\":3388:3398  msg.sender */\n      caller\n        /* \"main.sol\":3388:3415  msg.sender == loan.borrower */\n      0xffffffffffffffffffffffffffffffffffffffff\n      and\n      eq\n        /* \"main.sol\":3380:3443  require(msg.sender == loan.borrower, \"Only borrower can repay\") */\n      tag_204\n      jumpi\n      mload(0x40)\n      0x08c379a000000000000000000000000000000000000000000000000000000000\n      dup2\n      mstore\n      0x04\n      add\n      tag_205\n      swap1\n      tag_206\n      jump\t// in\n    tag_205:\n      mload(0x40)\n      dup1\n      swap2\n      sub\n      swap1\n      revert\n    tag_204:\n        /* \"main.sol\":3462:3466  loan */\n      dup1\n        /* \"main.sol\":3462:3475  loan.accepted */\n      0x06\n      add\n      0x01\n      swap1\n      sload\n      swap1\n      0x0100\n      exp\n      swap1\n      div\n      0xff\n      and\n        /* \"main.sol\":3454:3507  require(loan.accepted, \"Loan must be accepted first\") */\n      tag_207\n      jumpi\n      mload(0x40)\n      0x08c379a000000000000000000000000000000000000000000000000000000000\n      dup2\n      mstore\n      0x04\n      add\n      tag_208\n      swap1\n      tag_209\n      jump\t// in\n    tag_208:\n      mload(0x40)\n      dup1\n      swap2\n      sub\n      swap1\n      revert\n    tag_207:\n        /* \"main.sol\":3527:3531  loan */\n      dup1\n        /* \"main.sol\":3527:3538  loan.repaid */\n      0x06\n      add\n      0x00\n      swap1\n      sload\n      swap1\n      0x0100\n      exp\n      swap1\n      div\n      0xff\n      and\n        /* \"main.sol\":3526:3538  !loan.repaid */\n      iszero\n        /* \"main.sol\":3518:3562  require(!loan.repaid, \"Loan already repaid\") */\n      tag_210\n      jumpi\n      mload(0x40)\n      0x08c379a000000000000000000000000000000000000000000000000000000000\n      dup2\n      mstore\n      0x04\n      add\n      tag_211\n      swap1\n      tag_186\n      jump\t// in\n    tag_211:\n      mload(0x40)\n      dup1\n      swap2\n      sub\n      swap1\n      revert\n    tag_210:\n        /* \"main.sol\":3575:3594  uint256 totalAmount */\n      0x00\n        /* \"main.sol\":3611:3615  loan */\n      dup2\n        /* \"main.sol\":3611:3630  loan.interestAmount */\n      0x03\n      add\n      sload\n        /* \"main.sol\":3597:3601  loan */\n      dup3\n        /* \"main.sol\":3597:3608  loan.amount */\n      0x02\n      add\n      sload\n        /* \"main.sol\":3597:3630  loan.amount + loan.interestAmount */\n      tag_212\n      swap2\n      swap1\n      tag_156\n      jump\t// in\n    tag_212:\n        /* \"main.sol\":3575:3630  uint256 totalAmount = loan.amount + loan.interestAmount */\n      swap1\n      pop\n        /* \"main.sol\":3641:3696  _safeTransferFrom(msg.sender, loan.lender, totalAmount) */\n      tag_213\n        /* \"main.sol\":3659:3669  msg.sender */\n      caller\n        /* \"main.sol\":3671:3675  loan */\n      dup4\n        /* \"main.sol\":3671:3682  loan.lender */\n      0x01\n      add\n      0x00\n      swap1\n      sload\n      swap1\n      0x0100\n      exp\n      swap1\n      div\n      0xffffffffffffffffffffffffffffffffffffffff\n      and\n        /* \"main.sol\":3684:3695  totalAmount */\n      dup4\n        /* \"main.sol\":3641:3658  _safeTransferFrom */\n      tag_149\n        /* \"main.sol\":3641:3696  _safeTransferFrom(msg.sender, loan.lender, totalAmount) */\n      jump\t// in\n    tag_213:\n        /* \"main.sol\":3721:3725  true */\n      0x01\n        /* \"main.sol\":3707:3711  loan */\n      dup3\n        /* \"main.sol\":3707:3718  loan.repaid */\n      0x06\n      add\n      0x00\n        /* \"main.sol\":3707:3725  loan.repaid = true */\n      0x0100\n      exp\n      dup2\n      sload\n      dup2\n      0xff\n      mul\n      not\n      and\n      swap1\n      dup4\n      iszero\n      iszero\n      mul\n      or\n      swap1\n      sstore\n      pop\n        /* \"main.sol\":3736:3760  burnNFT(loan.nftTokenId) */\n      tag_214\n        /* \"main.sol\":3744:3748  loan */\n      dup3\n        /* \"main.sol\":3744:3759  loan.nftTokenId */\n      0x07\n      add\n      sload\n        /* \"main.sol\":3736:3743  burnNFT */\n      tag_215\n        /* \"main.sol\":3736:3760  burnNFT(loan.nftTokenId) */\n      jump\t// in\n    tag_214:\n        /* \"main.sol\":3776:3794  LoanRepaid(loanId) */\n      0x9a7851747cd7ffb3fe0a32caf3da48b31f27cebe131267051640f8b72fc47186\n        /* \"main.sol\":3787:3793  loanId */\n      dup4\n        /* \"main.sol\":3776:3794  LoanRepaid(loanId) */\n      mload(0x40)\n      tag_216\n      swap2\n      swap1\n      tag_43\n      jump\t// in\n    tag_216:\n      mload(0x40)\n      dup1\n      swap2\n      sub\n      swap1\n      log1\n        /* \"main.sol\":3325:3802  {... */\n      pop\n      pop\n        /* \"main.sol\":3281:3802  function repayLoan(uint256 loanId) external {... */\n      pop\n      jump\t// out\n        /* \"main.sol\":2923:3273  function acceptLoan(uint256 loanId) external {... */\n    tag_102:\n        /* \"main.sol\":2979:2996  Loan storage loan */\n      0x00\n        /* \"main.sol\":2999:3004  loans */\n      0x07\n        /* \"main.sol\":2999:3012  loans[loanId] */\n      0x00\n        /* \"main.sol\":3005:3011  loanId */\n      dup4\n        /* \"main.sol\":2999:3012  loans[loanId] */\n      dup2\n      mstore\n      0x20\n      add\n      swap1\n      dup2\n      mstore\n      0x20\n      add\n      0x00\n      keccak256\n        /* \"main.sol\":2979:3012  Loan storage loan = loans[loanId] */\n      swap1\n      pop\n        /* \"main.sol\":3045:3049  loan */\n      dup1\n        /* \"main.sol\":3045:3058  loan.borrower */\n      0x00\n      add\n      0x00\n      swap1\n      sload\n      swap1\n      0x0100\n      exp\n      swap1\n      div\n      0xffffffffffffffffffffffffffffffffffffffff\n      and\n        /* \"main.sol\":3031:3058  msg.sender == loan.borrower */\n      0xffffffffffffffffffffffffffffffffffffffff\n      and\n        /* \"main.sol\":3031:3041  msg.sender */\n      caller\n        /* \"main.sol\":3031:3058  msg.sender == loan.borrower */\n      0xffffffffffffffffffffffffffffffffffffffff\n      and\n      eq\n        /* \"main.sol\":3023:3087  require(msg.sender == loan.borrower, \"Only borrower can accept\") */\n      tag_218\n      jumpi\n      mload(0x40)\n      0x08c379a000000000000000000000000000000000000000000000000000000000\n      dup2\n      mstore\n      0x04\n      add\n      tag_219\n      swap1\n      tag_220\n      jump\t// in\n    tag_219:\n      mload(0x40)\n      dup1\n      swap2\n      sub\n      swap1\n      revert\n    tag_218:\n        /* \"main.sol\":3107:3111  loan */\n      dup1\n        /* \"main.sol\":3107:3120  loan.accepted */\n      0x06\n      add\n      0x01\n      swap1\n      sload\n      swap1\n      0x0100\n      exp\n      swap1\n      div\n      0xff\n      and\n        /* \"main.sol\":3106:3120  !loan.accepted */\n      iszero\n        /* \"main.sol\":3098:3146  require(!loan.accepted, \"Loan already accepted\") */\n      tag_221\n      jumpi\n      mload(0x40)\n      0x08c379a000000000000000000000000000000000000000000000000000000000\n      dup2\n      mstore\n      0x04\n      add\n      tag_222\n      swap1\n      tag_223\n      jump\t// in\n    tag_222:\n      mload(0x40)\n      dup1\n      swap2\n      sub\n      swap1\n      revert\n    tag_221:\n        /* \"main.sol\":3173:3177  true */\n      0x01\n        /* \"main.sol\":3157:3161  loan */\n      dup2\n        /* \"main.sol\":3157:3170  loan.accepted */\n      0x06\n      add\n      0x01\n        /* \"main.sol\":3157:3177  loan.accepted = true */\n      0x0100\n      exp\n      dup2\n      sload\n      dup2\n      0xff\n      mul\n      not\n      and\n      swap1\n      dup4\n      iszero\n      iszero\n      mul\n      or\n      swap1\n      sstore\n      pop\n        /* \"main.sol\":3188:3229  _safeTransfer(loan.borrower, loan.amount) */\n      tag_224\n        /* \"main.sol\":3202:3206  loan */\n      dup2\n        /* \"main.sol\":3202:3215  loan.borrower */\n      0x00\n      add\n      0x00\n      swap1\n      sload\n      swap1\n      0x0100\n      exp\n      swap1\n      div\n      0xffffffffffffffffffffffffffffffffffffffff\n      and\n        /* \"main.sol\":3217:3221  loan */\n      dup3\n        /* \"main.sol\":3217:3228  loan.amount */\n      0x02\n      add\n      sload\n        /* \"main.sol\":3188:3201  _safeTransfer */\n      tag_225\n        /* \"main.sol\":3188:3229  _safeTransfer(loan.borrower, loan.amount) */\n      jump\t// in\n    tag_224:\n        /* \"main.sol\":3245:3265  LoanAccepted(loanId) */\n      0x8313f00f3154c2e8509a2ee261c618804a495403d3ac94fe5fb833af9d13cb27\n        /* \"main.sol\":3258:3264  loanId */\n      dup3\n        /* \"main.sol\":3245:3265  LoanAccepted(loanId) */\n      mload(0x40)\n      tag_226\n      swap2\n      swap1\n      tag_43\n      jump\t// in\n    tag_226:\n      mload(0x40)\n      dup1\n      swap2\n      sub\n      swap1\n      log1\n        /* \"main.sol\":2968:3273  {... */\n      pop\n        /* \"main.sol\":2923:3273  function acceptLoan(uint256 loanId) external {... */\n      pop\n      jump\t// out\n        /* \"main.sol\":4406:4818  function cancelLoan(uint256 loanId) external {... */\n    tag_105:\n        /* \"main.sol\":4462:4479  Loan storage loan */\n      0x00\n        /* \"main.sol\":4482:4487  loans */\n      0x07\n        /* \"main.sol\":4482:4495  loans[loanId] */\n      0x00\n        /* \"main.sol\":4488:4494  loanId */\n      dup4\n        /* \"main.sol\":4482:4495  loans[loanId] */\n      dup2\n      mstore\n      0x20\n      add\n      swap1\n      dup2\n      mstore\n      0x20\n      add\n      0x00\n      keccak256\n        /* \"main.sol\":4462:4495  Loan storage loan = loans[loanId] */\n      swap1\n      pop\n        /* \"main.sol\":4528:4532  loan */\n      dup1\n        /* \"main.sol\":4528:4539  loan.lender */\n      0x01\n      add\n      0x00\n      swap1\n      sload\n      swap1\n      0x0100\n      exp\n      swap1\n      div\n      0xffffffffffffffffffffffffffffffffffffffff\n      and\n        /* \"main.sol\":4514:4539  msg.sender == loan.lender */\n      0xffffffffffffffffffffffffffffffffffffffff\n      and\n        /* \"main.sol\":4514:4524  msg.sender */\n      caller\n        /* \"main.sol\":4514:4539  msg.sender == loan.lender */\n      0xffffffffffffffffffffffffffffffffffffffff\n      and\n      eq\n        /* \"main.sol\":4506:4566  require(msg.sender == loan.lender, \"Only lender can cancel\") */\n      tag_228\n      jumpi\n      mload(0x40)\n      0x08c379a000000000000000000000000000000000000000000000000000000000\n      dup2\n      mstore\n      0x04\n      add\n      tag_229\n      swap1\n      tag_230\n      jump\t// in\n    tag_229:\n      mload(0x40)\n      dup1\n      swap2\n      sub\n      swap1\n      revert\n    tag_228:\n        /* \"main.sol\":4586:4590  loan */\n      dup1\n        /* \"main.sol\":4586:4599  loan.canceled */\n      0x06\n      add\n      0x02\n      swap1\n      sload\n      swap1\n      0x0100\n      exp\n      swap1\n      div\n      0xff\n      and\n        /* \"main.sol\":4585:4599  !loan.canceled */\n      iszero\n        /* \"main.sol\":4577:4626  require(!loan.canceled, \"Loan already cancelled\") */\n      tag_231\n      jumpi\n      mload(0x40)\n      0x08c379a000000000000000000000000000000000000000000000000000000000\n      dup2\n      mstore\n      0x04\n      add\n      tag_232\n      swap1\n      tag_233\n      jump\t// in\n    tag_232:\n      mload(0x40)\n      dup1\n      swap2\n      sub\n      swap1\n      revert\n    tag_231:\n        /* \"main.sol\":4646:4650  loan */\n      dup1\n        /* \"main.sol\":4646:4659  loan.accepted */\n      0x06\n      add\n      0x01\n      swap1\n      sload\n      swap1\n      0x0100\n      exp\n      swap1\n      div\n      0xff\n      and\n        /* \"main.sol\":4645:4659  !loan.accepted */\n      iszero\n        /* \"main.sol\":4637:4694  require(!loan.accepted, \"Cannot cancel an accepted loan\") */\n      tag_234\n      jumpi\n      mload(0x40)\n      0x08c379a000000000000000000000000000000000000000000000000000000000\n      dup2\n      mstore\n      0x04\n      add\n      tag_235\n      swap1\n      tag_236\n      jump\t// in\n    tag_235:\n      mload(0x40)\n      dup1\n      swap2\n      sub\n      swap1\n      revert\n    tag_234:\n        /* \"main.sol\":4705:4743  _safeTransfer(msg.sender, loan.amount) */\n      tag_237\n        /* \"main.sol\":4719:4729  msg.sender */\n      caller\n        /* \"main.sol\":4731:4735  loan */\n      dup3\n        /* \"main.sol\":4731:4742  loan.amount */\n      0x02\n      add\n      sload\n        /* \"main.sol\":4705:4718  _safeTransfer */\n      tag_225\n        /* \"main.sol\":4705:4743  _safeTransfer(msg.sender, loan.amount) */\n      jump\t// in\n    tag_237:\n        /* \"main.sol\":4770:4774  true */\n      0x01\n        /* \"main.sol\":4754:4758  loan */\n      dup2\n        /* \"main.sol\":4754:4767  loan.canceled */\n      0x06\n      add\n      0x02\n        /* \"main.sol\":4754:4774  loan.canceled = true */\n      0x0100\n      exp\n      dup2\n      sload\n      dup2\n      0xff\n      mul\n      not\n      and\n      swap1\n      dup4\n      iszero\n      iszero\n      mul\n      or\n      swap1\n      sstore\n      pop\n        /* \"main.sol\":4790:4810  LoanCanceled(loanId) */\n      0xdb3578c2b080f19424234c3a83e34455b4b06e90bf24b62f4e13a9ed82fbf0ed\n        /* \"main.sol\":4803:4809  loanId */\n      dup3\n        /* \"main.sol\":4790:4810  LoanCanceled(loanId) */\n      mload(0x40)\n      tag_238\n      swap2\n      swap1\n      tag_43\n      jump\t// in\n    tag_238:\n      mload(0x40)\n      dup1\n      swap2\n      sub\n      swap1\n      log1\n        /* \"main.sol\":4451:4818  {... */\n      pop\n        /* \"main.sol\":4406:4818  function cancelLoan(uint256 loanId) external {... */\n      pop\n      jump\t// out\n        /* \"main.sol\":4119:4398  function isNFTBurned(uint256 nftTokenId) external view returns (bool) {... */\n    tag_108:\n        /* \"main.sol\":4183:4187  bool */\n      0x00\n        /* \"main.sol\":4205:4214  uint256 i */\n      dup1\n        /* \"main.sol\":4217:4218  1 */\n      0x01\n        /* \"main.sol\":4205:4218  uint256 i = 1 */\n      swap1\n      pop\n        /* \"main.sol\":4200:4368  for (uint256 i = 1; i < nextLoanId; i++) {... */\n    tag_240:\n        /* \"main.sol\":4224:4234  nextLoanId */\n      sload(0x09)\n        /* \"main.sol\":4220:4221  i */\n      dup2\n        /* \"main.sol\":4220:4234  i < nextLoanId */\n      lt\n        /* \"main.sol\":4200:4368  for (uint256 i = 1; i < nextLoanId; i++) {... */\n      iszero\n      tag_241\n      jumpi\n        /* \"main.sol\":4283:4293  nftTokenId */\n      dup3\n        /* \"main.sol\":4260:4265  loans */\n      0x07\n        /* \"main.sol\":4260:4268  loans[i] */\n      0x00\n        /* \"main.sol\":4266:4267  i */\n      dup4\n        /* \"main.sol\":4260:4268  loans[i] */\n      dup2\n      mstore\n      0x20\n      add\n      swap1\n      dup2\n      mstore\n      0x20\n      add\n      0x00\n      keccak256\n        /* \"main.sol\":4260:4279  loans[i].nftTokenId */\n      0x07\n      add\n      sload\n        /* \"main.sol\":4260:4293  loans[i].nftTokenId == nftTokenId */\n      sub\n        /* \"main.sol\":4256:4357  if (loans[i].nftTokenId == nftTokenId) {... */\n      tag_243\n      jumpi\n        /* \"main.sol\":4321:4326  loans */\n      0x07\n        /* \"main.sol\":4321:4329  loans[i] */\n      0x00\n        /* \"main.sol\":4327:4328  i */\n      dup3\n        /* \"main.sol\":4321:4329  loans[i] */\n      dup2\n      mstore\n      0x20\n      add\n      swap1\n      dup2\n      mstore\n      0x20\n      add\n      0x00\n      keccak256\n        /* \"main.sol\":4321:4341  loans[i].isNFTBurned */\n      0x08\n      add\n      0x00\n      swap1\n      sload\n      swap1\n      0x0100\n      exp\n      swap1\n      div\n      0xff\n      and\n        /* \"main.sol\":4314:4341  return loans[i].isNFTBurned */\n      swap2\n      pop\n      pop\n      jump(tag_239)\n        /* \"main.sol\":4256:4357  if (loans[i].nftTokenId == nftTokenId) {... */\n    tag_243:\n        /* \"main.sol\":4236:4239  i++ */\n      dup1\n      dup1\n      0x01\n      add\n      swap2\n      pop\n      pop\n        /* \"main.sol\":4200:4368  for (uint256 i = 1; i < nextLoanId; i++) {... */\n      jump(tag_240)\n    tag_241:\n      pop\n        /* \"main.sol\":4385:4390  false */\n      0x00\n        /* \"main.sol\":4378:4390  return false */\n      swap1\n      pop\n        /* \"main.sol\":4119:4398  function isNFTBurned(uint256 nftTokenId) external view returns (bool) {... */\n    tag_239:\n      swap2\n      swap1\n      pop\n      jump\t// out\n        /* \"@openzeppelin/contracts/token/ERC20/ERC20.sol\":3551:3691  function allowance(address owner, address spender) public view virtual returns (uint256) {... */\n    tag_113:\n        /* \"@openzeppelin/contracts/token/ERC20/ERC20.sol\":3631:3638  uint256 */\n      0x00\n        /* \"@openzeppelin/contracts/token/ERC20/ERC20.sol\":3657:3668  _allowances */\n      0x01\n        /* \"@openzeppelin/contracts/token/ERC20/ERC20.sol\":3657:3675  _allowances[owner] */\n      0x00\n        /* \"@openzeppelin/contracts/token/ERC20/ERC20.sol\":3669:3674  owner */\n      dup5\n        /* \"@openzeppelin/contracts/token/ERC20/ERC20.sol\":3657:3675  _allowances[owner] */\n      0xffffffffffffffffffffffffffffffffffffffff\n      and\n      0xffffffffffffffffffffffffffffffffffffffff\n      and\n      dup2\n      mstore\n      0x20\n      add\n      swap1\n      dup2\n      mstore\n      0x20\n      add\n      0x00\n      keccak256\n        /* \"@openzeppelin/contracts/token/ERC20/ERC20.sol\":3657:3684  _allowances[owner][spender] */\n      0x00\n        /* \"@openzeppelin/contracts/token/ERC20/ERC20.sol\":3676:3683  spender */\n      dup4\n        /* \"@openzeppelin/contracts/token/ERC20/ERC20.sol\":3657:3684  _allowances[owner][spender] */\n      0xffffffffffffffffffffffffffffffffffffffff\n      and\n      0xffffffffffffffffffffffffffffffffffffffff\n      and\n      dup2\n      mstore\n      0x20\n      add\n      swap1\n      dup2\n      mstore\n      0x20\n      add\n      0x00\n      keccak256\n      sload\n        /* \"@openzeppelin/contracts/token/ERC20/ERC20.sol\":3650:3684  return _allowances[owner][spender] */\n      swap1\n      pop\n        /* \"@openzeppelin/contracts/token/ERC20/ERC20.sol\":3551:3691  function allowance(address owner, address spender) public view virtual returns (uint256) {... */\n      swap3\n      swap2\n      pop\n      pop\n      jump\t// out\n        /* \"main.sol\":710:747  mapping(uint256 => Loan) public loans */\n    tag_117:\n      mstore(0x20, 0x07)\n      dup1\n      0x00\n      mstore\n      keccak256(0x00, 0x40)\n      0x00\n      swap2\n      pop\n      swap1\n      pop\n      dup1\n      0x00\n      add\n      0x00\n      swap1\n      sload\n      swap1\n      0x0100\n      exp\n      swap1\n      div\n      0xffffffffffffffffffffffffffffffffffffffff\n      and\n      swap1\n      dup1\n      0x01\n      add\n      0x00\n      swap1\n      sload\n      swap1\n      0x0100\n      exp\n      swap1\n      div\n      0xffffffffffffffffffffffffffffffffffffffff\n      and\n      swap1\n      dup1\n      0x02\n      add\n      sload\n      swap1\n      dup1\n      0x03\n      add\n      sload\n      swap1\n      dup1\n      0x04\n      add\n      sload\n      swap1\n      dup1\n      0x05\n      add\n      sload\n      swap1\n      dup1\n      0x06\n      add\n      0x00\n      swap1\n      sload\n      swap1\n      0x0100\n      exp\n      swap1\n      div\n      0xff\n      and\n      swap1\n      dup1\n      0x06\n      add\n      0x01\n      swap1\n      sload\n      swap1\n      0x0100\n      exp\n      swap1\n      div\n      0xff\n      and\n      swap1\n      dup1\n      0x06\n      add\n      0x02\n      swap1\n      sload\n      swap1\n      0x0100\n      exp\n      swap1\n      div\n      0xff\n      and\n      swap1\n      dup1\n      0x07\n      add\n      sload\n      swap1\n      dup1\n      0x08\n      add\n      0x00\n      swap1\n      sload\n      swap1\n      0x0100\n      exp\n      swap1\n      div\n      0xff\n      and\n      swap1\n      dup1\n      0x09\n      add\n      dup1\n      sload\n      tag_245\n      swap1\n      tag_125\n      jump\t// in\n    tag_245:\n      dup1\n      0x1f\n      add\n      0x20\n      dup1\n      swap2\n      div\n      mul\n      0x20\n      add\n      mload(0x40)\n      swap1\n      dup2\n      add\n      0x40\n      mstore\n      dup1\n      swap3\n      swap2\n      swap1\n      dup2\n      dup2\n      mstore\n      0x20\n      add\n      dup3\n      dup1\n      sload\n      tag_246\n      swap1\n      tag_125\n      jump\t// in\n    tag_246:\n      dup1\n      iszero\n      tag_247\n      jumpi\n      dup1\n      0x1f\n      lt\n      tag_248\n      jumpi\n      0x0100\n      dup1\n      dup4\n      sload\n      div\n      mul\n      dup4\n      mstore\n      swap2\n      0x20\n      add\n      swap2\n      jump(tag_247)\n    tag_248:\n      dup3\n      add\n      swap2\n      swap1\n      0x00\n      mstore\n      keccak256(0x00, 0x20)\n      swap1\n    tag_249:\n      dup2\n      sload\n      dup2\n      mstore\n      swap1\n      0x01\n      add\n      swap1\n      0x20\n      add\n      dup1\n      dup4\n      gt\n      tag_249\n      jumpi\n      dup3\n      swap1\n      sub\n      0x1f\n      and\n      dup3\n      add\n      swap2\n    tag_247:\n      pop\n      pop\n      pop\n      pop\n      pop\n      swap1\n      pop\n      dup13\n      jump\t// out\n        /* \"@openzeppelin/contracts/access/Ownable.sol\":2543:2758  function transferOwnership(address newOwner) public virtual onlyOwner {... */\n    tag_122:\n        /* \"@openzeppelin/contracts/access/Ownable.sol\":1531:1544  _checkOwner() */\n      tag_251\n        /* \"@openzeppelin/contracts/access/Ownable.sol\":1531:1542  _checkOwner */\n      tag_172\n        /* \"@openzeppelin/contracts/access/Ownable.sol\":1531:1544  _checkOwner() */\n      jump\t// in\n    tag_251:\n        /* \"@openzeppelin/contracts/access/Ownable.sol\":2647:2648  0 */\n      0x00\n        /* \"@openzeppelin/contracts/access/Ownable.sol\":2627:2649  newOwner == address(0) */\n      0xffffffffffffffffffffffffffffffffffffffff\n      and\n        /* \"@openzeppelin/contracts/access/Ownable.sol\":2627:2635  newOwner */\n      dup2\n        /* \"@openzeppelin/contracts/access/Ownable.sol\":2627:2649  newOwner == address(0) */\n      0xffffffffffffffffffffffffffffffffffffffff\n      and\n      sub\n        /* \"@openzeppelin/contracts/access/Ownable.sol\":2623:2714  if (newOwner == address(0)) {... */\n      tag_253\n      jumpi\n        /* \"@openzeppelin/contracts/access/Ownable.sol\":2700:2701  0 */\n      0x00\n        /* \"@openzeppelin/contracts/access/Ownable.sol\":2672:2703  OwnableInvalidOwner(address(0)) */\n      mload(0x40)\n      0x1e4fbdf700000000000000000000000000000000000000000000000000000000\n      dup2\n      mstore\n      0x04\n      add\n      tag_254\n      swap2\n      swap1\n      tag_81\n      jump\t// in\n    tag_254:\n      mload(0x40)\n      dup1\n      swap2\n      sub\n      swap1\n      revert\n        /* \"@openzeppelin/contracts/access/Ownable.sol\":2623:2714  if (newOwner == address(0)) {... */\n    tag_253:\n        /* \"@openzeppelin/contracts/access/Ownable.sol\":2723:2751  _transferOwnership(newOwner) */\n      tag_255\n        /* \"@openzeppelin/contracts/access/Ownable.sol\":2742:2750  newOwner */\n      dup2\n        /* \"@openzeppelin/contracts/access/Ownable.sol\":2723:2741  _transferOwnership */\n      tag_179\n        /* \"@openzeppelin/contracts/access/Ownable.sol\":2723:2751  _transferOwnership(newOwner) */\n      jump\t// in\n    tag_255:\n        /* \"@openzeppelin/contracts/access/Ownable.sol\":2543:2758  function transferOwnership(address newOwner) public virtual onlyOwner {... */\n      pop\n      jump\t// out\n        /* \"@openzeppelin/contracts/utils/Context.sol\":656:752  function _msgSender() internal view virtual returns (address) {... */\n    tag_132:\n        /* \"@openzeppelin/contracts/utils/Context.sol\":709:716  address */\n      0x00\n        /* \"@openzeppelin/contracts/utils/Context.sol\":735:745  msg.sender */\n      caller\n        /* \"@openzeppelin/contracts/utils/Context.sol\":728:745  return msg.sender */\n      swap1\n      pop\n        /* \"@openzeppelin/contracts/utils/Context.sol\":656:752  function _msgSender() internal view virtual returns (address) {... */\n      swap1\n      jump\t// out\n        /* \"@openzeppelin/contracts/token/ERC20/ERC20.sol\":8726:8854  function _approve(address owner, address spender, uint256 value) internal {... */\n    tag_134:\n        /* \"@openzeppelin/contracts/token/ERC20/ERC20.sol\":8810:8847  _approve(owner, spender, value, true) */\n      tag_258\n        /* \"@openzeppelin/contracts/token/ERC20/ERC20.sol\":8819:8824  owner */\n      dup4\n        /* \"@openzeppelin/contracts/token/ERC20/ERC20.sol\":8826:8833  spender */\n      dup4\n        /* \"@openzeppelin/contracts/token/ERC20/ERC20.sol\":8835:8840  value */\n      dup4\n        /* \"@openzeppelin/contracts/token/ERC20/ERC20.sol\":8842:8846  true */\n      0x01\n        /* \"@openzeppelin/contracts/token/ERC20/ERC20.sol\":8810:8818  _approve */\n      tag_259\n        /* \"@openzeppelin/contracts/token/ERC20/ERC20.sol\":8810:8847  _approve(owner, spender, value, true) */\n      jump\t// in\n    tag_258:\n        /* \"@openzeppelin/contracts/token/ERC20/ERC20.sol\":8726:8854  function _approve(address owner, address spender, uint256 value) internal {... */\n      pop\n      pop\n      pop\n      jump\t// out\n        /* \"main.sol\":5429:5581  function _safeTransferFrom(address from, address to, uint256 amount) internal {... */\n    tag_149:\n        /* \"main.sol\":5518:5573  ERC20(address(this)).safeTransferFrom(from, to, amount) */\n      tag_261\n        /* \"main.sol\":5556:5560  from */\n      dup4\n        /* \"main.sol\":5562:5564  to */\n      dup4\n        /* \"main.sol\":5566:5572  amount */\n      dup4\n        /* \"main.sol\":5532:5536  this */\n      address\n        /* \"main.sol\":5518:5555  ERC20(address(this)).safeTransferFrom */\n      0xffffffffffffffffffffffffffffffffffffffff\n      and\n      tag_262\n      swap1\n        /* \"main.sol\":5518:5573  ERC20(address(this)).safeTransferFrom(from, to, amount) */\n      swap4\n      swap3\n      swap2\n      swap1\n      0xffffffff\n      and\n      jump\t// in\n    tag_261:\n        /* \"main.sol\":5429:5581  function _safeTransferFrom(address from, address to, uint256 amount) internal {... */\n      pop\n      pop\n      pop\n      jump\t// out\n        /* \"@openzeppelin/contracts/token/ERC20/ERC20.sol\":10415:10891  function _spendAllowance(address owner, address spender, uint256 value) internal virtual {... */\n    tag_166:\n        /* \"@openzeppelin/contracts/token/ERC20/ERC20.sol\":10514:10538  uint256 currentAllowance */\n      0x00\n        /* \"@openzeppelin/contracts/token/ERC20/ERC20.sol\":10541:10566  allowance(owner, spender) */\n      tag_264\n        /* \"@openzeppelin/contracts/token/ERC20/ERC20.sol\":10551:10556  owner */\n      dup5\n        /* \"@openzeppelin/contracts/token/ERC20/ERC20.sol\":10558:10565  spender */\n      dup5\n        /* \"@openzeppelin/contracts/token/ERC20/ERC20.sol\":10541:10550  allowance */\n      tag_113\n        /* \"@openzeppelin/contracts/token/ERC20/ERC20.sol\":10541:10566  allowance(owner, spender) */\n      jump\t// in\n    tag_264:\n        /* \"@openzeppelin/contracts/token/ERC20/ERC20.sol\":10514:10566  uint256 currentAllowance = allowance(owner, spender) */\n      swap1\n      pop\n        /* \"@openzeppelin/contracts/token/ERC20/ERC20.sol\":10599:10616  type(uint256).max */\n      0xffffffffffffffffffffffffffffffffffffffffffffffffffffffffffffffff\n        /* \"@openzeppelin/contracts/token/ERC20/ERC20.sol\":10580:10596  currentAllowance */\n      dup2\n        /* \"@openzeppelin/contracts/token/ERC20/ERC20.sol\":10580:10616  currentAllowance < type(uint256).max */\n      lt\n        /* \"@openzeppelin/contracts/token/ERC20/ERC20.sol\":10576:10885  if (currentAllowance < type(uint256).max) {... */\n      iszero\n      tag_265\n      jumpi\n        /* \"@openzeppelin/contracts/token/ERC20/ERC20.sol\":10655:10660  value */\n      dup2\n        /* \"@openzeppelin/contracts/token/ERC20/ERC20.sol\":10636:10652  currentAllowance */\n      dup2\n        /* \"@openzeppelin/contracts/token/ERC20/ERC20.sol\":10636:10660  currentAllowance < value */\n      lt\n        /* \"@openzeppelin/contracts/token/ERC20/ERC20.sol\":10632:10762  if (currentAllowance < value) {... */\n      iszero\n      tag_266\n      jumpi\n        /* \"@openzeppelin/contracts/token/ERC20/ERC20.sol\":10714:10721  spender */\n      dup3\n        /* \"@openzeppelin/contracts/token/ERC20/ERC20.sol\":10723:10739  currentAllowance */\n      dup2\n        /* \"@openzeppelin/contracts/token/ERC20/ERC20.sol\":10741:10746  value */\n      dup4\n        /* \"@openzeppelin/contracts/token/ERC20/ERC20.sol\":10687:10747  ERC20InsufficientAllowance(spender, currentAllowance, value) */\n      mload(0x40)\n      0xfb8f41b200000000000000000000000000000000000000000000000000000000\n      dup2\n      mstore\n      0x04\n      add\n      tag_267\n      swap4\n      swap3\n      swap2\n      swap1\n      tag_268\n      jump\t// in\n    tag_267:\n      mload(0x40)\n      dup1\n      swap2\n      sub\n      swap1\n      revert\n        /* \"@openzeppelin/contracts/token/ERC20/ERC20.sol\":10632:10762  if (currentAllowance < value) {... */\n    tag_266:\n        /* \"@openzeppelin/contracts/token/ERC20/ERC20.sol\":10803:10860  _approve(owner, spender, currentAllowance - value, false) */\n      tag_269\n        /* \"@openzeppelin/contracts/token/ERC20/ERC20.sol\":10812:10817  owner */\n      dup5\n        /* \"@openzeppelin/contracts/token/ERC20/ERC20.sol\":10819:10826  spender */\n      dup5\n        /* \"@openzeppelin/contracts/token/ERC20/ERC20.sol\":10847:10852  value */\n      dup5\n        /* \"@openzeppelin/contracts/token/ERC20/ERC20.sol\":10828:10844  currentAllowance */\n      dup5\n        /* \"@openzeppelin/contracts/token/ERC20/ERC20.sol\":10828:10852  currentAllowance - value */\n      sub\n        /* \"@openzeppelin/contracts/token/ERC20/ERC20.sol\":10854:10859  false */\n      0x00\n        /* \"@openzeppelin/contracts/token/ERC20/ERC20.sol\":10803:10811  _approve */\n      tag_259\n        /* \"@openzeppelin/contracts/token/ERC20/ERC20.sol\":10803:10860  _approve(owner, spender, currentAllowance - value, false) */\n      jump\t// in\n    tag_269:\n        /* \"@openzeppelin/contracts/token/ERC20/ERC20.sol\":10576:10885  if (currentAllowance < type(uint256).max) {... */\n    tag_265:\n        /* \"@openzeppelin/contracts/token/ERC20/ERC20.sol\":10504:10891  {... */\n      pop\n        /* \"@openzeppelin/contracts/token/ERC20/ERC20.sol\":10415:10891  function _spendAllowance(address owner, address spender, uint256 value) internal virtual {... */\n      pop\n      pop\n      pop\n      jump\t// out\n        /* \"@openzeppelin/contracts/token/ERC20/ERC20.sol\":5393:5693  function _transfer(address from, address to, uint256 value) internal {... */\n    tag_168:\n        /* \"@openzeppelin/contracts/token/ERC20/ERC20.sol\":5492:5493  0 */\n      0x00\n        /* \"@openzeppelin/contracts/token/ERC20/ERC20.sol\":5476:5494  from == address(0) */\n      0xffffffffffffffffffffffffffffffffffffffff\n      and\n        /* \"@openzeppelin/contracts/token/ERC20/ERC20.sol\":5476:5480  from */\n      dup4\n        /* \"@openzeppelin/contracts/token/ERC20/ERC20.sol\":5476:5494  from == address(0) */\n      0xffffffffffffffffffffffffffffffffffffffff\n      and\n      sub\n        /* \"@openzeppelin/contracts/token/ERC20/ERC20.sol\":5472:5558  if (from == address(0)) {... */\n      tag_271\n      jumpi\n        /* \"@openzeppelin/contracts/token/ERC20/ERC20.sol\":5544:5545  0 */\n      0x00\n        /* \"@openzeppelin/contracts/token/ERC20/ERC20.sol\":5517:5547  ERC20InvalidSender(address(0)) */\n      mload(0x40)\n      0x96c6fd1e00000000000000000000000000000000000000000000000000000000\n      dup2\n      mstore\n      0x04\n      add\n      tag_272\n      swap2\n      swap1\n      tag_81\n      jump\t// in\n    tag_272:\n      mload(0x40)\n      dup1\n      swap2\n      sub\n      swap1\n      revert\n        /* \"@openzeppelin/contracts/token/ERC20/ERC20.sol\":5472:5558  if (from == address(0)) {... */\n    tag_271:\n        /* \"@openzeppelin/contracts/token/ERC20/ERC20.sol\":5585:5586  0 */\n      0x00\n        /* \"@openzeppelin/contracts/token/ERC20/ERC20.sol\":5571:5587  to == address(0) */\n      0xffffffffffffffffffffffffffffffffffffffff\n      and\n        /* \"@openzeppelin/contracts/token/ERC20/ERC20.sol\":5571:5573  to */\n      dup3\n        /* \"@openzeppelin/contracts/token/ERC20/ERC20.sol\":5571:5587  to == address(0) */\n      0xffffffffffffffffffffffffffffffffffffffff\n      and\n      sub\n        /* \"@openzeppelin/contracts/token/ERC20/ERC20.sol\":5567:5653  if (to == address(0)) {... */\n      tag_273\n      jumpi\n        /* \"@openzeppelin/contracts/token/ERC20/ERC20.sol\":5639:5640  0 */\n      0x00\n        /* \"@openzeppelin/contracts/token/ERC20/ERC20.sol\":5610:5642  ERC20InvalidReceiver(address(0)) */\n      mload(0x40)\n      0xec442f0500000000000000000000000000000000000000000000000000000000\n      dup2\n      mstore\n      0x04\n      add\n      tag_274\n      swap2\n      swap1\n      tag_81\n      jump\t// in\n    tag_274:\n      mload(0x40)\n      dup1\n      swap2\n      sub\n      swap1\n      revert\n        /* \"@openzeppelin/contracts/token/ERC20/ERC20.sol\":5567:5653  if (to == address(0)) {... */\n    tag_273:\n        /* \"@openzeppelin/contracts/token/ERC20/ERC20.sol\":5662:5686  _update(from, to, value) */\n      tag_275\n        /* \"@openzeppelin/contracts/token/ERC20/ERC20.sol\":5670:5674  from */\n      dup4\n        /* \"@openzeppelin/contracts/token/ERC20/ERC20.sol\":5676:5678  to */\n      dup4\n        /* \"@openzeppelin/contracts/token/ERC20/ERC20.sol\":5680:5685  value */\n      dup4\n        /* \"@openzeppelin/contracts/token/ERC20/ERC20.sol\":5662:5669  _update */\n      tag_276\n        /* \"@openzeppelin/contracts/token/ERC20/ERC20.sol\":5662:5686  _update(from, to, value) */\n      jump\t// in\n    tag_275:\n        /* \"@openzeppelin/contracts/token/ERC20/ERC20.sol\":5393:5693  function _transfer(address from, address to, uint256 value) internal {... */\n      pop\n      pop\n      pop\n      jump\t// out\n        /* \"@openzeppelin/contracts/access/Ownable.sol\":1796:1958  function _checkOwner() internal view virtual {... */\n    tag_172:\n        /* \"@openzeppelin/contracts/access/Ownable.sol\":1866:1878  _msgSender() */\n      tag_278\n        /* \"@openzeppelin/contracts/access/Ownable.sol\":1866:1876  _msgSender */\n      tag_132\n        /* \"@openzeppelin/contracts/access/Ownable.sol\":1866:1878  _msgSender() */\n      jump\t// in\n    tag_278:\n        /* \"@openzeppelin/contracts/access/Ownable.sol\":1855:1878  owner() != _msgSender() */\n      0xffffffffffffffffffffffffffffffffffffffff\n      and\n        /* \"@openzeppelin/contracts/access/Ownable.sol\":1855:1862  owner() */\n      tag_279\n        /* \"@openzeppelin/contracts/access/Ownable.sol\":1855:1860  owner */\n      tag_79\n        /* \"@openzeppelin/contracts/access/Ownable.sol\":1855:1862  owner() */\n      jump\t// in\n    tag_279:\n        /* \"@openzeppelin/contracts/access/Ownable.sol\":1855:1878  owner() != _msgSender() */\n      0xffffffffffffffffffffffffffffffffffffffff\n      and\n      eq\n        /* \"@openzeppelin/contracts/access/Ownable.sol\":1851:1952  if (owner() != _msgSender()) {... */\n      tag_280\n      jumpi\n        /* \"@openzeppelin/contracts/access/Ownable.sol\":1928:1940  _msgSender() */\n      tag_281\n        /* \"@openzeppelin/contracts/access/Ownable.sol\":1928:1938  _msgSender */\n      tag_132\n        /* \"@openzeppelin/contracts/access/Ownable.sol\":1928:1940  _msgSender() */\n      jump\t// in\n    tag_281:\n        /* \"@openzeppelin/contracts/access/Ownable.sol\":1901:1941  OwnableUnauthorizedAccount(_msgSender()) */\n      mload(0x40)\n      0x118cdaa700000000000000000000000000000000000000000000000000000000\n      dup2\n      mstore\n      0x04\n      add\n      tag_282\n      swap2\n      swap1\n      tag_81\n      jump\t// in\n    tag_282:\n      mload(0x40)\n      dup1\n      swap2\n      sub\n      swap1\n      revert\n        /* \"@openzeppelin/contracts/access/Ownable.sol\":1851:1952  if (owner() != _msgSender()) {... */\n    tag_280:\n        /* \"@openzeppelin/contracts/access/Ownable.sol\":1796:1958  function _checkOwner() internal view virtual {... */\n      jump\t// out\n        /* \"@openzeppelin/contracts/access/Ownable.sol\":2912:3099  function _transferOwnership(address newOwner) internal virtual {... */\n    tag_179:\n        /* \"@openzeppelin/contracts/access/Ownable.sol\":2985:3001  address oldOwner */\n      0x00\n        /* \"@openzeppelin/contracts/access/Ownable.sol\":3004:3010  _owner */\n      0x05\n      0x00\n      swap1\n      sload\n      swap1\n      0x0100\n      exp\n      swap1\n      div\n      0xffffffffffffffffffffffffffffffffffffffff\n      and\n        /* \"@openzeppelin/contracts/access/Ownable.sol\":2985:3010  address oldOwner = _owner */\n      swap1\n      pop\n        /* \"@openzeppelin/contracts/access/Ownable.sol\":3029:3037  newOwner */\n      dup2\n        /* \"@openzeppelin/contracts/access/Ownable.sol\":3020:3026  _owner */\n      0x05\n      0x00\n        /* \"@openzeppelin/contracts/access/Ownable.sol\":3020:3037  _owner = newOwner */\n      0x0100\n      exp\n      dup2\n      sload\n      dup2\n      0xffffffffffffffffffffffffffffffffffffffff\n      mul\n      not\n      and\n      swap1\n      dup4\n      0xffffffffffffffffffffffffffffffffffffffff\n      and\n      mul\n      or\n      swap1\n      sstore\n      pop\n        /* \"@openzeppelin/contracts/access/Ownable.sol\":3083:3091  newOwner */\n      dup2\n        /* \"@openzeppelin/contracts/access/Ownable.sol\":3052:3092  OwnershipTransferred(oldOwner, newOwner) */\n      0xffffffffffffffffffffffffffffffffffffffff\n      and\n        /* \"@openzeppelin/contracts/access/Ownable.sol\":3073:3081  oldOwner */\n      dup2\n        /* \"@openzeppelin/contracts/access/Ownable.sol\":3052:3092  OwnershipTransferred(oldOwner, newOwner) */\n      0xffffffffffffffffffffffffffffffffffffffff\n      and\n      0x8be0079c531659141344cd1fd0a4f28419497f9722a3daafe3b4186f6b6457e0\n      mload(0x40)\n      mload(0x40)\n      dup1\n      swap2\n      sub\n      swap1\n      log3\n        /* \"@openzeppelin/contracts/access/Ownable.sol\":2975:3099  {... */\n      pop\n        /* \"@openzeppelin/contracts/access/Ownable.sol\":2912:3099  function _transferOwnership(address newOwner) internal virtual {... */\n      pop\n      jump\t// out\n        /* \"main.sol\":3810:4111  function burnNFT(uint256 nftTokenId) internal {... */\n    tag_215:\n        /* \"main.sol\":3872:3881  uint256 i */\n      0x00\n        /* \"main.sol\":3884:3885  1 */\n      0x01\n        /* \"main.sol\":3872:3885  uint256 i = 1 */\n      swap1\n      pop\n        /* \"main.sol\":3867:4104  for (uint256 i = 1; i < nextLoanId; i++) {... */\n    tag_285:\n        /* \"main.sol\":3891:3901  nextLoanId */\n      sload(0x09)\n        /* \"main.sol\":3887:3888  i */\n      dup2\n        /* \"main.sol\":3887:3901  i < nextLoanId */\n      lt\n        /* \"main.sol\":3867:4104  for (uint256 i = 1; i < nextLoanId; i++) {... */\n      iszero\n      tag_286\n      jumpi\n        /* \"main.sol\":3950:3960  nftTokenId */\n      dup2\n        /* \"main.sol\":3927:3932  loans */\n      0x07\n        /* \"main.sol\":3927:3935  loans[i] */\n      0x00\n        /* \"main.sol\":3933:3934  i */\n      dup4\n        /* \"main.sol\":3927:3935  loans[i] */\n      dup2\n      mstore\n      0x20\n      add\n      swap1\n      dup2\n      mstore\n      0x20\n      add\n      0x00\n      keccak256\n        /* \"main.sol\":3927:3946  loans[i].nftTokenId */\n      0x07\n      add\n      sload\n        /* \"main.sol\":3927:3960  loans[i].nftTokenId == nftTokenId */\n      sub\n        /* \"main.sol\":3923:4093  if (loans[i].nftTokenId == nftTokenId) {... */\n      tag_288\n      jumpi\n        /* \"main.sol\":4004:4008  true */\n      0x01\n        /* \"main.sol\":3981:3986  loans */\n      0x07\n        /* \"main.sol\":3981:3989  loans[i] */\n      0x00\n        /* \"main.sol\":3987:3988  i */\n      dup4\n        /* \"main.sol\":3981:3989  loans[i] */\n      dup2\n      mstore\n      0x20\n      add\n      swap1\n      dup2\n      mstore\n      0x20\n      add\n      0x00\n      keccak256\n        /* \"main.sol\":3981:4001  loans[i].isNFTBurned */\n      0x08\n      add\n      0x00\n        /* \"main.sol\":3981:4008  loans[i].isNFTBurned = true */\n      0x0100\n      exp\n      dup2\n      sload\n      dup2\n      0xff\n      mul\n      not\n      and\n      swap1\n      dup4\n      iszero\n      iszero\n      mul\n      or\n      swap1\n      sstore\n      pop\n        /* \"main.sol\":4032:4053  NFTBurned(nftTokenId) */\n      0x3c176691ca154a2f6fe978a2a633a33ee77dbe2902e67a75400720845a4b2ce1\n        /* \"main.sol\":4042:4052  nftTokenId */\n      dup3\n        /* \"main.sol\":4032:4053  NFTBurned(nftTokenId) */\n      mload(0x40)\n      tag_289\n      swap2\n      swap1\n      tag_43\n      jump\t// in\n    tag_289:\n      mload(0x40)\n      dup1\n      swap2\n      sub\n      swap1\n      log1\n        /* \"main.sol\":4072:4077  break */\n      jump(tag_286)\n        /* \"main.sol\":3923:4093  if (loans[i].nftTokenId == nftTokenId) {... */\n    tag_288:\n        /* \"main.sol\":3903:3906  i++ */\n      dup1\n      dup1\n      0x01\n      add\n      swap2\n      pop\n      pop\n        /* \"main.sol\":3867:4104  for (uint256 i = 1; i < nextLoanId; i++) {... */\n      jump(tag_285)\n    tag_286:\n      pop\n        /* \"main.sol\":3810:4111  function burnNFT(uint256 nftTokenId) internal {... */\n      pop\n      jump\t// out\n        /* \"main.sol\":5589:5713  function _safeTransfer(address to, uint256 amount) internal {... */\n    tag_225:\n        /* \"main.sol\":5660:5705  ERC20(address(this)).safeTransfer(to, amount) */\n      tag_291\n        /* \"main.sol\":5694:5696  to */\n      dup3\n        /* \"main.sol\":5698:5704  amount */\n      dup3\n        /* \"main.sol\":5674:5678  this */\n      address\n        /* \"main.sol\":5660:5693  ERC20(address(this)).safeTransfer */\n      0xffffffffffffffffffffffffffffffffffffffff\n      and\n      tag_292\n      swap1\n        /* \"main.sol\":5660:5705  ERC20(address(this)).safeTransfer(to, amount) */\n      swap3\n      swap2\n      swap1\n      0xffffffff\n      and\n      jump\t// in\n    tag_291:\n        /* \"main.sol\":5589:5713  function _safeTransfer(address to, uint256 amount) internal {... */\n      pop\n      pop\n      jump\t// out\n        /* \"@openzeppelin/contracts/token/ERC20/ERC20.sol\":9701:10133  function _approve(address owner, address spender, uint256 value, bool emitEvent) internal virtual {... */\n    tag_259:\n        /* \"@openzeppelin/contracts/token/ERC20/ERC20.sol\":9830:9831  0 */\n      0x00\n        /* \"@openzeppelin/contracts/token/ERC20/ERC20.sol\":9813:9832  owner == address(0) */\n      0xffffffffffffffffffffffffffffffffffffffff\n      and\n        /* \"@openzeppelin/contracts/token/ERC20/ERC20.sol\":9813:9818  owner */\n      dup5\n        /* \"@openzeppelin/contracts/token/ERC20/ERC20.sol\":9813:9832  owner == address(0) */\n      0xffffffffffffffffffffffffffffffffffffffff\n      and\n      sub\n        /* \"@openzeppelin/contracts/token/ERC20/ERC20.sol\":9809:9898  if (owner == address(0)) {... */\n      tag_294\n      jumpi\n        /* \"@openzeppelin/contracts/token/ERC20/ERC20.sol\":9884:9885  0 */\n      0x00\n        /* \"@openzeppelin/contracts/token/ERC20/ERC20.sol\":9855:9887  ERC20InvalidApprover(address(0)) */\n      mload(0x40)\n      0xe602df0500000000000000000000000000000000000000000000000000000000\n      dup2\n      mstore\n      0x04\n      add\n      tag_295\n      swap2\n      swap1\n      tag_81\n      jump\t// in\n    tag_295:\n      mload(0x40)\n      dup1\n      swap2\n      sub\n      swap1\n      revert\n        /* \"@openzeppelin/contracts/token/ERC20/ERC20.sol\":9809:9898  if (owner == address(0)) {... */\n    tag_294:\n        /* \"@openzeppelin/contracts/token/ERC20/ERC20.sol\":9930:9931  0 */\n      0x00\n        /* \"@openzeppelin/contracts/token/ERC20/ERC20.sol\":9911:9932  spender == address(0) */\n      0xffffffffffffffffffffffffffffffffffffffff\n      and\n        /* \"@openzeppelin/contracts/token/ERC20/ERC20.sol\":9911:9918  spender */\n      dup4\n        /* \"@openzeppelin/contracts/token/ERC20/ERC20.sol\":9911:9932  spender == address(0) */\n      0xffffffffffffffffffffffffffffffffffffffff\n      and\n      sub\n        /* \"@openzeppelin/contracts/token/ERC20/ERC20.sol\":9907:9997  if (spender == address(0)) {... */\n      tag_296\n      jumpi\n        /* \"@openzeppelin/contracts/token/ERC20/ERC20.sol\":9983:9984  0 */\n      0x00\n        /* \"@openzeppelin/contracts/token/ERC20/ERC20.sol\":9955:9986  ERC20InvalidSpender(address(0)) */\n      mload(0x40)\n      0x94280d6200000000000000000000000000000000000000000000000000000000\n      dup2\n      mstore\n      0x04\n      add\n      tag_297\n      swap2\n      swap1\n      tag_81\n      jump\t// in\n    tag_297:\n      mload(0x40)\n      dup1\n      swap2\n      sub\n      swap1\n      revert\n        /* \"@openzeppelin/contracts/token/ERC20/ERC20.sol\":9907:9997  if (spender == address(0)) {... */\n    tag_296:\n        /* \"@openzeppelin/contracts/token/ERC20/ERC20.sol\":10036:10041  value */\n      dup2\n        /* \"@openzeppelin/contracts/token/ERC20/ERC20.sol\":10006:10017  _allowances */\n      0x01\n        /* \"@openzeppelin/contracts/token/ERC20/ERC20.sol\":10006:10024  _allowances[owner] */\n      0x00\n        /* \"@openzeppelin/contracts/token/ERC20/ERC20.sol\":10018:10023  owner */\n      dup7\n        /* \"@openzeppelin/contracts/token/ERC20/ERC20.sol\":10006:10024  _allowances[owner] */\n      0xffffffffffffffffffffffffffffffffffffffff\n      and\n      0xffffffffffffffffffffffffffffffffffffffff\n      and\n      dup2\n      mstore\n      0x20\n      add\n      swap1\n      dup2\n      mstore\n      0x20\n      add\n      0x00\n      keccak256\n        /* \"@openzeppelin/contracts/token/ERC20/ERC20.sol\":10006:10033  _allowances[owner][spender] */\n      0x00\n        /* \"@openzeppelin/contracts/token/ERC20/ERC20.sol\":10025:10032  spender */\n      dup6\n        /* \"@openzeppelin/contracts/token/ERC20/ERC20.sol\":10006:10033  _allowances[owner][spender] */\n      0xffffffffffffffffffffffffffffffffffffffff\n      and\n      0xffffffffffffffffffffffffffffffffffffffff\n      and\n      dup2\n      mstore\n      0x20\n      add\n      swap1\n      dup2\n      mstore\n      0x20\n      add\n      0x00\n      keccak256\n        /* \"@openzeppelin/contracts/token/ERC20/ERC20.sol\":10006:10041  _allowances[owner][spender] = value */\n      dup2\n      swap1\n      sstore\n      pop\n        /* \"@openzeppelin/contracts/token/ERC20/ERC20.sol\":10055:10064  emitEvent */\n      dup1\n        /* \"@openzeppelin/contracts/token/ERC20/ERC20.sol\":10051:10127  if (emitEvent) {... */\n      iszero\n      tag_298\n      jumpi\n        /* \"@openzeppelin/contracts/token/ERC20/ERC20.sol\":10101:10108  spender */\n      dup3\n        /* \"@openzeppelin/contracts/token/ERC20/ERC20.sol\":10085:10116  Approval(owner, spender, value) */\n      0xffffffffffffffffffffffffffffffffffffffff\n      and\n        /* \"@openzeppelin/contracts/token/ERC20/ERC20.sol\":10094:10099  owner */\n      dup5\n        /* \"@openzeppelin/contracts/token/ERC20/ERC20.sol\":10085:10116  Approval(owner, spender, value) */\n      0xffffffffffffffffffffffffffffffffffffffff\n      and\n      0x8c5be1e5ebec7d5bd14f71427d1e84f3dd0314c0f7b2291e5b200ac8c7c3b925\n        /* \"@openzeppelin/contracts/token/ERC20/ERC20.sol\":10110:10115  value */\n      dup5\n        /* \"@openzeppelin/contracts/token/ERC20/ERC20.sol\":10085:10116  Approval(owner, spender, value) */\n      mload(0x40)\n      tag_299\n      swap2\n      swap1\n      tag_43\n      jump\t// in\n    tag_299:\n      mload(0x40)\n      dup1\n      swap2\n      sub\n      swap1\n      log3\n        /* \"@openzeppelin/contracts/token/ERC20/ERC20.sol\":10051:10127  if (emitEvent) {... */\n    tag_298:\n        /* \"@openzeppelin/contracts/token/ERC20/ERC20.sol\":9701:10133  function _approve(address owner, address spender, uint256 value, bool emitEvent) internal virtual {... */\n      pop\n      pop\n      pop\n      pop\n      jump\t// out\n        /* \"@openzeppelin/contracts/token/ERC20/utils/SafeERC20.sol\":1618:1806  function safeTransferFrom(IERC20 token, address from, address to, uint256 value) internal {... */\n    tag_262:\n        /* \"@openzeppelin/contracts/token/ERC20/utils/SafeERC20.sol\":1718:1799  _callOptionalReturn(token, abi.encodeCall(token.transferFrom, (from, to, value))) */\n      tag_301\n        /* \"@openzeppelin/contracts/token/ERC20/utils/SafeERC20.sol\":1738:1743  token */\n      dup5\n        /* \"@openzeppelin/contracts/token/ERC20/utils/SafeERC20.sol\":1760:1765  token */\n      dup6\n        /* \"@openzeppelin/contracts/token/ERC20/utils/SafeERC20.sol\":1760:1778  token.transferFrom */\n      0xffffffffffffffffffffffffffffffffffffffff\n      and\n      0x23b872dd\n        /* \"@openzeppelin/contracts/token/ERC20/utils/SafeERC20.sol\":1781:1785  from */\n      dup7\n        /* \"@openzeppelin/contracts/token/ERC20/utils/SafeERC20.sol\":1787:1789  to */\n      dup7\n        /* \"@openzeppelin/contracts/token/ERC20/utils/SafeERC20.sol\":1791:1796  value */\n      dup7\n        /* \"@openzeppelin/contracts/token/ERC20/utils/SafeERC20.sol\":1745:1798  abi.encodeCall(token.transferFrom, (from, to, value)) */\n      add(0x24, mload(0x40))\n      tag_302\n      swap4\n      swap3\n      swap2\n      swap1\n      tag_303\n      jump\t// in\n    tag_302:\n      mload(0x40)\n      0x20\n      dup2\n      dup4\n      sub\n      sub\n      dup2\n      mstore\n      swap1\n      0x40\n      mstore\n      swap2\n      pop\n      0xe0\n      shl\n      0x20\n      dup3\n      add\n      dup1\n      mload\n      0xffffffffffffffffffffffffffffffffffffffffffffffffffffffff\n      dup4\n      dup2\n      dup4\n      and\n      or\n      dup4\n      mstore\n      pop\n      pop\n      pop\n      pop\n        /* \"@openzeppelin/contracts/token/ERC20/utils/SafeERC20.sol\":1718:1737  _callOptionalReturn */\n      tag_304\n        /* \"@openzeppelin/contracts/token/ERC20/utils/SafeERC20.sol\":1718:1799  _callOptionalReturn(token, abi.encodeCall(token.transferFrom, (from, to, value))) */\n      jump\t// in\n    tag_301:\n        /* \"@openzeppelin/contracts/token/ERC20/utils/SafeERC20.sol\":1618:1806  function safeTransferFrom(IERC20 token, address from, address to, uint256 value) internal {... */\n      pop\n      pop\n      pop\n      pop\n      jump\t// out\n        /* \"@openzeppelin/contracts/token/ERC20/ERC20.sol\":6008:7115  function _update(address from, address to, uint256 value) internal virtual {... */\n    tag_276:\n        /* \"@openzeppelin/contracts/token/ERC20/ERC20.sol\":6113:6114  0 */\n      0x00\n        /* \"@openzeppelin/contracts/token/ERC20/ERC20.sol\":6097:6115  from == address(0) */\n      0xffffffffffffffffffffffffffffffffffffffff\n      and\n        /* \"@openzeppelin/contracts/token/ERC20/ERC20.sol\":6097:6101  from */\n      dup4\n        /* \"@openzeppelin/contracts/token/ERC20/ERC20.sol\":6097:6115  from == address(0) */\n      0xffffffffffffffffffffffffffffffffffffffff\n      and\n      sub\n        /* \"@openzeppelin/contracts/token/ERC20/ERC20.sol\":6093:6633  if (from == address(0)) {... */\n      tag_306\n      jumpi\n        /* \"@openzeppelin/contracts/token/ERC20/ERC20.sol\":6249:6254  value */\n      dup1\n        /* \"@openzeppelin/contracts/token/ERC20/ERC20.sol\":6233:6245  _totalSupply */\n      0x02\n      0x00\n        /* \"@openzeppelin/contracts/token/ERC20/ERC20.sol\":6233:6254  _totalSupply += value */\n      dup3\n      dup3\n      sload\n      tag_307\n      swap2\n      swap1\n      tag_156\n      jump\t// in\n    tag_307:\n      swap3\n      pop\n      pop\n      dup2\n      swap1\n      sstore\n      pop\n        /* \"@openzeppelin/contracts/token/ERC20/ERC20.sol\":6093:6633  if (from == address(0)) {... */\n      jump(tag_308)\n    tag_306:\n        /* \"@openzeppelin/contracts/token/ERC20/ERC20.sol\":6285:6304  uint256 fromBalance */\n      0x00\n        /* \"@openzeppelin/contracts/token/ERC20/ERC20.sol\":6307:6316  _balances */\n      dup1\n        /* \"@openzeppelin/contracts/token/ERC20/ERC20.sol\":6307:6322  _balances[from] */\n      0x00\n        /* \"@openzeppelin/contracts/token/ERC20/ERC20.sol\":6317:6321  from */\n      dup6\n        /* \"@openzeppelin/contracts/token/ERC20/ERC20.sol\":6307:6322  _balances[from] */\n      0xffffffffffffffffffffffffffffffffffffffff\n      and\n      0xffffffffffffffffffffffffffffffffffffffff\n      and\n      dup2\n      mstore\n      0x20\n      add\n      swap1\n      dup2\n      mstore\n      0x20\n      add\n      0x00\n      keccak256\n      sload\n        /* \"@openzeppelin/contracts/token/ERC20/ERC20.sol\":6285:6322  uint256 fromBalance = _balances[from] */\n      swap1\n      pop\n        /* \"@openzeppelin/contracts/token/ERC20/ERC20.sol\":6354:6359  value */\n      dup2\n        /* \"@openzeppelin/contracts/token/ERC20/ERC20.sol\":6340:6351  fromBalance */\n      dup2\n        /* \"@openzeppelin/contracts/token/ERC20/ERC20.sol\":6340:6359  fromBalance < value */\n      lt\n        /* \"@openzeppelin/contracts/token/ERC20/ERC20.sol\":6336:6451  if (fromBalance < value) {... */\n      iszero\n      tag_309\n      jumpi\n        /* \"@openzeppelin/contracts/token/ERC20/ERC20.sol\":6411:6415  from */\n      dup4\n        /* \"@openzeppelin/contracts/token/ERC20/ERC20.sol\":6417:6428  fromBalance */\n      dup2\n        /* \"@openzeppelin/contracts/token/ERC20/ERC20.sol\":6430:6435  value */\n      dup4\n        /* \"@openzeppelin/contracts/token/ERC20/ERC20.sol\":6386:6436  ERC20InsufficientBalance(from, fromBalance, value) */\n      mload(0x40)\n      0xe450d38c00000000000000000000000000000000000000000000000000000000\n      dup2\n      mstore\n      0x04\n      add\n      tag_310\n      swap4\n      swap3\n      swap2\n      swap1\n      tag_268\n      jump\t// in\n    tag_310:\n      mload(0x40)\n      dup1\n      swap2\n      sub\n      swap1\n      revert\n        /* \"@openzeppelin/contracts/token/ERC20/ERC20.sol\":6336:6451  if (fromBalance < value) {... */\n    tag_309:\n        /* \"@openzeppelin/contracts/token/ERC20/ERC20.sol\":6603:6608  value */\n      dup2\n        /* \"@openzeppelin/contracts/token/ERC20/ERC20.sol\":6589:6600  fromBalance */\n      dup2\n        /* \"@openzeppelin/contracts/token/ERC20/ERC20.sol\":6589:6608  fromBalance - value */\n      sub\n        /* \"@openzeppelin/contracts/token/ERC20/ERC20.sol\":6571:6580  _balances */\n      0x00\n        /* \"@openzeppelin/contracts/token/ERC20/ERC20.sol\":6571:6586  _balances[from] */\n      dup1\n        /* \"@openzeppelin/contracts/token/ERC20/ERC20.sol\":6581:6585  from */\n      dup7\n        /* \"@openzeppelin/contracts/token/ERC20/ERC20.sol\":6571:6586  _balances[from] */\n      0xffffffffffffffffffffffffffffffffffffffff\n      and\n      0xffffffffffffffffffffffffffffffffffffffff\n      and\n      dup2\n      mstore\n      0x20\n      add\n      swap1\n      dup2\n      mstore\n      0x20\n      add\n      0x00\n      keccak256\n        /* \"@openzeppelin/contracts/token/ERC20/ERC20.sol\":6571:6608  _balances[from] = fromBalance - value */\n      dup2\n      swap1\n      sstore\n      pop\n        /* \"@openzeppelin/contracts/token/ERC20/ERC20.sol\":6271:6633  {... */\n      pop\n        /* \"@openzeppelin/contracts/token/ERC20/ERC20.sol\":6093:6633  if (from == address(0)) {... */\n    tag_308:\n        /* \"@openzeppelin/contracts/token/ERC20/ERC20.sol\":6661:6662  0 */\n      0x00\n        /* \"@openzeppelin/contracts/token/ERC20/ERC20.sol\":6647:6663  to == address(0) */\n      0xffffffffffffffffffffffffffffffffffffffff\n      and\n        /* \"@openzeppelin/contracts/token/ERC20/ERC20.sol\":6647:6649  to */\n      dup3\n        /* \"@openzeppelin/contracts/token/ERC20/ERC20.sol\":6647:6663  to == address(0) */\n      0xffffffffffffffffffffffffffffffffffffffff\n      and\n      sub\n        /* \"@openzeppelin/contracts/token/ERC20/ERC20.sol\":6643:7068  if (to == address(0)) {... */\n      tag_311\n      jumpi\n        /* \"@openzeppelin/contracts/token/ERC20/ERC20.sol\":6826:6831  value */\n      dup1\n        /* \"@openzeppelin/contracts/token/ERC20/ERC20.sol\":6810:6822  _totalSupply */\n      0x02\n      0x00\n        /* \"@openzeppelin/contracts/token/ERC20/ERC20.sol\":6810:6831  _totalSupply -= value */\n      dup3\n      dup3\n      sload\n      sub\n      swap3\n      pop\n      pop\n      dup2\n      swap1\n      sstore\n      pop\n        /* \"@openzeppelin/contracts/token/ERC20/ERC20.sol\":6643:7068  if (to == address(0)) {... */\n      jump(tag_312)\n    tag_311:\n        /* \"@openzeppelin/contracts/token/ERC20/ERC20.sol\":7038:7043  value */\n      dup1\n        /* \"@openzeppelin/contracts/token/ERC20/ERC20.sol\":7021:7030  _balances */\n      0x00\n        /* \"@openzeppelin/contracts/token/ERC20/ERC20.sol\":7021:7034  _balances[to] */\n      dup1\n        /* \"@openzeppelin/contracts/token/ERC20/ERC20.sol\":7031:7033  to */\n      dup5\n        /* \"@openzeppelin/contracts/token/ERC20/ERC20.sol\":7021:7034  _balances[to] */\n      0xffffffffffffffffffffffffffffffffffffffff\n      and\n      0xffffffffffffffffffffffffffffffffffffffff\n      and\n      dup2\n      mstore\n      0x20\n      add\n      swap1\n      dup2\n      mstore\n      0x20\n      add\n      0x00\n      keccak256\n      0x00\n        /* \"@openzeppelin/contracts/token/ERC20/ERC20.sol\":7021:7043  _balances[to] += value */\n      dup3\n      dup3\n      sload\n      add\n      swap3\n      pop\n      pop\n      dup2\n      swap1\n      sstore\n      pop\n        /* \"@openzeppelin/contracts/token/ERC20/ERC20.sol\":6643:7068  if (to == address(0)) {... */\n    tag_312:\n        /* \"@openzeppelin/contracts/token/ERC20/ERC20.sol\":7098:7100  to */\n      dup2\n        /* \"@openzeppelin/contracts/token/ERC20/ERC20.sol\":7083:7108  Transfer(from, to, value) */\n      0xffffffffffffffffffffffffffffffffffffffff\n      and\n        /* \"@openzeppelin/contracts/token/ERC20/ERC20.sol\":7092:7096  from */\n      dup4\n        /* \"@openzeppelin/contracts/token/ERC20/ERC20.sol\":7083:7108  Transfer(from, to, value) */\n      0xffffffffffffffffffffffffffffffffffffffff\n      and\n      0xddf252ad1be2c89b69c2b068fc378daa952ba7f163c4a11628f55a4df523b3ef\n        /* \"@openzeppelin/contracts/token/ERC20/ERC20.sol\":7102:7107  value */\n      dup4\n        /* \"@openzeppelin/contracts/token/ERC20/ERC20.sol\":7083:7108  Transfer(from, to, value) */\n      mload(0x40)\n      tag_313\n      swap2\n      swap1\n      tag_43\n      jump\t// in\n    tag_313:\n      mload(0x40)\n      dup1\n      swap2\n      sub\n      swap1\n      log3\n        /* \"@openzeppelin/contracts/token/ERC20/ERC20.sol\":6008:7115  function _update(address from, address to, uint256 value) internal virtual {... */\n      pop\n      pop\n      pop\n      jump\t// out\n        /* \"@openzeppelin/contracts/token/ERC20/utils/SafeERC20.sol\":1219:1379  function safeTransfer(IERC20 token, address to, uint256 value) internal {... */\n    tag_292:\n        /* \"@openzeppelin/contracts/token/ERC20/utils/SafeERC20.sol\":1301:1372  _callOptionalReturn(token, abi.encodeCall(token.transfer, (to, value))) */\n      tag_315\n        /* \"@openzeppelin/contracts/token/ERC20/utils/SafeERC20.sol\":1321:1326  token */\n      dup4\n        /* \"@openzeppelin/contracts/token/ERC20/utils/SafeERC20.sol\":1343:1348  token */\n      dup5\n        /* \"@openzeppelin/contracts/token/ERC20/utils/SafeERC20.sol\":1343:1357  token.transfer */\n      0xffffffffffffffffffffffffffffffffffffffff\n      and\n      0xa9059cbb\n        /* \"@openzeppelin/contracts/token/ERC20/utils/SafeERC20.sol\":1360:1362  to */\n      dup6\n        /* \"@openzeppelin/contracts/token/ERC20/utils/SafeERC20.sol\":1364:1369  value */\n      dup6\n        /* \"@openzeppelin/contracts/token/ERC20/utils/SafeERC20.sol\":1328:1371  abi.encodeCall(token.transfer, (to, value)) */\n      add(0x24, mload(0x40))\n      tag_316\n      swap3\n      swap2\n      swap1\n      tag_317\n      jump\t// in\n    tag_316:\n      mload(0x40)\n      0x20\n      dup2\n      dup4\n      sub\n      sub\n      dup2\n      mstore\n      swap1\n      0x40\n      mstore\n      swap2\n      pop\n      0xe0\n      shl\n      0x20\n      dup3\n      add\n      dup1\n      mload\n      0xffffffffffffffffffffffffffffffffffffffffffffffffffffffff\n      dup4\n      dup2\n      dup4\n      and\n      or\n      dup4\n      mstore\n      pop\n      pop\n      pop\n      pop\n        /* \"@openzeppelin/contracts/token/ERC20/utils/SafeERC20.sol\":1301:1320  _callOptionalReturn */\n      tag_304\n        /* \"@openzeppelin/contracts/token/ERC20/utils/SafeERC20.sol\":1301:1372  _callOptionalReturn(token, abi.encodeCall(token.transfer, (to, value))) */\n      jump\t// in\n    tag_315:\n        /* \"@openzeppelin/contracts/token/ERC20/utils/SafeERC20.sol\":1219:1379  function safeTransfer(IERC20 token, address to, uint256 value) internal {... */\n      pop\n      pop\n      pop\n      jump\t// out\n        /* \"@openzeppelin/contracts/token/ERC20/utils/SafeERC20.sol\":7686:8406  function _callOptionalReturn(IERC20 token, bytes memory data) private {... */\n    tag_304:\n        /* \"@openzeppelin/contracts/token/ERC20/utils/SafeERC20.sol\":7766:7784  uint256 returnSize */\n      0x00\n        /* \"@openzeppelin/contracts/token/ERC20/utils/SafeERC20.sol\":7794:7813  uint256 returnValue */\n      dup1\n        /* \"@openzeppelin/contracts/token/ERC20/utils/SafeERC20.sol\":7932:7936  0x20 */\n      0x20\n        /* \"@openzeppelin/contracts/token/ERC20/utils/SafeERC20.sol\":7929:7930  0 */\n      0x00\n        /* \"@openzeppelin/contracts/token/ERC20/utils/SafeERC20.sol\":7922:7926  data */\n      dup5\n        /* \"@openzeppelin/contracts/token/ERC20/utils/SafeERC20.sol\":7916:7927  mload(data) */\n      mload\n        /* \"@openzeppelin/contracts/token/ERC20/utils/SafeERC20.sol\":7909:7913  0x20 */\n      0x20\n        /* \"@openzeppelin/contracts/token/ERC20/utils/SafeERC20.sol\":7903:7907  data */\n      dup7\n        /* \"@openzeppelin/contracts/token/ERC20/utils/SafeERC20.sol\":7899:7914  add(data, 0x20) */\n      add\n        /* \"@openzeppelin/contracts/token/ERC20/utils/SafeERC20.sol\":7896:7897  0 */\n      0x00\n        /* \"@openzeppelin/contracts/token/ERC20/utils/SafeERC20.sol\":7889:7894  token */\n      dup9\n        /* \"@openzeppelin/contracts/token/ERC20/utils/SafeERC20.sol\":7882:7887  gas() */\n      gas\n        /* \"@openzeppelin/contracts/token/ERC20/utils/SafeERC20.sol\":7877:7937  call(gas(), token, 0, add(data, 0x20), mload(data), 0, 0x20) */\n      call\n        /* \"@openzeppelin/contracts/token/ERC20/utils/SafeERC20.sol\":7989:7996  success */\n      dup1\n        /* \"@openzeppelin/contracts/token/ERC20/utils/SafeERC20.sol\":7979:8155  if iszero(success) {... */\n      tag_319\n      jumpi\n        /* \"@openzeppelin/contracts/token/ERC20/utils/SafeERC20.sol\":8033:8037  0x40 */\n      0x40\n        /* \"@openzeppelin/contracts/token/ERC20/utils/SafeERC20.sol\":8027:8038  mload(0x40) */\n      mload\n        /* \"@openzeppelin/contracts/token/ERC20/utils/SafeERC20.sol\":8078:8094  returndatasize() */\n      returndatasize\n        /* \"@openzeppelin/contracts/token/ERC20/utils/SafeERC20.sol\":8075:8076  0 */\n      0x00\n        /* \"@openzeppelin/contracts/token/ERC20/utils/SafeERC20.sol\":8070:8073  ptr */\n      dup3\n        /* \"@openzeppelin/contracts/token/ERC20/utils/SafeERC20.sol\":8055:8095  returndatacopy(ptr, 0, returndatasize()) */\n      returndatacopy\n        /* \"@openzeppelin/contracts/token/ERC20/utils/SafeERC20.sol\":8124:8140  returndatasize() */\n      returndatasize\n        /* \"@openzeppelin/contracts/token/ERC20/utils/SafeERC20.sol\":8119:8122  ptr */\n      dup2\n        /* \"@openzeppelin/contracts/token/ERC20/utils/SafeERC20.sol\":8112:8141  revert(ptr, returndatasize()) */\n      revert\n        /* \"@openzeppelin/contracts/token/ERC20/utils/SafeERC20.sol\":7979:8155  if iszero(success) {... */\n    tag_319:\n        /* \"@openzeppelin/contracts/token/ERC20/utils/SafeERC20.sol\":8182:8198  returndatasize() */\n      returndatasize\n        /* \"@openzeppelin/contracts/token/ERC20/utils/SafeERC20.sol\":8168:8198  returnSize := returndatasize() */\n      swap3\n      pop\n        /* \"@openzeppelin/contracts/token/ERC20/utils/SafeERC20.sol\":8232:8233  0 */\n      0x00\n        /* \"@openzeppelin/contracts/token/ERC20/utils/SafeERC20.sol\":8226:8234  mload(0) */\n      mload\n        /* \"@openzeppelin/contracts/token/ERC20/utils/SafeERC20.sol\":8211:8234  returnValue := mload(0) */\n      swap2\n      pop\n        /* \"@openzeppelin/contracts/token/ERC20/utils/SafeERC20.sol\":7848:8244  {... */\n      pop\n        /* \"@openzeppelin/contracts/token/ERC20/utils/SafeERC20.sol\":8272:8273  0 */\n      0x00\n        /* \"@openzeppelin/contracts/token/ERC20/utils/SafeERC20.sol\":8258:8268  returnSize */\n      dup3\n        /* \"@openzeppelin/contracts/token/ERC20/utils/SafeERC20.sol\":8258:8273  returnSize == 0 */\n      eq\n        /* \"@openzeppelin/contracts/token/ERC20/utils/SafeERC20.sol\":8258:8326  returnSize == 0 ? address(token).code.length == 0 : returnValue != 1 */\n      tag_320\n      jumpi\n        /* \"@openzeppelin/contracts/token/ERC20/utils/SafeERC20.sol\":8325:8326  1 */\n      0x01\n        /* \"@openzeppelin/contracts/token/ERC20/utils/SafeERC20.sol\":8310:8321  returnValue */\n      dup2\n        /* \"@openzeppelin/contracts/token/ERC20/utils/SafeERC20.sol\":8310:8326  returnValue != 1 */\n      eq\n      iszero\n        /* \"@openzeppelin/contracts/token/ERC20/utils/SafeERC20.sol\":8258:8326  returnSize == 0 ? address(token).code.length == 0 : returnValue != 1 */\n      jump(tag_321)\n    tag_320:\n        /* \"@openzeppelin/contracts/token/ERC20/utils/SafeERC20.sol\":8306:8307  0 */\n      0x00\n        /* \"@openzeppelin/contracts/token/ERC20/utils/SafeERC20.sol\":8284:8289  token */\n      dup5\n        /* \"@openzeppelin/contracts/token/ERC20/utils/SafeERC20.sol\":8276:8302  address(token).code.length */\n      0xffffffffffffffffffffffffffffffffffffffff\n      and\n      extcodesize\n        /* \"@openzeppelin/contracts/token/ERC20/utils/SafeERC20.sol\":8276:8307  address(token).code.length == 0 */\n      eq\n        /* \"@openzeppelin/contracts/token/ERC20/utils/SafeERC20.sol\":8258:8326  returnSize == 0 ? address(token).code.length == 0 : returnValue != 1 */\n    tag_321:\n        /* \"@openzeppelin/contracts/token/ERC20/utils/SafeERC20.sol\":8254:8400  if (returnSize == 0 ? address(token).code.length == 0 : returnValue != 1) {... */\n      iszero\n      tag_322\n      jumpi\n        /* \"@openzeppelin/contracts/token/ERC20/utils/SafeERC20.sol\":8382:8387  token */\n      dup4\n        /* \"@openzeppelin/contracts/token/ERC20/utils/SafeERC20.sol\":8349:8389  SafeERC20FailedOperation(address(token)) */\n      mload(0x40)\n      0x5274afe700000000000000000000000000000000000000000000000000000000\n      dup2\n      mstore\n      0x04\n      add\n      tag_323\n      swap2\n      swap1\n      tag_81\n      jump\t// in\n    tag_323:\n      mload(0x40)\n      dup1\n      swap2\n      sub\n      swap1\n      revert\n        /* \"@openzeppelin/contracts/token/ERC20/utils/SafeERC20.sol\":8254:8400  if (returnSize == 0 ? address(token).code.length == 0 : returnValue != 1) {... */\n    tag_322:\n        /* \"@openzeppelin/contracts/token/ERC20/utils/SafeERC20.sol\":7756:8406  {... */\n      pop\n      pop\n        /* \"@openzeppelin/contracts/token/ERC20/utils/SafeERC20.sol\":7686:8406  function _callOptionalReturn(IERC20 token, bytes memory data) private {... */\n      pop\n      pop\n      jump\t// out\n        /* \"#utility.yul\":7:106   */\n    tag_324:\n        /* \"#utility.yul\":59:65   */\n      0x00\n        /* \"#utility.yul\":93:98   */\n      dup2\n        /* \"#utility.yul\":87:99   */\n      mload\n        /* \"#utility.yul\":77:99   */\n      swap1\n      pop\n        /* \"#utility.yul\":7:106   */\n      swap2\n      swap1\n      pop\n      jump\t// out\n        /* \"#utility.yul\":112:281   */\n    tag_325:\n        /* \"#utility.yul\":196:207   */\n      0x00\n        /* \"#utility.yul\":230:236   */\n      dup3\n        /* \"#utility.yul\":225:228   */\n      dup3\n        /* \"#utility.yul\":218:237   */\n      mstore\n        /* \"#utility.yul\":270:274   */\n      0x20\n        /* \"#utility.yul\":265:268   */\n      dup3\n        /* \"#utility.yul\":261:275   */\n      add\n        /* \"#utility.yul\":246:275   */\n      swap1\n      pop\n        /* \"#utility.yul\":112:281   */\n      swap3\n      swap2\n      pop\n      pop\n      jump\t// out\n        /* \"#utility.yul\":287:426   */\n    tag_326:\n        /* \"#utility.yul\":376:382   */\n      dup3\n        /* \"#utility.yul\":371:374   */\n      dup2\n        /* \"#utility.yul\":366:369   */\n      dup4\n        /* \"#utility.yul\":360:383   */\n      mcopy\n        /* \"#utility.yul\":417:418   */\n      0x00\n        /* \"#utility.yul\":408:414   */\n      dup4\n        /* \"#utility.yul\":403:406   */\n      dup4\n        /* \"#utility.yul\":399:415   */\n      add\n        /* \"#utility.yul\":392:419   */\n      mstore\n        /* \"#utility.yul\":287:426   */\n      pop\n      pop\n      pop\n      jump\t// out\n        /* \"#utility.yul\":432:534   */\n    tag_327:\n        /* \"#utility.yul\":473:479   */\n      0x00\n        /* \"#utility.yul\":524:526   */\n      0x1f\n        /* \"#utility.yul\":520:527   */\n      not\n        /* \"#utility.yul\":515:517   */\n      0x1f\n        /* \"#utility.yul\":508:513   */\n      dup4\n        /* \"#utility.yul\":504:518   */\n      add\n        /* \"#utility.yul\":500:528   */\n      and\n        /* \"#utility.yul\":490:528   */\n      swap1\n      pop\n        /* \"#utility.yul\":432:534   */\n      swap2\n      swap1\n      pop\n      jump\t// out\n        /* \"#utility.yul\":540:917   */\n    tag_328:\n        /* \"#utility.yul\":628:631   */\n      0x00\n        /* \"#utility.yul\":656:695   */\n      tag_401\n        /* \"#utility.yul\":689:694   */\n      dup3\n        /* \"#utility.yul\":656:695   */\n      tag_324\n      jump\t// in\n    tag_401:\n        /* \"#utility.yul\":711:782   */\n      tag_402\n        /* \"#utility.yul\":775:781   */\n      dup2\n        /* \"#utility.yul\":770:773   */\n      dup6\n        /* \"#utility.yul\":711:782   */\n      tag_325\n      jump\t// in\n    tag_402:\n        /* \"#utility.yul\":704:782   */\n      swap4\n      pop\n        /* \"#utility.yul\":791:856   */\n      tag_403\n        /* \"#utility.yul\":849:855   */\n      dup2\n        /* \"#utility.yul\":844:847   */\n      dup6\n        /* \"#utility.yul\":837:841   */\n      0x20\n        /* \"#utility.yul\":830:835   */\n      dup7\n        /* \"#utility.yul\":826:842   */\n      add\n        /* \"#utility.yul\":791:856   */\n      tag_326\n      jump\t// in\n    tag_403:\n        /* \"#utility.yul\":881:910   */\n      tag_404\n        /* \"#utility.yul\":903:909   */\n      dup2\n        /* \"#utility.yul\":881:910   */\n      tag_327\n      jump\t// in\n    tag_404:\n        /* \"#utility.yul\":876:879   */\n      dup5\n        /* \"#utility.yul\":872:911   */\n      add\n        /* \"#utility.yul\":865:911   */\n      swap2\n      pop\n        /* \"#utility.yul\":632:917   */\n      pop\n        /* \"#utility.yul\":540:917   */\n      swap3\n      swap2\n      pop\n      pop\n      jump\t// out\n        /* \"#utility.yul\":923:1236   */\n    tag_33:\n        /* \"#utility.yul\":1036:1040   */\n      0x00\n        /* \"#utility.yul\":1074:1076   */\n      0x20\n        /* \"#utility.yul\":1063:1072   */\n      dup3\n        /* \"#utility.yul\":1059:1077   */\n      add\n        /* \"#utility.yul\":1051:1077   */\n      swap1\n      pop\n        /* \"#utility.yul\":1123:1132   */\n      dup2\n        /* \"#utility.yul\":1117:1121   */\n      dup2\n        /* \"#utility.yul\":1113:1133   */\n      sub\n        /* \"#utility.yul\":1109:1110   */\n      0x00\n        /* \"#utility.yul\":1098:1107   */\n      dup4\n        /* \"#utility.yul\":1094:1111   */\n      add\n        /* \"#utility.yul\":1087:1134   */\n      mstore\n        /* \"#utility.yul\":1151:1229   */\n      tag_406\n        /* \"#utility.yul\":1224:1228   */\n      dup2\n        /* \"#utility.yul\":1215:1221   */\n      dup5\n        /* \"#utility.yul\":1151:1229   */\n      tag_328\n      jump\t// in\n    tag_406:\n        /* \"#utility.yul\":1143:1229   */\n      swap1\n      pop\n        /* \"#utility.yul\":923:1236   */\n      swap3\n      swap2\n      pop\n      pop\n      jump\t// out\n        /* \"#utility.yul\":1242:1317   */\n    tag_329:\n        /* \"#utility.yul\":1275:1281   */\n      0x00\n        /* \"#utility.yul\":1308:1310   */\n      0x40\n        /* \"#utility.yul\":1302:1311   */\n      mload\n        /* \"#utility.yul\":1292:1311   */\n      swap1\n      pop\n        /* \"#utility.yul\":1242:1317   */\n      swap1\n      jump\t// out\n        /* \"#utility.yul\":1323:1440   */\n    tag_330:\n        /* \"#utility.yul\":1432:1433   */\n      0x00\n        /* \"#utility.yul\":1429:1430   */\n      dup1\n        /* \"#utility.yul\":1422:1434   */\n      revert\n        /* \"#utility.yul\":1446:1563   */\n    tag_331:\n        /* \"#utility.yul\":1555:1556   */\n      0x00\n        /* \"#utility.yul\":1552:1553   */\n      dup1\n        /* \"#utility.yul\":1545:1557   */\n      revert\n        /* \"#utility.yul\":1569:1695   */\n    tag_332:\n        /* \"#utility.yul\":1606:1613   */\n      0x00\n        /* \"#utility.yul\":1646:1688   */\n      0xffffffffffffffffffffffffffffffffffffffff\n        /* \"#utility.yul\":1639:1644   */\n      dup3\n        /* \"#utility.yul\":1635:1689   */\n      and\n        /* \"#utility.yul\":1624:1689   */\n      swap1\n      pop\n        /* \"#utility.yul\":1569:1695   */\n      swap2\n      swap1\n      pop\n      jump\t// out\n        /* \"#utility.yul\":1701:1797   */\n    tag_333:\n        /* \"#utility.yul\":1738:1745   */\n      0x00\n        /* \"#utility.yul\":1767:1791   */\n      tag_412\n        /* \"#utility.yul\":1785:1790   */\n      dup3\n        /* \"#utility.yul\":1767:1791   */\n      tag_332\n      jump\t// in\n    tag_412:\n        /* \"#utility.yul\":1756:1791   */\n      swap1\n      pop\n        /* \"#utility.yul\":1701:1797   */\n      swap2\n      swap1\n      pop\n      jump\t// out\n        /* \"#utility.yul\":1803:1925   */\n    tag_334:\n        /* \"#utility.yul\":1876:1900   */\n      tag_414\n        /* \"#utility.yul\":1894:1899   */\n      dup2\n        /* \"#utility.yul\":1876:1900   */\n      tag_333\n      jump\t// in\n    tag_414:\n        /* \"#utility.yul\":1869:1874   */\n      dup2\n        /* \"#utility.yul\":1866:1901   */\n      eq\n        /* \"#utility.yul\":1856:1919   */\n      tag_415\n      jumpi\n        /* \"#utility.yul\":1915:1916   */\n      0x00\n        /* \"#utility.yul\":1912:1913   */\n      dup1\n        /* \"#utility.yul\":1905:1917   */\n      revert\n        /* \"#utility.yul\":1856:1919   */\n    tag_415:\n        /* \"#utility.yul\":1803:1925   */\n      pop\n      jump\t// out\n        /* \"#utility.yul\":1931:2070   */\n    tag_335:\n        /* \"#utility.yul\":1977:1982   */\n      0x00\n        /* \"#utility.yul\":2015:2021   */\n      dup2\n        /* \"#utility.yul\":2002:2022   */\n      calldataload\n        /* \"#utility.yul\":1993:2022   */\n      swap1\n      pop\n        /* \"#utility.yul\":2031:2064   */\n      tag_417\n        /* \"#utility.yul\":2058:2063   */\n      dup2\n        /* \"#utility.yul\":2031:2064   */\n      tag_334\n      jump\t// in\n    tag_417:\n        /* \"#utility.yul\":1931:2070   */\n      swap3\n      swap2\n      pop\n      pop\n      jump\t// out\n        /* \"#utility.yul\":2076:2153   */\n    tag_336:\n        /* \"#utility.yul\":2113:2120   */\n      0x00\n        /* \"#utility.yul\":2142:2147   */\n      dup2\n        /* \"#utility.yul\":2131:2147   */\n      swap1\n      pop\n        /* \"#utility.yul\":2076:2153   */\n      swap2\n      swap1\n      pop\n      jump\t// out\n        /* \"#utility.yul\":2159:2281   */\n    tag_337:\n        /* \"#utility.yul\":2232:2256   */\n      tag_420\n        /* \"#utility.yul\":2250:2255   */\n      dup2\n        /* \"#utility.yul\":2232:2256   */\n      tag_336\n      jump\t// in\n    tag_420:\n        /* \"#utility.yul\":2225:2230   */\n      dup2\n        /* \"#utility.yul\":2222:2257   */\n      eq\n        /* \"#utility.yul\":2212:2275   */\n      tag_421\n      jumpi\n        /* \"#utility.yul\":2271:2272   */\n      0x00\n        /* \"#utility.yul\":2268:2269   */\n      dup1\n        /* \"#utility.yul\":2261:2273   */\n      revert\n        /* \"#utility.yul\":2212:2275   */\n    tag_421:\n        /* \"#utility.yul\":2159:2281   */\n      pop\n      jump\t// out\n        /* \"#utility.yul\":2287:2426   */\n    tag_338:\n        /* \"#utility.yul\":2333:2338   */\n      0x00\n        /* \"#utility.yul\":2371:2377   */\n      dup2\n        /* \"#utility.yul\":2358:2378   */\n      calldataload\n        /* \"#utility.yul\":2349:2378   */\n      swap1\n      pop\n        /* \"#utility.yul\":2387:2420   */\n      tag_423\n        /* \"#utility.yul\":2414:2419   */\n      dup2\n        /* \"#utility.yul\":2387:2420   */\n      tag_337\n      jump\t// in\n    tag_423:\n        /* \"#utility.yul\":2287:2426   */\n      swap3\n      swap2\n      pop\n      pop\n      jump\t// out\n        /* \"#utility.yul\":2432:2906   */\n    tag_36:\n        /* \"#utility.yul\":2500:2506   */\n      0x00\n        /* \"#utility.yul\":2508:2514   */\n      dup1\n        /* \"#utility.yul\":2557:2559   */\n      0x40\n        /* \"#utility.yul\":2545:2554   */\n      dup4\n        /* \"#utility.yul\":2536:2543   */\n      dup6\n        /* \"#utility.yul\":2532:2555   */\n      sub\n        /* \"#utility.yul\":2528:2560   */\n      slt\n        /* \"#utility.yul\":2525:2644   */\n      iszero\n      tag_425\n      jumpi\n        /* \"#utility.yul\":2563:2642   */\n      tag_426\n      tag_330\n      jump\t// in\n    tag_426:\n        /* \"#utility.yul\":2525:2644   */\n    tag_425:\n        /* \"#utility.yul\":2683:2684   */\n      0x00\n        /* \"#utility.yul\":2708:2761   */\n      tag_427\n        /* \"#utility.yul\":2753:2760   */\n      dup6\n        /* \"#utility.yul\":2744:2750   */\n      dup3\n        /* \"#utility.yul\":2733:2742   */\n      dup7\n        /* \"#utility.yul\":2729:2751   */\n      add\n        /* \"#utility.yul\":2708:2761   */\n      tag_335\n      jump\t// in\n    tag_427:\n        /* \"#utility.yul\":2698:2761   */\n      swap3\n      pop\n        /* \"#utility.yul\":2654:2771   */\n      pop\n        /* \"#utility.yul\":2810:2812   */\n      0x20\n        /* \"#utility.yul\":2836:2889   */\n      tag_428\n        /* \"#utility.yul\":2881:2888   */\n      dup6\n        /* \"#utility.yul\":2872:2878   */\n      dup3\n        /* \"#utility.yul\":2861:2870   */\n      dup7\n        /* \"#utility.yul\":2857:2879   */\n      add\n        /* \"#utility.yul\":2836:2889   */\n      tag_338\n      jump\t// in\n    tag_428:\n        /* \"#utility.yul\":2826:2889   */\n      swap2\n      pop\n        /* \"#utility.yul\":2781:2899   */\n      pop\n        /* \"#utility.yul\":2432:2906   */\n      swap3\n      pop\n      swap3\n      swap1\n      pop\n      jump\t// out\n        /* \"#utility.yul\":2912:3002   */\n    tag_339:\n        /* \"#utility.yul\":2946:2953   */\n      0x00\n        /* \"#utility.yul\":2989:2994   */\n      dup2\n        /* \"#utility.yul\":2982:2995   */\n      iszero\n        /* \"#utility.yul\":2975:2996   */\n      iszero\n        /* \"#utility.yul\":2964:2996   */\n      swap1\n      pop\n        /* \"#utility.yul\":2912:3002   */\n      swap2\n      swap1\n      pop\n      jump\t// out\n        /* \"#utility.yul\":3008:3117   */\n    tag_340:\n        /* \"#utility.yul\":3089:3110   */\n      tag_431\n        /* \"#utility.yul\":3104:3109   */\n      dup2\n        /* \"#utility.yul\":3089:3110   */\n      tag_339\n      jump\t// in\n    tag_431:\n        /* \"#utility.yul\":3084:3087   */\n      dup3\n        /* \"#utility.yul\":3077:3111   */\n      mstore\n        /* \"#utility.yul\":3008:3117   */\n      pop\n      pop\n      jump\t// out\n        /* \"#utility.yul\":3123:3333   */\n    tag_39:\n        /* \"#utility.yul\":3210:3214   */\n      0x00\n        /* \"#utility.yul\":3248:3250   */\n      0x20\n        /* \"#utility.yul\":3237:3246   */\n      dup3\n        /* \"#utility.yul\":3233:3251   */\n      add\n        /* \"#utility.yul\":3225:3251   */\n      swap1\n      pop\n        /* \"#utility.yul\":3261:3326   */\n      tag_433\n        /* \"#utility.yul\":3323:3324   */\n      0x00\n        /* \"#utility.yul\":3312:3321   */\n      dup4\n        /* \"#utility.yul\":3308:3325   */\n      add\n        /* \"#utility.yul\":3299:3305   */\n      dup5\n        /* \"#utility.yul\":3261:3326   */\n      tag_340\n      jump\t// in\n    tag_433:\n        /* \"#utility.yul\":3123:3333   */\n      swap3\n      swap2\n      pop\n      pop\n      jump\t// out\n        /* \"#utility.yul\":3339:3457   */\n    tag_341:\n        /* \"#utility.yul\":3426:3450   */\n      tag_435\n        /* \"#utility.yul\":3444:3449   */\n      dup2\n        /* \"#utility.yul\":3426:3450   */\n      tag_336\n      jump\t// in\n    tag_435:\n        /* \"#utility.yul\":3421:3424   */\n      dup3\n        /* \"#utility.yul\":3414:3451   */\n      mstore\n        /* \"#utility.yul\":3339:3457   */\n      pop\n      pop\n      jump\t// out\n        /* \"#utility.yul\":3463:3685   */\n    tag_43:\n        /* \"#utility.yul\":3556:3560   */\n      0x00\n        /* \"#utility.yul\":3594:3596   */\n      0x20\n        /* \"#utility.yul\":3583:3592   */\n      dup3\n        /* \"#utility.yul\":3579:3597   */\n      add\n        /* \"#utility.yul\":3571:3597   */\n      swap1\n      pop\n        /* \"#utility.yul\":3607:3678   */\n      tag_437\n        /* \"#utility.yul\":3675:3676   */\n      0x00\n        /* \"#utility.yul\":3664:3673   */\n      dup4\n        /* \"#utility.yul\":3660:3677   */\n      add\n        /* \"#utility.yul\":3651:3657   */\n      dup5\n        /* \"#utility.yul\":3607:3678   */\n      tag_341\n      jump\t// in\n    tag_437:\n        /* \"#utility.yul\":3463:3685   */\n      swap3\n      swap2\n      pop\n      pop\n      jump\t// out\n        /* \"#utility.yul\":3691:3808   */\n    tag_342:\n        /* \"#utility.yul\":3800:3801   */\n      0x00\n        /* \"#utility.yul\":3797:3798   */\n      dup1\n        /* \"#utility.yul\":3790:3802   */\n      revert\n        /* \"#utility.yul\":3814:3931   */\n    tag_343:\n        /* \"#utility.yul\":3923:3924   */\n      0x00\n        /* \"#utility.yul\":3920:3921   */\n      dup1\n        /* \"#utility.yul\":3913:3925   */\n      revert\n        /* \"#utility.yul\":3937:4117   */\n    tag_344:\n        /* \"#utility.yul\":3985:4062   */\n      0x4e487b7100000000000000000000000000000000000000000000000000000000\n        /* \"#utility.yul\":3982:3983   */\n      0x00\n        /* \"#utility.yul\":3975:4063   */\n      mstore\n        /* \"#utility.yul\":4082:4086   */\n      0x41\n        /* \"#utility.yul\":4079:4080   */\n      0x04\n        /* \"#utility.yul\":4072:4087   */\n      mstore\n        /* \"#utility.yul\":4106:4110   */\n      0x24\n        /* \"#utility.yul\":4103:4104   */\n      0x00\n        /* \"#utility.yul\":4096:4111   */\n      revert\n        /* \"#utility.yul\":4123:4404   */\n    tag_345:\n        /* \"#utility.yul\":4206:4233   */\n      tag_442\n        /* \"#utility.yul\":4228:4232   */\n      dup3\n        /* \"#utility.yul\":4206:4233   */\n      tag_327\n      jump\t// in\n    tag_442:\n        /* \"#utility.yul\":4198:4204   */\n      dup2\n        /* \"#utility.yul\":4194:4234   */\n      add\n        /* \"#utility.yul\":4336:4342   */\n      dup2\n        /* \"#utility.yul\":4324:4334   */\n      dup2\n        /* \"#utility.yul\":4321:4343   */\n      lt\n        /* \"#utility.yul\":4300:4318   */\n      0xffffffffffffffff\n        /* \"#utility.yul\":4288:4298   */\n      dup3\n        /* \"#utility.yul\":4285:4319   */\n      gt\n        /* \"#utility.yul\":4282:4344   */\n      or\n        /* \"#utility.yul\":4279:4367   */\n      iszero\n      tag_443\n      jumpi\n        /* \"#utility.yul\":4347:4365   */\n      tag_444\n      tag_344\n      jump\t// in\n    tag_444:\n        /* \"#utility.yul\":4279:4367   */\n    tag_443:\n        /* \"#utility.yul\":4387:4397   */\n      dup1\n        /* \"#utility.yul\":4383:4385   */\n      0x40\n        /* \"#utility.yul\":4376:4398   */\n      mstore\n        /* \"#utility.yul\":4166:4404   */\n      pop\n        /* \"#utility.yul\":4123:4404   */\n      pop\n      pop\n      jump\t// out\n        /* \"#utility.yul\":4410:4539   */\n    tag_346:\n        /* \"#utility.yul\":4444:4450   */\n      0x00\n        /* \"#utility.yul\":4471:4491   */\n      tag_446\n      tag_329\n      jump\t// in\n    tag_446:\n        /* \"#utility.yul\":4461:4491   */\n      swap1\n      pop\n        /* \"#utility.yul\":4500:4533   */\n      tag_447\n        /* \"#utility.yul\":4528:4532   */\n      dup3\n        /* \"#utility.yul\":4520:4526   */\n      dup3\n        /* \"#utility.yul\":4500:4533   */\n      tag_345\n      jump\t// in\n    tag_447:\n        /* \"#utility.yul\":4410:4539   */\n      swap2\n      swap1\n      pop\n      jump\t// out\n        /* \"#utility.yul\":4545:4853   */\n    tag_347:\n        /* \"#utility.yul\":4607:4611   */\n      0x00\n        /* \"#utility.yul\":4697:4715   */\n      0xffffffffffffffff\n        /* \"#utility.yul\":4689:4695   */\n      dup3\n        /* \"#utility.yul\":4686:4716   */\n      gt\n        /* \"#utility.yul\":4683:4739   */\n      iszero\n      tag_449\n      jumpi\n        /* \"#utility.yul\":4719:4737   */\n      tag_450\n      tag_344\n      jump\t// in\n    tag_450:\n        /* \"#utility.yul\":4683:4739   */\n    tag_449:\n        /* \"#utility.yul\":4757:4786   */\n      tag_451\n        /* \"#utility.yul\":4779:4785   */\n      dup3\n        /* \"#utility.yul\":4757:4786   */\n      tag_327\n      jump\t// in\n    tag_451:\n        /* \"#utility.yul\":4749:4786   */\n      swap1\n      pop\n        /* \"#utility.yul\":4841:4845   */\n      0x20\n        /* \"#utility.yul\":4835:4839   */\n      dup2\n        /* \"#utility.yul\":4831:4846   */\n      add\n        /* \"#utility.yul\":4823:4846   */\n      swap1\n      pop\n        /* \"#utility.yul\":4545:4853   */\n      swap2\n      swap1\n      pop\n      jump\t// out\n        /* \"#utility.yul\":4859:5007   */\n    tag_348:\n        /* \"#utility.yul\":4957:4963   */\n      dup3\n        /* \"#utility.yul\":4952:4955   */\n      dup2\n        /* \"#utility.yul\":4947:4950   */\n      dup4\n        /* \"#utility.yul\":4934:4964   */\n      calldatacopy\n        /* \"#utility.yul\":4998:4999   */\n      0x00\n        /* \"#utility.yul\":4989:4995   */\n      dup4\n        /* \"#utility.yul\":4984:4987   */\n      dup4\n        /* \"#utility.yul\":4980:4996   */\n      add\n        /* \"#utility.yul\":4973:5000   */\n      mstore\n        /* \"#utility.yul\":4859:5007   */\n      pop\n      pop\n      pop\n      jump\t// out\n        /* \"#utility.yul\":5013:5438   */\n    tag_349:\n        /* \"#utility.yul\":5091:5096   */\n      0x00\n        /* \"#utility.yul\":5116:5182   */\n      tag_454\n        /* \"#utility.yul\":5132:5181   */\n      tag_455\n        /* \"#utility.yul\":5174:5180   */\n      dup5\n        /* \"#utility.yul\":5132:5181   */\n      tag_347\n      jump\t// in\n    tag_455:\n        /* \"#utility.yul\":5116:5182   */\n      tag_346\n      jump\t// in\n    tag_454:\n        /* \"#utility.yul\":5107:5182   */\n      swap1\n      pop\n        /* \"#utility.yul\":5205:5211   */\n      dup3\n        /* \"#utility.yul\":5198:5203   */\n      dup2\n        /* \"#utility.yul\":5191:5212   */\n      mstore\n        /* \"#utility.yul\":5243:5247   */\n      0x20\n        /* \"#utility.yul\":5236:5241   */\n      dup2\n        /* \"#utility.yul\":5232:5248   */\n      add\n        /* \"#utility.yul\":5281:5284   */\n      dup5\n        /* \"#utility.yul\":5272:5278   */\n      dup5\n        /* \"#utility.yul\":5267:5270   */\n      dup5\n        /* \"#utility.yul\":5263:5279   */\n      add\n        /* \"#utility.yul\":5260:5285   */\n      gt\n        /* \"#utility.yul\":5257:5369   */\n      iszero\n      tag_456\n      jumpi\n        /* \"#utility.yul\":5288:5367   */\n      tag_457\n      tag_343\n      jump\t// in\n    tag_457:\n        /* \"#utility.yul\":5257:5369   */\n    tag_456:\n        /* \"#utility.yul\":5378:5432   */\n      tag_458\n        /* \"#utility.yul\":5425:5431   */\n      dup5\n        /* \"#utility.yul\":5420:5423   */\n      dup3\n        /* \"#utility.yul\":5415:5418   */\n      dup6\n        /* \"#utility.yul\":5378:5432   */\n      tag_348\n      jump\t// in\n    tag_458:\n        /* \"#utility.yul\":5097:5438   */\n      pop\n        /* \"#utility.yul\":5013:5438   */\n      swap4\n      swap3\n      pop\n      pop\n      pop\n      jump\t// out\n        /* \"#utility.yul\":5458:5798   */\n    tag_350:\n        /* \"#utility.yul\":5514:5519   */\n      0x00\n        /* \"#utility.yul\":5563:5566   */\n      dup3\n        /* \"#utility.yul\":5556:5560   */\n      0x1f\n        /* \"#utility.yul\":5548:5554   */\n      dup4\n        /* \"#utility.yul\":5544:5561   */\n      add\n        /* \"#utility.yul\":5540:5567   */\n      slt\n        /* \"#utility.yul\":5530:5652   */\n      tag_460\n      jumpi\n        /* \"#utility.yul\":5571:5650   */\n      tag_461\n      tag_342\n      jump\t// in\n    tag_461:\n        /* \"#utility.yul\":5530:5652   */\n    tag_460:\n        /* \"#utility.yul\":5688:5694   */\n      dup2\n        /* \"#utility.yul\":5675:5695   */\n      calldataload\n        /* \"#utility.yul\":5713:5792   */\n      tag_462\n        /* \"#utility.yul\":5788:5791   */\n      dup5\n        /* \"#utility.yul\":5780:5786   */\n      dup3\n        /* \"#utility.yul\":5773:5777   */\n      0x20\n        /* \"#utility.yul\":5765:5771   */\n      dup7\n        /* \"#utility.yul\":5761:5778   */\n      add\n        /* \"#utility.yul\":5713:5792   */\n      tag_349\n      jump\t// in\n    tag_462:\n        /* \"#utility.yul\":5704:5792   */\n      swap2\n      pop\n        /* \"#utility.yul\":5520:5798   */\n      pop\n        /* \"#utility.yul\":5458:5798   */\n      swap3\n      swap2\n      pop\n      pop\n      jump\t// out\n        /* \"#utility.yul\":5804:6749   */\n    tag_46:\n        /* \"#utility.yul\":5900:5906   */\n      0x00\n        /* \"#utility.yul\":5908:5914   */\n      dup1\n        /* \"#utility.yul\":5916:5922   */\n      0x00\n        /* \"#utility.yul\":5924:5930   */\n      dup1\n        /* \"#utility.yul\":5973:5976   */\n      0x80\n        /* \"#utility.yul\":5961:5970   */\n      dup6\n        /* \"#utility.yul\":5952:5959   */\n      dup8\n        /* \"#utility.yul\":5948:5971   */\n      sub\n        /* \"#utility.yul\":5944:5977   */\n      slt\n        /* \"#utility.yul\":5941:6061   */\n      iszero\n      tag_464\n      jumpi\n        /* \"#utility.yul\":5980:6059   */\n      tag_465\n      tag_330\n      jump\t// in\n    tag_465:\n        /* \"#utility.yul\":5941:6061   */\n    tag_464:\n        /* \"#utility.yul\":6100:6101   */\n      0x00\n        /* \"#utility.yul\":6125:6178   */\n      tag_466\n        /* \"#utility.yul\":6170:6177   */\n      dup8\n        /* \"#utility.yul\":6161:6167   */\n      dup3\n        /* \"#utility.yul\":6150:6159   */\n      dup9\n        /* \"#utility.yul\":6146:6168   */\n      add\n        /* \"#utility.yul\":6125:6178   */\n      tag_335\n      jump\t// in\n    tag_466:\n        /* \"#utility.yul\":6115:6178   */\n      swap5\n      pop\n        /* \"#utility.yul\":6071:6188   */\n      pop\n        /* \"#utility.yul\":6227:6229   */\n      0x20\n        /* \"#utility.yul\":6253:6306   */\n      tag_467\n        /* \"#utility.yul\":6298:6305   */\n      dup8\n        /* \"#utility.yul\":6289:6295   */\n      dup3\n        /* \"#utility.yul\":6278:6287   */\n      dup9\n        /* \"#utility.yul\":6274:6296   */\n      add\n        /* \"#utility.yul\":6253:6306   */\n      tag_338\n      jump\t// in\n    tag_467:\n        /* \"#utility.yul\":6243:6306   */\n      swap4\n      pop\n        /* \"#utility.yul\":6198:6316   */\n      pop\n        /* \"#utility.yul\":6355:6357   */\n      0x40\n        /* \"#utility.yul\":6381:6434   */\n      tag_468\n        /* \"#utility.yul\":6426:6433   */\n      dup8\n        /* \"#utility.yul\":6417:6423   */\n      dup3\n        /* \"#utility.yul\":6406:6415   */\n      dup9\n        /* \"#utility.yul\":6402:6424   */\n      add\n        /* \"#utility.yul\":6381:6434   */\n      tag_338\n      jump\t// in\n    tag_468:\n        /* \"#utility.yul\":6371:6434   */\n      swap3\n      pop\n        /* \"#utility.yul\":6326:6444   */\n      pop\n        /* \"#utility.yul\":6511:6513   */\n      0x60\n        /* \"#utility.yul\":6500:6509   */\n      dup6\n        /* \"#utility.yul\":6496:6514   */\n      add\n        /* \"#utility.yul\":6483:6515   */\n      calldataload\n        /* \"#utility.yul\":6542:6560   */\n      0xffffffffffffffff\n        /* \"#utility.yul\":6534:6540   */\n      dup2\n        /* \"#utility.yul\":6531:6561   */\n      gt\n        /* \"#utility.yul\":6528:6645   */\n      iszero\n      tag_469\n      jumpi\n        /* \"#utility.yul\":6564:6643   */\n      tag_470\n      tag_331\n      jump\t// in\n    tag_470:\n        /* \"#utility.yul\":6528:6645   */\n    tag_469:\n        /* \"#utility.yul\":6669:6732   */\n      tag_471\n        /* \"#utility.yul\":6724:6731   */\n      dup8\n        /* \"#utility.yul\":6715:6721   */\n      dup3\n        /* \"#utility.yul\":6704:6713   */\n      dup9\n        /* \"#utility.yul\":6700:6722   */\n      add\n        /* \"#utility.yul\":6669:6732   */\n      tag_350\n      jump\t// in\n    tag_471:\n        /* \"#utility.yul\":6659:6732   */\n      swap2\n      pop\n        /* \"#utility.yul\":6454:6742   */\n      pop\n        /* \"#utility.yul\":5804:6749   */\n      swap3\n      swap6\n      swap2\n      swap5\n      pop\n      swap3\n      pop\n      jump\t// out\n        /* \"#utility.yul\":6755:7374   */\n    tag_51:\n        /* \"#utility.yul\":6832:6838   */\n      0x00\n        /* \"#utility.yul\":6840:6846   */\n      dup1\n        /* \"#utility.yul\":6848:6854   */\n      0x00\n        /* \"#utility.yul\":6897:6899   */\n      0x60\n        /* \"#utility.yul\":6885:6894   */\n      dup5\n        /* \"#utility.yul\":6876:6883   */\n      dup7\n        /* \"#utility.yul\":6872:6895   */\n      sub\n        /* \"#utility.yul\":6868:6900   */\n      slt\n        /* \"#utility.yul\":6865:6984   */\n      iszero\n      tag_473\n      jumpi\n        /* \"#utility.yul\":6903:6982   */\n      tag_474\n      tag_330\n      jump\t// in\n    tag_474:\n        /* \"#utility.yul\":6865:6984   */\n    tag_473:\n        /* \"#utility.yul\":7023:7024   */\n      0x00\n        /* \"#utility.yul\":7048:7101   */\n      tag_475\n        /* \"#utility.yul\":7093:7100   */\n      dup7\n        /* \"#utility.yul\":7084:7090   */\n      dup3\n        /* \"#utility.yul\":7073:7082   */\n      dup8\n        /* \"#utility.yul\":7069:7091   */\n      add\n        /* \"#utility.yul\":7048:7101   */\n      tag_335\n      jump\t// in\n    tag_475:\n        /* \"#utility.yul\":7038:7101   */\n      swap4\n      pop\n        /* \"#utility.yul\":6994:7111   */\n      pop\n        /* \"#utility.yul\":7150:7152   */\n      0x20\n        /* \"#utility.yul\":7176:7229   */\n      tag_476\n        /* \"#utility.yul\":7221:7228   */\n      dup7\n        /* \"#utility.yul\":7212:7218   */\n      dup3\n        /* \"#utility.yul\":7201:7210   */\n      dup8\n        /* \"#utility.yul\":7197:7219   */\n      add\n        /* \"#utility.yul\":7176:7229   */\n      tag_335\n      jump\t// in\n    tag_476:\n        /* \"#utility.yul\":7166:7229   */\n      swap3\n      pop\n        /* \"#utility.yul\":7121:7239   */\n      pop\n        /* \"#utility.yul\":7278:7280   */\n      0x40\n        /* \"#utility.yul\":7304:7357   */\n      tag_477\n        /* \"#utility.yul\":7349:7356   */\n      dup7\n        /* \"#utility.yul\":7340:7346   */\n      dup3\n        /* \"#utility.yul\":7329:7338   */\n      dup8\n        /* \"#utility.yul\":7325:7347   */\n      add\n        /* \"#utility.yul\":7304:7357   */\n      tag_338\n      jump\t// in\n    tag_477:\n        /* \"#utility.yul\":7294:7357   */\n      swap2\n      pop\n        /* \"#utility.yul\":7249:7367   */\n      pop\n        /* \"#utility.yul\":6755:7374   */\n      swap3\n      pop\n      swap3\n      pop\n      swap3\n      jump\t// out\n        /* \"#utility.yul\":7380:7466   */\n    tag_351:\n        /* \"#utility.yul\":7415:7422   */\n      0x00\n        /* \"#utility.yul\":7455:7459   */\n      0xff\n        /* \"#utility.yul\":7448:7453   */\n      dup3\n        /* \"#utility.yul\":7444:7460   */\n      and\n        /* \"#utility.yul\":7433:7460   */\n      swap1\n      pop\n        /* \"#utility.yul\":7380:7466   */\n      swap2\n      swap1\n      pop\n      jump\t// out\n        /* \"#utility.yul\":7472:7584   */\n    tag_352:\n        /* \"#utility.yul\":7555:7577   */\n      tag_480\n        /* \"#utility.yul\":7571:7576   */\n      dup2\n        /* \"#utility.yul\":7555:7577   */\n      tag_351\n      jump\t// in\n    tag_480:\n        /* \"#utility.yul\":7550:7553   */\n      dup3\n        /* \"#utility.yul\":7543:7578   */\n      mstore\n        /* \"#utility.yul\":7472:7584   */\n      pop\n      pop\n      jump\t// out\n        /* \"#utility.yul\":7590:7804   */\n    tag_57:\n        /* \"#utility.yul\":7679:7683   */\n      0x00\n        /* \"#utility.yul\":7717:7719   */\n      0x20\n        /* \"#utility.yul\":7706:7715   */\n      dup3\n        /* \"#utility.yul\":7702:7720   */\n      add\n        /* \"#utility.yul\":7694:7720   */\n      swap1\n      pop\n        /* \"#utility.yul\":7730:7797   */\n      tag_482\n        /* \"#utility.yul\":7794:7795   */\n      0x00\n        /* \"#utility.yul\":7783:7792   */\n      dup4\n        /* \"#utility.yul\":7779:7796   */\n      add\n        /* \"#utility.yul\":7770:7776   */\n      dup5\n        /* \"#utility.yul\":7730:7797   */\n      tag_352\n      jump\t// in\n    tag_482:\n        /* \"#utility.yul\":7590:7804   */\n      swap3\n      swap2\n      pop\n      pop\n      jump\t// out\n        /* \"#utility.yul\":7810:8139   */\n    tag_60:\n        /* \"#utility.yul\":7869:7875   */\n      0x00\n        /* \"#utility.yul\":7918:7920   */\n      0x20\n        /* \"#utility.yul\":7906:7915   */\n      dup3\n        /* \"#utility.yul\":7897:7904   */\n      dup5\n        /* \"#utility.yul\":7893:7916   */\n      sub\n        /* \"#utility.yul\":7889:7921   */\n      slt\n        /* \"#utility.yul\":7886:8005   */\n      iszero\n      tag_484\n      jumpi\n        /* \"#utility.yul\":7924:8003   */\n      tag_485\n      tag_330\n      jump\t// in\n    tag_485:\n        /* \"#utility.yul\":7886:8005   */\n    tag_484:\n        /* \"#utility.yul\":8044:8045   */\n      0x00\n        /* \"#utility.yul\":8069:8122   */\n      tag_486\n        /* \"#utility.yul\":8114:8121   */\n      dup5\n        /* \"#utility.yul\":8105:8111   */\n      dup3\n        /* \"#utility.yul\":8094:8103   */\n      dup6\n        /* \"#utility.yul\":8090:8112   */\n      add\n        /* \"#utility.yul\":8069:8122   */\n      tag_335\n      jump\t// in\n    tag_486:\n        /* \"#utility.yul\":8059:8122   */\n      swap2\n      pop\n        /* \"#utility.yul\":8015:8132   */\n      pop\n        /* \"#utility.yul\":7810:8139   */\n      swap3\n      swap2\n      pop\n      pop\n      jump\t// out\n        /* \"#utility.yul\":8145:8474   */\n    tag_73:\n        /* \"#utility.yul\":8204:8210   */\n      0x00\n        /* \"#utility.yul\":8253:8255   */\n      0x20\n        /* \"#utility.yul\":8241:8250   */\n      dup3\n        /* \"#utility.yul\":8232:8239   */\n      dup5\n        /* \"#utility.yul\":8228:8251   */\n      sub\n        /* \"#utility.yul\":8224:8256   */\n      slt\n        /* \"#utility.yul\":8221:8340   */\n      iszero\n      tag_488\n      jumpi\n        /* \"#utility.yul\":8259:8338   */\n      tag_489\n      tag_330\n      jump\t// in\n    tag_489:\n        /* \"#utility.yul\":8221:8340   */\n    tag_488:\n        /* \"#utility.yul\":8379:8380   */\n      0x00\n        /* \"#utility.yul\":8404:8457   */\n      tag_490\n        /* \"#utility.yul\":8449:8456   */\n      dup5\n        /* \"#utility.yul\":8440:8446   */\n      dup3\n        /* \"#utility.yul\":8429:8438   */\n      dup6\n        /* \"#utility.yul\":8425:8447   */\n      add\n        /* \"#utility.yul\":8404:8457   */\n      tag_338\n      jump\t// in\n    tag_490:\n        /* \"#utility.yul\":8394:8457   */\n      swap2\n      pop\n        /* \"#utility.yul\":8350:8467   */\n      pop\n        /* \"#utility.yul\":8145:8474   */\n      swap3\n      swap2\n      pop\n      pop\n      jump\t// out\n        /* \"#utility.yul\":8480:8598   */\n    tag_353:\n        /* \"#utility.yul\":8567:8591   */\n      tag_492\n        /* \"#utility.yul\":8585:8590   */\n      dup2\n        /* \"#utility.yul\":8567:8591   */\n      tag_333\n      jump\t// in\n    tag_492:\n        /* \"#utility.yul\":8562:8565   */\n      dup3\n        /* \"#utility.yul\":8555:8592   */\n      mstore\n        /* \"#utility.yul\":8480:8598   */\n      pop\n      pop\n      jump\t// out\n        /* \"#utility.yul\":8604:8826   */\n    tag_81:\n        /* \"#utility.yul\":8697:8701   */\n      0x00\n        /* \"#utility.yul\":8735:8737   */\n      0x20\n        /* \"#utility.yul\":8724:8733   */\n      dup3\n        /* \"#utility.yul\":8720:8738   */\n      add\n        /* \"#utility.yul\":8712:8738   */\n      swap1\n      pop\n        /* \"#utility.yul\":8748:8819   */\n      tag_494\n        /* \"#utility.yul\":8816:8817   */\n      0x00\n        /* \"#utility.yul\":8805:8814   */\n      dup4\n        /* \"#utility.yul\":8801:8818   */\n      add\n        /* \"#utility.yul\":8792:8798   */\n      dup5\n        /* \"#utility.yul\":8748:8819   */\n      tag_353\n      jump\t// in\n    tag_494:\n        /* \"#utility.yul\":8604:8826   */\n      swap3\n      swap2\n      pop\n      pop\n      jump\t// out\n        /* \"#utility.yul\":8832:9306   */\n    tag_112:\n        /* \"#utility.yul\":8900:8906   */\n      0x00\n        /* \"#utility.yul\":8908:8914   */\n      dup1\n        /* \"#utility.yul\":8957:8959   */\n      0x40\n        /* \"#utility.yul\":8945:8954   */\n      dup4\n        /* \"#utility.yul\":8936:8943   */\n      dup6\n        /* \"#utility.yul\":8932:8955   */\n      sub\n        /* \"#utility.yul\":8928:8960   */\n      slt\n        /* \"#utility.yul\":8925:9044   */\n      iszero\n      tag_496\n      jumpi\n        /* \"#utility.yul\":8963:9042   */\n      tag_497\n      tag_330\n      jump\t// in\n    tag_497:\n        /* \"#utility.yul\":8925:9044   */\n    tag_496:\n        /* \"#utility.yul\":9083:9084   */\n      0x00\n        /* \"#utility.yul\":9108:9161   */\n      tag_498\n        /* \"#utility.yul\":9153:9160   */\n      dup6\n        /* \"#utility.yul\":9144:9150   */\n      dup3\n        /* \"#utility.yul\":9133:9142   */\n      dup7\n        /* \"#utility.yul\":9129:9151   */\n      add\n        /* \"#utility.yul\":9108:9161   */\n      tag_335\n      jump\t// in\n    tag_498:\n        /* \"#utility.yul\":9098:9161   */\n      swap3\n      pop\n        /* \"#utility.yul\":9054:9171   */\n      pop\n        /* \"#utility.yul\":9210:9212   */\n      0x20\n        /* \"#utility.yul\":9236:9289   */\n      tag_499\n        /* \"#utility.yul\":9281:9288   */\n      dup6\n        /* \"#utility.yul\":9272:9278   */\n      dup3\n        /* \"#utility.yul\":9261:9270   */\n      dup7\n        /* \"#utility.yul\":9257:9279   */\n      add\n        /* \"#utility.yul\":9236:9289   */\n      tag_335\n      jump\t// in\n    tag_499:\n        /* \"#utility.yul\":9226:9289   */\n      swap2\n      pop\n        /* \"#utility.yul\":9181:9299   */\n      pop\n        /* \"#utility.yul\":8832:9306   */\n      swap3\n      pop\n      swap3\n      swap1\n      pop\n      jump\t// out\n        /* \"#utility.yul\":9312:10800   */\n    tag_119:\n        /* \"#utility.yul\":9711:9715   */\n      0x00\n        /* \"#utility.yul\":9749:9752   */\n      0x0180\n        /* \"#utility.yul\":9738:9747   */\n      dup3\n        /* \"#utility.yul\":9734:9753   */\n      add\n        /* \"#utility.yul\":9726:9753   */\n      swap1\n      pop\n        /* \"#utility.yul\":9763:9834   */\n      tag_501\n        /* \"#utility.yul\":9831:9832   */\n      0x00\n        /* \"#utility.yul\":9820:9829   */\n      dup4\n        /* \"#utility.yul\":9816:9833   */\n      add\n        /* \"#utility.yul\":9807:9813   */\n      dup16\n        /* \"#utility.yul\":9763:9834   */\n      tag_353\n      jump\t// in\n    tag_501:\n        /* \"#utility.yul\":9844:9916   */\n      tag_502\n        /* \"#utility.yul\":9912:9914   */\n      0x20\n        /* \"#utility.yul\":9901:9910   */\n      dup4\n        /* \"#utility.yul\":9897:9915   */\n      add\n        /* \"#utility.yul\":9888:9894   */\n      dup15\n        /* \"#utility.yul\":9844:9916   */\n      tag_353\n      jump\t// in\n    tag_502:\n        /* \"#utility.yul\":9926:9998   */\n      tag_503\n        /* \"#utility.yul\":9994:9996   */\n      0x40\n        /* \"#utility.yul\":9983:9992   */\n      dup4\n        /* \"#utility.yul\":9979:9997   */\n      add\n        /* \"#utility.yul\":9970:9976   */\n      dup14\n        /* \"#utility.yul\":9926:9998   */\n      tag_341\n      jump\t// in\n    tag_503:\n        /* \"#utility.yul\":10008:10080   */\n      tag_504\n        /* \"#utility.yul\":10076:10078   */\n      0x60\n        /* \"#utility.yul\":10065:10074   */\n      dup4\n        /* \"#utility.yul\":10061:10079   */\n      add\n        /* \"#utility.yul\":10052:10058   */\n      dup13\n        /* \"#utility.yul\":10008:10080   */\n      tag_341\n      jump\t// in\n    tag_504:\n        /* \"#utility.yul\":10090:10163   */\n      tag_505\n        /* \"#utility.yul\":10158:10161   */\n      0x80\n        /* \"#utility.yul\":10147:10156   */\n      dup4\n        /* \"#utility.yul\":10143:10162   */\n      add\n        /* \"#utility.yul\":10134:10140   */\n      dup12\n        /* \"#utility.yul\":10090:10163   */\n      tag_341\n      jump\t// in\n    tag_505:\n        /* \"#utility.yul\":10173:10246   */\n      tag_506\n        /* \"#utility.yul\":10241:10244   */\n      0xa0\n        /* \"#utility.yul\":10230:10239   */\n      dup4\n        /* \"#utility.yul\":10226:10245   */\n      add\n        /* \"#utility.yul\":10217:10223   */\n      dup11\n        /* \"#utility.yul\":10173:10246   */\n      tag_341\n      jump\t// in\n    tag_506:\n        /* \"#utility.yul\":10256:10323   */\n      tag_507\n        /* \"#utility.yul\":10318:10321   */\n      0xc0\n        /* \"#utility.yul\":10307:10316   */\n      dup4\n        /* \"#utility.yul\":10303:10322   */\n      add\n        /* \"#utility.yul\":10294:10300   */\n      dup10\n        /* \"#utility.yul\":10256:10323   */\n      tag_340\n      jump\t// in\n    tag_507:\n        /* \"#utility.yul\":10333:10400   */\n      tag_508\n        /* \"#utility.yul\":10395:10398   */\n      0xe0\n        /* \"#utility.yul\":10384:10393   */\n      dup4\n        /* \"#utility.yul\":10380:10399   */\n      add\n        /* \"#utility.yul\":10371:10377   */\n      dup9\n        /* \"#utility.yul\":10333:10400   */\n      tag_340\n      jump\t// in\n    tag_508:\n        /* \"#utility.yul\":10410:10477   */\n      tag_509\n        /* \"#utility.yul\":10472:10475   */\n      0x0100\n        /* \"#utility.yul\":10461:10470   */\n      dup4\n        /* \"#utility.yul\":10457:10476   */\n      add\n        /* \"#utility.yul\":10448:10454   */\n      dup8\n        /* \"#utility.yul\":10410:10477   */\n      tag_340\n      jump\t// in\n    tag_509:\n        /* \"#utility.yul\":10487:10560   */\n      tag_510\n        /* \"#utility.yul\":10555:10558   */\n      0x0120\n        /* \"#utility.yul\":10544:10553   */\n      dup4\n        /* \"#utility.yul\":10540:10559   */\n      add\n        /* \"#utility.yul\":10531:10537   */\n      dup7\n        /* \"#utility.yul\":10487:10560   */\n      tag_341\n      jump\t// in\n    tag_510:\n        /* \"#utility.yul\":10570:10638   */\n      tag_511\n        /* \"#utility.yul\":10633:10636   */\n      0x0140\n        /* \"#utility.yul\":10622:10631   */\n      dup4\n        /* \"#utility.yul\":10618:10637   */\n      add\n        /* \"#utility.yul\":10608:10615   */\n      dup6\n        /* \"#utility.yul\":10570:10638   */\n      tag_340\n      jump\t// in\n    tag_511:\n        /* \"#utility.yul\":10686:10695   */\n      dup2\n        /* \"#utility.yul\":10680:10684   */\n      dup2\n        /* \"#utility.yul\":10676:10696   */\n      sub\n        /* \"#utility.yul\":10670:10673   */\n      0x0160\n        /* \"#utility.yul\":10659:10668   */\n      dup4\n        /* \"#utility.yul\":10655:10674   */\n      add\n        /* \"#utility.yul\":10648:10697   */\n      mstore\n        /* \"#utility.yul\":10714:10793   */\n      tag_512\n        /* \"#utility.yul\":10788:10792   */\n      dup2\n        /* \"#utility.yul\":10778:10785   */\n      dup5\n        /* \"#utility.yul\":10714:10793   */\n      tag_328\n      jump\t// in\n    tag_512:\n        /* \"#utility.yul\":10706:10793   */\n      swap1\n      pop\n        /* \"#utility.yul\":9312:10800   */\n      swap14\n      swap13\n      pop\n      pop\n      pop\n      pop\n      pop\n      pop\n      pop\n      pop\n      pop\n      pop\n      pop\n      pop\n      pop\n      jump\t// out\n        /* \"#utility.yul\":10806:10986   */\n    tag_354:\n        /* \"#utility.yul\":10854:10931   */\n      0x4e487b7100000000000000000000000000000000000000000000000000000000\n        /* \"#utility.yul\":10851:10852   */\n      0x00\n        /* \"#utility.yul\":10844:10932   */\n      mstore\n        /* \"#utility.yul\":10951:10955   */\n      0x22\n        /* \"#utility.yul\":10948:10949   */\n      0x04\n        /* \"#utility.yul\":10941:10956   */\n      mstore\n        /* \"#utility.yul\":10975:10979   */\n      0x24\n        /* \"#utility.yul\":10972:10973   */\n      0x00\n        /* \"#utility.yul\":10965:10980   */\n      revert\n        /* \"#utility.yul\":10992:11312   */\n    tag_125:\n        /* \"#utility.yul\":11036:11042   */\n      0x00\n        /* \"#utility.yul\":11073:11074   */\n      0x02\n        /* \"#utility.yul\":11067:11071   */\n      dup3\n        /* \"#utility.yul\":11063:11075   */\n      div\n        /* \"#utility.yul\":11053:11075   */\n      swap1\n      pop\n        /* \"#utility.yul\":11120:11121   */\n      0x01\n        /* \"#utility.yul\":11114:11118   */\n      dup3\n        /* \"#utility.yul\":11110:11122   */\n      and\n        /* \"#utility.yul\":11141:11159   */\n      dup1\n        /* \"#utility.yul\":11131:11212   */\n      tag_515\n      jumpi\n        /* \"#utility.yul\":11197:11201   */\n      0x7f\n        /* \"#utility.yul\":11189:11195   */\n      dup3\n        /* \"#utility.yul\":11185:11202   */\n      and\n        /* \"#utility.yul\":11175:11202   */\n      swap2\n      pop\n        /* \"#utility.yul\":11131:11212   */\n    tag_515:\n        /* \"#utility.yul\":11259:11261   */\n      0x20\n        /* \"#utility.yul\":11251:11257   */\n      dup3\n        /* \"#utility.yul\":11248:11262   */\n      lt\n        /* \"#utility.yul\":11228:11246   */\n      dup2\n        /* \"#utility.yul\":11225:11263   */\n      sub\n        /* \"#utility.yul\":11222:11306   */\n      tag_516\n      jumpi\n        /* \"#utility.yul\":11278:11296   */\n      tag_517\n      tag_354\n      jump\t// in\n    tag_517:\n        /* \"#utility.yul\":11222:11306   */\n    tag_516:\n        /* \"#utility.yul\":11043:11312   */\n      pop\n        /* \"#utility.yul\":10992:11312   */\n      swap2\n      swap1\n      pop\n      jump\t// out\n        /* \"#utility.yul\":11318:11497   */\n    tag_355:\n        /* \"#utility.yul\":11458:11489   */\n      0x426f72726f776572206d757374206265204b5943207665726966696564000000\n        /* \"#utility.yul\":11454:11455   */\n      0x00\n        /* \"#utility.yul\":11446:11452   */\n      dup3\n        /* \"#utility.yul\":11442:11456   */\n      add\n        /* \"#utility.yul\":11435:11490   */\n      mstore\n        /* \"#utility.yul\":11318:11497   */\n      pop\n      jump\t// out\n        /* \"#utility.yul\":11503:11869   */\n    tag_356:\n        /* \"#utility.yul\":11645:11648   */\n      0x00\n        /* \"#utility.yul\":11666:11733   */\n      tag_520\n        /* \"#utility.yul\":11730:11732   */\n      0x1d\n        /* \"#utility.yul\":11725:11728   */\n      dup4\n        /* \"#utility.yul\":11666:11733   */\n      tag_325\n      jump\t// in\n    tag_520:\n        /* \"#utility.yul\":11659:11733   */\n      swap2\n      pop\n        /* \"#utility.yul\":11742:11835   */\n      tag_521\n        /* \"#utility.yul\":11831:11834   */\n      dup3\n        /* \"#utility.yul\":11742:11835   */\n      tag_355\n      jump\t// in\n    tag_521:\n        /* \"#utility.yul\":11860:11862   */\n      0x20\n        /* \"#utility.yul\":11855:11858   */\n      dup3\n        /* \"#utility.yul\":11851:11863   */\n      add\n        /* \"#utility.yul\":11844:11863   */\n      swap1\n      pop\n        /* \"#utility.yul\":11503:11869   */\n      swap2\n      swap1\n      pop\n      jump\t// out\n        /* \"#utility.yul\":11875:12294   */\n    tag_139:\n        /* \"#utility.yul\":12041:12045   */\n      0x00\n        /* \"#utility.yul\":12079:12081   */\n      0x20\n        /* \"#utility.yul\":12068:12077   */\n      dup3\n        /* \"#utility.yul\":12064:12082   */\n      add\n        /* \"#utility.yul\":12056:12082   */\n      swap1\n      pop\n        /* \"#utility.yul\":12128:12137   */\n      dup2\n        /* \"#utility.yul\":12122:12126   */\n      dup2\n        /* \"#utility.yul\":12118:12138   */\n      sub\n        /* \"#utility.yul\":12114:12115   */\n      0x00\n        /* \"#utility.yul\":12103:12112   */\n      dup4\n        /* \"#utility.yul\":12099:12116   */\n      add\n        /* \"#utility.yul\":12092:12139   */\n      mstore\n        /* \"#utility.yul\":12156:12287   */\n      tag_523\n        /* \"#utility.yul\":12282:12286   */\n      dup2\n        /* \"#utility.yul\":12156:12287   */\n      tag_356\n      jump\t// in\n    tag_523:\n        /* \"#utility.yul\":12148:12287   */\n      swap1\n      pop\n        /* \"#utility.yul\":11875:12294   */\n      swap2\n      swap1\n      pop\n      jump\t// out\n        /* \"#utility.yul\":12300:12468   */\n    tag_357:\n        /* \"#utility.yul\":12440:12460   */\n      0x496e73756666696369656e742066756e64730000000000000000000000000000\n        /* \"#utility.yul\":12436:12437   */\n      0x00\n        /* \"#utility.yul\":12428:12434   */\n      dup3\n        /* \"#utility.yul\":12424:12438   */\n      add\n        /* \"#utility.yul\":12417:12461   */\n      mstore\n        /* \"#utility.yul\":12300:12468   */\n      pop\n      jump\t// out\n        /* \"#utility.yul\":12474:12840   */\n    tag_358:\n        /* \"#utility.yul\":12616:12619   */\n      0x00\n        /* \"#utility.yul\":12637:12704   */\n      tag_526\n        /* \"#utility.yul\":12701:12703   */\n      0x12\n        /* \"#utility.yul\":12696:12699   */\n      dup4\n        /* \"#utility.yul\":12637:12704   */\n      tag_325\n      jump\t// in\n    tag_526:\n        /* \"#utility.yul\":12630:12704   */\n      swap2\n      pop\n        /* \"#utility.yul\":12713:12806   */\n      tag_527\n        /* \"#utility.yul\":12802:12805   */\n      dup3\n        /* \"#utility.yul\":12713:12806   */\n      tag_357\n      jump\t// in\n    tag_527:\n        /* \"#utility.yul\":12831:12833   */\n      0x20\n        /* \"#utility.yul\":12826:12829   */\n      dup3\n        /* \"#utility.yul\":12822:12834   */\n      add\n        /* \"#utility.yul\":12815:12834   */\n      swap1\n      pop\n        /* \"#utility.yul\":12474:12840   */\n      swap2\n      swap1\n      pop\n      jump\t// out\n        /* \"#utility.yul\":12846:13265   */\n    tag_143:\n        /* \"#utility.yul\":13012:13016   */\n      0x00\n        /* \"#utility.yul\":13050:13052   */\n      0x20\n        /* \"#utility.yul\":13039:13048   */\n      dup3\n        /* \"#utility.yul\":13035:13053   */\n      add\n        /* \"#utility.yul\":13027:13053   */\n      swap1\n      pop\n        /* \"#utility.yul\":13099:13108   */\n      dup2\n        /* \"#utility.yul\":13093:13097   */\n      dup2\n        /* \"#utility.yul\":13089:13109   */\n      sub\n        /* \"#utility.yul\":13085:13086   */\n      0x00\n        /* \"#utility.yul\":13074:13083   */\n      dup4\n        /* \"#utility.yul\":13070:13087   */\n      add\n        /* \"#utility.yul\":13063:13110   */\n      mstore\n        /* \"#utility.yul\":13127:13258   */\n      tag_529\n        /* \"#utility.yul\":13253:13257   */\n      dup2\n        /* \"#utility.yul\":13127:13258   */\n      tag_358\n      jump\t// in\n    tag_529:\n        /* \"#utility.yul\":13119:13258   */\n      swap1\n      pop\n        /* \"#utility.yul\":12846:13265   */\n      swap2\n      swap1\n      pop\n      jump\t// out\n        /* \"#utility.yul\":13271:13444   */\n    tag_359:\n        /* \"#utility.yul\":13411:13436   */\n      0x416c6c6f77616e6365206973206e6f7420656e6f756768000000000000000000\n        /* \"#utility.yul\":13407:13408   */\n      0x00\n        /* \"#utility.yul\":13399:13405   */\n      dup3\n        /* \"#utility.yul\":13395:13409   */\n      add\n        /* \"#utility.yul\":13388:13437   */\n      mstore\n        /* \"#utility.yul\":13271:13444   */\n      pop\n      jump\t// out\n        /* \"#utility.yul\":13450:13816   */\n    tag_360:\n        /* \"#utility.yul\":13592:13595   */\n      0x00\n        /* \"#utility.yul\":13613:13680   */\n      tag_532\n        /* \"#utility.yul\":13677:13679   */\n      0x17\n        /* \"#utility.yul\":13672:13675   */\n      dup4\n        /* \"#utility.yul\":13613:13680   */\n      tag_325\n      jump\t// in\n    tag_532:\n        /* \"#utility.yul\":13606:13680   */\n      swap2\n      pop\n        /* \"#utility.yul\":13689:13782   */\n      tag_533\n        /* \"#utility.yul\":13778:13781   */\n      dup3\n        /* \"#utility.yul\":13689:13782   */\n      tag_359\n      jump\t// in\n    tag_533:\n        /* \"#utility.yul\":13807:13809   */\n      0x20\n        /* \"#utility.yul\":13802:13805   */\n      dup3\n        /* \"#utility.yul\":13798:13810   */\n      add\n        /* \"#utility.yul\":13791:13810   */\n      swap1\n      pop\n        /* \"#utility.yul\":13450:13816   */\n      swap2\n      swap1\n      pop\n      jump\t// out\n        /* \"#utility.yul\":13822:14241   */\n    tag_147:\n        /* \"#utility.yul\":13988:13992   */\n      0x00\n        /* \"#utility.yul\":14026:14028   */\n      0x20\n        /* \"#utility.yul\":14015:14024   */\n      dup3\n        /* \"#utility.yul\":14011:14029   */\n      add\n        /* \"#utility.yul\":14003:14029   */\n      swap1\n      pop\n        /* \"#utility.yul\":14075:14084   */\n      dup2\n        /* \"#utility.yul\":14069:14073   */\n      dup2\n        /* \"#utility.yul\":14065:14085   */\n      sub\n        /* \"#utility.yul\":14061:14062   */\n      0x00\n        /* \"#utility.yul\":14050:14059   */\n      dup4\n        /* \"#utility.yul\":14046:14063   */\n      add\n        /* \"#utility.yul\":14039:14086   */\n      mstore\n        /* \"#utility.yul\":14103:14234   */\n      tag_535\n        /* \"#utility.yul\":14229:14233   */\n      dup2\n        /* \"#utility.yul\":14103:14234   */\n      tag_360\n      jump\t// in\n    tag_535:\n        /* \"#utility.yul\":14095:14234   */\n      swap1\n      pop\n        /* \"#utility.yul\":13822:14241   */\n      swap2\n      swap1\n      pop\n      jump\t// out\n        /* \"#utility.yul\":14247:14427   */\n    tag_361:\n        /* \"#utility.yul\":14295:14372   */\n      0x4e487b7100000000000000000000000000000000000000000000000000000000\n        /* \"#utility.yul\":14292:14293   */\n      0x00\n        /* \"#utility.yul\":14285:14373   */\n      mstore\n        /* \"#utility.yul\":14392:14396   */\n      0x11\n        /* \"#utility.yul\":14389:14390   */\n      0x04\n        /* \"#utility.yul\":14382:14397   */\n      mstore\n        /* \"#utility.yul\":14416:14420   */\n      0x24\n        /* \"#utility.yul\":14413:14414   */\n      0x00\n        /* \"#utility.yul\":14406:14421   */\n      revert\n        /* \"#utility.yul\":14433:14666   */\n    tag_151:\n        /* \"#utility.yul\":14472:14475   */\n      0x00\n        /* \"#utility.yul\":14495:14519   */\n      tag_538\n        /* \"#utility.yul\":14513:14518   */\n      dup3\n        /* \"#utility.yul\":14495:14519   */\n      tag_336\n      jump\t// in\n    tag_538:\n        /* \"#utility.yul\":14486:14519   */\n      swap2\n      pop\n        /* \"#utility.yul\":14541:14607   */\n      0xffffffffffffffffffffffffffffffffffffffffffffffffffffffffffffffff\n        /* \"#utility.yul\":14534:14539   */\n      dup3\n        /* \"#utility.yul\":14531:14608   */\n      sub\n        /* \"#utility.yul\":14528:14631   */\n      tag_539\n      jumpi\n        /* \"#utility.yul\":14611:14629   */\n      tag_540\n      tag_361\n      jump\t// in\n    tag_540:\n        /* \"#utility.yul\":14528:14631   */\n    tag_539:\n        /* \"#utility.yul\":14658:14659   */\n      0x01\n        /* \"#utility.yul\":14651:14656   */\n      dup3\n        /* \"#utility.yul\":14647:14660   */\n      add\n        /* \"#utility.yul\":14640:14660   */\n      swap1\n      pop\n        /* \"#utility.yul\":14433:14666   */\n      swap2\n      swap1\n      pop\n      jump\t// out\n        /* \"#utility.yul\":14672:15082   */\n    tag_154:\n        /* \"#utility.yul\":14712:14719   */\n      0x00\n        /* \"#utility.yul\":14735:14755   */\n      tag_542\n        /* \"#utility.yul\":14753:14754   */\n      dup3\n        /* \"#utility.yul\":14735:14755   */\n      tag_336\n      jump\t// in\n    tag_542:\n        /* \"#utility.yul\":14730:14755   */\n      swap2\n      pop\n        /* \"#utility.yul\":14769:14789   */\n      tag_543\n        /* \"#utility.yul\":14787:14788   */\n      dup4\n        /* \"#utility.yul\":14769:14789   */\n      tag_336\n      jump\t// in\n    tag_543:\n        /* \"#utility.yul\":14764:14789   */\n      swap3\n      pop\n        /* \"#utility.yul\":14824:14825   */\n      dup3\n        /* \"#utility.yul\":14821:14822   */\n      dup3\n        /* \"#utility.yul\":14817:14826   */\n      mul\n        /* \"#utility.yul\":14846:14876   */\n      tag_544\n        /* \"#utility.yul\":14864:14875   */\n      dup2\n        /* \"#utility.yul\":14846:14876   */\n      tag_336\n      jump\t// in\n    tag_544:\n        /* \"#utility.yul\":14835:14876   */\n      swap2\n      pop\n        /* \"#utility.yul\":15025:15026   */\n      dup3\n        /* \"#utility.yul\":15016:15023   */\n      dup3\n        /* \"#utility.yul\":15012:15027   */\n      div\n        /* \"#utility.yul\":15009:15010   */\n      dup5\n        /* \"#utility.yul\":15006:15028   */\n      eq\n        /* \"#utility.yul\":14986:14987   */\n      dup4\n        /* \"#utility.yul\":14979:14988   */\n      iszero\n        /* \"#utility.yul\":14959:15042   */\n      or\n        /* \"#utility.yul\":14936:15075   */\n      tag_545\n      jumpi\n        /* \"#utility.yul\":15055:15073   */\n      tag_546\n      tag_361\n      jump\t// in\n    tag_546:\n        /* \"#utility.yul\":14936:15075   */\n    tag_545:\n        /* \"#utility.yul\":14720:15082   */\n      pop\n        /* \"#utility.yul\":14672:15082   */\n      swap3\n      swap2\n      pop\n      pop\n      jump\t// out\n        /* \"#utility.yul\":15088:15279   */\n    tag_156:\n        /* \"#utility.yul\":15128:15131   */\n      0x00\n        /* \"#utility.yul\":15147:15167   */\n      tag_548\n        /* \"#utility.yul\":15165:15166   */\n      dup3\n        /* \"#utility.yul\":15147:15167   */\n      tag_336\n      jump\t// in\n    tag_548:\n        /* \"#utility.yul\":15142:15167   */\n      swap2\n      pop\n        /* \"#utility.yul\":15181:15201   */\n      tag_549\n        /* \"#utility.yul\":15199:15200   */\n      dup4\n        /* \"#utility.yul\":15181:15201   */\n      tag_336\n      jump\t// in\n    tag_549:\n        /* \"#utility.yul\":15176:15201   */\n      swap3\n      pop\n        /* \"#utility.yul\":15224:15225   */\n      dup3\n        /* \"#utility.yul\":15221:15222   */\n      dup3\n        /* \"#utility.yul\":15217:15226   */\n      add\n        /* \"#utility.yul\":15210:15226   */\n      swap1\n      pop\n        /* \"#utility.yul\":15245:15248   */\n      dup1\n        /* \"#utility.yul\":15242:15243   */\n      dup3\n        /* \"#utility.yul\":15239:15249   */\n      gt\n        /* \"#utility.yul\":15236:15272   */\n      iszero\n      tag_550\n      jumpi\n        /* \"#utility.yul\":15252:15270   */\n      tag_551\n      tag_361\n      jump\t// in\n    tag_551:\n        /* \"#utility.yul\":15236:15272   */\n    tag_550:\n        /* \"#utility.yul\":15088:15279   */\n      swap3\n      swap2\n      pop\n      pop\n      jump\t// out\n        /* \"#utility.yul\":15285:15426   */\n    tag_362:\n        /* \"#utility.yul\":15334:15338   */\n      0x00\n        /* \"#utility.yul\":15357:15360   */\n      dup2\n        /* \"#utility.yul\":15349:15360   */\n      swap1\n      pop\n        /* \"#utility.yul\":15380:15383   */\n      dup2\n        /* \"#utility.yul\":15377:15378   */\n      0x00\n        /* \"#utility.yul\":15370:15384   */\n      mstore\n        /* \"#utility.yul\":15414:15418   */\n      0x20\n        /* \"#utility.yul\":15411:15412   */\n      0x00\n        /* \"#utility.yul\":15401:15419   */\n      keccak256\n        /* \"#utility.yul\":15393:15419   */\n      swap1\n      pop\n        /* \"#utility.yul\":15285:15426   */\n      swap2\n      swap1\n      pop\n      jump\t// out\n        /* \"#utility.yul\":15432:15525   */\n    tag_363:\n        /* \"#utility.yul\":15469:15475   */\n      0x00\n        /* \"#utility.yul\":15516:15518   */\n      0x20\n        /* \"#utility.yul\":15511:15513   */\n      0x1f\n        /* \"#utility.yul\":15504:15509   */\n      dup4\n        /* \"#utility.yul\":15500:15514   */\n      add\n        /* \"#utility.yul\":15496:15519   */\n      div\n        /* \"#utility.yul\":15486:15519   */\n      swap1\n      pop\n        /* \"#utility.yul\":15432:15525   */\n      swap2\n      swap1\n      pop\n      jump\t// out\n        /* \"#utility.yul\":15531:15638   */\n    tag_364:\n        /* \"#utility.yul\":15575:15583   */\n      0x00\n        /* \"#utility.yul\":15625:15630   */\n      dup3\n        /* \"#utility.yul\":15619:15623   */\n      dup3\n        /* \"#utility.yul\":15615:15631   */\n      shl\n        /* \"#utility.yul\":15594:15631   */\n      swap1\n      pop\n        /* \"#utility.yul\":15531:15638   */\n      swap3\n      swap2\n      pop\n      pop\n      jump\t// out\n        /* \"#utility.yul\":15644:16037   */\n    tag_365:\n        /* \"#utility.yul\":15713:15719   */\n      0x00\n        /* \"#utility.yul\":15763:15764   */\n      0x08\n        /* \"#utility.yul\":15751:15761   */\n      dup4\n        /* \"#utility.yul\":15747:15765   */\n      mul\n        /* \"#utility.yul\":15786:15883   */\n      tag_556\n        /* \"#utility.yul\":15816:15882   */\n      0xffffffffffffffffffffffffffffffffffffffffffffffffffffffffffffffff\n        /* \"#utility.yul\":15805:15814   */\n      dup3\n        /* \"#utility.yul\":15786:15883   */\n      tag_364\n      jump\t// in\n    tag_556:\n        /* \"#utility.yul\":15904:15943   */\n      tag_557\n        /* \"#utility.yul\":15934:15942   */\n      dup7\n        /* \"#utility.yul\":15923:15932   */\n      dup4\n        /* \"#utility.yul\":15904:15943   */\n      tag_364\n      jump\t// in\n    tag_557:\n        /* \"#utility.yul\":15892:15943   */\n      swap6\n      pop\n        /* \"#utility.yul\":15976:15980   */\n      dup1\n        /* \"#utility.yul\":15972:15981   */\n      not\n        /* \"#utility.yul\":15965:15970   */\n      dup5\n        /* \"#utility.yul\":15961:15982   */\n      and\n        /* \"#utility.yul\":15952:15982   */\n      swap4\n      pop\n        /* \"#utility.yul\":16025:16029   */\n      dup1\n        /* \"#utility.yul\":16015:16023   */\n      dup7\n        /* \"#utility.yul\":16011:16030   */\n      and\n        /* \"#utility.yul\":16004:16009   */\n      dup5\n        /* \"#utility.yul\":16001:16031   */\n      or\n        /* \"#utility.yul\":15991:16031   */\n      swap3\n      pop\n        /* \"#utility.yul\":15720:16037   */\n      pop\n      pop\n        /* \"#utility.yul\":15644:16037   */\n      swap4\n      swap3\n      pop\n      pop\n      pop\n      jump\t// out\n        /* \"#utility.yul\":16043:16103   */\n    tag_366:\n        /* \"#utility.yul\":16071:16074   */\n      0x00\n        /* \"#utility.yul\":16092:16097   */\n      dup2\n        /* \"#utility.yul\":16085:16097   */\n      swap1\n      pop\n        /* \"#utility.yul\":16043:16103   */\n      swap2\n      swap1\n      pop\n      jump\t// out\n        /* \"#utility.yul\":16109:16251   */\n    tag_367:\n        /* \"#utility.yul\":16159:16168   */\n      0x00\n        /* \"#utility.yul\":16192:16245   */\n      tag_560\n        /* \"#utility.yul\":16210:16244   */\n      tag_561\n        /* \"#utility.yul\":16219:16243   */\n      tag_562\n        /* \"#utility.yul\":16237:16242   */\n      dup5\n        /* \"#utility.yul\":16219:16243   */\n      tag_336\n      jump\t// in\n    tag_562:\n        /* \"#utility.yul\":16210:16244   */\n      tag_366\n      jump\t// in\n    tag_561:\n        /* \"#utility.yul\":16192:16245   */\n      tag_336\n      jump\t// in\n    tag_560:\n        /* \"#utility.yul\":16179:16245   */\n      swap1\n      pop\n        /* \"#utility.yul\":16109:16251   */\n      swap2\n      swap1\n      pop\n      jump\t// out\n        /* \"#utility.yul\":16257:16332   */\n    tag_368:\n        /* \"#utility.yul\":16300:16303   */\n      0x00\n        /* \"#utility.yul\":16321:16326   */\n      dup2\n        /* \"#utility.yul\":16314:16326   */\n      swap1\n      pop\n        /* \"#utility.yul\":16257:16332   */\n      swap2\n      swap1\n      pop\n      jump\t// out\n        /* \"#utility.yul\":16338:16607   */\n    tag_369:\n        /* \"#utility.yul\":16448:16487   */\n      tag_565\n        /* \"#utility.yul\":16479:16486   */\n      dup4\n        /* \"#utility.yul\":16448:16487   */\n      tag_367\n      jump\t// in\n    tag_565:\n        /* \"#utility.yul\":16509:16600   */\n      tag_566\n        /* \"#utility.yul\":16558:16599   */\n      tag_567\n        /* \"#utility.yul\":16582:16598   */\n      dup3\n        /* \"#utility.yul\":16558:16599   */\n      tag_368\n      jump\t// in\n    tag_567:\n        /* \"#utility.yul\":16550:16556   */\n      dup5\n        /* \"#utility.yul\":16543:16547   */\n      dup5\n        /* \"#utility.yul\":16537:16548   */\n      sload\n        /* \"#utility.yul\":16509:16600   */\n      tag_365\n      jump\t// in\n    tag_566:\n        /* \"#utility.yul\":16503:16507   */\n      dup3\n        /* \"#utility.yul\":16496:16601   */\n      sstore\n        /* \"#utility.yul\":16414:16607   */\n      pop\n        /* \"#utility.yul\":16338:16607   */\n      pop\n      pop\n      pop\n      jump\t// out\n        /* \"#utility.yul\":16613:16686   */\n    tag_370:\n        /* \"#utility.yul\":16658:16661   */\n      0x00\n        /* \"#utility.yul\":16613:16686   */\n      swap1\n      jump\t// out\n        /* \"#utility.yul\":16692:16881   */\n    tag_371:\n        /* \"#utility.yul\":16769:16801   */\n      tag_570\n      tag_370\n      jump\t// in\n    tag_570:\n        /* \"#utility.yul\":16810:16875   */\n      tag_571\n        /* \"#utility.yul\":16868:16874   */\n      dup2\n        /* \"#utility.yul\":16860:16866   */\n      dup5\n        /* \"#utility.yul\":16854:16858   */\n      dup5\n        /* \"#utility.yul\":16810:16875   */\n      tag_369\n      jump\t// in\n    tag_571:\n        /* \"#utility.yul\":16745:16881   */\n      pop\n        /* \"#utility.yul\":16692:16881   */\n      pop\n      pop\n      jump\t// out\n        /* \"#utility.yul\":16887:17073   */\n    tag_372:\n        /* \"#utility.yul\":16947:17067   */\n    tag_573:\n        /* \"#utility.yul\":16964:16967   */\n      dup2\n        /* \"#utility.yul\":16957:16962   */\n      dup2\n        /* \"#utility.yul\":16954:16968   */\n      lt\n        /* \"#utility.yul\":16947:17067   */\n      iszero\n      tag_575\n      jumpi\n        /* \"#utility.yul\":17018:17057   */\n      tag_576\n        /* \"#utility.yul\":17055:17056   */\n      0x00\n        /* \"#utility.yul\":17048:17053   */\n      dup3\n        /* \"#utility.yul\":17018:17057   */\n      tag_371\n      jump\t// in\n    tag_576:\n        /* \"#utility.yul\":16991:16992   */\n      0x01\n        /* \"#utility.yul\":16984:16989   */\n      dup2\n        /* \"#utility.yul\":16980:16993   */\n      add\n        /* \"#utility.yul\":16971:16993   */\n      swap1\n      pop\n        /* \"#utility.yul\":16947:17067   */\n      jump(tag_573)\n    tag_575:\n        /* \"#utility.yul\":16887:17073   */\n      pop\n      pop\n      jump\t// out\n        /* \"#utility.yul\":17079:17622   */\n    tag_373:\n        /* \"#utility.yul\":17180:17182   */\n      0x1f\n        /* \"#utility.yul\":17175:17178   */\n      dup3\n        /* \"#utility.yul\":17172:17183   */\n      gt\n        /* \"#utility.yul\":17169:17615   */\n      iszero\n      tag_578\n      jumpi\n        /* \"#utility.yul\":17214:17252   */\n      tag_579\n        /* \"#utility.yul\":17246:17251   */\n      dup2\n        /* \"#utility.yul\":17214:17252   */\n      tag_362\n      jump\t// in\n    tag_579:\n        /* \"#utility.yul\":17298:17327   */\n      tag_580\n        /* \"#utility.yul\":17316:17326   */\n      dup5\n        /* \"#utility.yul\":17298:17327   */\n      tag_363\n      jump\t// in\n    tag_580:\n        /* \"#utility.yul\":17288:17296   */\n      dup2\n        /* \"#utility.yul\":17284:17328   */\n      add\n        /* \"#utility.yul\":17481:17483   */\n      0x20\n        /* \"#utility.yul\":17469:17479   */\n      dup6\n        /* \"#utility.yul\":17466:17484   */\n      lt\n        /* \"#utility.yul\":17463:17512   */\n      iszero\n      tag_581\n      jumpi\n        /* \"#utility.yul\":17502:17510   */\n      dup2\n        /* \"#utility.yul\":17487:17510   */\n      swap1\n      pop\n        /* \"#utility.yul\":17463:17512   */\n    tag_581:\n        /* \"#utility.yul\":17525:17605   */\n      tag_582\n        /* \"#utility.yul\":17581:17603   */\n      tag_583\n        /* \"#utility.yul\":17599:17602   */\n      dup6\n        /* \"#utility.yul\":17581:17603   */\n      tag_363\n      jump\t// in\n    tag_583:\n        /* \"#utility.yul\":17571:17579   */\n      dup4\n        /* \"#utility.yul\":17567:17604   */\n      add\n        /* \"#utility.yul\":17554:17565   */\n      dup3\n        /* \"#utility.yul\":17525:17605   */\n      tag_372\n      jump\t// in\n    tag_582:\n        /* \"#utility.yul\":17184:17615   */\n      pop\n      pop\n        /* \"#utility.yul\":17169:17615   */\n    tag_578:\n        /* \"#utility.yul\":17079:17622   */\n      pop\n      pop\n      pop\n      jump\t// out\n        /* \"#utility.yul\":17628:17745   */\n    tag_374:\n        /* \"#utility.yul\":17682:17690   */\n      0x00\n        /* \"#utility.yul\":17732:17737   */\n      dup3\n        /* \"#utility.yul\":17726:17730   */\n      dup3\n        /* \"#utility.yul\":17722:17738   */\n      shr\n        /* \"#utility.yul\":17701:17738   */\n      swap1\n      pop\n        /* \"#utility.yul\":17628:17745   */\n      swap3\n      swap2\n      pop\n      pop\n      jump\t// out\n        /* \"#utility.yul\":17751:17920   */\n    tag_375:\n        /* \"#utility.yul\":17795:17801   */\n      0x00\n        /* \"#utility.yul\":17828:17879   */\n      tag_586\n        /* \"#utility.yul\":17876:17877   */\n      0x00\n        /* \"#utility.yul\":17872:17878   */\n      not\n        /* \"#utility.yul\":17864:17869   */\n      dup5\n        /* \"#utility.yul\":17861:17862   */\n      0x08\n        /* \"#utility.yul\":17857:17870   */\n      mul\n        /* \"#utility.yul\":17828:17879   */\n      tag_374\n      jump\t// in\n    tag_586:\n        /* \"#utility.yul\":17824:17880   */\n      not\n        /* \"#utility.yul\":17909:17913   */\n      dup1\n        /* \"#utility.yul\":17903:17907   */\n      dup4\n        /* \"#utility.yul\":17899:17914   */\n      and\n        /* \"#utility.yul\":17889:17914   */\n      swap2\n      pop\n        /* \"#utility.yul\":17802:17920   */\n      pop\n        /* \"#utility.yul\":17751:17920   */\n      swap3\n      swap2\n      pop\n      pop\n      jump\t// out\n        /* \"#utility.yul\":17925:18220   */\n    tag_376:\n        /* \"#utility.yul\":18001:18005   */\n      0x00\n        /* \"#utility.yul\":18147:18176   */\n      tag_588\n        /* \"#utility.yul\":18172:18175   */\n      dup4\n        /* \"#utility.yul\":18166:18170   */\n      dup4\n        /* \"#utility.yul\":18147:18176   */\n      tag_375\n      jump\t// in\n    tag_588:\n        /* \"#utility.yul\":18139:18176   */\n      swap2\n      pop\n        /* \"#utility.yul\":18209:18212   */\n      dup3\n        /* \"#utility.yul\":18206:18207   */\n      0x02\n        /* \"#utility.yul\":18202:18213   */\n      mul\n        /* \"#utility.yul\":18196:18200   */\n      dup3\n        /* \"#utility.yul\":18193:18214   */\n      or\n        /* \"#utility.yul\":18185:18214   */\n      swap1\n      pop\n        /* \"#utility.yul\":17925:18220   */\n      swap3\n      swap2\n      pop\n      pop\n      jump\t// out\n        /* \"#utility.yul\":18225:19620   */\n    tag_158:\n        /* \"#utility.yul\":18342:18379   */\n      tag_590\n        /* \"#utility.yul\":18375:18378   */\n      dup3\n        /* \"#utility.yul\":18342:18379   */\n      tag_324\n      jump\t// in\n    tag_590:\n        /* \"#utility.yul\":18444:18462   */\n      0xffffffffffffffff\n        /* \"#utility.yul\":18436:18442   */\n      dup2\n        /* \"#utility.yul\":18433:18463   */\n      gt\n        /* \"#utility.yul\":18430:18486   */\n      iszero\n      tag_591\n      jumpi\n        /* \"#utility.yul\":18466:18484   */\n      tag_592\n      tag_344\n      jump\t// in\n    tag_592:\n        /* \"#utility.yul\":18430:18486   */\n    tag_591:\n        /* \"#utility.yul\":18510:18548   */\n      tag_593\n        /* \"#utility.yul\":18542:18546   */\n      dup3\n        /* \"#utility.yul\":18536:18547   */\n      sload\n        /* \"#utility.yul\":18510:18548   */\n      tag_125\n      jump\t// in\n    tag_593:\n        /* \"#utility.yul\":18595:18662   */\n      tag_594\n        /* \"#utility.yul\":18655:18661   */\n      dup3\n        /* \"#utility.yul\":18647:18653   */\n      dup3\n        /* \"#utility.yul\":18641:18645   */\n      dup6\n        /* \"#utility.yul\":18595:18662   */\n      tag_373\n      jump\t// in\n    tag_594:\n        /* \"#utility.yul\":18689:18690   */\n      0x00\n        /* \"#utility.yul\":18713:18717   */\n      0x20\n        /* \"#utility.yul\":18700:18717   */\n      swap1\n      pop\n        /* \"#utility.yul\":18745:18747   */\n      0x1f\n        /* \"#utility.yul\":18737:18743   */\n      dup4\n        /* \"#utility.yul\":18734:18748   */\n      gt\n        /* \"#utility.yul\":18762:18763   */\n      0x01\n        /* \"#utility.yul\":18757:19375   */\n      dup2\n      eq\n      tag_596\n      jumpi\n        /* \"#utility.yul\":19419:19420   */\n      0x00\n        /* \"#utility.yul\":19436:19442   */\n      dup5\n        /* \"#utility.yul\":19433:19510   */\n      iszero\n      tag_597\n      jumpi\n        /* \"#utility.yul\":19485:19494   */\n      dup3\n        /* \"#utility.yul\":19480:19483   */\n      dup8\n        /* \"#utility.yul\":19476:19495   */\n      add\n        /* \"#utility.yul\":19470:19496   */\n      mload\n        /* \"#utility.yul\":19461:19496   */\n      swap1\n      pop\n        /* \"#utility.yul\":19433:19510   */\n    tag_597:\n        /* \"#utility.yul\":19536:19603   */\n      tag_598\n        /* \"#utility.yul\":19596:19602   */\n      dup6\n        /* \"#utility.yul\":19589:19594   */\n      dup3\n        /* \"#utility.yul\":19536:19603   */\n      tag_376\n      jump\t// in\n    tag_598:\n        /* \"#utility.yul\":19530:19534   */\n      dup7\n        /* \"#utility.yul\":19523:19604   */\n      sstore\n        /* \"#utility.yul\":19392:19614   */\n      pop\n        /* \"#utility.yul\":18727:19614   */\n      jump(tag_595)\n        /* \"#utility.yul\":18757:19375   */\n    tag_596:\n        /* \"#utility.yul\":18809:18813   */\n      0x1f\n        /* \"#utility.yul\":18805:18814   */\n      not\n        /* \"#utility.yul\":18797:18803   */\n      dup5\n        /* \"#utility.yul\":18793:18815   */\n      and\n        /* \"#utility.yul\":18843:18880   */\n      tag_599\n        /* \"#utility.yul\":18875:18879   */\n      dup7\n        /* \"#utility.yul\":18843:18880   */\n      tag_362\n      jump\t// in\n    tag_599:\n        /* \"#utility.yul\":18902:18903   */\n      0x00\n        /* \"#utility.yul\":18916:19124   */\n    tag_600:\n        /* \"#utility.yul\":18930:18937   */\n      dup3\n        /* \"#utility.yul\":18927:18928   */\n      dup2\n        /* \"#utility.yul\":18924:18938   */\n      lt\n        /* \"#utility.yul\":18916:19124   */\n      iszero\n      tag_602\n      jumpi\n        /* \"#utility.yul\":19009:19018   */\n      dup5\n        /* \"#utility.yul\":19004:19007   */\n      dup10\n        /* \"#utility.yul\":19000:19019   */\n      add\n        /* \"#utility.yul\":18994:19020   */\n      mload\n        /* \"#utility.yul\":18986:18992   */\n      dup3\n        /* \"#utility.yul\":18979:19021   */\n      sstore\n        /* \"#utility.yul\":19060:19061   */\n      0x01\n        /* \"#utility.yul\":19052:19058   */\n      dup3\n        /* \"#utility.yul\":19048:19062   */\n      add\n        /* \"#utility.yul\":19038:19062   */\n      swap2\n      pop\n        /* \"#utility.yul\":19107:19109   */\n      0x20\n        /* \"#utility.yul\":19096:19105   */\n      dup6\n        /* \"#utility.yul\":19092:19110   */\n      add\n        /* \"#utility.yul\":19079:19110   */\n      swap5\n      pop\n        /* \"#utility.yul\":18953:18957   */\n      0x20\n        /* \"#utility.yul\":18950:18951   */\n      dup2\n        /* \"#utility.yul\":18946:18958   */\n      add\n        /* \"#utility.yul\":18941:18958   */\n      swap1\n      pop\n        /* \"#utility.yul\":18916:19124   */\n      jump(tag_600)\n    tag_602:\n        /* \"#utility.yul\":19152:19158   */\n      dup7\n        /* \"#utility.yul\":19143:19150   */\n      dup4\n        /* \"#utility.yul\":19140:19159   */\n      lt\n        /* \"#utility.yul\":19137:19316   */\n      iszero\n      tag_603\n      jumpi\n        /* \"#utility.yul\":19210:19219   */\n      dup5\n        /* \"#utility.yul\":19205:19208   */\n      dup10\n        /* \"#utility.yul\":19201:19220   */\n      add\n        /* \"#utility.yul\":19195:19221   */\n      mload\n        /* \"#utility.yul\":19253:19301   */\n      tag_604\n        /* \"#utility.yul\":19295:19299   */\n      0x1f\n        /* \"#utility.yul\":19287:19293   */\n      dup10\n        /* \"#utility.yul\":19283:19300   */\n      and\n        /* \"#utility.yul\":19272:19281   */\n      dup3\n        /* \"#utility.yul\":19253:19301   */\n      tag_375\n      jump\t// in\n    tag_604:\n        /* \"#utility.yul\":19245:19251   */\n      dup4\n        /* \"#utility.yul\":19238:19302   */\n      sstore\n        /* \"#utility.yul\":19160:19316   */\n      pop\n        /* \"#utility.yul\":19137:19316   */\n    tag_603:\n        /* \"#utility.yul\":19362:19363   */\n      0x01\n        /* \"#utility.yul\":19358:19359   */\n      0x02\n        /* \"#utility.yul\":19350:19356   */\n      dup9\n        /* \"#utility.yul\":19346:19360   */\n      mul\n        /* \"#utility.yul\":19342:19364   */\n      add\n        /* \"#utility.yul\":19336:19340   */\n      dup9\n        /* \"#utility.yul\":19329:19365   */\n      sstore\n        /* \"#utility.yul\":18764:19375   */\n      pop\n      pop\n      pop\n        /* \"#utility.yul\":18727:19614   */\n    tag_595:\n      pop\n        /* \"#utility.yul\":18317:19620   */\n      pop\n      pop\n      pop\n        /* \"#utility.yul\":18225:19620   */\n      pop\n      pop\n      jump\t// out\n        /* \"#utility.yul\":19626:20714   */\n    tag_162:\n        /* \"#utility.yul\":19935:19939   */\n      0x00\n        /* \"#utility.yul\":19973:19976   */\n      0x0100\n        /* \"#utility.yul\":19962:19971   */\n      dup3\n        /* \"#utility.yul\":19958:19977   */\n      add\n        /* \"#utility.yul\":19950:19977   */\n      swap1\n      pop\n        /* \"#utility.yul\":19987:20058   */\n      tag_606\n        /* \"#utility.yul\":20055:20056   */\n      0x00\n        /* \"#utility.yul\":20044:20053   */\n      dup4\n        /* \"#utility.yul\":20040:20057   */\n      add\n        /* \"#utility.yul\":20031:20037   */\n      dup12\n        /* \"#utility.yul\":19987:20058   */\n      tag_341\n      jump\t// in\n    tag_606:\n        /* \"#utility.yul\":20068:20140   */\n      tag_607\n        /* \"#utility.yul\":20136:20138   */\n      0x20\n        /* \"#utility.yul\":20125:20134   */\n      dup4\n        /* \"#utility.yul\":20121:20139   */\n      add\n        /* \"#utility.yul\":20112:20118   */\n      dup11\n        /* \"#utility.yul\":20068:20140   */\n      tag_353\n      jump\t// in\n    tag_607:\n        /* \"#utility.yul\":20150:20222   */\n      tag_608\n        /* \"#utility.yul\":20218:20220   */\n      0x40\n        /* \"#utility.yul\":20207:20216   */\n      dup4\n        /* \"#utility.yul\":20203:20221   */\n      add\n        /* \"#utility.yul\":20194:20200   */\n      dup10\n        /* \"#utility.yul\":20150:20222   */\n      tag_353\n      jump\t// in\n    tag_608:\n        /* \"#utility.yul\":20232:20304   */\n      tag_609\n        /* \"#utility.yul\":20300:20302   */\n      0x60\n        /* \"#utility.yul\":20289:20298   */\n      dup4\n        /* \"#utility.yul\":20285:20303   */\n      add\n        /* \"#utility.yul\":20276:20282   */\n      dup9\n        /* \"#utility.yul\":20232:20304   */\n      tag_341\n      jump\t// in\n    tag_609:\n        /* \"#utility.yul\":20314:20387   */\n      tag_610\n        /* \"#utility.yul\":20382:20385   */\n      0x80\n        /* \"#utility.yul\":20371:20380   */\n      dup4\n        /* \"#utility.yul\":20367:20386   */\n      add\n        /* \"#utility.yul\":20358:20364   */\n      dup8\n        /* \"#utility.yul\":20314:20387   */\n      tag_341\n      jump\t// in\n    tag_610:\n        /* \"#utility.yul\":20397:20470   */\n      tag_611\n        /* \"#utility.yul\":20465:20468   */\n      0xa0\n        /* \"#utility.yul\":20454:20463   */\n      dup4\n        /* \"#utility.yul\":20450:20469   */\n      add\n        /* \"#utility.yul\":20441:20447   */\n      dup7\n        /* \"#utility.yul\":20397:20470   */\n      tag_341\n      jump\t// in\n    tag_611:\n        /* \"#utility.yul\":20480:20553   */\n      tag_612\n        /* \"#utility.yul\":20548:20551   */\n      0xc0\n        /* \"#utility.yul\":20537:20546   */\n      dup4\n        /* \"#utility.yul\":20533:20552   */\n      add\n        /* \"#utility.yul\":20524:20530   */\n      dup6\n        /* \"#utility.yul\":20480:20553   */\n      tag_341\n      jump\t// in\n    tag_612:\n        /* \"#utility.yul\":20601:20610   */\n      dup2\n        /* \"#utility.yul\":20595:20599   */\n      dup2\n        /* \"#utility.yul\":20591:20611   */\n      sub\n        /* \"#utility.yul\":20585:20588   */\n      0xe0\n        /* \"#utility.yul\":20574:20583   */\n      dup4\n        /* \"#utility.yul\":20570:20589   */\n      add\n        /* \"#utility.yul\":20563:20612   */\n      mstore\n        /* \"#utility.yul\":20629:20707   */\n      tag_613\n        /* \"#utility.yul\":20702:20706   */\n      dup2\n        /* \"#utility.yul\":20693:20699   */\n      dup5\n        /* \"#utility.yul\":20629:20707   */\n      tag_328\n      jump\t// in\n    tag_613:\n        /* \"#utility.yul\":20621:20707   */\n      swap1\n      pop\n        /* \"#utility.yul\":19626:20714   */\n      swap10\n      swap9\n      pop\n      pop\n      pop\n      pop\n      pop\n      pop\n      pop\n      pop\n      pop\n      jump\t// out\n        /* \"#utility.yul\":20720:20944   */\n    tag_377:\n        /* \"#utility.yul\":20860:20894   */\n      0x4c6f616e206973207374696c6c2077697468696e2072657061796d656e742070\n        /* \"#utility.yul\":20856:20857   */\n      0x00\n        /* \"#utility.yul\":20848:20854   */\n      dup3\n        /* \"#utility.yul\":20844:20858   */\n      add\n        /* \"#utility.yul\":20837:20895   */\n      mstore\n        /* \"#utility.yul\":20929:20936   */\n      0x6572696f64000000000000000000000000000000000000000000000000000000\n        /* \"#utility.yul\":20924:20926   */\n      0x20\n        /* \"#utility.yul\":20916:20922   */\n      dup3\n        /* \"#utility.yul\":20912:20927   */\n      add\n        /* \"#utility.yul\":20905:20937   */\n      mstore\n        /* \"#utility.yul\":20720:20944   */\n      pop\n      jump\t// out\n        /* \"#utility.yul\":20950:21316   */\n    tag_378:\n        /* \"#utility.yul\":21092:21095   */\n      0x00\n        /* \"#utility.yul\":21113:21180   */\n      tag_616\n        /* \"#utility.yul\":21177:21179   */\n      0x25\n        /* \"#utility.yul\":21172:21175   */\n      dup4\n        /* \"#utility.yul\":21113:21180   */\n      tag_325\n      jump\t// in\n    tag_616:\n        /* \"#utility.yul\":21106:21180   */\n      swap2\n      pop\n        /* \"#utility.yul\":21189:21282   */\n      tag_617\n        /* \"#utility.yul\":21278:21281   */\n      dup3\n        /* \"#utility.yul\":21189:21282   */\n      tag_377\n      jump\t// in\n    tag_617:\n        /* \"#utility.yul\":21307:21309   */\n      0x40\n        /* \"#utility.yul\":21302:21305   */\n      dup3\n        /* \"#utility.yul\":21298:21310   */\n      add\n        /* \"#utility.yul\":21291:21310   */\n      swap1\n      pop\n        /* \"#utility.yul\":20950:21316   */\n      swap2\n      swap1\n      pop\n      jump\t// out\n        /* \"#utility.yul\":21322:21741   */\n    tag_183:\n        /* \"#utility.yul\":21488:21492   */\n      0x00\n        /* \"#utility.yul\":21526:21528   */\n      0x20\n        /* \"#utility.yul\":21515:21524   */\n      dup3\n        /* \"#utility.yul\":21511:21529   */\n      add\n        /* \"#utility.yul\":21503:21529   */\n      swap1\n      pop\n        /* \"#utility.yul\":21575:21584   */\n      dup2\n        /* \"#utility.yul\":21569:21573   */\n      dup2\n        /* \"#utility.yul\":21565:21585   */\n      sub\n        /* \"#utility.yul\":21561:21562   */\n      0x00\n        /* \"#utility.yul\":21550:21559   */\n      dup4\n        /* \"#utility.yul\":21546:21563   */\n      add\n        /* \"#utility.yul\":21539:21586   */\n      mstore\n        /* \"#utility.yul\":21603:21734   */\n      tag_619\n        /* \"#utility.yul\":21729:21733   */\n      dup2\n        /* \"#utility.yul\":21603:21734   */\n      tag_378\n      jump\t// in\n    tag_619:\n        /* \"#utility.yul\":21595:21734   */\n      swap1\n      pop\n        /* \"#utility.yul\":21322:21741   */\n      swap2\n      swap1\n      pop\n      jump\t// out\n        /* \"#utility.yul\":21747:21916   */\n    tag_379:\n        /* \"#utility.yul\":21887:21908   */\n      0x4c6f616e20616c72656164792072657061696400000000000000000000000000\n        /* \"#utility.yul\":21883:21884   */\n      0x00\n        /* \"#utility.yul\":21875:21881   */\n      dup3\n        /* \"#utility.yul\":21871:21885   */\n      add\n        /* \"#utility.yul\":21864:21909   */\n      mstore\n        /* \"#utility.yul\":21747:21916   */\n      pop\n      jump\t// out\n        /* \"#utility.yul\":21922:22288   */\n    tag_380:\n        /* \"#utility.yul\":22064:22067   */\n      0x00\n        /* \"#utility.yul\":22085:22152   */\n      tag_622\n        /* \"#utility.yul\":22149:22151   */\n      0x13\n        /* \"#utility.yul\":22144:22147   */\n      dup4\n        /* \"#utility.yul\":22085:22152   */\n      tag_325\n      jump\t// in\n    tag_622:\n        /* \"#utility.yul\":22078:22152   */\n      swap2\n      pop\n        /* \"#utility.yul\":22161:22254   */\n      tag_623\n        /* \"#utility.yul\":22250:22253   */\n      dup3\n        /* \"#utility.yul\":22161:22254   */\n      tag_379\n      jump\t// in\n    tag_623:\n        /* \"#utility.yul\":22279:22281   */\n      0x20\n        /* \"#utility.yul\":22274:22277   */\n      dup3\n        /* \"#utility.yul\":22270:22282   */\n      add\n        /* \"#utility.yul\":22263:22282   */\n      swap1\n      pop\n        /* \"#utility.yul\":21922:22288   */\n      swap2\n      swap1\n      pop\n      jump\t// out\n        /* \"#utility.yul\":22294:22713   */\n    tag_186:\n        /* \"#utility.yul\":22460:22464   */\n      0x00\n        /* \"#utility.yul\":22498:22500   */\n      0x20\n        /* \"#utility.yul\":22487:22496   */\n      dup3\n        /* \"#utility.yul\":22483:22501   */\n      add\n        /* \"#utility.yul\":22475:22501   */\n      swap1\n      pop\n        /* \"#utility.yul\":22547:22556   */\n      dup2\n        /* \"#utility.yul\":22541:22545   */\n      dup2\n        /* \"#utility.yul\":22537:22557   */\n      sub\n        /* \"#utility.yul\":22533:22534   */\n      0x00\n        /* \"#utility.yul\":22522:22531   */\n      dup4\n        /* \"#utility.yul\":22518:22535   */\n      add\n        /* \"#utility.yul\":22511:22558   */\n      mstore\n        /* \"#utility.yul\":22575:22706   */\n      tag_625\n        /* \"#utility.yul\":22701:22705   */\n      dup2\n        /* \"#utility.yul\":22575:22706   */\n      tag_380\n      jump\t// in\n    tag_625:\n        /* \"#utility.yul\":22567:22706   */\n      swap1\n      pop\n        /* \"#utility.yul\":22294:22713   */\n      swap2\n      swap1\n      pop\n      jump\t// out\n        /* \"#utility.yul\":22719:22913   */\n    tag_199:\n        /* \"#utility.yul\":22759:22763   */\n      0x00\n        /* \"#utility.yul\":22779:22799   */\n      tag_627\n        /* \"#utility.yul\":22797:22798   */\n      dup3\n        /* \"#utility.yul\":22779:22799   */\n      tag_336\n      jump\t// in\n    tag_627:\n        /* \"#utility.yul\":22774:22799   */\n      swap2\n      pop\n        /* \"#utility.yul\":22813:22833   */\n      tag_628\n        /* \"#utility.yul\":22831:22832   */\n      dup4\n        /* \"#utility.yul\":22813:22833   */\n      tag_336\n      jump\t// in\n    tag_628:\n        /* \"#utility.yul\":22808:22833   */\n      swap3\n      pop\n        /* \"#utility.yul\":22857:22858   */\n      dup3\n        /* \"#utility.yul\":22854:22855   */\n      dup3\n        /* \"#utility.yul\":22850:22859   */\n      sub\n        /* \"#utility.yul\":22842:22859   */\n      swap1\n      pop\n        /* \"#utility.yul\":22881:22882   */\n      dup2\n        /* \"#utility.yul\":22875:22879   */\n      dup2\n        /* \"#utility.yul\":22872:22883   */\n      gt\n        /* \"#utility.yul\":22869:22906   */\n      iszero\n      tag_629\n      jumpi\n        /* \"#utility.yul\":22886:22904   */\n      tag_630\n      tag_361\n      jump\t// in\n    tag_630:\n        /* \"#utility.yul\":22869:22906   */\n    tag_629:\n        /* \"#utility.yul\":22719:22913   */\n      swap3\n      swap2\n      pop\n      pop\n      jump\t// out\n        /* \"#utility.yul\":22919:23092   */\n    tag_381:\n        /* \"#utility.yul\":23059:23084   */\n      0x4f6e6c7920626f72726f7765722063616e207265706179000000000000000000\n        /* \"#utility.yul\":23055:23056   */\n      0x00\n        /* \"#utility.yul\":23047:23053   */\n      dup3\n        /* \"#utility.yul\":23043:23057   */\n      add\n        /* \"#utility.yul\":23036:23085   */\n      mstore\n        /* \"#utility.yul\":22919:23092   */\n      pop\n      jump\t// out\n        /* \"#utility.yul\":23098:23464   */\n    tag_382:\n        /* \"#utility.yul\":23240:23243   */\n      0x00\n        /* \"#utility.yul\":23261:23328   */\n      tag_633\n        /* \"#utility.yul\":23325:23327   */\n      0x17\n        /* \"#utility.yul\":23320:23323   */\n      dup4\n        /* \"#utility.yul\":23261:23328   */\n      tag_325\n      jump\t// in\n    tag_633:\n        /* \"#utility.yul\":23254:23328   */\n      swap2\n      pop\n        /* \"#utility.yul\":23337:23430   */\n      tag_634\n        /* \"#utility.yul\":23426:23429   */\n      dup3\n        /* \"#utility.yul\":23337:23430   */\n      tag_381\n      jump\t// in\n    tag_634:\n        /* \"#utility.yul\":23455:23457   */\n      0x20\n        /* \"#utility.yul\":23450:23453   */\n      dup3\n        /* \"#utility.yul\":23446:23458   */\n      add\n        /* \"#utility.yul\":23439:23458   */\n      swap1\n      pop\n        /* \"#utility.yul\":23098:23464   */\n      swap2\n      swap1\n      pop\n      jump\t// out\n        /* \"#utility.yul\":23470:23889   */\n    tag_206:\n        /* \"#utility.yul\":23636:23640   */\n      0x00\n        /* \"#utility.yul\":23674:23676   */\n      0x20\n        /* \"#utility.yul\":23663:23672   */\n      dup3\n        /* \"#utility.yul\":23659:23677   */\n      add\n        /* \"#utility.yul\":23651:23677   */\n      swap1\n      pop\n        /* \"#utility.yul\":23723:23732   */\n      dup2\n        /* \"#utility.yul\":23717:23721   */\n      dup2\n        /* \"#utility.yul\":23713:23733   */\n      sub\n        /* \"#utility.yul\":23709:23710   */\n      0x00\n        /* \"#utility.yul\":23698:23707   */\n      dup4\n        /* \"#utility.yul\":23694:23711   */\n      add\n        /* \"#utility.yul\":23687:23734   */\n      mstore\n        /* \"#utility.yul\":23751:23882   */\n      tag_636\n        /* \"#utility.yul\":23877:23881   */\n      dup2\n        /* \"#utility.yul\":23751:23882   */\n      tag_382\n      jump\t// in\n    tag_636:\n        /* \"#utility.yul\":23743:23882   */\n      swap1\n      pop\n        /* \"#utility.yul\":23470:23889   */\n      swap2\n      swap1\n      pop\n      jump\t// out\n        /* \"#utility.yul\":23895:24072   */\n    tag_383:\n        /* \"#utility.yul\":24035:24064   */\n      0x4c6f616e206d7573742062652061636365707465642066697273740000000000\n        /* \"#utility.yul\":24031:24032   */\n      0x00\n        /* \"#utility.yul\":24023:24029   */\n      dup3\n        /* \"#utility.yul\":24019:24033   */\n      add\n        /* \"#utility.yul\":24012:24065   */\n      mstore\n        /* \"#utility.yul\":23895:24072   */\n      pop\n      jump\t// out\n        /* \"#utility.yul\":24078:24444   */\n    tag_384:\n        /* \"#utility.yul\":24220:24223   */\n      0x00\n        /* \"#utility.yul\":24241:24308   */\n      tag_639\n        /* \"#utility.yul\":24305:24307   */\n      0x1b\n        /* \"#utility.yul\":24300:24303   */\n      dup4\n        /* \"#utility.yul\":24241:24308   */\n      tag_325\n      jump\t// in\n    tag_639:\n        /* \"#utility.yul\":24234:24308   */\n      swap2\n      pop\n        /* \"#utility.yul\":24317:24410   */\n      tag_640\n        /* \"#utility.yul\":24406:24409   */\n      dup3\n        /* \"#utility.yul\":24317:24410   */\n      tag_383\n      jump\t// in\n    tag_640:\n        /* \"#utility.yul\":24435:24437   */\n      0x20\n        /* \"#utility.yul\":24430:24433   */\n      dup3\n        /* \"#utility.yul\":24426:24438   */\n      add\n        /* \"#utility.yul\":24419:24438   */\n      swap1\n      pop\n        /* \"#utility.yul\":24078:24444   */\n      swap2\n      swap1\n      pop\n      jump\t// out\n        /* \"#utility.yul\":24450:24869   */\n    tag_209:\n        /* \"#utility.yul\":24616:24620   */\n      0x00\n        /* \"#utility.yul\":24654:24656   */\n      0x20\n        /* \"#utility.yul\":24643:24652   */\n      dup3\n        /* \"#utility.yul\":24639:24657   */\n      add\n        /* \"#utility.yul\":24631:24657   */\n      swap1\n      pop\n        /* \"#utility.yul\":24703:24712   */\n      dup2\n        /* \"#utility.yul\":24697:24701   */\n      dup2\n        /* \"#utility.yul\":24693:24713   */\n      sub\n        /* \"#utility.yul\":24689:24690   */\n      0x00\n        /* \"#utility.yul\":24678:24687   */\n      dup4\n        /* \"#utility.yul\":24674:24691   */\n      add\n        /* \"#utility.yul\":24667:24714   */\n      mstore\n        /* \"#utility.yul\":24731:24862   */\n      tag_642\n        /* \"#utility.yul\":24857:24861   */\n      dup2\n        /* \"#utility.yul\":24731:24862   */\n      tag_384\n      jump\t// in\n    tag_642:\n        /* \"#utility.yul\":24723:24862   */\n      swap1\n      pop\n        /* \"#utility.yul\":24450:24869   */\n      swap2\n      swap1\n      pop\n      jump\t// out\n        /* \"#utility.yul\":24875:25049   */\n    tag_385:\n        /* \"#utility.yul\":25015:25041   */\n      0x4f6e6c7920626f72726f7765722063616e206163636570740000000000000000\n        /* \"#utility.yul\":25011:25012   */\n      0x00\n        /* \"#utility.yul\":25003:25009   */\n      dup3\n        /* \"#utility.yul\":24999:25013   */\n      add\n        /* \"#utility.yul\":24992:25042   */\n      mstore\n        /* \"#utility.yul\":24875:25049   */\n      pop\n      jump\t// out\n        /* \"#utility.yul\":25055:25421   */\n    tag_386:\n        /* \"#utility.yul\":25197:25200   */\n      0x00\n        /* \"#utility.yul\":25218:25285   */\n      tag_645\n        /* \"#utility.yul\":25282:25284   */\n      0x18\n        /* \"#utility.yul\":25277:25280   */\n      dup4\n        /* \"#utility.yul\":25218:25285   */\n      tag_325\n      jump\t// in\n    tag_645:\n        /* \"#utility.yul\":25211:25285   */\n      swap2\n      pop\n        /* \"#utility.yul\":25294:25387   */\n      tag_646\n        /* \"#utility.yul\":25383:25386   */\n      dup3\n        /* \"#utility.yul\":25294:25387   */\n      tag_385\n      jump\t// in\n    tag_646:\n        /* \"#utility.yul\":25412:25414   */\n      0x20\n        /* \"#utility.yul\":25407:25410   */\n      dup3\n        /* \"#utility.yul\":25403:25415   */\n      add\n        /* \"#utility.yul\":25396:25415   */\n      swap1\n      pop\n        /* \"#utility.yul\":25055:25421   */\n      swap2\n      swap1\n      pop\n      jump\t// out\n        /* \"#utility.yul\":25427:25846   */\n    tag_220:\n        /* \"#utility.yul\":25593:25597   */\n      0x00\n        /* \"#utility.yul\":25631:25633   */\n      0x20\n        /* \"#utility.yul\":25620:25629   */\n      dup3\n        /* \"#utility.yul\":25616:25634   */\n      add\n        /* \"#utility.yul\":25608:25634   */\n      swap1\n      pop\n        /* \"#utility.yul\":25680:25689   */\n      dup2\n        /* \"#utility.yul\":25674:25678   */\n      dup2\n        /* \"#utility.yul\":25670:25690   */\n      sub\n        /* \"#utility.yul\":25666:25667   */\n      0x00\n        /* \"#utility.yul\":25655:25664   */\n      dup4\n        /* \"#utility.yul\":25651:25668   */\n      add\n        /* \"#utility.yul\":25644:25691   */\n      mstore\n        /* \"#utility.yul\":25708:25839   */\n      tag_648\n        /* \"#utility.yul\":25834:25838   */\n      dup2\n        /* \"#utility.yul\":25708:25839   */\n      tag_386\n      jump\t// in\n    tag_648:\n        /* \"#utility.yul\":25700:25839   */\n      swap1\n      pop\n        /* \"#utility.yul\":25427:25846   */\n      swap2\n      swap1\n      pop\n      jump\t// out\n        /* \"#utility.yul\":25852:26023   */\n    tag_387:\n        /* \"#utility.yul\":25992:26015   */\n      0x4c6f616e20616c72656164792061636365707465640000000000000000000000\n        /* \"#utility.yul\":25988:25989   */\n      0x00\n        /* \"#utility.yul\":25980:25986   */\n      dup3\n        /* \"#utility.yul\":25976:25990   */\n      add\n        /* \"#utility.yul\":25969:26016   */\n      mstore\n        /* \"#utility.yul\":25852:26023   */\n      pop\n      jump\t// out\n        /* \"#utility.yul\":26029:26395   */\n    tag_388:\n        /* \"#utility.yul\":26171:26174   */\n      0x00\n        /* \"#utility.yul\":26192:26259   */\n      tag_651\n        /* \"#utility.yul\":26256:26258   */\n      0x15\n        /* \"#utility.yul\":26251:26254   */\n      dup4\n        /* \"#utility.yul\":26192:26259   */\n      tag_325\n      jump\t// in\n    tag_651:\n        /* \"#utility.yul\":26185:26259   */\n      swap2\n      pop\n        /* \"#utility.yul\":26268:26361   */\n      tag_652\n        /* \"#utility.yul\":26357:26360   */\n      dup3\n        /* \"#utility.yul\":26268:26361   */\n      tag_387\n      jump\t// in\n    tag_652:\n        /* \"#utility.yul\":26386:26388   */\n      0x20\n        /* \"#utility.yul\":26381:26384   */\n      dup3\n        /* \"#utility.yul\":26377:26389   */\n      add\n        /* \"#utility.yul\":26370:26389   */\n      swap1\n      pop\n        /* \"#utility.yul\":26029:26395   */\n      swap2\n      swap1\n      pop\n      jump\t// out\n        /* \"#utility.yul\":26401:26820   */\n    tag_223:\n        /* \"#utility.yul\":26567:26571   */\n      0x00\n        /* \"#utility.yul\":26605:26607   */\n      0x20\n        /* \"#utility.yul\":26594:26603   */\n      dup3\n        /* \"#utility.yul\":26590:26608   */\n      add\n        /* \"#utility.yul\":26582:26608   */\n      swap1\n      pop\n        /* \"#utility.yul\":26654:26663   */\n      dup2\n        /* \"#utility.yul\":26648:26652   */\n      dup2\n        /* \"#utility.yul\":26644:26664   */\n      sub\n        /* \"#utility.yul\":26640:26641   */\n      0x00\n        /* \"#utility.yul\":26629:26638   */\n      dup4\n        /* \"#utility.yul\":26625:26642   */\n      add\n        /* \"#utility.yul\":26618:26665   */\n      mstore\n        /* \"#utility.yul\":26682:26813   */\n      tag_654\n        /* \"#utility.yul\":26808:26812   */\n      dup2\n        /* \"#utility.yul\":26682:26813   */\n      tag_388\n      jump\t// in\n    tag_654:\n        /* \"#utility.yul\":26674:26813   */\n      swap1\n      pop\n        /* \"#utility.yul\":26401:26820   */\n      swap2\n      swap1\n      pop\n      jump\t// out\n        /* \"#utility.yul\":26826:26998   */\n    tag_389:\n        /* \"#utility.yul\":26966:26990   */\n      0x4f6e6c79206c656e6465722063616e2063616e63656c00000000000000000000\n        /* \"#utility.yul\":26962:26963   */\n      0x00\n        /* \"#utility.yul\":26954:26960   */\n      dup3\n        /* \"#utility.yul\":26950:26964   */\n      add\n        /* \"#utility.yul\":26943:26991   */\n      mstore\n        /* \"#utility.yul\":26826:26998   */\n      pop\n      jump\t// out\n        /* \"#utility.yul\":27004:27370   */\n    tag_390:\n        /* \"#utility.yul\":27146:27149   */\n      0x00\n        /* \"#utility.yul\":27167:27234   */\n      tag_657\n        /* \"#utility.yul\":27231:27233   */\n      0x16\n        /* \"#utility.yul\":27226:27229   */\n      dup4\n        /* \"#utility.yul\":27167:27234   */\n      tag_325\n      jump\t// in\n    tag_657:\n        /* \"#utility.yul\":27160:27234   */\n      swap2\n      pop\n        /* \"#utility.yul\":27243:27336   */\n      tag_658\n        /* \"#utility.yul\":27332:27335   */\n      dup3\n        /* \"#utility.yul\":27243:27336   */\n      tag_389\n      jump\t// in\n    tag_658:\n        /* \"#utility.yul\":27361:27363   */\n      0x20\n        /* \"#utility.yul\":27356:27359   */\n      dup3\n        /* \"#utility.yul\":27352:27364   */\n      add\n        /* \"#utility.yul\":27345:27364   */\n      swap1\n      pop\n        /* \"#utility.yul\":27004:27370   */\n      swap2\n      swap1\n      pop\n      jump\t// out\n        /* \"#utility.yul\":27376:27795   */\n    tag_230:\n        /* \"#utility.yul\":27542:27546   */\n      0x00\n        /* \"#utility.yul\":27580:27582   */\n      0x20\n        /* \"#utility.yul\":27569:27578   */\n      dup3\n        /* \"#utility.yul\":27565:27583   */\n      add\n        /* \"#utility.yul\":27557:27583   */\n      swap1\n      pop\n        /* \"#utility.yul\":27629:27638   */\n      dup2\n        /* \"#utility.yul\":27623:27627   */\n      dup2\n        /* \"#utility.yul\":27619:27639   */\n      sub\n        /* \"#utility.yul\":27615:27616   */\n      0x00\n        /* \"#utility.yul\":27604:27613   */\n      dup4\n        /* \"#utility.yul\":27600:27617   */\n      add\n        /* \"#utility.yul\":27593:27640   */\n      mstore\n        /* \"#utility.yul\":27657:27788   */\n      tag_660\n        /* \"#utility.yul\":27783:27787   */\n      dup2\n        /* \"#utility.yul\":27657:27788   */\n      tag_390\n      jump\t// in\n    tag_660:\n        /* \"#utility.yul\":27649:27788   */\n      swap1\n      pop\n        /* \"#utility.yul\":27376:27795   */\n      swap2\n      swap1\n      pop\n      jump\t// out\n        /* \"#utility.yul\":27801:27973   */\n    tag_391:\n        /* \"#utility.yul\":27941:27965   */\n      0x4c6f616e20616c72656164792063616e63656c6c656400000000000000000000\n        /* \"#utility.yul\":27937:27938   */\n      0x00\n        /* \"#utility.yul\":27929:27935   */\n      dup3\n        /* \"#utility.yul\":27925:27939   */\n      add\n        /* \"#utility.yul\":27918:27966   */\n      mstore\n        /* \"#utility.yul\":27801:27973   */\n      pop\n      jump\t// out\n        /* \"#utility.yul\":27979:28345   */\n    tag_392:\n        /* \"#utility.yul\":28121:28124   */\n      0x00\n        /* \"#utility.yul\":28142:28209   */\n      tag_663\n        /* \"#utility.yul\":28206:28208   */\n      0x16\n        /* \"#utility.yul\":28201:28204   */\n      dup4\n        /* \"#utility.yul\":28142:28209   */\n      tag_325\n      jump\t// in\n    tag_663:\n        /* \"#utility.yul\":28135:28209   */\n      swap2\n      pop\n        /* \"#utility.yul\":28218:28311   */\n      tag_664\n        /* \"#utility.yul\":28307:28310   */\n      dup3\n        /* \"#utility.yul\":28218:28311   */\n      tag_391\n      jump\t// in\n    tag_664:\n        /* \"#utility.yul\":28336:28338   */\n      0x20\n        /* \"#utility.yul\":28331:28334   */\n      dup3\n        /* \"#utility.yul\":28327:28339   */\n      add\n        /* \"#utility.yul\":28320:28339   */\n      swap1\n      pop\n        /* \"#utility.yul\":27979:28345   */\n      swap2\n      swap1\n      pop\n      jump\t// out\n        /* \"#utility.yul\":28351:28770   */\n    tag_233:\n        /* \"#utility.yul\":28517:28521   */\n      0x00\n        /* \"#utility.yul\":28555:28557   */\n      0x20\n        /* \"#utility.yul\":28544:28553   */\n      dup3\n        /* \"#utility.yul\":28540:28558   */\n      add\n        /* \"#utility.yul\":28532:28558   */\n      swap1\n      pop\n        /* \"#utility.yul\":28604:28613   */\n      dup2\n        /* \"#utility.yul\":28598:28602   */\n      dup2\n        /* \"#utility.yul\":28594:28614   */\n      sub\n        /* \"#utility.yul\":28590:28591   */\n      0x00\n        /* \"#utility.yul\":28579:28588   */\n      dup4\n        /* \"#utility.yul\":28575:28592   */\n      add\n        /* \"#utility.yul\":28568:28615   */\n      mstore\n        /* \"#utility.yul\":28632:28763   */\n      tag_666\n        /* \"#utility.yul\":28758:28762   */\n      dup2\n        /* \"#utility.yul\":28632:28763   */\n      tag_392\n      jump\t// in\n    tag_666:\n        /* \"#utility.yul\":28624:28763   */\n      swap1\n      pop\n        /* \"#utility.yul\":28351:28770   */\n      swap2\n      swap1\n      pop\n      jump\t// out\n        /* \"#utility.yul\":28776:28956   */\n    tag_393:\n        /* \"#utility.yul\":28916:28948   */\n      0x43616e6e6f742063616e63656c20616e206163636570746564206c6f616e0000\n        /* \"#utility.yul\":28912:28913   */\n      0x00\n        /* \"#utility.yul\":28904:28910   */\n      dup3\n        /* \"#utility.yul\":28900:28914   */\n      add\n        /* \"#utility.yul\":28893:28949   */\n      mstore\n        /* \"#utility.yul\":28776:28956   */\n      pop\n      jump\t// out\n        /* \"#utility.yul\":28962:29328   */\n    tag_394:\n        /* \"#utility.yul\":29104:29107   */\n      0x00\n        /* \"#utility.yul\":29125:29192   */\n      tag_669\n        /* \"#utility.yul\":29189:29191   */\n      0x1e\n        /* \"#utility.yul\":29184:29187   */\n      dup4\n        /* \"#utility.yul\":29125:29192   */\n      tag_325\n      jump\t// in\n    tag_669:\n        /* \"#utility.yul\":29118:29192   */\n      swap2\n      pop\n        /* \"#utility.yul\":29201:29294   */\n      tag_670\n        /* \"#utility.yul\":29290:29293   */\n      dup3\n        /* \"#utility.yul\":29201:29294   */\n      tag_393\n      jump\t// in\n    tag_670:\n        /* \"#utility.yul\":29319:29321   */\n      0x20\n        /* \"#utility.yul\":29314:29317   */\n      dup3\n        /* \"#utility.yul\":29310:29322   */\n      add\n        /* \"#utility.yul\":29303:29322   */\n      swap1\n      pop\n        /* \"#utility.yul\":28962:29328   */\n      swap2\n      swap1\n      pop\n      jump\t// out\n        /* \"#utility.yul\":29334:29753   */\n    tag_236:\n        /* \"#utility.yul\":29500:29504   */\n      0x00\n        /* \"#utility.yul\":29538:29540   */\n      0x20\n        /* \"#utility.yul\":29527:29536   */\n      dup3\n        /* \"#utility.yul\":29523:29541   */\n      add\n        /* \"#utility.yul\":29515:29541   */\n      swap1\n      pop\n        /* \"#utility.yul\":29587:29596   */\n      dup2\n        /* \"#utility.yul\":29581:29585   */\n      dup2\n        /* \"#utility.yul\":29577:29597   */\n      sub\n        /* \"#utility.yul\":29573:29574   */\n      0x00\n        /* \"#utility.yul\":29562:29571   */\n      dup4\n        /* \"#utility.yul\":29558:29575   */\n      add\n        /* \"#utility.yul\":29551:29598   */\n      mstore\n        /* \"#utility.yul\":29615:29746   */\n      tag_672\n        /* \"#utility.yul\":29741:29745   */\n      dup2\n        /* \"#utility.yul\":29615:29746   */\n      tag_394\n      jump\t// in\n    tag_672:\n        /* \"#utility.yul\":29607:29746   */\n      swap1\n      pop\n        /* \"#utility.yul\":29334:29753   */\n      swap2\n      swap1\n      pop\n      jump\t// out\n        /* \"#utility.yul\":29759:30201   */\n    tag_268:\n        /* \"#utility.yul\":29908:29912   */\n      0x00\n        /* \"#utility.yul\":29946:29948   */\n      0x60\n        /* \"#utility.yul\":29935:29944   */\n      dup3\n        /* \"#utility.yul\":29931:29949   */\n      add\n        /* \"#utility.yul\":29923:29949   */\n      swap1\n      pop\n        /* \"#utility.yul\":29959:30030   */\n      tag_674\n        /* \"#utility.yul\":30027:30028   */\n      0x00\n        /* \"#utility.yul\":30016:30025   */\n      dup4\n        /* \"#utility.yul\":30012:30029   */\n      add\n        /* \"#utility.yul\":30003:30009   */\n      dup7\n        /* \"#utility.yul\":29959:30030   */\n      tag_353\n      jump\t// in\n    tag_674:\n        /* \"#utility.yul\":30040:30112   */\n      tag_675\n        /* \"#utility.yul\":30108:30110   */\n      0x20\n        /* \"#utility.yul\":30097:30106   */\n      dup4\n        /* \"#utility.yul\":30093:30111   */\n      add\n        /* \"#utility.yul\":30084:30090   */\n      dup6\n        /* \"#utility.yul\":30040:30112   */\n      tag_341\n      jump\t// in\n    tag_675:\n        /* \"#utility.yul\":30122:30194   */\n      tag_676\n        /* \"#utility.yul\":30190:30192   */\n      0x40\n        /* \"#utility.yul\":30179:30188   */\n      dup4\n        /* \"#utility.yul\":30175:30193   */\n      add\n        /* \"#utility.yul\":30166:30172   */\n      dup5\n        /* \"#utility.yul\":30122:30194   */\n      tag_341\n      jump\t// in\n    tag_676:\n        /* \"#utility.yul\":29759:30201   */\n      swap5\n      swap4\n      pop\n      pop\n      pop\n      pop\n      jump\t// out\n        /* \"#utility.yul\":30207:30649   */\n    tag_303:\n        /* \"#utility.yul\":30356:30360   */\n      0x00\n        /* \"#utility.yul\":30394:30396   */\n      0x60\n        /* \"#utility.yul\":30383:30392   */\n      dup3\n        /* \"#utility.yul\":30379:30397   */\n      add\n        /* \"#utility.yul\":30371:30397   */\n      swap1\n      pop\n        /* \"#utility.yul\":30407:30478   */\n      tag_678\n        /* \"#utility.yul\":30475:30476   */\n      0x00\n        /* \"#utility.yul\":30464:30473   */\n      dup4\n        /* \"#utility.yul\":30460:30477   */\n      add\n        /* \"#utility.yul\":30451:30457   */\n      dup7\n        /* \"#utility.yul\":30407:30478   */\n      tag_353\n      jump\t// in\n    tag_678:\n        /* \"#utility.yul\":30488:30560   */\n      tag_679\n        /* \"#utility.yul\":30556:30558   */\n      0x20\n        /* \"#utility.yul\":30545:30554   */\n      dup4\n        /* \"#utility.yul\":30541:30559   */\n      add\n        /* \"#utility.yul\":30532:30538   */\n      dup6\n        /* \"#utility.yul\":30488:30560   */\n      tag_353\n      jump\t// in\n    tag_679:\n        /* \"#utility.yul\":30570:30642   */\n      tag_680\n        /* \"#utility.yul\":30638:30640   */\n      0x40\n        /* \"#utility.yul\":30627:30636   */\n      dup4\n        /* \"#utility.yul\":30623:30641   */\n      add\n        /* \"#utility.yul\":30614:30620   */\n      dup5\n        /* \"#utility.yul\":30570:30642   */\n      tag_341\n      jump\t// in\n    tag_680:\n        /* \"#utility.yul\":30207:30649   */\n      swap5\n      swap4\n      pop\n      pop\n      pop\n      pop\n      jump\t// out\n        /* \"#utility.yul\":30655:30987   */\n    tag_317:\n        /* \"#utility.yul\":30776:30780   */\n      0x00\n        /* \"#utility.yul\":30814:30816   */\n      0x40\n        /* \"#utility.yul\":30803:30812   */\n      dup3\n        /* \"#utility.yul\":30799:30817   */\n      add\n        /* \"#utility.yul\":30791:30817   */\n      swap1\n      pop\n        /* \"#utility.yul\":30827:30898   */\n      tag_682\n        /* \"#utility.yul\":30895:30896   */\n      0x00\n        /* \"#utility.yul\":30884:30893   */\n      dup4\n        /* \"#utility.yul\":30880:30897   */\n      add\n        /* \"#utility.yul\":30871:30877   */\n      dup6\n        /* \"#utility.yul\":30827:30898   */\n      tag_353\n      jump\t// in\n    tag_682:\n        /* \"#utility.yul\":30908:30980   */\n      tag_683\n        /* \"#utility.yul\":30976:30978   */\n      0x20\n        /* \"#utility.yul\":30965:30974   */\n      dup4\n        /* \"#utility.yul\":30961:30979   */\n      add\n        /* \"#utility.yul\":30952:30958   */\n      dup5\n        /* \"#utility.yul\":30908:30980   */\n      tag_341\n      jump\t// in\n    tag_683:\n        /* \"#utility.yul\":30655:30987   */\n      swap4\n      swap3\n      pop\n      pop\n      pop\n      jump\t// out\n\n    auxdata: 0xa2646970667358221220e2f6cfef6bd258567900ab53aa842db56cefe0976b991d7f62bb424f4e82fedd64736f6c634300081a0033\n}\n",
				"bytecode": {
					"linkReferences": {},
					"object": "608060405260016006556001600955348015610019575f80fd5b50336040518060400160405280600b81526020017f437265646974546f6b656e0000000000000000000000000000000000000000008152506040518060400160405280600381526020017f4352440000000000000000000000000000000000000000000000000000000000815250816003908161009691906106e2565b5080600490816100a691906106e2565b5050505f73ffffffffffffffffffffffffffffffffffffffff168173ffffffffffffffffffffffffffffffffffffffff1603610119575f6040517f1e4fbdf700000000000000000000000000000000000000000000000000000000815260040161011091906107f0565b60405180910390fd5b6101288161014760201b60201c565b505f633b9aca009050610141338261020a60201b60201c565b506108c6565b5f60055f9054906101000a900473ffffffffffffffffffffffffffffffffffffffff1690508160055f6101000a81548173ffffffffffffffffffffffffffffffffffffffff021916908373ffffffffffffffffffffffffffffffffffffffff1602179055508173ffffffffffffffffffffffffffffffffffffffff168173ffffffffffffffffffffffffffffffffffffffff167f8be0079c531659141344cd1fd0a4f28419497f9722a3daafe3b4186f6b6457e060405160405180910390a35050565b5f73ffffffffffffffffffffffffffffffffffffffff168273ffffffffffffffffffffffffffffffffffffffff160361027a575f6040517fec442f0500000000000000000000000000000000000000000000000000000000815260040161027191906107f0565b60405180910390fd5b61028b5f838361028f60201b60201c565b5050565b5f73ffffffffffffffffffffffffffffffffffffffff168373ffffffffffffffffffffffffffffffffffffffff16036102df578060025f8282546102d39190610836565b925050819055506103ad565b5f805f8573ffffffffffffffffffffffffffffffffffffffff1673ffffffffffffffffffffffffffffffffffffffff1681526020019081526020015f2054905081811015610368578381836040517fe450d38c00000000000000000000000000000000000000000000000000000000815260040161035f93929190610878565b60405180910390fd5b8181035f808673ffffffffffffffffffffffffffffffffffffffff1673ffffffffffffffffffffffffffffffffffffffff1681526020019081526020015f2081905550505b5f73ffffffffffffffffffffffffffffffffffffffff168273ffffffffffffffffffffffffffffffffffffffff16036103f4578060025f828254039250508190555061043e565b805f808473ffffffffffffffffffffffffffffffffffffffff1673ffffffffffffffffffffffffffffffffffffffff1681526020019081526020015f205f82825401925050819055505b8173ffffffffffffffffffffffffffffffffffffffff168373ffffffffffffffffffffffffffffffffffffffff167fddf252ad1be2c89b69c2b068fc378daa952ba7f163c4a11628f55a4df523b3ef8360405161049b91906108ad565b60405180910390a3505050565b5f81519050919050565b7f4e487b71000000000000000000000000000000000000000000000000000000005f52604160045260245ffd5b7f4e487b71000000000000000000000000000000000000000000000000000000005f52602260045260245ffd5b5f600282049050600182168061052357607f821691505b602082108103610536576105356104df565b5b50919050565b5f819050815f5260205f209050919050565b5f6020601f8301049050919050565b5f82821b905092915050565b5f600883026105987fffffffffffffffffffffffffffffffffffffffffffffffffffffffffffffffff8261055d565b6105a2868361055d565b95508019841693508086168417925050509392505050565b5f819050919050565b5f819050919050565b5f6105e66105e16105dc846105ba565b6105c3565b6105ba565b9050919050565b5f819050919050565b6105ff836105cc565b61061361060b826105ed565b848454610569565b825550505050565b5f90565b61062761061b565b6106328184846105f6565b505050565b5b818110156106555761064a5f8261061f565b600181019050610638565b5050565b601f82111561069a5761066b8161053c565b6106748461054e565b81016020851015610683578190505b61069761068f8561054e565b830182610637565b50505b505050565b5f82821c905092915050565b5f6106ba5f198460080261069f565b1980831691505092915050565b5f6106d283836106ab565b9150826002028217905092915050565b6106eb826104a8565b67ffffffffffffffff811115610704576107036104b2565b5b61070e825461050c565b610719828285610659565b5f60209050601f83116001811461074a575f8415610738578287015190505b61074285826106c7565b8655506107a9565b601f1984166107588661053c565b5f5b8281101561077f5784890151825560018201915060208501945060208101905061075a565b8683101561079c5784890151610798601f8916826106ab565b8355505b6001600288020188555050505b505050505050565b5f73ffffffffffffffffffffffffffffffffffffffff82169050919050565b5f6107da826107b1565b9050919050565b6107ea816107d0565b82525050565b5f6020820190506108035f8301846107e1565b92915050565b7f4e487b71000000000000000000000000000000000000000000000000000000005f52601160045260245ffd5b5f610840826105ba565b915061084b836105ba565b925082820190508082111561086357610862610809565b5b92915050565b610872816105ba565b82525050565b5f60608201905061088b5f8301866107e1565b6108986020830185610869565b6108a56040830184610869565b949350505050565b5f6020820190506108c05f830184610869565b92915050565b612dc5806108d35f395ff3fe608060405234801561000f575f80fd5b5060043610610156575f3560e01c80638da5cb5b116100c1578063adfbe22f1161007a578063adfbe22f146103da578063bdbfa3de146103f6578063c2fdbdad14610412578063dd62ed3e14610442578063e1ec3c6814610472578063f2fde38b146104ad57610156565b80638da5cb5b146102f257806395d89b4114610310578063a5410a661461032e578063a6f5b3b31461035e578063a9059cbb1461038e578063ab7b1c89146103be57610156565b806338d160111161011357806338d160111461024457806370a0823114610260578063715018a61461029057806375794a3c1461029a578063759135a1146102b857806387c51459146102d457610156565b806306fdde031461015a578063095ea7b31461017857806318160ddd146101a85780631a2ff598146101c657806323b872dd146101f6578063313ce56714610226575b5f80fd5b6101626104c9565b60405161016f9190611e8f565b60405180910390f35b610192600480360381019061018d9190611f4d565b610559565b60405161019f9190611fa5565b60405180910390f35b6101b061057b565b6040516101bd9190611fcd565b60405180910390f35b6101e060048036038101906101db9190612112565b610584565b6040516101ed9190611fcd565b60405180910390f35b610210600480360381019061020b9190612192565b61095a565b60405161021d9190611fa5565b60405180910390f35b61022e610988565b60405161023b91906121fd565b60405180910390f35b61025e60048036038101906102599190612216565b61098c565b005b61027a60048036038101906102759190612216565b610a2f565b6040516102879190611fcd565b60405180910390f35b610298610a74565b005b6102a2610a87565b6040516102af9190611fcd565b60405180910390f35b6102d260048036038101906102cd9190612241565b610a8d565b005b6102dc610b90565b6040516102e99190611fcd565b60405180910390f35b6102fa610b96565b604051610307919061227b565b60405180910390f35b610318610bbe565b6040516103259190611e8f565b60405180910390f35b61034860048036038101906103439190612216565b610c4e565b6040516103559190611fa5565b60405180910390f35b61037860048036038101906103739190612241565b610c6b565b6040516103859190611fcd565b60405180910390f35b6103a860048036038101906103a39190611f4d565b610cad565b6040516103b59190611fa5565b60405180910390f35b6103d860048036038101906103d39190612241565b610ccf565b005b6103f460048036038101906103ef9190612241565b610ebf565b005b610410600480360381019061040b9190612241565b61103d565b005b61042c60048036038101906104279190612241565b6111ec565b6040516104399190611fa5565b60405180910390f35b61045c60048036038101906104579190612294565b611258565b6040516104699190611fcd565b60405180910390f35b61048c60048036038101906104879190612241565b6112da565b6040516104a49c9b9a999897969594939291906122d2565b60405180910390f35b6104c760048036038101906104c29190612216565b61142c565b005b6060600380546104d8906123be565b80601f0160208091040260200160405190810160405280929190818152602001828054610504906123be565b801561054f5780601f106105265761010080835404028352916020019161054f565b820191905f5260205f20905b81548152906001019060200180831161053257829003601f168201915b5050505050905090565b5f806105636114b0565b90506105708185856114b7565b600191505092915050565b5f600254905090565b5f60085f8673ffffffffffffffffffffffffffffffffffffffff1673ffffffffffffffffffffffffffffffffffffffff1681526020019081526020015f205f9054906101000a900460ff1661060e576040517f08c379a000000000000000000000000000000000000000000000000000000000815260040161060590612438565b60405180910390fd5b8361061833610a2f565b1015610659576040517f08c379a0000000000000000000000000000000000000000000000000000000008152600401610650906124a0565b60405180910390fd5b836106643330611258565b10156106a5576040517f08c379a000000000000000000000000000000000000000000000000000000000815260040161069c90612508565b60405180910390fd5b5f601e90506106b53330876114c9565b5f60065f8154809291906106c890612553565b9190505590505f60095f8154809291906106e190612553565b9190505590506040518061018001604052808973ffffffffffffffffffffffffffffffffffffffff1681526020013373ffffffffffffffffffffffffffffffffffffffff168152602001888152602001878152602001848152602001620151808561074c919061259a565b4261075791906125db565b81526020015f151581526020015f151581526020015f151581526020018381526020015f151581526020018681525060075f8381526020019081526020015f205f820151815f015f6101000a81548173ffffffffffffffffffffffffffffffffffffffff021916908373ffffffffffffffffffffffffffffffffffffffff1602179055506020820151816001015f6101000a81548173ffffffffffffffffffffffffffffffffffffffff021916908373ffffffffffffffffffffffffffffffffffffffff16021790555060408201518160020155606082015181600301556080820151816004015560a0820151816005015560c0820151816006015f6101000a81548160ff02191690831515021790555060e08201518160060160016101000a81548160ff0219169083151502179055506101008201518160060160026101000a81548160ff0219169083151502179055506101208201518160070155610140820151816008015f6101000a81548160ff0219169083151502179055506101608201518160090190816108ea91906127ab565b509050507f065f30d94790e6e129604916065477a26eebb0e2a87f79e6b05b21a0f662d9478189338a8a87620151808a610924919061259a565b4261092f91906125db565b8c60405161094498979695949392919061287a565b60405180910390a1819350505050949350505050565b5f806109646114b0565b90506109718582856114fb565b61097c85858561158e565b60019150509392505050565b5f90565b61099461167e565b600160085f8373ffffffffffffffffffffffffffffffffffffffff1673ffffffffffffffffffffffffffffffffffffffff1681526020019081526020015f205f6101000a81548160ff0219169083151502179055508073ffffffffffffffffffffffffffffffffffffffff167f65c84ee842eafc291d1272a6e3d10f8c454c4288e63f5db3f7be2b3012f321a960405160405180910390a250565b5f805f8373ffffffffffffffffffffffffffffffffffffffff1673ffffffffffffffffffffffffffffffffffffffff1681526020019081526020015f20549050919050565b610a7c61167e565b610a855f611705565b565b60065481565b5f60075f8381526020019081526020015f20905080600501544211610ae7576040517f08c379a0000000000000000000000000000000000000000000000000000000008152600401610ade9061296d565b60405180910390fd5b806006015f9054906101000a900460ff1615610b38576040517f08c379a0000000000000000000000000000000000000000000000000000000008152600401610b2f906129d5565b60405180910390fd5b60018160060160026101000a81548160ff0219169083151502179055507f0ab9f35a07aca8965fede1a225ff17bd92f8d63aa4eb9a61ace1e99495e2980d82604051610b849190611fcd565b60405180910390a15050565b60095481565b5f60055f9054906101000a900473ffffffffffffffffffffffffffffffffffffffff16905090565b606060048054610bcd906123be565b80601f0160208091040260200160405190810160405280929190818152602001828054610bf9906123be565b8015610c445780601f10610c1b57610100808354040283529160200191610c44565b820191905f5260205f20905b815481529060010190602001808311610c2757829003601f168201915b5050505050905090565b6008602052805f5260405f205f915054906101000a900460ff1681565b5f8060075f8481526020019081526020015f20905080600501544210610c94575f915050610ca8565b428160050154610ca491906129f3565b9150505b919050565b5f80610cb76114b0565b9050610cc481858561158e565b600191505092915050565b5f60075f8381526020019081526020015f209050805f015f9054906101000a900473ffffffffffffffffffffffffffffffffffffffff1673ffffffffffffffffffffffffffffffffffffffff163373ffffffffffffffffffffffffffffffffffffffff1614610d73576040517f08c379a0000000000000000000000000000000000000000000000000000000008152600401610d6a90612a70565b60405180910390fd5b8060060160019054906101000a900460ff16610dc4576040517f08c379a0000000000000000000000000000000000000000000000000000000008152600401610dbb90612ad8565b60405180910390fd5b806006015f9054906101000a900460ff1615610e15576040517f08c379a0000000000000000000000000000000000000000000000000000000008152600401610e0c906129d5565b60405180910390fd5b5f81600301548260020154610e2a91906125db565b9050610e5a33836001015f9054906101000a900473ffffffffffffffffffffffffffffffffffffffff16836114c9565b6001826006015f6101000a81548160ff021916908315150217905550610e8382600701546117c8565b7f9a7851747cd7ffb3fe0a32caf3da48b31f27cebe131267051640f8b72fc4718683604051610eb29190611fcd565b60405180910390a1505050565b5f60075f8381526020019081526020015f209050805f015f9054906101000a900473ffffffffffffffffffffffffffffffffffffffff1673ffffffffffffffffffffffffffffffffffffffff163373ffffffffffffffffffffffffffffffffffffffff1614610f63576040517f08c379a0000000000000000000000000000000000000000000000000000000008152600401610f5a90612b40565b60405180910390fd5b8060060160019054906101000a900460ff1615610fb5576040517f08c379a0000000000000000000000000000000000000000000000000000000008152600401610fac90612ba8565b60405180910390fd5b60018160060160016101000a81548160ff021916908315150217905550611002815f015f9054906101000a900473ffffffffffffffffffffffffffffffffffffffff16826002015461186c565b7f8313f00f3154c2e8509a2ee261c618804a495403d3ac94fe5fb833af9d13cb27826040516110319190611fcd565b60405180910390a15050565b5f60075f8381526020019081526020015f209050806001015f9054906101000a900473ffffffffffffffffffffffffffffffffffffffff1673ffffffffffffffffffffffffffffffffffffffff163373ffffffffffffffffffffffffffffffffffffffff16146110e2576040517f08c379a00000000000000000000000000000000000000000000000000000000081526004016110d990612c10565b60405180910390fd5b8060060160029054906101000a900460ff1615611134576040517f08c379a000000000000000000000000000000000000000000000000000000000815260040161112b90612c78565b60405180910390fd5b8060060160019054906101000a900460ff1615611186576040517f08c379a000000000000000000000000000000000000000000000000000000000815260040161117d90612ce0565b60405180910390fd5b61119433826002015461186c565b60018160060160026101000a81548160ff0219169083151502179055507fdb3578c2b080f19424234c3a83e34455b4b06e90bf24b62f4e13a9ed82fbf0ed826040516111e09190611fcd565b60405180910390a15050565b5f80600190505b60095481101561124e578260075f8381526020019081526020015f2060070154036112415760075f8281526020019081526020015f206008015f9054906101000a900460ff16915050611253565b80806001019150506111f3565b505f90505b919050565b5f60015f8473ffffffffffffffffffffffffffffffffffffffff1673ffffffffffffffffffffffffffffffffffffffff1681526020019081526020015f205f8373ffffffffffffffffffffffffffffffffffffffff1673ffffffffffffffffffffffffffffffffffffffff1681526020019081526020015f2054905092915050565b6007602052805f5260405f205f91509050805f015f9054906101000a900473ffffffffffffffffffffffffffffffffffffffff1690806001015f9054906101000a900473ffffffffffffffffffffffffffffffffffffffff1690806002015490806003015490806004015490806005015490806006015f9054906101000a900460ff16908060060160019054906101000a900460ff16908060060160029054906101000a900460ff1690806007015490806008015f9054906101000a900460ff16908060090180546113ab906123be565b80601f01602080910402602001604051908101604052809291908181526020018280546113d7906123be565b80156114225780601f106113f957610100808354040283529160200191611422565b820191905f5260205f20905b81548152906001019060200180831161140557829003601f168201915b505050505090508c565b61143461167e565b5f73ffffffffffffffffffffffffffffffffffffffff168173ffffffffffffffffffffffffffffffffffffffff16036114a4575f6040517f1e4fbdf700000000000000000000000000000000000000000000000000000000815260040161149b919061227b565b60405180910390fd5b6114ad81611705565b50565b5f33905090565b6114c4838383600161189b565b505050565b6114f68383833073ffffffffffffffffffffffffffffffffffffffff16611a6a909392919063ffffffff16565b505050565b5f6115068484611258565b90507fffffffffffffffffffffffffffffffffffffffffffffffffffffffffffffffff8110156115885781811015611579578281836040517ffb8f41b200000000000000000000000000000000000000000000000000000000815260040161157093929190612cfe565b60405180910390fd5b61158784848484035f61189b565b5b50505050565b5f73ffffffffffffffffffffffffffffffffffffffff168373ffffffffffffffffffffffffffffffffffffffff16036115fe575f6040517f96c6fd1e0000000000000000000000000000000000000000000000000000000081526004016115f5919061227b565b60405180910390fd5b5f73ffffffffffffffffffffffffffffffffffffffff168273ffffffffffffffffffffffffffffffffffffffff160361166e575f6040517fec442f05000000000000000000000000000000000000000000000000000000008152600401611665919061227b565b60405180910390fd5b611679838383611aec565b505050565b6116866114b0565b73ffffffffffffffffffffffffffffffffffffffff166116a4610b96565b73ffffffffffffffffffffffffffffffffffffffff1614611703576116c76114b0565b6040517f118cdaa70000000000000000000000000000000000000000000000000000000081526004016116fa919061227b565b60405180910390fd5b565b5f60055f9054906101000a900473ffffffffffffffffffffffffffffffffffffffff1690508160055f6101000a81548173ffffffffffffffffffffffffffffffffffffffff021916908373ffffffffffffffffffffffffffffffffffffffff1602179055508173ffffffffffffffffffffffffffffffffffffffff168173ffffffffffffffffffffffffffffffffffffffff167f8be0079c531659141344cd1fd0a4f28419497f9722a3daafe3b4186f6b6457e060405160405180910390a35050565b5f600190505b600954811015611868578160075f8381526020019081526020015f20600701540361185b57600160075f8381526020019081526020015f206008015f6101000a81548160ff0219169083151502179055507f3c176691ca154a2f6fe978a2a633a33ee77dbe2902e67a75400720845a4b2ce18260405161184e9190611fcd565b60405180910390a1611868565b80806001019150506117ce565b5050565b61189782823073ffffffffffffffffffffffffffffffffffffffff16611d059092919063ffffffff16565b5050565b5f73ffffffffffffffffffffffffffffffffffffffff168473ffffffffffffffffffffffffffffffffffffffff160361190b575f6040517fe602df05000000000000000000000000000000000000000000000000000000008152600401611902919061227b565b60405180910390fd5b5f73ffffffffffffffffffffffffffffffffffffffff168373ffffffffffffffffffffffffffffffffffffffff160361197b575f6040517f94280d62000000000000000000000000000000000000000000000000000000008152600401611972919061227b565b60405180910390fd5b8160015f8673ffffffffffffffffffffffffffffffffffffffff1673ffffffffffffffffffffffffffffffffffffffff1681526020019081526020015f205f8573ffffffffffffffffffffffffffffffffffffffff1673ffffffffffffffffffffffffffffffffffffffff1681526020019081526020015f20819055508015611a64578273ffffffffffffffffffffffffffffffffffffffff168473ffffffffffffffffffffffffffffffffffffffff167f8c5be1e5ebec7d5bd14f71427d1e84f3dd0314c0f7b2291e5b200ac8c7c3b92584604051611a5b9190611fcd565b60405180910390a35b50505050565b611ae6848573ffffffffffffffffffffffffffffffffffffffff166323b872dd868686604051602401611a9f93929190612d33565b604051602081830303815290604052915060e01b6020820180517bffffffffffffffffffffffffffffffffffffffffffffffffffffffff8381831617835250505050611d84565b50505050565b5f73ffffffffffffffffffffffffffffffffffffffff168373ffffffffffffffffffffffffffffffffffffffff1603611b3c578060025f828254611b3091906125db565b92505081905550611c0a565b5f805f8573ffffffffffffffffffffffffffffffffffffffff1673ffffffffffffffffffffffffffffffffffffffff1681526020019081526020015f2054905081811015611bc5578381836040517fe450d38c000000000000000000000000000000000000000000000000000000008152600401611bbc93929190612cfe565b60405180910390fd5b8181035f808673ffffffffffffffffffffffffffffffffffffffff1673ffffffffffffffffffffffffffffffffffffffff1681526020019081526020015f2081905550505b5f73ffffffffffffffffffffffffffffffffffffffff168273ffffffffffffffffffffffffffffffffffffffff1603611c51578060025f8282540392505081905550611c9b565b805f808473ffffffffffffffffffffffffffffffffffffffff1673ffffffffffffffffffffffffffffffffffffffff1681526020019081526020015f205f82825401925050819055505b8173ffffffffffffffffffffffffffffffffffffffff168373ffffffffffffffffffffffffffffffffffffffff167fddf252ad1be2c89b69c2b068fc378daa952ba7f163c4a11628f55a4df523b3ef83604051611cf89190611fcd565b60405180910390a3505050565b611d7f838473ffffffffffffffffffffffffffffffffffffffff1663a9059cbb8585604051602401611d38929190612d68565b604051602081830303815290604052915060e01b6020820180517bffffffffffffffffffffffffffffffffffffffffffffffffffffffff8381831617835250505050611d84565b505050565b5f8060205f8451602086015f885af180611da3576040513d5f823e3d81fd5b3d92505f519150505f8214611dbc576001811415611dd7565b5f8473ffffffffffffffffffffffffffffffffffffffff163b145b15611e1957836040517f5274afe7000000000000000000000000000000000000000000000000000000008152600401611e10919061227b565b60405180910390fd5b50505050565b5f81519050919050565b5f82825260208201905092915050565b8281835e5f83830152505050565b5f601f19601f8301169050919050565b5f611e6182611e1f565b611e6b8185611e29565b9350611e7b818560208601611e39565b611e8481611e47565b840191505092915050565b5f6020820190508181035f830152611ea78184611e57565b905092915050565b5f604051905090565b5f80fd5b5f80fd5b5f73ffffffffffffffffffffffffffffffffffffffff82169050919050565b5f611ee982611ec0565b9050919050565b611ef981611edf565b8114611f03575f80fd5b50565b5f81359050611f1481611ef0565b92915050565b5f819050919050565b611f2c81611f1a565b8114611f36575f80fd5b50565b5f81359050611f4781611f23565b92915050565b5f8060408385031215611f6357611f62611eb8565b5b5f611f7085828601611f06565b9250506020611f8185828601611f39565b9150509250929050565b5f8115159050919050565b611f9f81611f8b565b82525050565b5f602082019050611fb85f830184611f96565b92915050565b611fc781611f1a565b82525050565b5f602082019050611fe05f830184611fbe565b92915050565b5f80fd5b5f80fd5b7f4e487b71000000000000000000000000000000000000000000000000000000005f52604160045260245ffd5b61202482611e47565b810181811067ffffffffffffffff8211171561204357612042611fee565b5b80604052505050565b5f612055611eaf565b9050612061828261201b565b919050565b5f67ffffffffffffffff8211156120805761207f611fee565b5b61208982611e47565b9050602081019050919050565b828183375f83830152505050565b5f6120b66120b184612066565b61204c565b9050828152602081018484840111156120d2576120d1611fea565b5b6120dd848285612096565b509392505050565b5f82601f8301126120f9576120f8611fe6565b5b81356121098482602086016120a4565b91505092915050565b5f805f806080858703121561212a57612129611eb8565b5b5f61213787828801611f06565b945050602061214887828801611f39565b935050604061215987828801611f39565b925050606085013567ffffffffffffffff81111561217a57612179611ebc565b5b612186878288016120e5565b91505092959194509250565b5f805f606084860312156121a9576121a8611eb8565b5b5f6121b686828701611f06565b93505060206121c786828701611f06565b92505060406121d886828701611f39565b9150509250925092565b5f60ff82169050919050565b6121f7816121e2565b82525050565b5f6020820190506122105f8301846121ee565b92915050565b5f6020828403121561222b5761222a611eb8565b5b5f61223884828501611f06565b91505092915050565b5f6020828403121561225657612255611eb8565b5b5f61226384828501611f39565b91505092915050565b61227581611edf565b82525050565b5f60208201905061228e5f83018461226c565b92915050565b5f80604083850312156122aa576122a9611eb8565b5b5f6122b785828601611f06565b92505060206122c885828601611f06565b9150509250929050565b5f610180820190506122e65f83018f61226c565b6122f3602083018e61226c565b612300604083018d611fbe565b61230d606083018c611fbe565b61231a608083018b611fbe565b61232760a083018a611fbe565b61233460c0830189611f96565b61234160e0830188611f96565b61234f610100830187611f96565b61235d610120830186611fbe565b61236b610140830185611f96565b81810361016083015261237e8184611e57565b90509d9c50505050505050505050505050565b7f4e487b71000000000000000000000000000000000000000000000000000000005f52602260045260245ffd5b5f60028204905060018216806123d557607f821691505b6020821081036123e8576123e7612391565b5b50919050565b7f426f72726f776572206d757374206265204b59432076657269666965640000005f82015250565b5f612422601d83611e29565b915061242d826123ee565b602082019050919050565b5f6020820190508181035f83015261244f81612416565b9050919050565b7f496e73756666696369656e742066756e647300000000000000000000000000005f82015250565b5f61248a601283611e29565b915061249582612456565b602082019050919050565b5f6020820190508181035f8301526124b78161247e565b9050919050565b7f416c6c6f77616e6365206973206e6f7420656e6f7567680000000000000000005f82015250565b5f6124f2601783611e29565b91506124fd826124be565b602082019050919050565b5f6020820190508181035f83015261251f816124e6565b9050919050565b7f4e487b71000000000000000000000000000000000000000000000000000000005f52601160045260245ffd5b5f61255d82611f1a565b91507fffffffffffffffffffffffffffffffffffffffffffffffffffffffffffffffff820361258f5761258e612526565b5b600182019050919050565b5f6125a482611f1a565b91506125af83611f1a565b92508282026125bd81611f1a565b915082820484148315176125d4576125d3612526565b5b5092915050565b5f6125e582611f1a565b91506125f083611f1a565b925082820190508082111561260857612607612526565b5b92915050565b5f819050815f5260205f209050919050565b5f6020601f8301049050919050565b5f82821b905092915050565b5f6008830261266a7fffffffffffffffffffffffffffffffffffffffffffffffffffffffffffffffff8261262f565b612674868361262f565b95508019841693508086168417925050509392505050565b5f819050919050565b5f6126af6126aa6126a584611f1a565b61268c565b611f1a565b9050919050565b5f819050919050565b6126c883612695565b6126dc6126d4826126b6565b84845461263b565b825550505050565b5f90565b6126f06126e4565b6126fb8184846126bf565b505050565b5b8181101561271e576127135f826126e8565b600181019050612701565b5050565b601f821115612763576127348161260e565b61273d84612620565b8101602085101561274c578190505b61276061275885612620565b830182612700565b50505b505050565b5f82821c905092915050565b5f6127835f1984600802612768565b1980831691505092915050565b5f61279b8383612774565b9150826002028217905092915050565b6127b482611e1f565b67ffffffffffffffff8111156127cd576127cc611fee565b5b6127d782546123be565b6127e2828285612722565b5f60209050601f831160018114612813575f8415612801578287015190505b61280b8582612790565b865550612872565b601f1984166128218661260e565b5f5b8281101561284857848901518255600182019150602085019450602081019050612823565b868310156128655784890151612861601f891682612774565b8355505b6001600288020188555050505b505050505050565b5f6101008201905061288e5f83018b611fbe565b61289b602083018a61226c565b6128a8604083018961226c565b6128b56060830188611fbe565b6128c26080830187611fbe565b6128cf60a0830186611fbe565b6128dc60c0830185611fbe565b81810360e08301526128ee8184611e57565b90509998505050505050505050565b7f4c6f616e206973207374696c6c2077697468696e2072657061796d656e7420705f8201527f6572696f64000000000000000000000000000000000000000000000000000000602082015250565b5f612957602583611e29565b9150612962826128fd565b604082019050919050565b5f6020820190508181035f8301526129848161294b565b9050919050565b7f4c6f616e20616c726561647920726570616964000000000000000000000000005f82015250565b5f6129bf601383611e29565b91506129ca8261298b565b602082019050919050565b5f6020820190508181035f8301526129ec816129b3565b9050919050565b5f6129fd82611f1a565b9150612a0883611f1a565b9250828203905081811115612a2057612a1f612526565b5b92915050565b7f4f6e6c7920626f72726f7765722063616e2072657061790000000000000000005f82015250565b5f612a5a601783611e29565b9150612a6582612a26565b602082019050919050565b5f6020820190508181035f830152612a8781612a4e565b9050919050565b7f4c6f616e206d75737420626520616363657074656420666972737400000000005f82015250565b5f612ac2601b83611e29565b9150612acd82612a8e565b602082019050919050565b5f6020820190508181035f830152612aef81612ab6565b9050919050565b7f4f6e6c7920626f72726f7765722063616e2061636365707400000000000000005f82015250565b5f612b2a601883611e29565b9150612b3582612af6565b602082019050919050565b5f6020820190508181035f830152612b5781612b1e565b9050919050565b7f4c6f616e20616c726561647920616363657074656400000000000000000000005f82015250565b5f612b92601583611e29565b9150612b9d82612b5e565b602082019050919050565b5f6020820190508181035f830152612bbf81612b86565b9050919050565b7f4f6e6c79206c656e6465722063616e2063616e63656c000000000000000000005f82015250565b5f612bfa601683611e29565b9150612c0582612bc6565b602082019050919050565b5f6020820190508181035f830152612c2781612bee565b9050919050565b7f4c6f616e20616c72656164792063616e63656c6c6564000000000000000000005f82015250565b5f612c62601683611e29565b9150612c6d82612c2e565b602082019050919050565b5f6020820190508181035f830152612c8f81612c56565b9050919050565b7f43616e6e6f742063616e63656c20616e206163636570746564206c6f616e00005f82015250565b5f612cca601e83611e29565b9150612cd582612c96565b602082019050919050565b5f6020820190508181035f830152612cf781612cbe565b9050919050565b5f606082019050612d115f83018661226c565b612d1e6020830185611fbe565b612d2b6040830184611fbe565b949350505050565b5f606082019050612d465f83018661226c565b612d53602083018561226c565b612d606040830184611fbe565b949350505050565b5f604082019050612d7b5f83018561226c565b612d886020830184611fbe565b939250505056fea2646970667358221220e2f6cfef6bd258567900ab53aa842db56cefe0976b991d7f62bb424f4e82fedd64736f6c634300081a0033",
					"opcodes": "PUSH1 0x80 PUSH1 0x40 MSTORE PUSH1 0x1 PUSH1 0x6 SSTORE PUSH1 0x1 PUSH1 0x9 SSTORE CALLVALUE DUP1 ISZERO PUSH2 0x19 JUMPI PUSH0 DUP1 REVERT JUMPDEST POP CALLER PUSH1 0x40 MLOAD DUP1 PUSH1 0x40 ADD PUSH1 0x40 MSTORE DUP1 PUSH1 0xB DUP2 MSTORE PUSH1 0x20 ADD PUSH32 0x437265646974546F6B656E000000000000000000000000000000000000000000 DUP2 MSTORE POP PUSH1 0x40 MLOAD DUP1 PUSH1 0x40 ADD PUSH1 0x40 MSTORE DUP1 PUSH1 0x3 DUP2 MSTORE PUSH1 0x20 ADD PUSH32 0x4352440000000000000000000000000000000000000000000000000000000000 DUP2 MSTORE POP DUP2 PUSH1 0x3 SWAP1 DUP2 PUSH2 0x96 SWAP2 SWAP1 PUSH2 0x6E2 JUMP JUMPDEST POP DUP1 PUSH1 0x4 SWAP1 DUP2 PUSH2 0xA6 SWAP2 SWAP1 PUSH2 0x6E2 JUMP JUMPDEST POP POP POP PUSH0 PUSH20 0xFFFFFFFFFFFFFFFFFFFFFFFFFFFFFFFFFFFFFFFF AND DUP2 PUSH20 0xFFFFFFFFFFFFFFFFFFFFFFFFFFFFFFFFFFFFFFFF AND SUB PUSH2 0x119 JUMPI PUSH0 PUSH1 0x40 MLOAD PUSH32 0x1E4FBDF700000000000000000000000000000000000000000000000000000000 DUP2 MSTORE PUSH1 0x4 ADD PUSH2 0x110 SWAP2 SWAP1 PUSH2 0x7F0 JUMP JUMPDEST PUSH1 0x40 MLOAD DUP1 SWAP2 SUB SWAP1 REVERT JUMPDEST PUSH2 0x128 DUP2 PUSH2 0x147 PUSH1 0x20 SHL PUSH1 0x20 SHR JUMP JUMPDEST POP PUSH0 PUSH4 0x3B9ACA00 SWAP1 POP PUSH2 0x141 CALLER DUP3 PUSH2 0x20A PUSH1 0x20 SHL PUSH1 0x20 SHR JUMP JUMPDEST POP PUSH2 0x8C6 JUMP JUMPDEST PUSH0 PUSH1 0x5 PUSH0 SWAP1 SLOAD SWAP1 PUSH2 0x100 EXP SWAP1 DIV PUSH20 0xFFFFFFFFFFFFFFFFFFFFFFFFFFFFFFFFFFFFFFFF AND SWAP1 POP DUP2 PUSH1 0x5 PUSH0 PUSH2 0x100 EXP DUP2 SLOAD DUP2 PUSH20 0xFFFFFFFFFFFFFFFFFFFFFFFFFFFFFFFFFFFFFFFF MUL NOT AND SWAP1 DUP4 PUSH20 0xFFFFFFFFFFFFFFFFFFFFFFFFFFFFFFFFFFFFFFFF AND MUL OR SWAP1 SSTORE POP DUP2 PUSH20 0xFFFFFFFFFFFFFFFFFFFFFFFFFFFFFFFFFFFFFFFF AND DUP2 PUSH20 0xFFFFFFFFFFFFFFFFFFFFFFFFFFFFFFFFFFFFFFFF AND PUSH32 0x8BE0079C531659141344CD1FD0A4F28419497F9722A3DAAFE3B4186F6B6457E0 PUSH1 0x40 MLOAD PUSH1 0x40 MLOAD DUP1 SWAP2 SUB SWAP1 LOG3 POP POP JUMP JUMPDEST PUSH0 PUSH20 0xFFFFFFFFFFFFFFFFFFFFFFFFFFFFFFFFFFFFFFFF AND DUP3 PUSH20 0xFFFFFFFFFFFFFFFFFFFFFFFFFFFFFFFFFFFFFFFF AND SUB PUSH2 0x27A JUMPI PUSH0 PUSH1 0x40 MLOAD PUSH32 0xEC442F0500000000000000000000000000000000000000000000000000000000 DUP2 MSTORE PUSH1 0x4 ADD PUSH2 0x271 SWAP2 SWAP1 PUSH2 0x7F0 JUMP JUMPDEST PUSH1 0x40 MLOAD DUP1 SWAP2 SUB SWAP1 REVERT JUMPDEST PUSH2 0x28B PUSH0 DUP4 DUP4 PUSH2 0x28F PUSH1 0x20 SHL PUSH1 0x20 SHR JUMP JUMPDEST POP POP JUMP JUMPDEST PUSH0 PUSH20 0xFFFFFFFFFFFFFFFFFFFFFFFFFFFFFFFFFFFFFFFF AND DUP4 PUSH20 0xFFFFFFFFFFFFFFFFFFFFFFFFFFFFFFFFFFFFFFFF AND SUB PUSH2 0x2DF JUMPI DUP1 PUSH1 0x2 PUSH0 DUP3 DUP3 SLOAD PUSH2 0x2D3 SWAP2 SWAP1 PUSH2 0x836 JUMP JUMPDEST SWAP3 POP POP DUP2 SWAP1 SSTORE POP PUSH2 0x3AD JUMP JUMPDEST PUSH0 DUP1 PUSH0 DUP6 PUSH20 0xFFFFFFFFFFFFFFFFFFFFFFFFFFFFFFFFFFFFFFFF AND PUSH20 0xFFFFFFFFFFFFFFFFFFFFFFFFFFFFFFFFFFFFFFFF AND DUP2 MSTORE PUSH1 0x20 ADD SWAP1 DUP2 MSTORE PUSH1 0x20 ADD PUSH0 KECCAK256 SLOAD SWAP1 POP DUP2 DUP2 LT ISZERO PUSH2 0x368 JUMPI DUP4 DUP2 DUP4 PUSH1 0x40 MLOAD PUSH32 0xE450D38C00000000000000000000000000000000000000000000000000000000 DUP2 MSTORE PUSH1 0x4 ADD PUSH2 0x35F SWAP4 SWAP3 SWAP2 SWAP1 PUSH2 0x878 JUMP JUMPDEST PUSH1 0x40 MLOAD DUP1 SWAP2 SUB SWAP1 REVERT JUMPDEST DUP2 DUP2 SUB PUSH0 DUP1 DUP7 PUSH20 0xFFFFFFFFFFFFFFFFFFFFFFFFFFFFFFFFFFFFFFFF AND PUSH20 0xFFFFFFFFFFFFFFFFFFFFFFFFFFFFFFFFFFFFFFFF AND DUP2 MSTORE PUSH1 0x20 ADD SWAP1 DUP2 MSTORE PUSH1 0x20 ADD PUSH0 KECCAK256 DUP2 SWAP1 SSTORE POP POP JUMPDEST PUSH0 PUSH20 0xFFFFFFFFFFFFFFFFFFFFFFFFFFFFFFFFFFFFFFFF AND DUP3 PUSH20 0xFFFFFFFFFFFFFFFFFFFFFFFFFFFFFFFFFFFFFFFF AND SUB PUSH2 0x3F4 JUMPI DUP1 PUSH1 0x2 PUSH0 DUP3 DUP3 SLOAD SUB SWAP3 POP POP DUP2 SWAP1 SSTORE POP PUSH2 0x43E JUMP JUMPDEST DUP1 PUSH0 DUP1 DUP5 PUSH20 0xFFFFFFFFFFFFFFFFFFFFFFFFFFFFFFFFFFFFFFFF AND PUSH20 0xFFFFFFFFFFFFFFFFFFFFFFFFFFFFFFFFFFFFFFFF AND DUP2 MSTORE PUSH1 0x20 ADD SWAP1 DUP2 MSTORE PUSH1 0x20 ADD PUSH0 KECCAK256 PUSH0 DUP3 DUP3 SLOAD ADD SWAP3 POP POP DUP2 SWAP1 SSTORE POP JUMPDEST DUP2 PUSH20 0xFFFFFFFFFFFFFFFFFFFFFFFFFFFFFFFFFFFFFFFF AND DUP4 PUSH20 0xFFFFFFFFFFFFFFFFFFFFFFFFFFFFFFFFFFFFFFFF AND PUSH32 0xDDF252AD1BE2C89B69C2B068FC378DAA952BA7F163C4A11628F55A4DF523B3EF DUP4 PUSH1 0x40 MLOAD PUSH2 0x49B SWAP2 SWAP1 PUSH2 0x8AD JUMP JUMPDEST PUSH1 0x40 MLOAD DUP1 SWAP2 SUB SWAP1 LOG3 POP POP POP JUMP JUMPDEST PUSH0 DUP2 MLOAD SWAP1 POP SWAP2 SWAP1 POP JUMP JUMPDEST PUSH32 0x4E487B7100000000000000000000000000000000000000000000000000000000 PUSH0 MSTORE PUSH1 0x41 PUSH1 0x4 MSTORE PUSH1 0x24 PUSH0 REVERT JUMPDEST PUSH32 0x4E487B7100000000000000000000000000000000000000000000000000000000 PUSH0 MSTORE PUSH1 0x22 PUSH1 0x4 MSTORE PUSH1 0x24 PUSH0 REVERT JUMPDEST PUSH0 PUSH1 0x2 DUP3 DIV SWAP1 POP PUSH1 0x1 DUP3 AND DUP1 PUSH2 0x523 JUMPI PUSH1 0x7F DUP3 AND SWAP2 POP JUMPDEST PUSH1 0x20 DUP3 LT DUP2 SUB PUSH2 0x536 JUMPI PUSH2 0x535 PUSH2 0x4DF JUMP JUMPDEST JUMPDEST POP SWAP2 SWAP1 POP JUMP JUMPDEST PUSH0 DUP2 SWAP1 POP DUP2 PUSH0 MSTORE PUSH1 0x20 PUSH0 KECCAK256 SWAP1 POP SWAP2 SWAP1 POP JUMP JUMPDEST PUSH0 PUSH1 0x20 PUSH1 0x1F DUP4 ADD DIV SWAP1 POP SWAP2 SWAP1 POP JUMP JUMPDEST PUSH0 DUP3 DUP3 SHL SWAP1 POP SWAP3 SWAP2 POP POP JUMP JUMPDEST PUSH0 PUSH1 0x8 DUP4 MUL PUSH2 0x598 PUSH32 0xFFFFFFFFFFFFFFFFFFFFFFFFFFFFFFFFFFFFFFFFFFFFFFFFFFFFFFFFFFFFFFFF DUP3 PUSH2 0x55D JUMP JUMPDEST PUSH2 0x5A2 DUP7 DUP4 PUSH2 0x55D JUMP JUMPDEST SWAP6 POP DUP1 NOT DUP5 AND SWAP4 POP DUP1 DUP7 AND DUP5 OR SWAP3 POP POP POP SWAP4 SWAP3 POP POP POP JUMP JUMPDEST PUSH0 DUP2 SWAP1 POP SWAP2 SWAP1 POP JUMP JUMPDEST PUSH0 DUP2 SWAP1 POP SWAP2 SWAP1 POP JUMP JUMPDEST PUSH0 PUSH2 0x5E6 PUSH2 0x5E1 PUSH2 0x5DC DUP5 PUSH2 0x5BA JUMP JUMPDEST PUSH2 0x5C3 JUMP JUMPDEST PUSH2 0x5BA JUMP JUMPDEST SWAP1 POP SWAP2 SWAP1 POP JUMP JUMPDEST PUSH0 DUP2 SWAP1 POP SWAP2 SWAP1 POP JUMP JUMPDEST PUSH2 0x5FF DUP4 PUSH2 0x5CC JUMP JUMPDEST PUSH2 0x613 PUSH2 0x60B DUP3 PUSH2 0x5ED JUMP JUMPDEST DUP5 DUP5 SLOAD PUSH2 0x569 JUMP JUMPDEST DUP3 SSTORE POP POP POP POP JUMP JUMPDEST PUSH0 SWAP1 JUMP JUMPDEST PUSH2 0x627 PUSH2 0x61B JUMP JUMPDEST PUSH2 0x632 DUP2 DUP5 DUP5 PUSH2 0x5F6 JUMP JUMPDEST POP POP POP JUMP JUMPDEST JUMPDEST DUP2 DUP2 LT ISZERO PUSH2 0x655 JUMPI PUSH2 0x64A PUSH0 DUP3 PUSH2 0x61F JUMP JUMPDEST PUSH1 0x1 DUP2 ADD SWAP1 POP PUSH2 0x638 JUMP JUMPDEST POP POP JUMP JUMPDEST PUSH1 0x1F DUP3 GT ISZERO PUSH2 0x69A JUMPI PUSH2 0x66B DUP2 PUSH2 0x53C JUMP JUMPDEST PUSH2 0x674 DUP5 PUSH2 0x54E JUMP JUMPDEST DUP2 ADD PUSH1 0x20 DUP6 LT ISZERO PUSH2 0x683 JUMPI DUP2 SWAP1 POP JUMPDEST PUSH2 0x697 PUSH2 0x68F DUP6 PUSH2 0x54E JUMP JUMPDEST DUP4 ADD DUP3 PUSH2 0x637 JUMP JUMPDEST POP POP JUMPDEST POP POP POP JUMP JUMPDEST PUSH0 DUP3 DUP3 SHR SWAP1 POP SWAP3 SWAP2 POP POP JUMP JUMPDEST PUSH0 PUSH2 0x6BA PUSH0 NOT DUP5 PUSH1 0x8 MUL PUSH2 0x69F JUMP JUMPDEST NOT DUP1 DUP4 AND SWAP2 POP POP SWAP3 SWAP2 POP POP JUMP JUMPDEST PUSH0 PUSH2 0x6D2 DUP4 DUP4 PUSH2 0x6AB JUMP JUMPDEST SWAP2 POP DUP3 PUSH1 0x2 MUL DUP3 OR SWAP1 POP SWAP3 SWAP2 POP POP JUMP JUMPDEST PUSH2 0x6EB DUP3 PUSH2 0x4A8 JUMP JUMPDEST PUSH8 0xFFFFFFFFFFFFFFFF DUP2 GT ISZERO PUSH2 0x704 JUMPI PUSH2 0x703 PUSH2 0x4B2 JUMP JUMPDEST JUMPDEST PUSH2 0x70E DUP3 SLOAD PUSH2 0x50C JUMP JUMPDEST PUSH2 0x719 DUP3 DUP3 DUP6 PUSH2 0x659 JUMP JUMPDEST PUSH0 PUSH1 0x20 SWAP1 POP PUSH1 0x1F DUP4 GT PUSH1 0x1 DUP2 EQ PUSH2 0x74A JUMPI PUSH0 DUP5 ISZERO PUSH2 0x738 JUMPI DUP3 DUP8 ADD MLOAD SWAP1 POP JUMPDEST PUSH2 0x742 DUP6 DUP3 PUSH2 0x6C7 JUMP JUMPDEST DUP7 SSTORE POP PUSH2 0x7A9 JUMP JUMPDEST PUSH1 0x1F NOT DUP5 AND PUSH2 0x758 DUP7 PUSH2 0x53C JUMP JUMPDEST PUSH0 JUMPDEST DUP3 DUP2 LT ISZERO PUSH2 0x77F JUMPI DUP5 DUP10 ADD MLOAD DUP3 SSTORE PUSH1 0x1 DUP3 ADD SWAP2 POP PUSH1 0x20 DUP6 ADD SWAP5 POP PUSH1 0x20 DUP2 ADD SWAP1 POP PUSH2 0x75A JUMP JUMPDEST DUP7 DUP4 LT ISZERO PUSH2 0x79C JUMPI DUP5 DUP10 ADD MLOAD PUSH2 0x798 PUSH1 0x1F DUP10 AND DUP3 PUSH2 0x6AB JUMP JUMPDEST DUP4 SSTORE POP JUMPDEST PUSH1 0x1 PUSH1 0x2 DUP9 MUL ADD DUP9 SSTORE POP POP POP JUMPDEST POP POP POP POP POP POP JUMP JUMPDEST PUSH0 PUSH20 0xFFFFFFFFFFFFFFFFFFFFFFFFFFFFFFFFFFFFFFFF DUP3 AND SWAP1 POP SWAP2 SWAP1 POP JUMP JUMPDEST PUSH0 PUSH2 0x7DA DUP3 PUSH2 0x7B1 JUMP JUMPDEST SWAP1 POP SWAP2 SWAP1 POP JUMP JUMPDEST PUSH2 0x7EA DUP2 PUSH2 0x7D0 JUMP JUMPDEST DUP3 MSTORE POP POP JUMP JUMPDEST PUSH0 PUSH1 0x20 DUP3 ADD SWAP1 POP PUSH2 0x803 PUSH0 DUP4 ADD DUP5 PUSH2 0x7E1 JUMP JUMPDEST SWAP3 SWAP2 POP POP JUMP JUMPDEST PUSH32 0x4E487B7100000000000000000000000000000000000000000000000000000000 PUSH0 MSTORE PUSH1 0x11 PUSH1 0x4 MSTORE PUSH1 0x24 PUSH0 REVERT JUMPDEST PUSH0 PUSH2 0x840 DUP3 PUSH2 0x5BA JUMP JUMPDEST SWAP2 POP PUSH2 0x84B DUP4 PUSH2 0x5BA JUMP JUMPDEST SWAP3 POP DUP3 DUP3 ADD SWAP1 POP DUP1 DUP3 GT ISZERO PUSH2 0x863 JUMPI PUSH2 0x862 PUSH2 0x809 JUMP JUMPDEST JUMPDEST SWAP3 SWAP2 POP POP JUMP JUMPDEST PUSH2 0x872 DUP2 PUSH2 0x5BA JUMP JUMPDEST DUP3 MSTORE POP POP JUMP JUMPDEST PUSH0 PUSH1 0x60 DUP3 ADD SWAP1 POP PUSH2 0x88B PUSH0 DUP4 ADD DUP7 PUSH2 0x7E1 JUMP JUMPDEST PUSH2 0x898 PUSH1 0x20 DUP4 ADD DUP6 PUSH2 0x869 JUMP JUMPDEST PUSH2 0x8A5 PUSH1 0x40 DUP4 ADD DUP5 PUSH2 0x869 JUMP JUMPDEST SWAP5 SWAP4 POP POP POP POP JUMP JUMPDEST PUSH0 PUSH1 0x20 DUP3 ADD SWAP1 POP PUSH2 0x8C0 PUSH0 DUP4 ADD DUP5 PUSH2 0x869 JUMP JUMPDEST SWAP3 SWAP2 POP POP JUMP JUMPDEST PUSH2 0x2DC5 DUP1 PUSH2 0x8D3 PUSH0 CODECOPY PUSH0 RETURN INVALID PUSH1 0x80 PUSH1 0x40 MSTORE CALLVALUE DUP1 ISZERO PUSH2 0xF JUMPI PUSH0 DUP1 REVERT JUMPDEST POP PUSH1 0x4 CALLDATASIZE LT PUSH2 0x156 JUMPI PUSH0 CALLDATALOAD PUSH1 0xE0 SHR DUP1 PUSH4 0x8DA5CB5B GT PUSH2 0xC1 JUMPI DUP1 PUSH4 0xADFBE22F GT PUSH2 0x7A JUMPI DUP1 PUSH4 0xADFBE22F EQ PUSH2 0x3DA JUMPI DUP1 PUSH4 0xBDBFA3DE EQ PUSH2 0x3F6 JUMPI DUP1 PUSH4 0xC2FDBDAD EQ PUSH2 0x412 JUMPI DUP1 PUSH4 0xDD62ED3E EQ PUSH2 0x442 JUMPI DUP1 PUSH4 0xE1EC3C68 EQ PUSH2 0x472 JUMPI DUP1 PUSH4 0xF2FDE38B EQ PUSH2 0x4AD JUMPI PUSH2 0x156 JUMP JUMPDEST DUP1 PUSH4 0x8DA5CB5B EQ PUSH2 0x2F2 JUMPI DUP1 PUSH4 0x95D89B41 EQ PUSH2 0x310 JUMPI DUP1 PUSH4 0xA5410A66 EQ PUSH2 0x32E JUMPI DUP1 PUSH4 0xA6F5B3B3 EQ PUSH2 0x35E JUMPI DUP1 PUSH4 0xA9059CBB EQ PUSH2 0x38E JUMPI DUP1 PUSH4 0xAB7B1C89 EQ PUSH2 0x3BE JUMPI PUSH2 0x156 JUMP JUMPDEST DUP1 PUSH4 0x38D16011 GT PUSH2 0x113 JUMPI DUP1 PUSH4 0x38D16011 EQ PUSH2 0x244 JUMPI DUP1 PUSH4 0x70A08231 EQ PUSH2 0x260 JUMPI DUP1 PUSH4 0x715018A6 EQ PUSH2 0x290 JUMPI DUP1 PUSH4 0x75794A3C EQ PUSH2 0x29A JUMPI DUP1 PUSH4 0x759135A1 EQ PUSH2 0x2B8 JUMPI DUP1 PUSH4 0x87C51459 EQ PUSH2 0x2D4 JUMPI PUSH2 0x156 JUMP JUMPDEST DUP1 PUSH4 0x6FDDE03 EQ PUSH2 0x15A JUMPI DUP1 PUSH4 0x95EA7B3 EQ PUSH2 0x178 JUMPI DUP1 PUSH4 0x18160DDD EQ PUSH2 0x1A8 JUMPI DUP1 PUSH4 0x1A2FF598 EQ PUSH2 0x1C6 JUMPI DUP1 PUSH4 0x23B872DD EQ PUSH2 0x1F6 JUMPI DUP1 PUSH4 0x313CE567 EQ PUSH2 0x226 JUMPI JUMPDEST PUSH0 DUP1 REVERT JUMPDEST PUSH2 0x162 PUSH2 0x4C9 JUMP JUMPDEST PUSH1 0x40 MLOAD PUSH2 0x16F SWAP2 SWAP1 PUSH2 0x1E8F JUMP JUMPDEST PUSH1 0x40 MLOAD DUP1 SWAP2 SUB SWAP1 RETURN JUMPDEST PUSH2 0x192 PUSH1 0x4 DUP1 CALLDATASIZE SUB DUP2 ADD SWAP1 PUSH2 0x18D SWAP2 SWAP1 PUSH2 0x1F4D JUMP JUMPDEST PUSH2 0x559 JUMP JUMPDEST PUSH1 0x40 MLOAD PUSH2 0x19F SWAP2 SWAP1 PUSH2 0x1FA5 JUMP JUMPDEST PUSH1 0x40 MLOAD DUP1 SWAP2 SUB SWAP1 RETURN JUMPDEST PUSH2 0x1B0 PUSH2 0x57B JUMP JUMPDEST PUSH1 0x40 MLOAD PUSH2 0x1BD SWAP2 SWAP1 PUSH2 0x1FCD JUMP JUMPDEST PUSH1 0x40 MLOAD DUP1 SWAP2 SUB SWAP1 RETURN JUMPDEST PUSH2 0x1E0 PUSH1 0x4 DUP1 CALLDATASIZE SUB DUP2 ADD SWAP1 PUSH2 0x1DB SWAP2 SWAP1 PUSH2 0x2112 JUMP JUMPDEST PUSH2 0x584 JUMP JUMPDEST PUSH1 0x40 MLOAD PUSH2 0x1ED SWAP2 SWAP1 PUSH2 0x1FCD JUMP JUMPDEST PUSH1 0x40 MLOAD DUP1 SWAP2 SUB SWAP1 RETURN JUMPDEST PUSH2 0x210 PUSH1 0x4 DUP1 CALLDATASIZE SUB DUP2 ADD SWAP1 PUSH2 0x20B SWAP2 SWAP1 PUSH2 0x2192 JUMP JUMPDEST PUSH2 0x95A JUMP JUMPDEST PUSH1 0x40 MLOAD PUSH2 0x21D SWAP2 SWAP1 PUSH2 0x1FA5 JUMP JUMPDEST PUSH1 0x40 MLOAD DUP1 SWAP2 SUB SWAP1 RETURN JUMPDEST PUSH2 0x22E PUSH2 0x988 JUMP JUMPDEST PUSH1 0x40 MLOAD PUSH2 0x23B SWAP2 SWAP1 PUSH2 0x21FD JUMP JUMPDEST PUSH1 0x40 MLOAD DUP1 SWAP2 SUB SWAP1 RETURN JUMPDEST PUSH2 0x25E PUSH1 0x4 DUP1 CALLDATASIZE SUB DUP2 ADD SWAP1 PUSH2 0x259 SWAP2 SWAP1 PUSH2 0x2216 JUMP JUMPDEST PUSH2 0x98C JUMP JUMPDEST STOP JUMPDEST PUSH2 0x27A PUSH1 0x4 DUP1 CALLDATASIZE SUB DUP2 ADD SWAP1 PUSH2 0x275 SWAP2 SWAP1 PUSH2 0x2216 JUMP JUMPDEST PUSH2 0xA2F JUMP JUMPDEST PUSH1 0x40 MLOAD PUSH2 0x287 SWAP2 SWAP1 PUSH2 0x1FCD JUMP JUMPDEST PUSH1 0x40 MLOAD DUP1 SWAP2 SUB SWAP1 RETURN JUMPDEST PUSH2 0x298 PUSH2 0xA74 JUMP JUMPDEST STOP JUMPDEST PUSH2 0x2A2 PUSH2 0xA87 JUMP JUMPDEST PUSH1 0x40 MLOAD PUSH2 0x2AF SWAP2 SWAP1 PUSH2 0x1FCD JUMP JUMPDEST PUSH1 0x40 MLOAD DUP1 SWAP2 SUB SWAP1 RETURN JUMPDEST PUSH2 0x2D2 PUSH1 0x4 DUP1 CALLDATASIZE SUB DUP2 ADD SWAP1 PUSH2 0x2CD SWAP2 SWAP1 PUSH2 0x2241 JUMP JUMPDEST PUSH2 0xA8D JUMP JUMPDEST STOP JUMPDEST PUSH2 0x2DC PUSH2 0xB90 JUMP JUMPDEST PUSH1 0x40 MLOAD PUSH2 0x2E9 SWAP2 SWAP1 PUSH2 0x1FCD JUMP JUMPDEST PUSH1 0x40 MLOAD DUP1 SWAP2 SUB SWAP1 RETURN JUMPDEST PUSH2 0x2FA PUSH2 0xB96 JUMP JUMPDEST PUSH1 0x40 MLOAD PUSH2 0x307 SWAP2 SWAP1 PUSH2 0x227B JUMP JUMPDEST PUSH1 0x40 MLOAD DUP1 SWAP2 SUB SWAP1 RETURN JUMPDEST PUSH2 0x318 PUSH2 0xBBE JUMP JUMPDEST PUSH1 0x40 MLOAD PUSH2 0x325 SWAP2 SWAP1 PUSH2 0x1E8F JUMP JUMPDEST PUSH1 0x40 MLOAD DUP1 SWAP2 SUB SWAP1 RETURN JUMPDEST PUSH2 0x348 PUSH1 0x4 DUP1 CALLDATASIZE SUB DUP2 ADD SWAP1 PUSH2 0x343 SWAP2 SWAP1 PUSH2 0x2216 JUMP JUMPDEST PUSH2 0xC4E JUMP JUMPDEST PUSH1 0x40 MLOAD PUSH2 0x355 SWAP2 SWAP1 PUSH2 0x1FA5 JUMP JUMPDEST PUSH1 0x40 MLOAD DUP1 SWAP2 SUB SWAP1 RETURN JUMPDEST PUSH2 0x378 PUSH1 0x4 DUP1 CALLDATASIZE SUB DUP2 ADD SWAP1 PUSH2 0x373 SWAP2 SWAP1 PUSH2 0x2241 JUMP JUMPDEST PUSH2 0xC6B JUMP JUMPDEST PUSH1 0x40 MLOAD PUSH2 0x385 SWAP2 SWAP1 PUSH2 0x1FCD JUMP JUMPDEST PUSH1 0x40 MLOAD DUP1 SWAP2 SUB SWAP1 RETURN JUMPDEST PUSH2 0x3A8 PUSH1 0x4 DUP1 CALLDATASIZE SUB DUP2 ADD SWAP1 PUSH2 0x3A3 SWAP2 SWAP1 PUSH2 0x1F4D JUMP JUMPDEST PUSH2 0xCAD JUMP JUMPDEST PUSH1 0x40 MLOAD PUSH2 0x3B5 SWAP2 SWAP1 PUSH2 0x1FA5 JUMP JUMPDEST PUSH1 0x40 MLOAD DUP1 SWAP2 SUB SWAP1 RETURN JUMPDEST PUSH2 0x3D8 PUSH1 0x4 DUP1 CALLDATASIZE SUB DUP2 ADD SWAP1 PUSH2 0x3D3 SWAP2 SWAP1 PUSH2 0x2241 JUMP JUMPDEST PUSH2 0xCCF JUMP JUMPDEST STOP JUMPDEST PUSH2 0x3F4 PUSH1 0x4 DUP1 CALLDATASIZE SUB DUP2 ADD SWAP1 PUSH2 0x3EF SWAP2 SWAP1 PUSH2 0x2241 JUMP JUMPDEST PUSH2 0xEBF JUMP JUMPDEST STOP JUMPDEST PUSH2 0x410 PUSH1 0x4 DUP1 CALLDATASIZE SUB DUP2 ADD SWAP1 PUSH2 0x40B SWAP2 SWAP1 PUSH2 0x2241 JUMP JUMPDEST PUSH2 0x103D JUMP JUMPDEST STOP JUMPDEST PUSH2 0x42C PUSH1 0x4 DUP1 CALLDATASIZE SUB DUP2 ADD SWAP1 PUSH2 0x427 SWAP2 SWAP1 PUSH2 0x2241 JUMP JUMPDEST PUSH2 0x11EC JUMP JUMPDEST PUSH1 0x40 MLOAD PUSH2 0x439 SWAP2 SWAP1 PUSH2 0x1FA5 JUMP JUMPDEST PUSH1 0x40 MLOAD DUP1 SWAP2 SUB SWAP1 RETURN JUMPDEST PUSH2 0x45C PUSH1 0x4 DUP1 CALLDATASIZE SUB DUP2 ADD SWAP1 PUSH2 0x457 SWAP2 SWAP1 PUSH2 0x2294 JUMP JUMPDEST PUSH2 0x1258 JUMP JUMPDEST PUSH1 0x40 MLOAD PUSH2 0x469 SWAP2 SWAP1 PUSH2 0x1FCD JUMP JUMPDEST PUSH1 0x40 MLOAD DUP1 SWAP2 SUB SWAP1 RETURN JUMPDEST PUSH2 0x48C PUSH1 0x4 DUP1 CALLDATASIZE SUB DUP2 ADD SWAP1 PUSH2 0x487 SWAP2 SWAP1 PUSH2 0x2241 JUMP JUMPDEST PUSH2 0x12DA JUMP JUMPDEST PUSH1 0x40 MLOAD PUSH2 0x4A4 SWAP13 SWAP12 SWAP11 SWAP10 SWAP9 SWAP8 SWAP7 SWAP6 SWAP5 SWAP4 SWAP3 SWAP2 SWAP1 PUSH2 0x22D2 JUMP JUMPDEST PUSH1 0x40 MLOAD DUP1 SWAP2 SUB SWAP1 RETURN JUMPDEST PUSH2 0x4C7 PUSH1 0x4 DUP1 CALLDATASIZE SUB DUP2 ADD SWAP1 PUSH2 0x4C2 SWAP2 SWAP1 PUSH2 0x2216 JUMP JUMPDEST PUSH2 0x142C JUMP JUMPDEST STOP JUMPDEST PUSH1 0x60 PUSH1 0x3 DUP1 SLOAD PUSH2 0x4D8 SWAP1 PUSH2 0x23BE JUMP JUMPDEST DUP1 PUSH1 0x1F ADD PUSH1 0x20 DUP1 SWAP2 DIV MUL PUSH1 0x20 ADD PUSH1 0x40 MLOAD SWAP1 DUP2 ADD PUSH1 0x40 MSTORE DUP1 SWAP3 SWAP2 SWAP1 DUP2 DUP2 MSTORE PUSH1 0x20 ADD DUP3 DUP1 SLOAD PUSH2 0x504 SWAP1 PUSH2 0x23BE JUMP JUMPDEST DUP1 ISZERO PUSH2 0x54F JUMPI DUP1 PUSH1 0x1F LT PUSH2 0x526 JUMPI PUSH2 0x100 DUP1 DUP4 SLOAD DIV MUL DUP4 MSTORE SWAP2 PUSH1 0x20 ADD SWAP2 PUSH2 0x54F JUMP JUMPDEST DUP3 ADD SWAP2 SWAP1 PUSH0 MSTORE PUSH1 0x20 PUSH0 KECCAK256 SWAP1 JUMPDEST DUP2 SLOAD DUP2 MSTORE SWAP1 PUSH1 0x1 ADD SWAP1 PUSH1 0x20 ADD DUP1 DUP4 GT PUSH2 0x532 JUMPI DUP3 SWAP1 SUB PUSH1 0x1F AND DUP3 ADD SWAP2 JUMPDEST POP POP POP POP POP SWAP1 POP SWAP1 JUMP JUMPDEST PUSH0 DUP1 PUSH2 0x563 PUSH2 0x14B0 JUMP JUMPDEST SWAP1 POP PUSH2 0x570 DUP2 DUP6 DUP6 PUSH2 0x14B7 JUMP JUMPDEST PUSH1 0x1 SWAP2 POP POP SWAP3 SWAP2 POP POP JUMP JUMPDEST PUSH0 PUSH1 0x2 SLOAD SWAP1 POP SWAP1 JUMP JUMPDEST PUSH0 PUSH1 0x8 PUSH0 DUP7 PUSH20 0xFFFFFFFFFFFFFFFFFFFFFFFFFFFFFFFFFFFFFFFF AND PUSH20 0xFFFFFFFFFFFFFFFFFFFFFFFFFFFFFFFFFFFFFFFF AND DUP2 MSTORE PUSH1 0x20 ADD SWAP1 DUP2 MSTORE PUSH1 0x20 ADD PUSH0 KECCAK256 PUSH0 SWAP1 SLOAD SWAP1 PUSH2 0x100 EXP SWAP1 DIV PUSH1 0xFF AND PUSH2 0x60E JUMPI PUSH1 0x40 MLOAD PUSH32 0x8C379A000000000000000000000000000000000000000000000000000000000 DUP2 MSTORE PUSH1 0x4 ADD PUSH2 0x605 SWAP1 PUSH2 0x2438 JUMP JUMPDEST PUSH1 0x40 MLOAD DUP1 SWAP2 SUB SWAP1 REVERT JUMPDEST DUP4 PUSH2 0x618 CALLER PUSH2 0xA2F JUMP JUMPDEST LT ISZERO PUSH2 0x659 JUMPI PUSH1 0x40 MLOAD PUSH32 0x8C379A000000000000000000000000000000000000000000000000000000000 DUP2 MSTORE PUSH1 0x4 ADD PUSH2 0x650 SWAP1 PUSH2 0x24A0 JUMP JUMPDEST PUSH1 0x40 MLOAD DUP1 SWAP2 SUB SWAP1 REVERT JUMPDEST DUP4 PUSH2 0x664 CALLER ADDRESS PUSH2 0x1258 JUMP JUMPDEST LT ISZERO PUSH2 0x6A5 JUMPI PUSH1 0x40 MLOAD PUSH32 0x8C379A000000000000000000000000000000000000000000000000000000000 DUP2 MSTORE PUSH1 0x4 ADD PUSH2 0x69C SWAP1 PUSH2 0x2508 JUMP JUMPDEST PUSH1 0x40 MLOAD DUP1 SWAP2 SUB SWAP1 REVERT JUMPDEST PUSH0 PUSH1 0x1E SWAP1 POP PUSH2 0x6B5 CALLER ADDRESS DUP8 PUSH2 0x14C9 JUMP JUMPDEST PUSH0 PUSH1 0x6 PUSH0 DUP2 SLOAD DUP1 SWAP3 SWAP2 SWAP1 PUSH2 0x6C8 SWAP1 PUSH2 0x2553 JUMP JUMPDEST SWAP2 SWAP1 POP SSTORE SWAP1 POP PUSH0 PUSH1 0x9 PUSH0 DUP2 SLOAD DUP1 SWAP3 SWAP2 SWAP1 PUSH2 0x6E1 SWAP1 PUSH2 0x2553 JUMP JUMPDEST SWAP2 SWAP1 POP SSTORE SWAP1 POP PUSH1 0x40 MLOAD DUP1 PUSH2 0x180 ADD PUSH1 0x40 MSTORE DUP1 DUP10 PUSH20 0xFFFFFFFFFFFFFFFFFFFFFFFFFFFFFFFFFFFFFFFF AND DUP2 MSTORE PUSH1 0x20 ADD CALLER PUSH20 0xFFFFFFFFFFFFFFFFFFFFFFFFFFFFFFFFFFFFFFFF AND DUP2 MSTORE PUSH1 0x20 ADD DUP9 DUP2 MSTORE PUSH1 0x20 ADD DUP8 DUP2 MSTORE PUSH1 0x20 ADD DUP5 DUP2 MSTORE PUSH1 0x20 ADD PUSH3 0x15180 DUP6 PUSH2 0x74C SWAP2 SWAP1 PUSH2 0x259A JUMP JUMPDEST TIMESTAMP PUSH2 0x757 SWAP2 SWAP1 PUSH2 0x25DB JUMP JUMPDEST DUP2 MSTORE PUSH1 0x20 ADD PUSH0 ISZERO ISZERO DUP2 MSTORE PUSH1 0x20 ADD PUSH0 ISZERO ISZERO DUP2 MSTORE PUSH1 0x20 ADD PUSH0 ISZERO ISZERO DUP2 MSTORE PUSH1 0x20 ADD DUP4 DUP2 MSTORE PUSH1 0x20 ADD PUSH0 ISZERO ISZERO DUP2 MSTORE PUSH1 0x20 ADD DUP7 DUP2 MSTORE POP PUSH1 0x7 PUSH0 DUP4 DUP2 MSTORE PUSH1 0x20 ADD SWAP1 DUP2 MSTORE PUSH1 0x20 ADD PUSH0 KECCAK256 PUSH0 DUP3 ADD MLOAD DUP2 PUSH0 ADD PUSH0 PUSH2 0x100 EXP DUP2 SLOAD DUP2 PUSH20 0xFFFFFFFFFFFFFFFFFFFFFFFFFFFFFFFFFFFFFFFF MUL NOT AND SWAP1 DUP4 PUSH20 0xFFFFFFFFFFFFFFFFFFFFFFFFFFFFFFFFFFFFFFFF AND MUL OR SWAP1 SSTORE POP PUSH1 0x20 DUP3 ADD MLOAD DUP2 PUSH1 0x1 ADD PUSH0 PUSH2 0x100 EXP DUP2 SLOAD DUP2 PUSH20 0xFFFFFFFFFFFFFFFFFFFFFFFFFFFFFFFFFFFFFFFF MUL NOT AND SWAP1 DUP4 PUSH20 0xFFFFFFFFFFFFFFFFFFFFFFFFFFFFFFFFFFFFFFFF AND MUL OR SWAP1 SSTORE POP PUSH1 0x40 DUP3 ADD MLOAD DUP2 PUSH1 0x2 ADD SSTORE PUSH1 0x60 DUP3 ADD MLOAD DUP2 PUSH1 0x3 ADD SSTORE PUSH1 0x80 DUP3 ADD MLOAD DUP2 PUSH1 0x4 ADD SSTORE PUSH1 0xA0 DUP3 ADD MLOAD DUP2 PUSH1 0x5 ADD SSTORE PUSH1 0xC0 DUP3 ADD MLOAD DUP2 PUSH1 0x6 ADD PUSH0 PUSH2 0x100 EXP DUP2 SLOAD DUP2 PUSH1 0xFF MUL NOT AND SWAP1 DUP4 ISZERO ISZERO MUL OR SWAP1 SSTORE POP PUSH1 0xE0 DUP3 ADD MLOAD DUP2 PUSH1 0x6 ADD PUSH1 0x1 PUSH2 0x100 EXP DUP2 SLOAD DUP2 PUSH1 0xFF MUL NOT AND SWAP1 DUP4 ISZERO ISZERO MUL OR SWAP1 SSTORE POP PUSH2 0x100 DUP3 ADD MLOAD DUP2 PUSH1 0x6 ADD PUSH1 0x2 PUSH2 0x100 EXP DUP2 SLOAD DUP2 PUSH1 0xFF MUL NOT AND SWAP1 DUP4 ISZERO ISZERO MUL OR SWAP1 SSTORE POP PUSH2 0x120 DUP3 ADD MLOAD DUP2 PUSH1 0x7 ADD SSTORE PUSH2 0x140 DUP3 ADD MLOAD DUP2 PUSH1 0x8 ADD PUSH0 PUSH2 0x100 EXP DUP2 SLOAD DUP2 PUSH1 0xFF MUL NOT AND SWAP1 DUP4 ISZERO ISZERO MUL OR SWAP1 SSTORE POP PUSH2 0x160 DUP3 ADD MLOAD DUP2 PUSH1 0x9 ADD SWAP1 DUP2 PUSH2 0x8EA SWAP2 SWAP1 PUSH2 0x27AB JUMP JUMPDEST POP SWAP1 POP POP PUSH32 0x65F30D94790E6E129604916065477A26EEBB0E2A87F79E6B05B21A0F662D947 DUP2 DUP10 CALLER DUP11 DUP11 DUP8 PUSH3 0x15180 DUP11 PUSH2 0x924 SWAP2 SWAP1 PUSH2 0x259A JUMP JUMPDEST TIMESTAMP PUSH2 0x92F SWAP2 SWAP1 PUSH2 0x25DB JUMP JUMPDEST DUP13 PUSH1 0x40 MLOAD PUSH2 0x944 SWAP9 SWAP8 SWAP7 SWAP6 SWAP5 SWAP4 SWAP3 SWAP2 SWAP1 PUSH2 0x287A JUMP JUMPDEST PUSH1 0x40 MLOAD DUP1 SWAP2 SUB SWAP1 LOG1 DUP2 SWAP4 POP POP POP POP SWAP5 SWAP4 POP POP POP POP JUMP JUMPDEST PUSH0 DUP1 PUSH2 0x964 PUSH2 0x14B0 JUMP JUMPDEST SWAP1 POP PUSH2 0x971 DUP6 DUP3 DUP6 PUSH2 0x14FB JUMP JUMPDEST PUSH2 0x97C DUP6 DUP6 DUP6 PUSH2 0x158E JUMP JUMPDEST PUSH1 0x1 SWAP2 POP POP SWAP4 SWAP3 POP POP POP JUMP JUMPDEST PUSH0 SWAP1 JUMP JUMPDEST PUSH2 0x994 PUSH2 0x167E JUMP JUMPDEST PUSH1 0x1 PUSH1 0x8 PUSH0 DUP4 PUSH20 0xFFFFFFFFFFFFFFFFFFFFFFFFFFFFFFFFFFFFFFFF AND PUSH20 0xFFFFFFFFFFFFFFFFFFFFFFFFFFFFFFFFFFFFFFFF AND DUP2 MSTORE PUSH1 0x20 ADD SWAP1 DUP2 MSTORE PUSH1 0x20 ADD PUSH0 KECCAK256 PUSH0 PUSH2 0x100 EXP DUP2 SLOAD DUP2 PUSH1 0xFF MUL NOT AND SWAP1 DUP4 ISZERO ISZERO MUL OR SWAP1 SSTORE POP DUP1 PUSH20 0xFFFFFFFFFFFFFFFFFFFFFFFFFFFFFFFFFFFFFFFF AND PUSH32 0x65C84EE842EAFC291D1272A6E3D10F8C454C4288E63F5DB3F7BE2B3012F321A9 PUSH1 0x40 MLOAD PUSH1 0x40 MLOAD DUP1 SWAP2 SUB SWAP1 LOG2 POP JUMP JUMPDEST PUSH0 DUP1 PUSH0 DUP4 PUSH20 0xFFFFFFFFFFFFFFFFFFFFFFFFFFFFFFFFFFFFFFFF AND PUSH20 0xFFFFFFFFFFFFFFFFFFFFFFFFFFFFFFFFFFFFFFFF AND DUP2 MSTORE PUSH1 0x20 ADD SWAP1 DUP2 MSTORE PUSH1 0x20 ADD PUSH0 KECCAK256 SLOAD SWAP1 POP SWAP2 SWAP1 POP JUMP JUMPDEST PUSH2 0xA7C PUSH2 0x167E JUMP JUMPDEST PUSH2 0xA85 PUSH0 PUSH2 0x1705 JUMP JUMPDEST JUMP JUMPDEST PUSH1 0x6 SLOAD DUP2 JUMP JUMPDEST PUSH0 PUSH1 0x7 PUSH0 DUP4 DUP2 MSTORE PUSH1 0x20 ADD SWAP1 DUP2 MSTORE PUSH1 0x20 ADD PUSH0 KECCAK256 SWAP1 POP DUP1 PUSH1 0x5 ADD SLOAD TIMESTAMP GT PUSH2 0xAE7 JUMPI PUSH1 0x40 MLOAD PUSH32 0x8C379A000000000000000000000000000000000000000000000000000000000 DUP2 MSTORE PUSH1 0x4 ADD PUSH2 0xADE SWAP1 PUSH2 0x296D JUMP JUMPDEST PUSH1 0x40 MLOAD DUP1 SWAP2 SUB SWAP1 REVERT JUMPDEST DUP1 PUSH1 0x6 ADD PUSH0 SWAP1 SLOAD SWAP1 PUSH2 0x100 EXP SWAP1 DIV PUSH1 0xFF AND ISZERO PUSH2 0xB38 JUMPI PUSH1 0x40 MLOAD PUSH32 0x8C379A000000000000000000000000000000000000000000000000000000000 DUP2 MSTORE PUSH1 0x4 ADD PUSH2 0xB2F SWAP1 PUSH2 0x29D5 JUMP JUMPDEST PUSH1 0x40 MLOAD DUP1 SWAP2 SUB SWAP1 REVERT JUMPDEST PUSH1 0x1 DUP2 PUSH1 0x6 ADD PUSH1 0x2 PUSH2 0x100 EXP DUP2 SLOAD DUP2 PUSH1 0xFF MUL NOT AND SWAP1 DUP4 ISZERO ISZERO MUL OR SWAP1 SSTORE POP PUSH32 0xAB9F35A07ACA8965FEDE1A225FF17BD92F8D63AA4EB9A61ACE1E99495E2980D DUP3 PUSH1 0x40 MLOAD PUSH2 0xB84 SWAP2 SWAP1 PUSH2 0x1FCD JUMP JUMPDEST PUSH1 0x40 MLOAD DUP1 SWAP2 SUB SWAP1 LOG1 POP POP JUMP JUMPDEST PUSH1 0x9 SLOAD DUP2 JUMP JUMPDEST PUSH0 PUSH1 0x5 PUSH0 SWAP1 SLOAD SWAP1 PUSH2 0x100 EXP SWAP1 DIV PUSH20 0xFFFFFFFFFFFFFFFFFFFFFFFFFFFFFFFFFFFFFFFF AND SWAP1 POP SWAP1 JUMP JUMPDEST PUSH1 0x60 PUSH1 0x4 DUP1 SLOAD PUSH2 0xBCD SWAP1 PUSH2 0x23BE JUMP JUMPDEST DUP1 PUSH1 0x1F ADD PUSH1 0x20 DUP1 SWAP2 DIV MUL PUSH1 0x20 ADD PUSH1 0x40 MLOAD SWAP1 DUP2 ADD PUSH1 0x40 MSTORE DUP1 SWAP3 SWAP2 SWAP1 DUP2 DUP2 MSTORE PUSH1 0x20 ADD DUP3 DUP1 SLOAD PUSH2 0xBF9 SWAP1 PUSH2 0x23BE JUMP JUMPDEST DUP1 ISZERO PUSH2 0xC44 JUMPI DUP1 PUSH1 0x1F LT PUSH2 0xC1B JUMPI PUSH2 0x100 DUP1 DUP4 SLOAD DIV MUL DUP4 MSTORE SWAP2 PUSH1 0x20 ADD SWAP2 PUSH2 0xC44 JUMP JUMPDEST DUP3 ADD SWAP2 SWAP1 PUSH0 MSTORE PUSH1 0x20 PUSH0 KECCAK256 SWAP1 JUMPDEST DUP2 SLOAD DUP2 MSTORE SWAP1 PUSH1 0x1 ADD SWAP1 PUSH1 0x20 ADD DUP1 DUP4 GT PUSH2 0xC27 JUMPI DUP3 SWAP1 SUB PUSH1 0x1F AND DUP3 ADD SWAP2 JUMPDEST POP POP POP POP POP SWAP1 POP SWAP1 JUMP JUMPDEST PUSH1 0x8 PUSH1 0x20 MSTORE DUP1 PUSH0 MSTORE PUSH1 0x40 PUSH0 KECCAK256 PUSH0 SWAP2 POP SLOAD SWAP1 PUSH2 0x100 EXP SWAP1 DIV PUSH1 0xFF AND DUP2 JUMP JUMPDEST PUSH0 DUP1 PUSH1 0x7 PUSH0 DUP5 DUP2 MSTORE PUSH1 0x20 ADD SWAP1 DUP2 MSTORE PUSH1 0x20 ADD PUSH0 KECCAK256 SWAP1 POP DUP1 PUSH1 0x5 ADD SLOAD TIMESTAMP LT PUSH2 0xC94 JUMPI PUSH0 SWAP2 POP POP PUSH2 0xCA8 JUMP JUMPDEST TIMESTAMP DUP2 PUSH1 0x5 ADD SLOAD PUSH2 0xCA4 SWAP2 SWAP1 PUSH2 0x29F3 JUMP JUMPDEST SWAP2 POP POP JUMPDEST SWAP2 SWAP1 POP JUMP JUMPDEST PUSH0 DUP1 PUSH2 0xCB7 PUSH2 0x14B0 JUMP JUMPDEST SWAP1 POP PUSH2 0xCC4 DUP2 DUP6 DUP6 PUSH2 0x158E JUMP JUMPDEST PUSH1 0x1 SWAP2 POP POP SWAP3 SWAP2 POP POP JUMP JUMPDEST PUSH0 PUSH1 0x7 PUSH0 DUP4 DUP2 MSTORE PUSH1 0x20 ADD SWAP1 DUP2 MSTORE PUSH1 0x20 ADD PUSH0 KECCAK256 SWAP1 POP DUP1 PUSH0 ADD PUSH0 SWAP1 SLOAD SWAP1 PUSH2 0x100 EXP SWAP1 DIV PUSH20 0xFFFFFFFFFFFFFFFFFFFFFFFFFFFFFFFFFFFFFFFF AND PUSH20 0xFFFFFFFFFFFFFFFFFFFFFFFFFFFFFFFFFFFFFFFF AND CALLER PUSH20 0xFFFFFFFFFFFFFFFFFFFFFFFFFFFFFFFFFFFFFFFF AND EQ PUSH2 0xD73 JUMPI PUSH1 0x40 MLOAD PUSH32 0x8C379A000000000000000000000000000000000000000000000000000000000 DUP2 MSTORE PUSH1 0x4 ADD PUSH2 0xD6A SWAP1 PUSH2 0x2A70 JUMP JUMPDEST PUSH1 0x40 MLOAD DUP1 SWAP2 SUB SWAP1 REVERT JUMPDEST DUP1 PUSH1 0x6 ADD PUSH1 0x1 SWAP1 SLOAD SWAP1 PUSH2 0x100 EXP SWAP1 DIV PUSH1 0xFF AND PUSH2 0xDC4 JUMPI PUSH1 0x40 MLOAD PUSH32 0x8C379A000000000000000000000000000000000000000000000000000000000 DUP2 MSTORE PUSH1 0x4 ADD PUSH2 0xDBB SWAP1 PUSH2 0x2AD8 JUMP JUMPDEST PUSH1 0x40 MLOAD DUP1 SWAP2 SUB SWAP1 REVERT JUMPDEST DUP1 PUSH1 0x6 ADD PUSH0 SWAP1 SLOAD SWAP1 PUSH2 0x100 EXP SWAP1 DIV PUSH1 0xFF AND ISZERO PUSH2 0xE15 JUMPI PUSH1 0x40 MLOAD PUSH32 0x8C379A000000000000000000000000000000000000000000000000000000000 DUP2 MSTORE PUSH1 0x4 ADD PUSH2 0xE0C SWAP1 PUSH2 0x29D5 JUMP JUMPDEST PUSH1 0x40 MLOAD DUP1 SWAP2 SUB SWAP1 REVERT JUMPDEST PUSH0 DUP2 PUSH1 0x3 ADD SLOAD DUP3 PUSH1 0x2 ADD SLOAD PUSH2 0xE2A SWAP2 SWAP1 PUSH2 0x25DB JUMP JUMPDEST SWAP1 POP PUSH2 0xE5A CALLER DUP4 PUSH1 0x1 ADD PUSH0 SWAP1 SLOAD SWAP1 PUSH2 0x100 EXP SWAP1 DIV PUSH20 0xFFFFFFFFFFFFFFFFFFFFFFFFFFFFFFFFFFFFFFFF AND DUP4 PUSH2 0x14C9 JUMP JUMPDEST PUSH1 0x1 DUP3 PUSH1 0x6 ADD PUSH0 PUSH2 0x100 EXP DUP2 SLOAD DUP2 PUSH1 0xFF MUL NOT AND SWAP1 DUP4 ISZERO ISZERO MUL OR SWAP1 SSTORE POP PUSH2 0xE83 DUP3 PUSH1 0x7 ADD SLOAD PUSH2 0x17C8 JUMP JUMPDEST PUSH32 0x9A7851747CD7FFB3FE0A32CAF3DA48B31F27CEBE131267051640F8B72FC47186 DUP4 PUSH1 0x40 MLOAD PUSH2 0xEB2 SWAP2 SWAP1 PUSH2 0x1FCD JUMP JUMPDEST PUSH1 0x40 MLOAD DUP1 SWAP2 SUB SWAP1 LOG1 POP POP POP JUMP JUMPDEST PUSH0 PUSH1 0x7 PUSH0 DUP4 DUP2 MSTORE PUSH1 0x20 ADD SWAP1 DUP2 MSTORE PUSH1 0x20 ADD PUSH0 KECCAK256 SWAP1 POP DUP1 PUSH0 ADD PUSH0 SWAP1 SLOAD SWAP1 PUSH2 0x100 EXP SWAP1 DIV PUSH20 0xFFFFFFFFFFFFFFFFFFFFFFFFFFFFFFFFFFFFFFFF AND PUSH20 0xFFFFFFFFFFFFFFFFFFFFFFFFFFFFFFFFFFFFFFFF AND CALLER PUSH20 0xFFFFFFFFFFFFFFFFFFFFFFFFFFFFFFFFFFFFFFFF AND EQ PUSH2 0xF63 JUMPI PUSH1 0x40 MLOAD PUSH32 0x8C379A000000000000000000000000000000000000000000000000000000000 DUP2 MSTORE PUSH1 0x4 ADD PUSH2 0xF5A SWAP1 PUSH2 0x2B40 JUMP JUMPDEST PUSH1 0x40 MLOAD DUP1 SWAP2 SUB SWAP1 REVERT JUMPDEST DUP1 PUSH1 0x6 ADD PUSH1 0x1 SWAP1 SLOAD SWAP1 PUSH2 0x100 EXP SWAP1 DIV PUSH1 0xFF AND ISZERO PUSH2 0xFB5 JUMPI PUSH1 0x40 MLOAD PUSH32 0x8C379A000000000000000000000000000000000000000000000000000000000 DUP2 MSTORE PUSH1 0x4 ADD PUSH2 0xFAC SWAP1 PUSH2 0x2BA8 JUMP JUMPDEST PUSH1 0x40 MLOAD DUP1 SWAP2 SUB SWAP1 REVERT JUMPDEST PUSH1 0x1 DUP2 PUSH1 0x6 ADD PUSH1 0x1 PUSH2 0x100 EXP DUP2 SLOAD DUP2 PUSH1 0xFF MUL NOT AND SWAP1 DUP4 ISZERO ISZERO MUL OR SWAP1 SSTORE POP PUSH2 0x1002 DUP2 PUSH0 ADD PUSH0 SWAP1 SLOAD SWAP1 PUSH2 0x100 EXP SWAP1 DIV PUSH20 0xFFFFFFFFFFFFFFFFFFFFFFFFFFFFFFFFFFFFFFFF AND DUP3 PUSH1 0x2 ADD SLOAD PUSH2 0x186C JUMP JUMPDEST PUSH32 0x8313F00F3154C2E8509A2EE261C618804A495403D3AC94FE5FB833AF9D13CB27 DUP3 PUSH1 0x40 MLOAD PUSH2 0x1031 SWAP2 SWAP1 PUSH2 0x1FCD JUMP JUMPDEST PUSH1 0x40 MLOAD DUP1 SWAP2 SUB SWAP1 LOG1 POP POP JUMP JUMPDEST PUSH0 PUSH1 0x7 PUSH0 DUP4 DUP2 MSTORE PUSH1 0x20 ADD SWAP1 DUP2 MSTORE PUSH1 0x20 ADD PUSH0 KECCAK256 SWAP1 POP DUP1 PUSH1 0x1 ADD PUSH0 SWAP1 SLOAD SWAP1 PUSH2 0x100 EXP SWAP1 DIV PUSH20 0xFFFFFFFFFFFFFFFFFFFFFFFFFFFFFFFFFFFFFFFF AND PUSH20 0xFFFFFFFFFFFFFFFFFFFFFFFFFFFFFFFFFFFFFFFF AND CALLER PUSH20 0xFFFFFFFFFFFFFFFFFFFFFFFFFFFFFFFFFFFFFFFF AND EQ PUSH2 0x10E2 JUMPI PUSH1 0x40 MLOAD PUSH32 0x8C379A000000000000000000000000000000000000000000000000000000000 DUP2 MSTORE PUSH1 0x4 ADD PUSH2 0x10D9 SWAP1 PUSH2 0x2C10 JUMP JUMPDEST PUSH1 0x40 MLOAD DUP1 SWAP2 SUB SWAP1 REVERT JUMPDEST DUP1 PUSH1 0x6 ADD PUSH1 0x2 SWAP1 SLOAD SWAP1 PUSH2 0x100 EXP SWAP1 DIV PUSH1 0xFF AND ISZERO PUSH2 0x1134 JUMPI PUSH1 0x40 MLOAD PUSH32 0x8C379A000000000000000000000000000000000000000000000000000000000 DUP2 MSTORE PUSH1 0x4 ADD PUSH2 0x112B SWAP1 PUSH2 0x2C78 JUMP JUMPDEST PUSH1 0x40 MLOAD DUP1 SWAP2 SUB SWAP1 REVERT JUMPDEST DUP1 PUSH1 0x6 ADD PUSH1 0x1 SWAP1 SLOAD SWAP1 PUSH2 0x100 EXP SWAP1 DIV PUSH1 0xFF AND ISZERO PUSH2 0x1186 JUMPI PUSH1 0x40 MLOAD PUSH32 0x8C379A000000000000000000000000000000000000000000000000000000000 DUP2 MSTORE PUSH1 0x4 ADD PUSH2 0x117D SWAP1 PUSH2 0x2CE0 JUMP JUMPDEST PUSH1 0x40 MLOAD DUP1 SWAP2 SUB SWAP1 REVERT JUMPDEST PUSH2 0x1194 CALLER DUP3 PUSH1 0x2 ADD SLOAD PUSH2 0x186C JUMP JUMPDEST PUSH1 0x1 DUP2 PUSH1 0x6 ADD PUSH1 0x2 PUSH2 0x100 EXP DUP2 SLOAD DUP2 PUSH1 0xFF MUL NOT AND SWAP1 DUP4 ISZERO ISZERO MUL OR SWAP1 SSTORE POP PUSH32 0xDB3578C2B080F19424234C3A83E34455B4B06E90BF24B62F4E13A9ED82FBF0ED DUP3 PUSH1 0x40 MLOAD PUSH2 0x11E0 SWAP2 SWAP1 PUSH2 0x1FCD JUMP JUMPDEST PUSH1 0x40 MLOAD DUP1 SWAP2 SUB SWAP1 LOG1 POP POP JUMP JUMPDEST PUSH0 DUP1 PUSH1 0x1 SWAP1 POP JUMPDEST PUSH1 0x9 SLOAD DUP2 LT ISZERO PUSH2 0x124E JUMPI DUP3 PUSH1 0x7 PUSH0 DUP4 DUP2 MSTORE PUSH1 0x20 ADD SWAP1 DUP2 MSTORE PUSH1 0x20 ADD PUSH0 KECCAK256 PUSH1 0x7 ADD SLOAD SUB PUSH2 0x1241 JUMPI PUSH1 0x7 PUSH0 DUP3 DUP2 MSTORE PUSH1 0x20 ADD SWAP1 DUP2 MSTORE PUSH1 0x20 ADD PUSH0 KECCAK256 PUSH1 0x8 ADD PUSH0 SWAP1 SLOAD SWAP1 PUSH2 0x100 EXP SWAP1 DIV PUSH1 0xFF AND SWAP2 POP POP PUSH2 0x1253 JUMP JUMPDEST DUP1 DUP1 PUSH1 0x1 ADD SWAP2 POP POP PUSH2 0x11F3 JUMP JUMPDEST POP PUSH0 SWAP1 POP JUMPDEST SWAP2 SWAP1 POP JUMP JUMPDEST PUSH0 PUSH1 0x1 PUSH0 DUP5 PUSH20 0xFFFFFFFFFFFFFFFFFFFFFFFFFFFFFFFFFFFFFFFF AND PUSH20 0xFFFFFFFFFFFFFFFFFFFFFFFFFFFFFFFFFFFFFFFF AND DUP2 MSTORE PUSH1 0x20 ADD SWAP1 DUP2 MSTORE PUSH1 0x20 ADD PUSH0 KECCAK256 PUSH0 DUP4 PUSH20 0xFFFFFFFFFFFFFFFFFFFFFFFFFFFFFFFFFFFFFFFF AND PUSH20 0xFFFFFFFFFFFFFFFFFFFFFFFFFFFFFFFFFFFFFFFF AND DUP2 MSTORE PUSH1 0x20 ADD SWAP1 DUP2 MSTORE PUSH1 0x20 ADD PUSH0 KECCAK256 SLOAD SWAP1 POP SWAP3 SWAP2 POP POP JUMP JUMPDEST PUSH1 0x7 PUSH1 0x20 MSTORE DUP1 PUSH0 MSTORE PUSH1 0x40 PUSH0 KECCAK256 PUSH0 SWAP2 POP SWAP1 POP DUP1 PUSH0 ADD PUSH0 SWAP1 SLOAD SWAP1 PUSH2 0x100 EXP SWAP1 DIV PUSH20 0xFFFFFFFFFFFFFFFFFFFFFFFFFFFFFFFFFFFFFFFF AND SWAP1 DUP1 PUSH1 0x1 ADD PUSH0 SWAP1 SLOAD SWAP1 PUSH2 0x100 EXP SWAP1 DIV PUSH20 0xFFFFFFFFFFFFFFFFFFFFFFFFFFFFFFFFFFFFFFFF AND SWAP1 DUP1 PUSH1 0x2 ADD SLOAD SWAP1 DUP1 PUSH1 0x3 ADD SLOAD SWAP1 DUP1 PUSH1 0x4 ADD SLOAD SWAP1 DUP1 PUSH1 0x5 ADD SLOAD SWAP1 DUP1 PUSH1 0x6 ADD PUSH0 SWAP1 SLOAD SWAP1 PUSH2 0x100 EXP SWAP1 DIV PUSH1 0xFF AND SWAP1 DUP1 PUSH1 0x6 ADD PUSH1 0x1 SWAP1 SLOAD SWAP1 PUSH2 0x100 EXP SWAP1 DIV PUSH1 0xFF AND SWAP1 DUP1 PUSH1 0x6 ADD PUSH1 0x2 SWAP1 SLOAD SWAP1 PUSH2 0x100 EXP SWAP1 DIV PUSH1 0xFF AND SWAP1 DUP1 PUSH1 0x7 ADD SLOAD SWAP1 DUP1 PUSH1 0x8 ADD PUSH0 SWAP1 SLOAD SWAP1 PUSH2 0x100 EXP SWAP1 DIV PUSH1 0xFF AND SWAP1 DUP1 PUSH1 0x9 ADD DUP1 SLOAD PUSH2 0x13AB SWAP1 PUSH2 0x23BE JUMP JUMPDEST DUP1 PUSH1 0x1F ADD PUSH1 0x20 DUP1 SWAP2 DIV MUL PUSH1 0x20 ADD PUSH1 0x40 MLOAD SWAP1 DUP2 ADD PUSH1 0x40 MSTORE DUP1 SWAP3 SWAP2 SWAP1 DUP2 DUP2 MSTORE PUSH1 0x20 ADD DUP3 DUP1 SLOAD PUSH2 0x13D7 SWAP1 PUSH2 0x23BE JUMP JUMPDEST DUP1 ISZERO PUSH2 0x1422 JUMPI DUP1 PUSH1 0x1F LT PUSH2 0x13F9 JUMPI PUSH2 0x100 DUP1 DUP4 SLOAD DIV MUL DUP4 MSTORE SWAP2 PUSH1 0x20 ADD SWAP2 PUSH2 0x1422 JUMP JUMPDEST DUP3 ADD SWAP2 SWAP1 PUSH0 MSTORE PUSH1 0x20 PUSH0 KECCAK256 SWAP1 JUMPDEST DUP2 SLOAD DUP2 MSTORE SWAP1 PUSH1 0x1 ADD SWAP1 PUSH1 0x20 ADD DUP1 DUP4 GT PUSH2 0x1405 JUMPI DUP3 SWAP1 SUB PUSH1 0x1F AND DUP3 ADD SWAP2 JUMPDEST POP POP POP POP POP SWAP1 POP DUP13 JUMP JUMPDEST PUSH2 0x1434 PUSH2 0x167E JUMP JUMPDEST PUSH0 PUSH20 0xFFFFFFFFFFFFFFFFFFFFFFFFFFFFFFFFFFFFFFFF AND DUP2 PUSH20 0xFFFFFFFFFFFFFFFFFFFFFFFFFFFFFFFFFFFFFFFF AND SUB PUSH2 0x14A4 JUMPI PUSH0 PUSH1 0x40 MLOAD PUSH32 0x1E4FBDF700000000000000000000000000000000000000000000000000000000 DUP2 MSTORE PUSH1 0x4 ADD PUSH2 0x149B SWAP2 SWAP1 PUSH2 0x227B JUMP JUMPDEST PUSH1 0x40 MLOAD DUP1 SWAP2 SUB SWAP1 REVERT JUMPDEST PUSH2 0x14AD DUP2 PUSH2 0x1705 JUMP JUMPDEST POP JUMP JUMPDEST PUSH0 CALLER SWAP1 POP SWAP1 JUMP JUMPDEST PUSH2 0x14C4 DUP4 DUP4 DUP4 PUSH1 0x1 PUSH2 0x189B JUMP JUMPDEST POP POP POP JUMP JUMPDEST PUSH2 0x14F6 DUP4 DUP4 DUP4 ADDRESS PUSH20 0xFFFFFFFFFFFFFFFFFFFFFFFFFFFFFFFFFFFFFFFF AND PUSH2 0x1A6A SWAP1 SWAP4 SWAP3 SWAP2 SWAP1 PUSH4 0xFFFFFFFF AND JUMP JUMPDEST POP POP POP JUMP JUMPDEST PUSH0 PUSH2 0x1506 DUP5 DUP5 PUSH2 0x1258 JUMP JUMPDEST SWAP1 POP PUSH32 0xFFFFFFFFFFFFFFFFFFFFFFFFFFFFFFFFFFFFFFFFFFFFFFFFFFFFFFFFFFFFFFFF DUP2 LT ISZERO PUSH2 0x1588 JUMPI DUP2 DUP2 LT ISZERO PUSH2 0x1579 JUMPI DUP3 DUP2 DUP4 PUSH1 0x40 MLOAD PUSH32 0xFB8F41B200000000000000000000000000000000000000000000000000000000 DUP2 MSTORE PUSH1 0x4 ADD PUSH2 0x1570 SWAP4 SWAP3 SWAP2 SWAP1 PUSH2 0x2CFE JUMP JUMPDEST PUSH1 0x40 MLOAD DUP1 SWAP2 SUB SWAP1 REVERT JUMPDEST PUSH2 0x1587 DUP5 DUP5 DUP5 DUP5 SUB PUSH0 PUSH2 0x189B JUMP JUMPDEST JUMPDEST POP POP POP POP JUMP JUMPDEST PUSH0 PUSH20 0xFFFFFFFFFFFFFFFFFFFFFFFFFFFFFFFFFFFFFFFF AND DUP4 PUSH20 0xFFFFFFFFFFFFFFFFFFFFFFFFFFFFFFFFFFFFFFFF AND SUB PUSH2 0x15FE JUMPI PUSH0 PUSH1 0x40 MLOAD PUSH32 0x96C6FD1E00000000000000000000000000000000000000000000000000000000 DUP2 MSTORE PUSH1 0x4 ADD PUSH2 0x15F5 SWAP2 SWAP1 PUSH2 0x227B JUMP JUMPDEST PUSH1 0x40 MLOAD DUP1 SWAP2 SUB SWAP1 REVERT JUMPDEST PUSH0 PUSH20 0xFFFFFFFFFFFFFFFFFFFFFFFFFFFFFFFFFFFFFFFF AND DUP3 PUSH20 0xFFFFFFFFFFFFFFFFFFFFFFFFFFFFFFFFFFFFFFFF AND SUB PUSH2 0x166E JUMPI PUSH0 PUSH1 0x40 MLOAD PUSH32 0xEC442F0500000000000000000000000000000000000000000000000000000000 DUP2 MSTORE PUSH1 0x4 ADD PUSH2 0x1665 SWAP2 SWAP1 PUSH2 0x227B JUMP JUMPDEST PUSH1 0x40 MLOAD DUP1 SWAP2 SUB SWAP1 REVERT JUMPDEST PUSH2 0x1679 DUP4 DUP4 DUP4 PUSH2 0x1AEC JUMP JUMPDEST POP POP POP JUMP JUMPDEST PUSH2 0x1686 PUSH2 0x14B0 JUMP JUMPDEST PUSH20 0xFFFFFFFFFFFFFFFFFFFFFFFFFFFFFFFFFFFFFFFF AND PUSH2 0x16A4 PUSH2 0xB96 JUMP JUMPDEST PUSH20 0xFFFFFFFFFFFFFFFFFFFFFFFFFFFFFFFFFFFFFFFF AND EQ PUSH2 0x1703 JUMPI PUSH2 0x16C7 PUSH2 0x14B0 JUMP JUMPDEST PUSH1 0x40 MLOAD PUSH32 0x118CDAA700000000000000000000000000000000000000000000000000000000 DUP2 MSTORE PUSH1 0x4 ADD PUSH2 0x16FA SWAP2 SWAP1 PUSH2 0x227B JUMP JUMPDEST PUSH1 0x40 MLOAD DUP1 SWAP2 SUB SWAP1 REVERT JUMPDEST JUMP JUMPDEST PUSH0 PUSH1 0x5 PUSH0 SWAP1 SLOAD SWAP1 PUSH2 0x100 EXP SWAP1 DIV PUSH20 0xFFFFFFFFFFFFFFFFFFFFFFFFFFFFFFFFFFFFFFFF AND SWAP1 POP DUP2 PUSH1 0x5 PUSH0 PUSH2 0x100 EXP DUP2 SLOAD DUP2 PUSH20 0xFFFFFFFFFFFFFFFFFFFFFFFFFFFFFFFFFFFFFFFF MUL NOT AND SWAP1 DUP4 PUSH20 0xFFFFFFFFFFFFFFFFFFFFFFFFFFFFFFFFFFFFFFFF AND MUL OR SWAP1 SSTORE POP DUP2 PUSH20 0xFFFFFFFFFFFFFFFFFFFFFFFFFFFFFFFFFFFFFFFF AND DUP2 PUSH20 0xFFFFFFFFFFFFFFFFFFFFFFFFFFFFFFFFFFFFFFFF AND PUSH32 0x8BE0079C531659141344CD1FD0A4F28419497F9722A3DAAFE3B4186F6B6457E0 PUSH1 0x40 MLOAD PUSH1 0x40 MLOAD DUP1 SWAP2 SUB SWAP1 LOG3 POP POP JUMP JUMPDEST PUSH0 PUSH1 0x1 SWAP1 POP JUMPDEST PUSH1 0x9 SLOAD DUP2 LT ISZERO PUSH2 0x1868 JUMPI DUP2 PUSH1 0x7 PUSH0 DUP4 DUP2 MSTORE PUSH1 0x20 ADD SWAP1 DUP2 MSTORE PUSH1 0x20 ADD PUSH0 KECCAK256 PUSH1 0x7 ADD SLOAD SUB PUSH2 0x185B JUMPI PUSH1 0x1 PUSH1 0x7 PUSH0 DUP4 DUP2 MSTORE PUSH1 0x20 ADD SWAP1 DUP2 MSTORE PUSH1 0x20 ADD PUSH0 KECCAK256 PUSH1 0x8 ADD PUSH0 PUSH2 0x100 EXP DUP2 SLOAD DUP2 PUSH1 0xFF MUL NOT AND SWAP1 DUP4 ISZERO ISZERO MUL OR SWAP1 SSTORE POP PUSH32 0x3C176691CA154A2F6FE978A2A633A33EE77DBE2902E67A75400720845A4B2CE1 DUP3 PUSH1 0x40 MLOAD PUSH2 0x184E SWAP2 SWAP1 PUSH2 0x1FCD JUMP JUMPDEST PUSH1 0x40 MLOAD DUP1 SWAP2 SUB SWAP1 LOG1 PUSH2 0x1868 JUMP JUMPDEST DUP1 DUP1 PUSH1 0x1 ADD SWAP2 POP POP PUSH2 0x17CE JUMP JUMPDEST POP POP JUMP JUMPDEST PUSH2 0x1897 DUP3 DUP3 ADDRESS PUSH20 0xFFFFFFFFFFFFFFFFFFFFFFFFFFFFFFFFFFFFFFFF AND PUSH2 0x1D05 SWAP1 SWAP3 SWAP2 SWAP1 PUSH4 0xFFFFFFFF AND JUMP JUMPDEST POP POP JUMP JUMPDEST PUSH0 PUSH20 0xFFFFFFFFFFFFFFFFFFFFFFFFFFFFFFFFFFFFFFFF AND DUP5 PUSH20 0xFFFFFFFFFFFFFFFFFFFFFFFFFFFFFFFFFFFFFFFF AND SUB PUSH2 0x190B JUMPI PUSH0 PUSH1 0x40 MLOAD PUSH32 0xE602DF0500000000000000000000000000000000000000000000000000000000 DUP2 MSTORE PUSH1 0x4 ADD PUSH2 0x1902 SWAP2 SWAP1 PUSH2 0x227B JUMP JUMPDEST PUSH1 0x40 MLOAD DUP1 SWAP2 SUB SWAP1 REVERT JUMPDEST PUSH0 PUSH20 0xFFFFFFFFFFFFFFFFFFFFFFFFFFFFFFFFFFFFFFFF AND DUP4 PUSH20 0xFFFFFFFFFFFFFFFFFFFFFFFFFFFFFFFFFFFFFFFF AND SUB PUSH2 0x197B JUMPI PUSH0 PUSH1 0x40 MLOAD PUSH32 0x94280D6200000000000000000000000000000000000000000000000000000000 DUP2 MSTORE PUSH1 0x4 ADD PUSH2 0x1972 SWAP2 SWAP1 PUSH2 0x227B JUMP JUMPDEST PUSH1 0x40 MLOAD DUP1 SWAP2 SUB SWAP1 REVERT JUMPDEST DUP2 PUSH1 0x1 PUSH0 DUP7 PUSH20 0xFFFFFFFFFFFFFFFFFFFFFFFFFFFFFFFFFFFFFFFF AND PUSH20 0xFFFFFFFFFFFFFFFFFFFFFFFFFFFFFFFFFFFFFFFF AND DUP2 MSTORE PUSH1 0x20 ADD SWAP1 DUP2 MSTORE PUSH1 0x20 ADD PUSH0 KECCAK256 PUSH0 DUP6 PUSH20 0xFFFFFFFFFFFFFFFFFFFFFFFFFFFFFFFFFFFFFFFF AND PUSH20 0xFFFFFFFFFFFFFFFFFFFFFFFFFFFFFFFFFFFFFFFF AND DUP2 MSTORE PUSH1 0x20 ADD SWAP1 DUP2 MSTORE PUSH1 0x20 ADD PUSH0 KECCAK256 DUP2 SWAP1 SSTORE POP DUP1 ISZERO PUSH2 0x1A64 JUMPI DUP3 PUSH20 0xFFFFFFFFFFFFFFFFFFFFFFFFFFFFFFFFFFFFFFFF AND DUP5 PUSH20 0xFFFFFFFFFFFFFFFFFFFFFFFFFFFFFFFFFFFFFFFF AND PUSH32 0x8C5BE1E5EBEC7D5BD14F71427D1E84F3DD0314C0F7B2291E5B200AC8C7C3B925 DUP5 PUSH1 0x40 MLOAD PUSH2 0x1A5B SWAP2 SWAP1 PUSH2 0x1FCD JUMP JUMPDEST PUSH1 0x40 MLOAD DUP1 SWAP2 SUB SWAP1 LOG3 JUMPDEST POP POP POP POP JUMP JUMPDEST PUSH2 0x1AE6 DUP5 DUP6 PUSH20 0xFFFFFFFFFFFFFFFFFFFFFFFFFFFFFFFFFFFFFFFF AND PUSH4 0x23B872DD DUP7 DUP7 DUP7 PUSH1 0x40 MLOAD PUSH1 0x24 ADD PUSH2 0x1A9F SWAP4 SWAP3 SWAP2 SWAP1 PUSH2 0x2D33 JUMP JUMPDEST PUSH1 0x40 MLOAD PUSH1 0x20 DUP2 DUP4 SUB SUB DUP2 MSTORE SWAP1 PUSH1 0x40 MSTORE SWAP2 POP PUSH1 0xE0 SHL PUSH1 0x20 DUP3 ADD DUP1 MLOAD PUSH28 0xFFFFFFFFFFFFFFFFFFFFFFFFFFFFFFFFFFFFFFFFFFFFFFFFFFFFFFFF DUP4 DUP2 DUP4 AND OR DUP4 MSTORE POP POP POP POP PUSH2 0x1D84 JUMP JUMPDEST POP POP POP POP JUMP JUMPDEST PUSH0 PUSH20 0xFFFFFFFFFFFFFFFFFFFFFFFFFFFFFFFFFFFFFFFF AND DUP4 PUSH20 0xFFFFFFFFFFFFFFFFFFFFFFFFFFFFFFFFFFFFFFFF AND SUB PUSH2 0x1B3C JUMPI DUP1 PUSH1 0x2 PUSH0 DUP3 DUP3 SLOAD PUSH2 0x1B30 SWAP2 SWAP1 PUSH2 0x25DB JUMP JUMPDEST SWAP3 POP POP DUP2 SWAP1 SSTORE POP PUSH2 0x1C0A JUMP JUMPDEST PUSH0 DUP1 PUSH0 DUP6 PUSH20 0xFFFFFFFFFFFFFFFFFFFFFFFFFFFFFFFFFFFFFFFF AND PUSH20 0xFFFFFFFFFFFFFFFFFFFFFFFFFFFFFFFFFFFFFFFF AND DUP2 MSTORE PUSH1 0x20 ADD SWAP1 DUP2 MSTORE PUSH1 0x20 ADD PUSH0 KECCAK256 SLOAD SWAP1 POP DUP2 DUP2 LT ISZERO PUSH2 0x1BC5 JUMPI DUP4 DUP2 DUP4 PUSH1 0x40 MLOAD PUSH32 0xE450D38C00000000000000000000000000000000000000000000000000000000 DUP2 MSTORE PUSH1 0x4 ADD PUSH2 0x1BBC SWAP4 SWAP3 SWAP2 SWAP1 PUSH2 0x2CFE JUMP JUMPDEST PUSH1 0x40 MLOAD DUP1 SWAP2 SUB SWAP1 REVERT JUMPDEST DUP2 DUP2 SUB PUSH0 DUP1 DUP7 PUSH20 0xFFFFFFFFFFFFFFFFFFFFFFFFFFFFFFFFFFFFFFFF AND PUSH20 0xFFFFFFFFFFFFFFFFFFFFFFFFFFFFFFFFFFFFFFFF AND DUP2 MSTORE PUSH1 0x20 ADD SWAP1 DUP2 MSTORE PUSH1 0x20 ADD PUSH0 KECCAK256 DUP2 SWAP1 SSTORE POP POP JUMPDEST PUSH0 PUSH20 0xFFFFFFFFFFFFFFFFFFFFFFFFFFFFFFFFFFFFFFFF AND DUP3 PUSH20 0xFFFFFFFFFFFFFFFFFFFFFFFFFFFFFFFFFFFFFFFF AND SUB PUSH2 0x1C51 JUMPI DUP1 PUSH1 0x2 PUSH0 DUP3 DUP3 SLOAD SUB SWAP3 POP POP DUP2 SWAP1 SSTORE POP PUSH2 0x1C9B JUMP JUMPDEST DUP1 PUSH0 DUP1 DUP5 PUSH20 0xFFFFFFFFFFFFFFFFFFFFFFFFFFFFFFFFFFFFFFFF AND PUSH20 0xFFFFFFFFFFFFFFFFFFFFFFFFFFFFFFFFFFFFFFFF AND DUP2 MSTORE PUSH1 0x20 ADD SWAP1 DUP2 MSTORE PUSH1 0x20 ADD PUSH0 KECCAK256 PUSH0 DUP3 DUP3 SLOAD ADD SWAP3 POP POP DUP2 SWAP1 SSTORE POP JUMPDEST DUP2 PUSH20 0xFFFFFFFFFFFFFFFFFFFFFFFFFFFFFFFFFFFFFFFF AND DUP4 PUSH20 0xFFFFFFFFFFFFFFFFFFFFFFFFFFFFFFFFFFFFFFFF AND PUSH32 0xDDF252AD1BE2C89B69C2B068FC378DAA952BA7F163C4A11628F55A4DF523B3EF DUP4 PUSH1 0x40 MLOAD PUSH2 0x1CF8 SWAP2 SWAP1 PUSH2 0x1FCD JUMP JUMPDEST PUSH1 0x40 MLOAD DUP1 SWAP2 SUB SWAP1 LOG3 POP POP POP JUMP JUMPDEST PUSH2 0x1D7F DUP4 DUP5 PUSH20 0xFFFFFFFFFFFFFFFFFFFFFFFFFFFFFFFFFFFFFFFF AND PUSH4 0xA9059CBB DUP6 DUP6 PUSH1 0x40 MLOAD PUSH1 0x24 ADD PUSH2 0x1D38 SWAP3 SWAP2 SWAP1 PUSH2 0x2D68 JUMP JUMPDEST PUSH1 0x40 MLOAD PUSH1 0x20 DUP2 DUP4 SUB SUB DUP2 MSTORE SWAP1 PUSH1 0x40 MSTORE SWAP2 POP PUSH1 0xE0 SHL PUSH1 0x20 DUP3 ADD DUP1 MLOAD PUSH28 0xFFFFFFFFFFFFFFFFFFFFFFFFFFFFFFFFFFFFFFFFFFFFFFFFFFFFFFFF DUP4 DUP2 DUP4 AND OR DUP4 MSTORE POP POP POP POP PUSH2 0x1D84 JUMP JUMPDEST POP POP POP JUMP JUMPDEST PUSH0 DUP1 PUSH1 0x20 PUSH0 DUP5 MLOAD PUSH1 0x20 DUP7 ADD PUSH0 DUP9 GAS CALL DUP1 PUSH2 0x1DA3 JUMPI PUSH1 0x40 MLOAD RETURNDATASIZE PUSH0 DUP3 RETURNDATACOPY RETURNDATASIZE DUP2 REVERT JUMPDEST RETURNDATASIZE SWAP3 POP PUSH0 MLOAD SWAP2 POP POP PUSH0 DUP3 EQ PUSH2 0x1DBC JUMPI PUSH1 0x1 DUP2 EQ ISZERO PUSH2 0x1DD7 JUMP JUMPDEST PUSH0 DUP5 PUSH20 0xFFFFFFFFFFFFFFFFFFFFFFFFFFFFFFFFFFFFFFFF AND EXTCODESIZE EQ JUMPDEST ISZERO PUSH2 0x1E19 JUMPI DUP4 PUSH1 0x40 MLOAD PUSH32 0x5274AFE700000000000000000000000000000000000000000000000000000000 DUP2 MSTORE PUSH1 0x4 ADD PUSH2 0x1E10 SWAP2 SWAP1 PUSH2 0x227B JUMP JUMPDEST PUSH1 0x40 MLOAD DUP1 SWAP2 SUB SWAP1 REVERT JUMPDEST POP POP POP POP JUMP JUMPDEST PUSH0 DUP2 MLOAD SWAP1 POP SWAP2 SWAP1 POP JUMP JUMPDEST PUSH0 DUP3 DUP3 MSTORE PUSH1 0x20 DUP3 ADD SWAP1 POP SWAP3 SWAP2 POP POP JUMP JUMPDEST DUP3 DUP2 DUP4 MCOPY PUSH0 DUP4 DUP4 ADD MSTORE POP POP POP JUMP JUMPDEST PUSH0 PUSH1 0x1F NOT PUSH1 0x1F DUP4 ADD AND SWAP1 POP SWAP2 SWAP1 POP JUMP JUMPDEST PUSH0 PUSH2 0x1E61 DUP3 PUSH2 0x1E1F JUMP JUMPDEST PUSH2 0x1E6B DUP2 DUP6 PUSH2 0x1E29 JUMP JUMPDEST SWAP4 POP PUSH2 0x1E7B DUP2 DUP6 PUSH1 0x20 DUP7 ADD PUSH2 0x1E39 JUMP JUMPDEST PUSH2 0x1E84 DUP2 PUSH2 0x1E47 JUMP JUMPDEST DUP5 ADD SWAP2 POP POP SWAP3 SWAP2 POP POP JUMP JUMPDEST PUSH0 PUSH1 0x20 DUP3 ADD SWAP1 POP DUP2 DUP2 SUB PUSH0 DUP4 ADD MSTORE PUSH2 0x1EA7 DUP2 DUP5 PUSH2 0x1E57 JUMP JUMPDEST SWAP1 POP SWAP3 SWAP2 POP POP JUMP JUMPDEST PUSH0 PUSH1 0x40 MLOAD SWAP1 POP SWAP1 JUMP JUMPDEST PUSH0 DUP1 REVERT JUMPDEST PUSH0 DUP1 REVERT JUMPDEST PUSH0 PUSH20 0xFFFFFFFFFFFFFFFFFFFFFFFFFFFFFFFFFFFFFFFF DUP3 AND SWAP1 POP SWAP2 SWAP1 POP JUMP JUMPDEST PUSH0 PUSH2 0x1EE9 DUP3 PUSH2 0x1EC0 JUMP JUMPDEST SWAP1 POP SWAP2 SWAP1 POP JUMP JUMPDEST PUSH2 0x1EF9 DUP2 PUSH2 0x1EDF JUMP JUMPDEST DUP2 EQ PUSH2 0x1F03 JUMPI PUSH0 DUP1 REVERT JUMPDEST POP JUMP JUMPDEST PUSH0 DUP2 CALLDATALOAD SWAP1 POP PUSH2 0x1F14 DUP2 PUSH2 0x1EF0 JUMP JUMPDEST SWAP3 SWAP2 POP POP JUMP JUMPDEST PUSH0 DUP2 SWAP1 POP SWAP2 SWAP1 POP JUMP JUMPDEST PUSH2 0x1F2C DUP2 PUSH2 0x1F1A JUMP JUMPDEST DUP2 EQ PUSH2 0x1F36 JUMPI PUSH0 DUP1 REVERT JUMPDEST POP JUMP JUMPDEST PUSH0 DUP2 CALLDATALOAD SWAP1 POP PUSH2 0x1F47 DUP2 PUSH2 0x1F23 JUMP JUMPDEST SWAP3 SWAP2 POP POP JUMP JUMPDEST PUSH0 DUP1 PUSH1 0x40 DUP4 DUP6 SUB SLT ISZERO PUSH2 0x1F63 JUMPI PUSH2 0x1F62 PUSH2 0x1EB8 JUMP JUMPDEST JUMPDEST PUSH0 PUSH2 0x1F70 DUP6 DUP3 DUP7 ADD PUSH2 0x1F06 JUMP JUMPDEST SWAP3 POP POP PUSH1 0x20 PUSH2 0x1F81 DUP6 DUP3 DUP7 ADD PUSH2 0x1F39 JUMP JUMPDEST SWAP2 POP POP SWAP3 POP SWAP3 SWAP1 POP JUMP JUMPDEST PUSH0 DUP2 ISZERO ISZERO SWAP1 POP SWAP2 SWAP1 POP JUMP JUMPDEST PUSH2 0x1F9F DUP2 PUSH2 0x1F8B JUMP JUMPDEST DUP3 MSTORE POP POP JUMP JUMPDEST PUSH0 PUSH1 0x20 DUP3 ADD SWAP1 POP PUSH2 0x1FB8 PUSH0 DUP4 ADD DUP5 PUSH2 0x1F96 JUMP JUMPDEST SWAP3 SWAP2 POP POP JUMP JUMPDEST PUSH2 0x1FC7 DUP2 PUSH2 0x1F1A JUMP JUMPDEST DUP3 MSTORE POP POP JUMP JUMPDEST PUSH0 PUSH1 0x20 DUP3 ADD SWAP1 POP PUSH2 0x1FE0 PUSH0 DUP4 ADD DUP5 PUSH2 0x1FBE JUMP JUMPDEST SWAP3 SWAP2 POP POP JUMP JUMPDEST PUSH0 DUP1 REVERT JUMPDEST PUSH0 DUP1 REVERT JUMPDEST PUSH32 0x4E487B7100000000000000000000000000000000000000000000000000000000 PUSH0 MSTORE PUSH1 0x41 PUSH1 0x4 MSTORE PUSH1 0x24 PUSH0 REVERT JUMPDEST PUSH2 0x2024 DUP3 PUSH2 0x1E47 JUMP JUMPDEST DUP2 ADD DUP2 DUP2 LT PUSH8 0xFFFFFFFFFFFFFFFF DUP3 GT OR ISZERO PUSH2 0x2043 JUMPI PUSH2 0x2042 PUSH2 0x1FEE JUMP JUMPDEST JUMPDEST DUP1 PUSH1 0x40 MSTORE POP POP POP JUMP JUMPDEST PUSH0 PUSH2 0x2055 PUSH2 0x1EAF JUMP JUMPDEST SWAP1 POP PUSH2 0x2061 DUP3 DUP3 PUSH2 0x201B JUMP JUMPDEST SWAP2 SWAP1 POP JUMP JUMPDEST PUSH0 PUSH8 0xFFFFFFFFFFFFFFFF DUP3 GT ISZERO PUSH2 0x2080 JUMPI PUSH2 0x207F PUSH2 0x1FEE JUMP JUMPDEST JUMPDEST PUSH2 0x2089 DUP3 PUSH2 0x1E47 JUMP JUMPDEST SWAP1 POP PUSH1 0x20 DUP2 ADD SWAP1 POP SWAP2 SWAP1 POP JUMP JUMPDEST DUP3 DUP2 DUP4 CALLDATACOPY PUSH0 DUP4 DUP4 ADD MSTORE POP POP POP JUMP JUMPDEST PUSH0 PUSH2 0x20B6 PUSH2 0x20B1 DUP5 PUSH2 0x2066 JUMP JUMPDEST PUSH2 0x204C JUMP JUMPDEST SWAP1 POP DUP3 DUP2 MSTORE PUSH1 0x20 DUP2 ADD DUP5 DUP5 DUP5 ADD GT ISZERO PUSH2 0x20D2 JUMPI PUSH2 0x20D1 PUSH2 0x1FEA JUMP JUMPDEST JUMPDEST PUSH2 0x20DD DUP5 DUP3 DUP6 PUSH2 0x2096 JUMP JUMPDEST POP SWAP4 SWAP3 POP POP POP JUMP JUMPDEST PUSH0 DUP3 PUSH1 0x1F DUP4 ADD SLT PUSH2 0x20F9 JUMPI PUSH2 0x20F8 PUSH2 0x1FE6 JUMP JUMPDEST JUMPDEST DUP2 CALLDATALOAD PUSH2 0x2109 DUP5 DUP3 PUSH1 0x20 DUP7 ADD PUSH2 0x20A4 JUMP JUMPDEST SWAP2 POP POP SWAP3 SWAP2 POP POP JUMP JUMPDEST PUSH0 DUP1 PUSH0 DUP1 PUSH1 0x80 DUP6 DUP8 SUB SLT ISZERO PUSH2 0x212A JUMPI PUSH2 0x2129 PUSH2 0x1EB8 JUMP JUMPDEST JUMPDEST PUSH0 PUSH2 0x2137 DUP8 DUP3 DUP9 ADD PUSH2 0x1F06 JUMP JUMPDEST SWAP5 POP POP PUSH1 0x20 PUSH2 0x2148 DUP8 DUP3 DUP9 ADD PUSH2 0x1F39 JUMP JUMPDEST SWAP4 POP POP PUSH1 0x40 PUSH2 0x2159 DUP8 DUP3 DUP9 ADD PUSH2 0x1F39 JUMP JUMPDEST SWAP3 POP POP PUSH1 0x60 DUP6 ADD CALLDATALOAD PUSH8 0xFFFFFFFFFFFFFFFF DUP2 GT ISZERO PUSH2 0x217A JUMPI PUSH2 0x2179 PUSH2 0x1EBC JUMP JUMPDEST JUMPDEST PUSH2 0x2186 DUP8 DUP3 DUP9 ADD PUSH2 0x20E5 JUMP JUMPDEST SWAP2 POP POP SWAP3 SWAP6 SWAP2 SWAP5 POP SWAP3 POP JUMP JUMPDEST PUSH0 DUP1 PUSH0 PUSH1 0x60 DUP5 DUP7 SUB SLT ISZERO PUSH2 0x21A9 JUMPI PUSH2 0x21A8 PUSH2 0x1EB8 JUMP JUMPDEST JUMPDEST PUSH0 PUSH2 0x21B6 DUP7 DUP3 DUP8 ADD PUSH2 0x1F06 JUMP JUMPDEST SWAP4 POP POP PUSH1 0x20 PUSH2 0x21C7 DUP7 DUP3 DUP8 ADD PUSH2 0x1F06 JUMP JUMPDEST SWAP3 POP POP PUSH1 0x40 PUSH2 0x21D8 DUP7 DUP3 DUP8 ADD PUSH2 0x1F39 JUMP JUMPDEST SWAP2 POP POP SWAP3 POP SWAP3 POP SWAP3 JUMP JUMPDEST PUSH0 PUSH1 0xFF DUP3 AND SWAP1 POP SWAP2 SWAP1 POP JUMP JUMPDEST PUSH2 0x21F7 DUP2 PUSH2 0x21E2 JUMP JUMPDEST DUP3 MSTORE POP POP JUMP JUMPDEST PUSH0 PUSH1 0x20 DUP3 ADD SWAP1 POP PUSH2 0x2210 PUSH0 DUP4 ADD DUP5 PUSH2 0x21EE JUMP JUMPDEST SWAP3 SWAP2 POP POP JUMP JUMPDEST PUSH0 PUSH1 0x20 DUP3 DUP5 SUB SLT ISZERO PUSH2 0x222B JUMPI PUSH2 0x222A PUSH2 0x1EB8 JUMP JUMPDEST JUMPDEST PUSH0 PUSH2 0x2238 DUP5 DUP3 DUP6 ADD PUSH2 0x1F06 JUMP JUMPDEST SWAP2 POP POP SWAP3 SWAP2 POP POP JUMP JUMPDEST PUSH0 PUSH1 0x20 DUP3 DUP5 SUB SLT ISZERO PUSH2 0x2256 JUMPI PUSH2 0x2255 PUSH2 0x1EB8 JUMP JUMPDEST JUMPDEST PUSH0 PUSH2 0x2263 DUP5 DUP3 DUP6 ADD PUSH2 0x1F39 JUMP JUMPDEST SWAP2 POP POP SWAP3 SWAP2 POP POP JUMP JUMPDEST PUSH2 0x2275 DUP2 PUSH2 0x1EDF JUMP JUMPDEST DUP3 MSTORE POP POP JUMP JUMPDEST PUSH0 PUSH1 0x20 DUP3 ADD SWAP1 POP PUSH2 0x228E PUSH0 DUP4 ADD DUP5 PUSH2 0x226C JUMP JUMPDEST SWAP3 SWAP2 POP POP JUMP JUMPDEST PUSH0 DUP1 PUSH1 0x40 DUP4 DUP6 SUB SLT ISZERO PUSH2 0x22AA JUMPI PUSH2 0x22A9 PUSH2 0x1EB8 JUMP JUMPDEST JUMPDEST PUSH0 PUSH2 0x22B7 DUP6 DUP3 DUP7 ADD PUSH2 0x1F06 JUMP JUMPDEST SWAP3 POP POP PUSH1 0x20 PUSH2 0x22C8 DUP6 DUP3 DUP7 ADD PUSH2 0x1F06 JUMP JUMPDEST SWAP2 POP POP SWAP3 POP SWAP3 SWAP1 POP JUMP JUMPDEST PUSH0 PUSH2 0x180 DUP3 ADD SWAP1 POP PUSH2 0x22E6 PUSH0 DUP4 ADD DUP16 PUSH2 0x226C JUMP JUMPDEST PUSH2 0x22F3 PUSH1 0x20 DUP4 ADD DUP15 PUSH2 0x226C JUMP JUMPDEST PUSH2 0x2300 PUSH1 0x40 DUP4 ADD DUP14 PUSH2 0x1FBE JUMP JUMPDEST PUSH2 0x230D PUSH1 0x60 DUP4 ADD DUP13 PUSH2 0x1FBE JUMP JUMPDEST PUSH2 0x231A PUSH1 0x80 DUP4 ADD DUP12 PUSH2 0x1FBE JUMP JUMPDEST PUSH2 0x2327 PUSH1 0xA0 DUP4 ADD DUP11 PUSH2 0x1FBE JUMP JUMPDEST PUSH2 0x2334 PUSH1 0xC0 DUP4 ADD DUP10 PUSH2 0x1F96 JUMP JUMPDEST PUSH2 0x2341 PUSH1 0xE0 DUP4 ADD DUP9 PUSH2 0x1F96 JUMP JUMPDEST PUSH2 0x234F PUSH2 0x100 DUP4 ADD DUP8 PUSH2 0x1F96 JUMP JUMPDEST PUSH2 0x235D PUSH2 0x120 DUP4 ADD DUP7 PUSH2 0x1FBE JUMP JUMPDEST PUSH2 0x236B PUSH2 0x140 DUP4 ADD DUP6 PUSH2 0x1F96 JUMP JUMPDEST DUP2 DUP2 SUB PUSH2 0x160 DUP4 ADD MSTORE PUSH2 0x237E DUP2 DUP5 PUSH2 0x1E57 JUMP JUMPDEST SWAP1 POP SWAP14 SWAP13 POP POP POP POP POP POP POP POP POP POP POP POP POP JUMP JUMPDEST PUSH32 0x4E487B7100000000000000000000000000000000000000000000000000000000 PUSH0 MSTORE PUSH1 0x22 PUSH1 0x4 MSTORE PUSH1 0x24 PUSH0 REVERT JUMPDEST PUSH0 PUSH1 0x2 DUP3 DIV SWAP1 POP PUSH1 0x1 DUP3 AND DUP1 PUSH2 0x23D5 JUMPI PUSH1 0x7F DUP3 AND SWAP2 POP JUMPDEST PUSH1 0x20 DUP3 LT DUP2 SUB PUSH2 0x23E8 JUMPI PUSH2 0x23E7 PUSH2 0x2391 JUMP JUMPDEST JUMPDEST POP SWAP2 SWAP1 POP JUMP JUMPDEST PUSH32 0x426F72726F776572206D757374206265204B5943207665726966696564000000 PUSH0 DUP3 ADD MSTORE POP JUMP JUMPDEST PUSH0 PUSH2 0x2422 PUSH1 0x1D DUP4 PUSH2 0x1E29 JUMP JUMPDEST SWAP2 POP PUSH2 0x242D DUP3 PUSH2 0x23EE JUMP JUMPDEST PUSH1 0x20 DUP3 ADD SWAP1 POP SWAP2 SWAP1 POP JUMP JUMPDEST PUSH0 PUSH1 0x20 DUP3 ADD SWAP1 POP DUP2 DUP2 SUB PUSH0 DUP4 ADD MSTORE PUSH2 0x244F DUP2 PUSH2 0x2416 JUMP JUMPDEST SWAP1 POP SWAP2 SWAP1 POP JUMP JUMPDEST PUSH32 0x496E73756666696369656E742066756E64730000000000000000000000000000 PUSH0 DUP3 ADD MSTORE POP JUMP JUMPDEST PUSH0 PUSH2 0x248A PUSH1 0x12 DUP4 PUSH2 0x1E29 JUMP JUMPDEST SWAP2 POP PUSH2 0x2495 DUP3 PUSH2 0x2456 JUMP JUMPDEST PUSH1 0x20 DUP3 ADD SWAP1 POP SWAP2 SWAP1 POP JUMP JUMPDEST PUSH0 PUSH1 0x20 DUP3 ADD SWAP1 POP DUP2 DUP2 SUB PUSH0 DUP4 ADD MSTORE PUSH2 0x24B7 DUP2 PUSH2 0x247E JUMP JUMPDEST SWAP1 POP SWAP2 SWAP1 POP JUMP JUMPDEST PUSH32 0x416C6C6F77616E6365206973206E6F7420656E6F756768000000000000000000 PUSH0 DUP3 ADD MSTORE POP JUMP JUMPDEST PUSH0 PUSH2 0x24F2 PUSH1 0x17 DUP4 PUSH2 0x1E29 JUMP JUMPDEST SWAP2 POP PUSH2 0x24FD DUP3 PUSH2 0x24BE JUMP JUMPDEST PUSH1 0x20 DUP3 ADD SWAP1 POP SWAP2 SWAP1 POP JUMP JUMPDEST PUSH0 PUSH1 0x20 DUP3 ADD SWAP1 POP DUP2 DUP2 SUB PUSH0 DUP4 ADD MSTORE PUSH2 0x251F DUP2 PUSH2 0x24E6 JUMP JUMPDEST SWAP1 POP SWAP2 SWAP1 POP JUMP JUMPDEST PUSH32 0x4E487B7100000000000000000000000000000000000000000000000000000000 PUSH0 MSTORE PUSH1 0x11 PUSH1 0x4 MSTORE PUSH1 0x24 PUSH0 REVERT JUMPDEST PUSH0 PUSH2 0x255D DUP3 PUSH2 0x1F1A JUMP JUMPDEST SWAP2 POP PUSH32 0xFFFFFFFFFFFFFFFFFFFFFFFFFFFFFFFFFFFFFFFFFFFFFFFFFFFFFFFFFFFFFFFF DUP3 SUB PUSH2 0x258F JUMPI PUSH2 0x258E PUSH2 0x2526 JUMP JUMPDEST JUMPDEST PUSH1 0x1 DUP3 ADD SWAP1 POP SWAP2 SWAP1 POP JUMP JUMPDEST PUSH0 PUSH2 0x25A4 DUP3 PUSH2 0x1F1A JUMP JUMPDEST SWAP2 POP PUSH2 0x25AF DUP4 PUSH2 0x1F1A JUMP JUMPDEST SWAP3 POP DUP3 DUP3 MUL PUSH2 0x25BD DUP2 PUSH2 0x1F1A JUMP JUMPDEST SWAP2 POP DUP3 DUP3 DIV DUP5 EQ DUP4 ISZERO OR PUSH2 0x25D4 JUMPI PUSH2 0x25D3 PUSH2 0x2526 JUMP JUMPDEST JUMPDEST POP SWAP3 SWAP2 POP POP JUMP JUMPDEST PUSH0 PUSH2 0x25E5 DUP3 PUSH2 0x1F1A JUMP JUMPDEST SWAP2 POP PUSH2 0x25F0 DUP4 PUSH2 0x1F1A JUMP JUMPDEST SWAP3 POP DUP3 DUP3 ADD SWAP1 POP DUP1 DUP3 GT ISZERO PUSH2 0x2608 JUMPI PUSH2 0x2607 PUSH2 0x2526 JUMP JUMPDEST JUMPDEST SWAP3 SWAP2 POP POP JUMP JUMPDEST PUSH0 DUP2 SWAP1 POP DUP2 PUSH0 MSTORE PUSH1 0x20 PUSH0 KECCAK256 SWAP1 POP SWAP2 SWAP1 POP JUMP JUMPDEST PUSH0 PUSH1 0x20 PUSH1 0x1F DUP4 ADD DIV SWAP1 POP SWAP2 SWAP1 POP JUMP JUMPDEST PUSH0 DUP3 DUP3 SHL SWAP1 POP SWAP3 SWAP2 POP POP JUMP JUMPDEST PUSH0 PUSH1 0x8 DUP4 MUL PUSH2 0x266A PUSH32 0xFFFFFFFFFFFFFFFFFFFFFFFFFFFFFFFFFFFFFFFFFFFFFFFFFFFFFFFFFFFFFFFF DUP3 PUSH2 0x262F JUMP JUMPDEST PUSH2 0x2674 DUP7 DUP4 PUSH2 0x262F JUMP JUMPDEST SWAP6 POP DUP1 NOT DUP5 AND SWAP4 POP DUP1 DUP7 AND DUP5 OR SWAP3 POP POP POP SWAP4 SWAP3 POP POP POP JUMP JUMPDEST PUSH0 DUP2 SWAP1 POP SWAP2 SWAP1 POP JUMP JUMPDEST PUSH0 PUSH2 0x26AF PUSH2 0x26AA PUSH2 0x26A5 DUP5 PUSH2 0x1F1A JUMP JUMPDEST PUSH2 0x268C JUMP JUMPDEST PUSH2 0x1F1A JUMP JUMPDEST SWAP1 POP SWAP2 SWAP1 POP JUMP JUMPDEST PUSH0 DUP2 SWAP1 POP SWAP2 SWAP1 POP JUMP JUMPDEST PUSH2 0x26C8 DUP4 PUSH2 0x2695 JUMP JUMPDEST PUSH2 0x26DC PUSH2 0x26D4 DUP3 PUSH2 0x26B6 JUMP JUMPDEST DUP5 DUP5 SLOAD PUSH2 0x263B JUMP JUMPDEST DUP3 SSTORE POP POP POP POP JUMP JUMPDEST PUSH0 SWAP1 JUMP JUMPDEST PUSH2 0x26F0 PUSH2 0x26E4 JUMP JUMPDEST PUSH2 0x26FB DUP2 DUP5 DUP5 PUSH2 0x26BF JUMP JUMPDEST POP POP POP JUMP JUMPDEST JUMPDEST DUP2 DUP2 LT ISZERO PUSH2 0x271E JUMPI PUSH2 0x2713 PUSH0 DUP3 PUSH2 0x26E8 JUMP JUMPDEST PUSH1 0x1 DUP2 ADD SWAP1 POP PUSH2 0x2701 JUMP JUMPDEST POP POP JUMP JUMPDEST PUSH1 0x1F DUP3 GT ISZERO PUSH2 0x2763 JUMPI PUSH2 0x2734 DUP2 PUSH2 0x260E JUMP JUMPDEST PUSH2 0x273D DUP5 PUSH2 0x2620 JUMP JUMPDEST DUP2 ADD PUSH1 0x20 DUP6 LT ISZERO PUSH2 0x274C JUMPI DUP2 SWAP1 POP JUMPDEST PUSH2 0x2760 PUSH2 0x2758 DUP6 PUSH2 0x2620 JUMP JUMPDEST DUP4 ADD DUP3 PUSH2 0x2700 JUMP JUMPDEST POP POP JUMPDEST POP POP POP JUMP JUMPDEST PUSH0 DUP3 DUP3 SHR SWAP1 POP SWAP3 SWAP2 POP POP JUMP JUMPDEST PUSH0 PUSH2 0x2783 PUSH0 NOT DUP5 PUSH1 0x8 MUL PUSH2 0x2768 JUMP JUMPDEST NOT DUP1 DUP4 AND SWAP2 POP POP SWAP3 SWAP2 POP POP JUMP JUMPDEST PUSH0 PUSH2 0x279B DUP4 DUP4 PUSH2 0x2774 JUMP JUMPDEST SWAP2 POP DUP3 PUSH1 0x2 MUL DUP3 OR SWAP1 POP SWAP3 SWAP2 POP POP JUMP JUMPDEST PUSH2 0x27B4 DUP3 PUSH2 0x1E1F JUMP JUMPDEST PUSH8 0xFFFFFFFFFFFFFFFF DUP2 GT ISZERO PUSH2 0x27CD JUMPI PUSH2 0x27CC PUSH2 0x1FEE JUMP JUMPDEST JUMPDEST PUSH2 0x27D7 DUP3 SLOAD PUSH2 0x23BE JUMP JUMPDEST PUSH2 0x27E2 DUP3 DUP3 DUP6 PUSH2 0x2722 JUMP JUMPDEST PUSH0 PUSH1 0x20 SWAP1 POP PUSH1 0x1F DUP4 GT PUSH1 0x1 DUP2 EQ PUSH2 0x2813 JUMPI PUSH0 DUP5 ISZERO PUSH2 0x2801 JUMPI DUP3 DUP8 ADD MLOAD SWAP1 POP JUMPDEST PUSH2 0x280B DUP6 DUP3 PUSH2 0x2790 JUMP JUMPDEST DUP7 SSTORE POP PUSH2 0x2872 JUMP JUMPDEST PUSH1 0x1F NOT DUP5 AND PUSH2 0x2821 DUP7 PUSH2 0x260E JUMP JUMPDEST PUSH0 JUMPDEST DUP3 DUP2 LT ISZERO PUSH2 0x2848 JUMPI DUP5 DUP10 ADD MLOAD DUP3 SSTORE PUSH1 0x1 DUP3 ADD SWAP2 POP PUSH1 0x20 DUP6 ADD SWAP5 POP PUSH1 0x20 DUP2 ADD SWAP1 POP PUSH2 0x2823 JUMP JUMPDEST DUP7 DUP4 LT ISZERO PUSH2 0x2865 JUMPI DUP5 DUP10 ADD MLOAD PUSH2 0x2861 PUSH1 0x1F DUP10 AND DUP3 PUSH2 0x2774 JUMP JUMPDEST DUP4 SSTORE POP JUMPDEST PUSH1 0x1 PUSH1 0x2 DUP9 MUL ADD DUP9 SSTORE POP POP POP JUMPDEST POP POP POP POP POP POP JUMP JUMPDEST PUSH0 PUSH2 0x100 DUP3 ADD SWAP1 POP PUSH2 0x288E PUSH0 DUP4 ADD DUP12 PUSH2 0x1FBE JUMP JUMPDEST PUSH2 0x289B PUSH1 0x20 DUP4 ADD DUP11 PUSH2 0x226C JUMP JUMPDEST PUSH2 0x28A8 PUSH1 0x40 DUP4 ADD DUP10 PUSH2 0x226C JUMP JUMPDEST PUSH2 0x28B5 PUSH1 0x60 DUP4 ADD DUP9 PUSH2 0x1FBE JUMP JUMPDEST PUSH2 0x28C2 PUSH1 0x80 DUP4 ADD DUP8 PUSH2 0x1FBE JUMP JUMPDEST PUSH2 0x28CF PUSH1 0xA0 DUP4 ADD DUP7 PUSH2 0x1FBE JUMP JUMPDEST PUSH2 0x28DC PUSH1 0xC0 DUP4 ADD DUP6 PUSH2 0x1FBE JUMP JUMPDEST DUP2 DUP2 SUB PUSH1 0xE0 DUP4 ADD MSTORE PUSH2 0x28EE DUP2 DUP5 PUSH2 0x1E57 JUMP JUMPDEST SWAP1 POP SWAP10 SWAP9 POP POP POP POP POP POP POP POP POP JUMP JUMPDEST PUSH32 0x4C6F616E206973207374696C6C2077697468696E2072657061796D656E742070 PUSH0 DUP3 ADD MSTORE PUSH32 0x6572696F64000000000000000000000000000000000000000000000000000000 PUSH1 0x20 DUP3 ADD MSTORE POP JUMP JUMPDEST PUSH0 PUSH2 0x2957 PUSH1 0x25 DUP4 PUSH2 0x1E29 JUMP JUMPDEST SWAP2 POP PUSH2 0x2962 DUP3 PUSH2 0x28FD JUMP JUMPDEST PUSH1 0x40 DUP3 ADD SWAP1 POP SWAP2 SWAP1 POP JUMP JUMPDEST PUSH0 PUSH1 0x20 DUP3 ADD SWAP1 POP DUP2 DUP2 SUB PUSH0 DUP4 ADD MSTORE PUSH2 0x2984 DUP2 PUSH2 0x294B JUMP JUMPDEST SWAP1 POP SWAP2 SWAP1 POP JUMP JUMPDEST PUSH32 0x4C6F616E20616C72656164792072657061696400000000000000000000000000 PUSH0 DUP3 ADD MSTORE POP JUMP JUMPDEST PUSH0 PUSH2 0x29BF PUSH1 0x13 DUP4 PUSH2 0x1E29 JUMP JUMPDEST SWAP2 POP PUSH2 0x29CA DUP3 PUSH2 0x298B JUMP JUMPDEST PUSH1 0x20 DUP3 ADD SWAP1 POP SWAP2 SWAP1 POP JUMP JUMPDEST PUSH0 PUSH1 0x20 DUP3 ADD SWAP1 POP DUP2 DUP2 SUB PUSH0 DUP4 ADD MSTORE PUSH2 0x29EC DUP2 PUSH2 0x29B3 JUMP JUMPDEST SWAP1 POP SWAP2 SWAP1 POP JUMP JUMPDEST PUSH0 PUSH2 0x29FD DUP3 PUSH2 0x1F1A JUMP JUMPDEST SWAP2 POP PUSH2 0x2A08 DUP4 PUSH2 0x1F1A JUMP JUMPDEST SWAP3 POP DUP3 DUP3 SUB SWAP1 POP DUP2 DUP2 GT ISZERO PUSH2 0x2A20 JUMPI PUSH2 0x2A1F PUSH2 0x2526 JUMP JUMPDEST JUMPDEST SWAP3 SWAP2 POP POP JUMP JUMPDEST PUSH32 0x4F6E6C7920626F72726F7765722063616E207265706179000000000000000000 PUSH0 DUP3 ADD MSTORE POP JUMP JUMPDEST PUSH0 PUSH2 0x2A5A PUSH1 0x17 DUP4 PUSH2 0x1E29 JUMP JUMPDEST SWAP2 POP PUSH2 0x2A65 DUP3 PUSH2 0x2A26 JUMP JUMPDEST PUSH1 0x20 DUP3 ADD SWAP1 POP SWAP2 SWAP1 POP JUMP JUMPDEST PUSH0 PUSH1 0x20 DUP3 ADD SWAP1 POP DUP2 DUP2 SUB PUSH0 DUP4 ADD MSTORE PUSH2 0x2A87 DUP2 PUSH2 0x2A4E JUMP JUMPDEST SWAP1 POP SWAP2 SWAP1 POP JUMP JUMPDEST PUSH32 0x4C6F616E206D7573742062652061636365707465642066697273740000000000 PUSH0 DUP3 ADD MSTORE POP JUMP JUMPDEST PUSH0 PUSH2 0x2AC2 PUSH1 0x1B DUP4 PUSH2 0x1E29 JUMP JUMPDEST SWAP2 POP PUSH2 0x2ACD DUP3 PUSH2 0x2A8E JUMP JUMPDEST PUSH1 0x20 DUP3 ADD SWAP1 POP SWAP2 SWAP1 POP JUMP JUMPDEST PUSH0 PUSH1 0x20 DUP3 ADD SWAP1 POP DUP2 DUP2 SUB PUSH0 DUP4 ADD MSTORE PUSH2 0x2AEF DUP2 PUSH2 0x2AB6 JUMP JUMPDEST SWAP1 POP SWAP2 SWAP1 POP JUMP JUMPDEST PUSH32 0x4F6E6C7920626F72726F7765722063616E206163636570740000000000000000 PUSH0 DUP3 ADD MSTORE POP JUMP JUMPDEST PUSH0 PUSH2 0x2B2A PUSH1 0x18 DUP4 PUSH2 0x1E29 JUMP JUMPDEST SWAP2 POP PUSH2 0x2B35 DUP3 PUSH2 0x2AF6 JUMP JUMPDEST PUSH1 0x20 DUP3 ADD SWAP1 POP SWAP2 SWAP1 POP JUMP JUMPDEST PUSH0 PUSH1 0x20 DUP3 ADD SWAP1 POP DUP2 DUP2 SUB PUSH0 DUP4 ADD MSTORE PUSH2 0x2B57 DUP2 PUSH2 0x2B1E JUMP JUMPDEST SWAP1 POP SWAP2 SWAP1 POP JUMP JUMPDEST PUSH32 0x4C6F616E20616C72656164792061636365707465640000000000000000000000 PUSH0 DUP3 ADD MSTORE POP JUMP JUMPDEST PUSH0 PUSH2 0x2B92 PUSH1 0x15 DUP4 PUSH2 0x1E29 JUMP JUMPDEST SWAP2 POP PUSH2 0x2B9D DUP3 PUSH2 0x2B5E JUMP JUMPDEST PUSH1 0x20 DUP3 ADD SWAP1 POP SWAP2 SWAP1 POP JUMP JUMPDEST PUSH0 PUSH1 0x20 DUP3 ADD SWAP1 POP DUP2 DUP2 SUB PUSH0 DUP4 ADD MSTORE PUSH2 0x2BBF DUP2 PUSH2 0x2B86 JUMP JUMPDEST SWAP1 POP SWAP2 SWAP1 POP JUMP JUMPDEST PUSH32 0x4F6E6C79206C656E6465722063616E2063616E63656C00000000000000000000 PUSH0 DUP3 ADD MSTORE POP JUMP JUMPDEST PUSH0 PUSH2 0x2BFA PUSH1 0x16 DUP4 PUSH2 0x1E29 JUMP JUMPDEST SWAP2 POP PUSH2 0x2C05 DUP3 PUSH2 0x2BC6 JUMP JUMPDEST PUSH1 0x20 DUP3 ADD SWAP1 POP SWAP2 SWAP1 POP JUMP JUMPDEST PUSH0 PUSH1 0x20 DUP3 ADD SWAP1 POP DUP2 DUP2 SUB PUSH0 DUP4 ADD MSTORE PUSH2 0x2C27 DUP2 PUSH2 0x2BEE JUMP JUMPDEST SWAP1 POP SWAP2 SWAP1 POP JUMP JUMPDEST PUSH32 0x4C6F616E20616C72656164792063616E63656C6C656400000000000000000000 PUSH0 DUP3 ADD MSTORE POP JUMP JUMPDEST PUSH0 PUSH2 0x2C62 PUSH1 0x16 DUP4 PUSH2 0x1E29 JUMP JUMPDEST SWAP2 POP PUSH2 0x2C6D DUP3 PUSH2 0x2C2E JUMP JUMPDEST PUSH1 0x20 DUP3 ADD SWAP1 POP SWAP2 SWAP1 POP JUMP JUMPDEST PUSH0 PUSH1 0x20 DUP3 ADD SWAP1 POP DUP2 DUP2 SUB PUSH0 DUP4 ADD MSTORE PUSH2 0x2C8F DUP2 PUSH2 0x2C56 JUMP JUMPDEST SWAP1 POP SWAP2 SWAP1 POP JUMP JUMPDEST PUSH32 0x43616E6E6F742063616E63656C20616E206163636570746564206C6F616E0000 PUSH0 DUP3 ADD MSTORE POP JUMP JUMPDEST PUSH0 PUSH2 0x2CCA PUSH1 0x1E DUP4 PUSH2 0x1E29 JUMP JUMPDEST SWAP2 POP PUSH2 0x2CD5 DUP3 PUSH2 0x2C96 JUMP JUMPDEST PUSH1 0x20 DUP3 ADD SWAP1 POP SWAP2 SWAP1 POP JUMP JUMPDEST PUSH0 PUSH1 0x20 DUP3 ADD SWAP1 POP DUP2 DUP2 SUB PUSH0 DUP4 ADD MSTORE PUSH2 0x2CF7 DUP2 PUSH2 0x2CBE JUMP JUMPDEST SWAP1 POP SWAP2 SWAP1 POP JUMP JUMPDEST PUSH0 PUSH1 0x60 DUP3 ADD SWAP1 POP PUSH2 0x2D11 PUSH0 DUP4 ADD DUP7 PUSH2 0x226C JUMP JUMPDEST PUSH2 0x2D1E PUSH1 0x20 DUP4 ADD DUP6 PUSH2 0x1FBE JUMP JUMPDEST PUSH2 0x2D2B PUSH1 0x40 DUP4 ADD DUP5 PUSH2 0x1FBE JUMP JUMPDEST SWAP5 SWAP4 POP POP POP POP JUMP JUMPDEST PUSH0 PUSH1 0x60 DUP3 ADD SWAP1 POP PUSH2 0x2D46 PUSH0 DUP4 ADD DUP7 PUSH2 0x226C JUMP JUMPDEST PUSH2 0x2D53 PUSH1 0x20 DUP4 ADD DUP6 PUSH2 0x226C JUMP JUMPDEST PUSH2 0x2D60 PUSH1 0x40 DUP4 ADD DUP5 PUSH2 0x1FBE JUMP JUMPDEST SWAP5 SWAP4 POP POP POP POP JUMP JUMPDEST PUSH0 PUSH1 0x40 DUP3 ADD SWAP1 POP PUSH2 0x2D7B PUSH0 DUP4 ADD DUP6 PUSH2 0x226C JUMP JUMPDEST PUSH2 0x2D88 PUSH1 0x20 DUP4 ADD DUP5 PUSH2 0x1FBE JUMP JUMPDEST SWAP4 SWAP3 POP POP POP JUMP INVALID LOG2 PUSH5 0x6970667358 0x22 SLT KECCAK256 0xE2 0xF6 0xCF 0xEF PUSH12 0xD258567900AB53AA842DB56C 0xEF 0xE0 SWAP8 PUSH12 0x991D7F62BB424F4E82FEDD64 PUSH20 0x6F6C634300081A00330000000000000000000000 "
				},
				"gasEstimates": {
					"creation": {
						"codeDepositCost": "2343400",
						"executionCost": "infinite",
						"totalCost": "infinite"
					},
					"external": {
						"acceptLoan(uint256)": "infinite",
						"allowance(address,address)": "infinite",
						"approve(address,uint256)": "infinite",
						"balanceOf(address)": "2874",
						"cancelLoan(uint256)": "infinite",
						"checkDefault(uint256)": "infinite",
						"decimals()": "464",
						"isNFTBurned(uint256)": "infinite",
						"issueLoan(address,uint256,uint256,string)": "infinite",
						"kycVerified(address)": "2900",
						"loans(uint256)": "infinite",
						"name()": "infinite",
						"nextLoanId()": "2558",
						"nextTokenId()": "2514",
						"owner()": "2538",
						"renounceOwnership()": "infinite",
						"repayLoan(uint256)": "infinite",
						"symbol()": "infinite",
						"timeUntilDue(uint256)": "infinite",
						"totalSupply()": "2500",
						"transfer(address,uint256)": "infinite",
						"transferFrom(address,address,uint256)": "infinite",
						"transferOwnership(address)": "infinite",
						"verifyKYC(address)": "infinite"
					},
					"internal": {
						"_safeTransfer(address,uint256)": "infinite",
						"_safeTransferFrom(address,address,uint256)": "infinite",
						"burnNFT(uint256)": "infinite"
					}
				},
				"methodIdentifiers": {
					"acceptLoan(uint256)": "adfbe22f",
					"allowance(address,address)": "dd62ed3e",
					"approve(address,uint256)": "095ea7b3",
					"balanceOf(address)": "70a08231",
					"cancelLoan(uint256)": "bdbfa3de",
					"checkDefault(uint256)": "759135a1",
					"decimals()": "313ce567",
					"isNFTBurned(uint256)": "c2fdbdad",
					"issueLoan(address,uint256,uint256,string)": "1a2ff598",
					"kycVerified(address)": "a5410a66",
					"loans(uint256)": "e1ec3c68",
					"name()": "06fdde03",
					"nextLoanId()": "87c51459",
					"nextTokenId()": "75794a3c",
					"owner()": "8da5cb5b",
					"renounceOwnership()": "715018a6",
					"repayLoan(uint256)": "ab7b1c89",
					"symbol()": "95d89b41",
					"timeUntilDue(uint256)": "a6f5b3b3",
					"totalSupply()": "18160ddd",
					"transfer(address,uint256)": "a9059cbb",
					"transferFrom(address,address,uint256)": "23b872dd",
					"transferOwnership(address)": "f2fde38b",
					"verifyKYC(address)": "38d16011"
				}
			},
			"storageLayout": {
				"storage": [
					{
						"astId": 397,
						"contract": "main.sol:CreditToken",
						"label": "_balances",
						"offset": 0,
						"slot": "0",
						"type": "t_mapping(t_address,t_uint256)"
					},
					{
						"astId": 403,
						"contract": "main.sol:CreditToken",
						"label": "_allowances",
						"offset": 0,
						"slot": "1",
						"type": "t_mapping(t_address,t_mapping(t_address,t_uint256))"
					},
					{
						"astId": 405,
						"contract": "main.sol:CreditToken",
						"label": "_totalSupply",
						"offset": 0,
						"slot": "2",
						"type": "t_uint256"
					},
					{
						"astId": 407,
						"contract": "main.sol:CreditToken",
						"label": "_name",
						"offset": 0,
						"slot": "3",
						"type": "t_string_storage"
					},
					{
						"astId": 409,
						"contract": "main.sol:CreditToken",
						"label": "_symbol",
						"offset": 0,
						"slot": "4",
						"type": "t_string_storage"
					},
					{
						"astId": 8,
						"contract": "main.sol:CreditToken",
						"label": "_owner",
						"offset": 0,
						"slot": "5",
						"type": "t_address"
					},
					{
						"astId": 1460,
						"contract": "main.sol:CreditToken",
						"label": "nextTokenId",
						"offset": 0,
						"slot": "6",
						"type": "t_uint256"
					},
					{
						"astId": 1490,
						"contract": "main.sol:CreditToken",
						"label": "loans",
						"offset": 0,
						"slot": "7",
						"type": "t_mapping(t_uint256,t_struct(Loan)1485_storage)"
					},
					{
						"astId": 1494,
						"contract": "main.sol:CreditToken",
						"label": "kycVerified",
						"offset": 0,
						"slot": "8",
						"type": "t_mapping(t_address,t_bool)"
					},
					{
						"astId": 1497,
						"contract": "main.sol:CreditToken",
						"label": "nextLoanId",
						"offset": 0,
						"slot": "9",
						"type": "t_uint256"
					}
				],
				"types": {
					"t_address": {
						"encoding": "inplace",
						"label": "address",
						"numberOfBytes": "20"
					},
					"t_bool": {
						"encoding": "inplace",
						"label": "bool",
						"numberOfBytes": "1"
					},
					"t_mapping(t_address,t_bool)": {
						"encoding": "mapping",
						"key": "t_address",
						"label": "mapping(address => bool)",
						"numberOfBytes": "32",
						"value": "t_bool"
					},
					"t_mapping(t_address,t_mapping(t_address,t_uint256))": {
						"encoding": "mapping",
						"key": "t_address",
						"label": "mapping(address => mapping(address => uint256))",
						"numberOfBytes": "32",
						"value": "t_mapping(t_address,t_uint256)"
					},
					"t_mapping(t_address,t_uint256)": {
						"encoding": "mapping",
						"key": "t_address",
						"label": "mapping(address => uint256)",
						"numberOfBytes": "32",
						"value": "t_uint256"
					},
					"t_mapping(t_uint256,t_struct(Loan)1485_storage)": {
						"encoding": "mapping",
						"key": "t_uint256",
						"label": "mapping(uint256 => struct CreditToken.Loan)",
						"numberOfBytes": "32",
						"value": "t_struct(Loan)1485_storage"
					},
					"t_string_storage": {
						"encoding": "bytes",
						"label": "string",
						"numberOfBytes": "32"
					},
					"t_struct(Loan)1485_storage": {
						"encoding": "inplace",
						"label": "struct CreditToken.Loan",
						"members": [
							{
								"astId": 1462,
								"contract": "main.sol:CreditToken",
								"label": "borrower",
								"offset": 0,
								"slot": "0",
								"type": "t_address"
							},
							{
								"astId": 1464,
								"contract": "main.sol:CreditToken",
								"label": "lender",
								"offset": 0,
								"slot": "1",
								"type": "t_address"
							},
							{
								"astId": 1466,
								"contract": "main.sol:CreditToken",
								"label": "amount",
								"offset": 0,
								"slot": "2",
								"type": "t_uint256"
							},
							{
								"astId": 1468,
								"contract": "main.sol:CreditToken",
								"label": "interestAmount",
								"offset": 0,
								"slot": "3",
								"type": "t_uint256"
							},
							{
								"astId": 1470,
								"contract": "main.sol:CreditToken",
								"label": "loanDuration",
								"offset": 0,
								"slot": "4",
								"type": "t_uint256"
							},
							{
								"astId": 1472,
								"contract": "main.sol:CreditToken",
								"label": "dueDate",
								"offset": 0,
								"slot": "5",
								"type": "t_uint256"
							},
							{
								"astId": 1474,
								"contract": "main.sol:CreditToken",
								"label": "repaid",
								"offset": 0,
								"slot": "6",
								"type": "t_bool"
							},
							{
								"astId": 1476,
								"contract": "main.sol:CreditToken",
								"label": "accepted",
								"offset": 1,
								"slot": "6",
								"type": "t_bool"
							},
							{
								"astId": 1478,
								"contract": "main.sol:CreditToken",
								"label": "canceled",
								"offset": 2,
								"slot": "6",
								"type": "t_bool"
							},
							{
								"astId": 1480,
								"contract": "main.sol:CreditToken",
								"label": "nftTokenId",
								"offset": 0,
								"slot": "7",
								"type": "t_uint256"
							},
							{
								"astId": 1482,
								"contract": "main.sol:CreditToken",
								"label": "isNFTBurned",
								"offset": 0,
								"slot": "8",
								"type": "t_bool"
							},
							{
								"astId": 1484,
								"contract": "main.sol:CreditToken",
								"label": "terms",
								"offset": 0,
								"slot": "9",
								"type": "t_string_storage"
							}
						],
						"numberOfBytes": "320"
					},
					"t_uint256": {
						"encoding": "inplace",
						"label": "uint256",
						"numberOfBytes": "32"
					}
				}
			},
			"userdoc": {
				"kind": "user",
				"methods": {},
				"version": 1
			}
		}
	}
}